{
	"contracts/Tournament.sol": {
		"Tournament": {
			"abi": [
				{
					"inputs": [],
					"stateMutability": "nonpayable",
					"type": "constructor"
				},
				{
					"anonymous": false,
					"inputs": [
						{
							"indexed": true,
							"internalType": "uint256",
							"name": "tournamentId",
							"type": "uint256"
						},
						{
							"indexed": false,
							"internalType": "uint256",
							"name": "numMatches",
							"type": "uint256"
						},
						{
							"indexed": false,
							"internalType": "uint256",
							"name": "numTeams",
							"type": "uint256"
						}
					],
					"name": "DebugRewardDistribution",
					"type": "event"
				},
				{
					"anonymous": false,
					"inputs": [
						{
							"indexed": true,
							"internalType": "uint256",
							"name": "tournamentId",
							"type": "uint256"
						},
						{
							"indexed": false,
							"internalType": "uint256",
							"name": "matchIndex",
							"type": "uint256"
						},
						{
							"indexed": false,
							"internalType": "address",
							"name": "winner",
							"type": "address"
						}
					],
					"name": "MatchCompleted",
					"type": "event"
				},
				{
					"anonymous": false,
					"inputs": [
						{
							"indexed": true,
							"internalType": "uint256",
							"name": "tournamentId",
							"type": "uint256"
						},
						{
							"indexed": false,
							"internalType": "address[]",
							"name": "teams",
							"type": "address[]"
						}
					],
					"name": "TournamentCreated",
					"type": "event"
				},
				{
					"inputs": [
						{
							"internalType": "uint256",
							"name": "_tournamentId",
							"type": "uint256"
						},
						{
							"internalType": "uint256",
							"name": "_matchIndex",
							"type": "uint256"
						},
						{
							"internalType": "address",
							"name": "_winner",
							"type": "address"
						}
					],
					"name": "completeMatch",
					"outputs": [],
					"stateMutability": "nonpayable",
					"type": "function"
				},
				{
					"inputs": [
						{
							"internalType": "uint256",
							"name": "_tournamentId",
							"type": "uint256"
						},
						{
							"internalType": "address[]",
							"name": "_teams",
							"type": "address[]"
						}
					],
					"name": "createTournament",
					"outputs": [],
					"stateMutability": "nonpayable",
					"type": "function"
				},
				{
					"inputs": [],
					"name": "currentMatchIndex",
					"outputs": [
						{
							"internalType": "uint256",
							"name": "",
							"type": "uint256"
						}
					],
					"stateMutability": "view",
					"type": "function"
				},
				{
					"inputs": [
						{
							"internalType": "uint256",
							"name": "_tournamentId",
							"type": "uint256"
						}
					],
					"name": "distributeRewards",
					"outputs": [],
					"stateMutability": "nonpayable",
					"type": "function"
				},
				{
					"inputs": [
						{
							"internalType": "uint256",
							"name": "_tournamentId",
							"type": "uint256"
						}
					],
					"name": "getTournamentMatches",
					"outputs": [
						{
							"components": [
								{
									"internalType": "address",
									"name": "team1",
									"type": "address"
								},
								{
									"internalType": "address",
									"name": "team2",
									"type": "address"
								},
								{
									"internalType": "address",
									"name": "winner",
									"type": "address"
								},
								{
									"internalType": "enum Tournament.MatchStatus",
									"name": "status",
									"type": "uint8"
								}
							],
							"internalType": "struct Tournament.Match[]",
							"name": "",
							"type": "tuple[]"
						}
					],
					"stateMutability": "view",
					"type": "function"
				},
				{
					"inputs": [
						{
							"internalType": "uint256",
							"name": "_tournamentId",
							"type": "uint256"
						}
					],
					"name": "getTournamentTeams",
					"outputs": [
						{
							"internalType": "address[]",
							"name": "",
							"type": "address[]"
						}
					],
					"stateMutability": "view",
					"type": "function"
				},
				{
					"inputs": [],
					"name": "owner",
					"outputs": [
						{
							"internalType": "address",
							"name": "",
							"type": "address"
						}
					],
					"stateMutability": "view",
					"type": "function"
				},
				{
					"inputs": [],
					"name": "rewardPool",
					"outputs": [
						{
							"internalType": "uint256",
							"name": "",
							"type": "uint256"
						}
					],
					"stateMutability": "view",
					"type": "function"
				},
				{
					"inputs": [
						{
							"internalType": "uint256",
							"name": "_tournamentId",
							"type": "uint256"
						}
					],
					"name": "startTournament",
					"outputs": [],
					"stateMutability": "nonpayable",
					"type": "function"
				}
			],
			"devdoc": {
				"kind": "dev",
				"methods": {},
				"version": 1
			},
			"evm": {
				"assembly": "    /* \"contracts/Tournament.sol\":60:5789  contract Tournament {... */\n  mstore(0x40, 0x80)\n    /* \"contracts/Tournament.sol\":1798:1849  constructor() {... */\n  callvalue\n  dup1\n  iszero\n  tag_1\n  jumpi\n  0x00\n  dup1\n  revert\ntag_1:\n  pop\n    /* \"contracts/Tournament.sol\":1831:1841  msg.sender */\n  caller\n    /* \"contracts/Tournament.sol\":1823:1828  owner */\n  0x00\n  dup1\n    /* \"contracts/Tournament.sol\":1823:1841  owner = msg.sender */\n  0x0100\n  exp\n  dup2\n  sload\n  dup2\n  0xffffffffffffffffffffffffffffffffffffffff\n  mul\n  not\n  and\n  swap1\n  dup4\n  0xffffffffffffffffffffffffffffffffffffffff\n  and\n  mul\n  or\n  swap1\n  sstore\n  pop\n    /* \"contracts/Tournament.sol\":60:5789  contract Tournament {... */\n  dataSize(sub_0)\n  dup1\n  dataOffset(sub_0)\n  0x00\n  codecopy\n  0x00\n  return\nstop\n\nsub_0: assembly {\n        /* \"contracts/Tournament.sol\":60:5789  contract Tournament {... */\n      mstore(0x40, 0x80)\n      callvalue\n      dup1\n      iszero\n      tag_1\n      jumpi\n      0x00\n      dup1\n      revert\n    tag_1:\n      pop\n      jumpi(tag_2, lt(calldatasize, 0x04))\n      shr(0xe0, calldataload(0x00))\n      dup1\n      0x6f4cf972\n      gt\n      tag_12\n      jumpi\n      dup1\n      0x6f4cf972\n      eq\n      tag_7\n      jumpi\n      dup1\n      0x87c2825f\n      eq\n      tag_8\n      jumpi\n      dup1\n      0x8da5cb5b\n      eq\n      tag_9\n      jumpi\n      dup1\n      0xbe5973d6\n      eq\n      tag_10\n      jumpi\n      dup1\n      0xd8c57e85\n      eq\n      tag_11\n      jumpi\n      jump(tag_2)\n    tag_12:\n      dup1\n      0x566378cc\n      eq\n      tag_3\n      jumpi\n      dup1\n      0x59974e38\n      eq\n      tag_4\n      jumpi\n      dup1\n      0x651ea943\n      eq\n      tag_5\n      jumpi\n      dup1\n      0x66666aa9\n      eq\n      tag_6\n      jumpi\n    tag_2:\n      0x00\n      dup1\n      revert\n        /* \"contracts/Tournament.sol\":1713:1745  uint256 public currentMatchIndex */\n    tag_3:\n      tag_13\n      tag_14\n      jump\t// in\n    tag_13:\n      mload(0x40)\n      tag_15\n      swap2\n      swap1\n      tag_16\n      jump\t// in\n    tag_15:\n      mload(0x40)\n      dup1\n      swap2\n      sub\n      swap1\n      return\n        /* \"contracts/Tournament.sol\":4744:5784  function distributeRewards(uint256 _tournamentId) external onlyOwner tournamentExists(_tournamentId) {... */\n    tag_4:\n      tag_17\n      0x04\n      dup1\n      calldatasize\n      sub\n      dup2\n      add\n      swap1\n      tag_18\n      swap2\n      swap1\n      tag_19\n      jump\t// in\n    tag_18:\n      tag_20\n      jump\t// in\n    tag_17:\n      stop\n        /* \"contracts/Tournament.sol\":2857:3671  function startTournament(uint256 _tournamentId) external onlyOwner tournamentExists(_tournamentId) {... */\n    tag_5:\n      tag_21\n      0x04\n      dup1\n      calldatasize\n      sub\n      dup2\n      add\n      swap1\n      tag_22\n      swap2\n      swap1\n      tag_19\n      jump\t// in\n    tag_22:\n      tag_23\n      jump\t// in\n    tag_21:\n      stop\n        /* \"contracts/Tournament.sol\":165:190  uint256 public rewardPool */\n    tag_6:\n      tag_24\n      tag_25\n      jump\t// in\n    tag_24:\n      mload(0x40)\n      tag_26\n      swap2\n      swap1\n      tag_16\n      jump\t// in\n    tag_26:\n      mload(0x40)\n      dup1\n      swap2\n      sub\n      swap1\n      return\n        /* \"contracts/Tournament.sol\":3753:4553  function completeMatch(uint256 _tournamentId, uint256 _matchIndex, address _winner) external onlyOwner tournamentExists(_tournamentId) {... */\n    tag_7:\n      tag_27\n      0x04\n      dup1\n      calldatasize\n      sub\n      dup2\n      add\n      swap1\n      tag_28\n      swap2\n      swap1\n      tag_29\n      jump\t// in\n    tag_28:\n      tag_30\n      jump\t// in\n    tag_27:\n      stop\n        /* \"contracts/Tournament.sol\":1926:2076  function getTournamentTeams(uint256 _tournamentId) external view returns (address[] memory) {... */\n    tag_8:\n      tag_31\n      0x04\n      dup1\n      calldatasize\n      sub\n      dup2\n      add\n      swap1\n      tag_32\n      swap2\n      swap1\n      tag_19\n      jump\t// in\n    tag_32:\n      tag_33\n      jump\t// in\n    tag_31:\n      mload(0x40)\n      tag_34\n      swap2\n      swap1\n      tag_35\n      jump\t// in\n    tag_34:\n      mload(0x40)\n      dup1\n      swap2\n      sub\n      swap1\n      return\n        /* \"contracts/Tournament.sol\":110:130  address public owner */\n    tag_9:\n      tag_36\n      tag_37\n      jump\t// in\n    tag_36:\n      mload(0x40)\n      tag_38\n      swap2\n      swap1\n      tag_39\n      jump\t// in\n    tag_38:\n      mload(0x40)\n      dup1\n      swap2\n      sub\n      swap1\n      return\n        /* \"contracts/Tournament.sol\":2373:2781  function createTournament(uint256 _tournamentId, address[] memory _teams) external onlyOwner tournamentNotStarted(_tournamentId) {... */\n    tag_10:\n      tag_40\n      0x04\n      dup1\n      calldatasize\n      sub\n      dup2\n      add\n      swap1\n      tag_41\n      swap2\n      swap1\n      tag_42\n      jump\t// in\n    tag_41:\n      tag_43\n      jump\t// in\n    tag_40:\n      stop\n        /* \"contracts/Tournament.sol\":2141:2293  function getTournamentMatches(uint256 _tournamentId) external view returns (Match[] memory) {... */\n    tag_11:\n      tag_44\n      0x04\n      dup1\n      calldatasize\n      sub\n      dup2\n      add\n      swap1\n      tag_45\n      swap2\n      swap1\n      tag_19\n      jump\t// in\n    tag_45:\n      tag_46\n      jump\t// in\n    tag_44:\n      mload(0x40)\n      tag_47\n      swap2\n      swap1\n      tag_48\n      jump\t// in\n    tag_47:\n      mload(0x40)\n      dup1\n      swap2\n      sub\n      swap1\n      return\n        /* \"contracts/Tournament.sol\":1713:1745  uint256 public currentMatchIndex */\n    tag_14:\n      sload(0x03)\n      dup2\n      jump\t// out\n        /* \"contracts/Tournament.sol\":4744:5784  function distributeRewards(uint256 _tournamentId) external onlyOwner tournamentExists(_tournamentId) {... */\n    tag_20:\n        /* \"contracts/Tournament.sol\":1141:1146  owner */\n      0x00\n      dup1\n      sload\n      swap1\n      0x0100\n      exp\n      swap1\n      div\n      0xffffffffffffffffffffffffffffffffffffffff\n      and\n        /* \"contracts/Tournament.sol\":1127:1146  msg.sender == owner */\n      0xffffffffffffffffffffffffffffffffffffffff\n      and\n        /* \"contracts/Tournament.sol\":1127:1137  msg.sender */\n      caller\n        /* \"contracts/Tournament.sol\":1127:1146  msg.sender == owner */\n      0xffffffffffffffffffffffffffffffffffffffff\n      and\n      eq\n        /* \"contracts/Tournament.sol\":1119:1184  require(msg.sender == owner, \"Only owner can call this function\") */\n      tag_50\n      jumpi\n      mload(0x40)\n      0x08c379a000000000000000000000000000000000000000000000000000000000\n      dup2\n      mstore\n      0x04\n      add\n      tag_51\n      swap1\n      tag_52\n      jump\t// in\n    tag_51:\n      mload(0x40)\n      dup1\n      swap2\n      sub\n      swap1\n      revert\n    tag_50:\n        /* \"contracts/Tournament.sol\":4830:4843  _tournamentId */\n      dup1\n        /* \"contracts/Tournament.sol\":1392:1393  0 */\n      0x00\n        /* \"contracts/Tournament.sol\":1350:1361  tournaments */\n      0x02\n        /* \"contracts/Tournament.sol\":1350:1376  tournaments[_tournamentId] */\n      0x00\n        /* \"contracts/Tournament.sol\":1362:1375  _tournamentId */\n      dup4\n        /* \"contracts/Tournament.sol\":1350:1376  tournaments[_tournamentId] */\n      dup2\n      mstore\n      0x20\n      add\n      swap1\n      dup2\n      mstore\n      0x20\n      add\n      0x00\n      keccak256\n        /* \"contracts/Tournament.sol\":1350:1382  tournaments[_tournamentId].teams */\n      0x01\n      add\n        /* \"contracts/Tournament.sol\":1350:1389  tournaments[_tournamentId].teams.length */\n      dup1\n      sload\n      swap1\n      pop\n        /* \"contracts/Tournament.sol\":1350:1393  tournaments[_tournamentId].teams.length > 0 */\n      gt\n        /* \"contracts/Tournament.sol\":1342:1423  require(tournaments[_tournamentId].teams.length > 0, \"Tournament does not exist\") */\n      tag_54\n      jumpi\n      mload(0x40)\n      0x08c379a000000000000000000000000000000000000000000000000000000000\n      dup2\n      mstore\n      0x04\n      add\n      tag_55\n      swap1\n      tag_56\n      jump\t// in\n    tag_55:\n      mload(0x40)\n      dup1\n      swap2\n      sub\n      swap1\n      revert\n    tag_54:\n        /* \"contracts/Tournament.sol\":4856:4889  TournamentInfo storage tournament */\n      0x00\n        /* \"contracts/Tournament.sol\":4892:4903  tournaments */\n      0x02\n        /* \"contracts/Tournament.sol\":4892:4918  tournaments[_tournamentId] */\n      0x00\n        /* \"contracts/Tournament.sol\":4904:4917  _tournamentId */\n      dup5\n        /* \"contracts/Tournament.sol\":4892:4918  tournaments[_tournamentId] */\n      dup2\n      mstore\n      0x20\n      add\n      swap1\n      dup2\n      mstore\n      0x20\n      add\n      0x00\n      keccak256\n        /* \"contracts/Tournament.sol\":4856:4918  TournamentInfo storage tournament = tournaments[_tournamentId] */\n      swap1\n      pop\n        /* \"contracts/Tournament.sol\":4992:4993  1 */\n      0x01\n        /* \"contracts/Tournament.sol\":4966:4976  tournament */\n      dup2\n        /* \"contracts/Tournament.sol\":4966:4982  tournament.teams */\n      0x01\n      add\n        /* \"contracts/Tournament.sol\":4966:4989  tournament.teams.length */\n      dup1\n      sload\n      swap1\n      pop\n        /* \"contracts/Tournament.sol\":4966:4993  tournament.teams.length - 1 */\n      tag_58\n      swap2\n      swap1\n      tag_59\n      jump\t// in\n    tag_58:\n        /* \"contracts/Tournament.sol\":4937:4947  tournament */\n      dup2\n        /* \"contracts/Tournament.sol\":4937:4955  tournament.matches */\n      0x00\n      add\n        /* \"contracts/Tournament.sol\":4937:4962  tournament.matches.length */\n      dup1\n      sload\n      swap1\n      pop\n        /* \"contracts/Tournament.sol\":4937:4993  tournament.matches.length == tournament.teams.length - 1 */\n      eq\n        /* \"contracts/Tournament.sol\":4929:5021  require(tournament.matches.length == tournament.teams.length - 1, \"Tournament not finished\") */\n      tag_60\n      jumpi\n      mload(0x40)\n      0x08c379a000000000000000000000000000000000000000000000000000000000\n      dup2\n      mstore\n      0x04\n      add\n      tag_61\n      swap1\n      tag_62\n      jump\t// in\n    tag_61:\n      mload(0x40)\n      dup1\n      swap2\n      sub\n      swap1\n      revert\n    tag_60:\n        /* \"contracts/Tournament.sol\":5085:5109  uint256 firstPlaceReward */\n      0x00\n        /* \"contracts/Tournament.sol\":5132:5135  100 */\n      0x64\n        /* \"contracts/Tournament.sol\":5126:5128  50 */\n      0x32\n        /* \"contracts/Tournament.sol\":5113:5123  rewardPool */\n      sload(0x01)\n        /* \"contracts/Tournament.sol\":5113:5128  rewardPool * 50 */\n      tag_63\n      swap2\n      swap1\n      tag_64\n      jump\t// in\n    tag_63:\n        /* \"contracts/Tournament.sol\":5112:5135  (rewardPool * 50) / 100 */\n      tag_65\n      swap2\n      swap1\n      tag_66\n      jump\t// in\n    tag_65:\n        /* \"contracts/Tournament.sol\":5085:5135  uint256 firstPlaceReward = (rewardPool * 50) / 100 */\n      swap1\n      pop\n        /* \"contracts/Tournament.sol\":5146:5171  uint256 secondPlaceReward */\n      0x00\n        /* \"contracts/Tournament.sol\":5194:5197  100 */\n      0x64\n        /* \"contracts/Tournament.sol\":5188:5190  30 */\n      0x1e\n        /* \"contracts/Tournament.sol\":5175:5185  rewardPool */\n      sload(0x01)\n        /* \"contracts/Tournament.sol\":5175:5190  rewardPool * 30 */\n      tag_67\n      swap2\n      swap1\n      tag_64\n      jump\t// in\n    tag_67:\n        /* \"contracts/Tournament.sol\":5174:5197  (rewardPool * 30) / 100 */\n      tag_68\n      swap2\n      swap1\n      tag_66\n      jump\t// in\n    tag_68:\n        /* \"contracts/Tournament.sol\":5146:5197  uint256 secondPlaceReward = (rewardPool * 30) / 100 */\n      swap1\n      pop\n        /* \"contracts/Tournament.sol\":5208:5232  uint256 thirdPlaceReward */\n      0x00\n        /* \"contracts/Tournament.sol\":5255:5258  100 */\n      0x64\n        /* \"contracts/Tournament.sol\":5249:5251  10 */\n      0x0a\n        /* \"contracts/Tournament.sol\":5236:5246  rewardPool */\n      sload(0x01)\n        /* \"contracts/Tournament.sol\":5236:5251  rewardPool * 10 */\n      tag_69\n      swap2\n      swap1\n      tag_64\n      jump\t// in\n    tag_69:\n        /* \"contracts/Tournament.sol\":5235:5258  (rewardPool * 10) / 100 */\n      tag_70\n      swap2\n      swap1\n      tag_66\n      jump\t// in\n    tag_70:\n        /* \"contracts/Tournament.sol\":5208:5258  uint256 thirdPlaceReward = (rewardPool * 10) / 100 */\n      swap1\n      pop\n        /* \"contracts/Tournament.sol\":5269:5294  uint256 fourthPlaceReward */\n      0x00\n        /* \"contracts/Tournament.sol\":5317:5320  100 */\n      0x64\n        /* \"contracts/Tournament.sol\":5311:5313  10 */\n      0x0a\n        /* \"contracts/Tournament.sol\":5298:5308  rewardPool */\n      sload(0x01)\n        /* \"contracts/Tournament.sol\":5298:5313  rewardPool * 10 */\n      tag_71\n      swap2\n      swap1\n      tag_64\n      jump\t// in\n    tag_71:\n        /* \"contracts/Tournament.sol\":5297:5320  (rewardPool * 10) / 100 */\n      tag_72\n      swap2\n      swap1\n      tag_66\n      jump\t// in\n    tag_72:\n        /* \"contracts/Tournament.sol\":5269:5320  uint256 fourthPlaceReward = (rewardPool * 10) / 100 */\n      swap1\n      pop\n        /* \"contracts/Tournament.sol\":5381:5391  tournament */\n      dup5\n        /* \"contracts/Tournament.sol\":5381:5399  tournament.matches */\n      0x00\n      add\n        /* \"contracts/Tournament.sol\":5428:5429  1 */\n      0x01\n        /* \"contracts/Tournament.sol\":5400:5410  tournament */\n      dup7\n        /* \"contracts/Tournament.sol\":5400:5418  tournament.matches */\n      0x00\n      add\n        /* \"contracts/Tournament.sol\":5400:5425  tournament.matches.length */\n      dup1\n      sload\n      swap1\n      pop\n        /* \"contracts/Tournament.sol\":5400:5429  tournament.matches.length - 1 */\n      tag_73\n      swap2\n      swap1\n      tag_59\n      jump\t// in\n    tag_73:\n        /* \"contracts/Tournament.sol\":5381:5430  tournament.matches[tournament.matches.length - 1] */\n      dup2\n      sload\n      dup2\n      lt\n      tag_74\n      jumpi\n      tag_75\n      tag_76\n      jump\t// in\n    tag_75:\n    tag_74:\n      swap1\n      0x00\n      mstore\n      keccak256(0x00, 0x20)\n      swap1\n      0x03\n      mul\n      add\n        /* \"contracts/Tournament.sol\":5381:5437  tournament.matches[tournament.matches.length - 1].winner */\n      0x02\n      add\n      0x00\n      swap1\n      sload\n      swap1\n      0x0100\n      exp\n      swap1\n      div\n      0xffffffffffffffffffffffffffffffffffffffff\n      and\n        /* \"contracts/Tournament.sol\":5373:5447  payable(tournament.matches[tournament.matches.length - 1].winner).transfer */\n      0xffffffffffffffffffffffffffffffffffffffff\n      and\n        /* \"contracts/Tournament.sol\":5373:5465  payable(tournament.matches[tournament.matches.length - 1].winner).transfer(firstPlaceReward) */\n      0x08fc\n        /* \"contracts/Tournament.sol\":5448:5464  firstPlaceReward */\n      dup6\n        /* \"contracts/Tournament.sol\":5373:5465  payable(tournament.matches[tournament.matches.length - 1].winner).transfer(firstPlaceReward) */\n      swap1\n      dup2\n      iszero\n      mul\n      swap1\n      mload(0x40)\n      0x00\n      mload(0x40)\n      dup1\n      dup4\n      sub\n      dup2\n      dup6\n      dup9\n      dup9\n      call\n      swap4\n      pop\n      pop\n      pop\n      pop\n      iszero\n      dup1\n      iszero\n      tag_79\n      jumpi\n      returndatasize\n      0x00\n      dup1\n      returndatacopy\n      revert(0x00, returndatasize)\n    tag_79:\n      pop\n        /* \"contracts/Tournament.sol\":5484:5494  tournament */\n      dup5\n        /* \"contracts/Tournament.sol\":5484:5502  tournament.matches */\n      0x00\n      add\n        /* \"contracts/Tournament.sol\":5531:5532  2 */\n      0x02\n        /* \"contracts/Tournament.sol\":5503:5513  tournament */\n      dup7\n        /* \"contracts/Tournament.sol\":5503:5521  tournament.matches */\n      0x00\n      add\n        /* \"contracts/Tournament.sol\":5503:5528  tournament.matches.length */\n      dup1\n      sload\n      swap1\n      pop\n        /* \"contracts/Tournament.sol\":5503:5532  tournament.matches.length - 2 */\n      tag_80\n      swap2\n      swap1\n      tag_59\n      jump\t// in\n    tag_80:\n        /* \"contracts/Tournament.sol\":5484:5533  tournament.matches[tournament.matches.length - 2] */\n      dup2\n      sload\n      dup2\n      lt\n      tag_81\n      jumpi\n      tag_82\n      tag_76\n      jump\t// in\n    tag_82:\n    tag_81:\n      swap1\n      0x00\n      mstore\n      keccak256(0x00, 0x20)\n      swap1\n      0x03\n      mul\n      add\n        /* \"contracts/Tournament.sol\":5484:5540  tournament.matches[tournament.matches.length - 2].winner */\n      0x02\n      add\n      0x00\n      swap1\n      sload\n      swap1\n      0x0100\n      exp\n      swap1\n      div\n      0xffffffffffffffffffffffffffffffffffffffff\n      and\n        /* \"contracts/Tournament.sol\":5476:5550  payable(tournament.matches[tournament.matches.length - 2].winner).transfer */\n      0xffffffffffffffffffffffffffffffffffffffff\n      and\n        /* \"contracts/Tournament.sol\":5476:5569  payable(tournament.matches[tournament.matches.length - 2].winner).transfer(secondPlaceReward) */\n      0x08fc\n        /* \"contracts/Tournament.sol\":5551:5568  secondPlaceReward */\n      dup5\n        /* \"contracts/Tournament.sol\":5476:5569  payable(tournament.matches[tournament.matches.length - 2].winner).transfer(secondPlaceReward) */\n      swap1\n      dup2\n      iszero\n      mul\n      swap1\n      mload(0x40)\n      0x00\n      mload(0x40)\n      dup1\n      dup4\n      sub\n      dup2\n      dup6\n      dup9\n      dup9\n      call\n      swap4\n      pop\n      pop\n      pop\n      pop\n      iszero\n      dup1\n      iszero\n      tag_85\n      jumpi\n      returndatasize\n      0x00\n      dup1\n      returndatacopy\n      revert(0x00, returndatasize)\n    tag_85:\n      pop\n        /* \"contracts/Tournament.sol\":5588:5598  tournament */\n      dup5\n        /* \"contracts/Tournament.sol\":5588:5606  tournament.matches */\n      0x00\n      add\n        /* \"contracts/Tournament.sol\":5635:5636  3 */\n      0x03\n        /* \"contracts/Tournament.sol\":5607:5617  tournament */\n      dup7\n        /* \"contracts/Tournament.sol\":5607:5625  tournament.matches */\n      0x00\n      add\n        /* \"contracts/Tournament.sol\":5607:5632  tournament.matches.length */\n      dup1\n      sload\n      swap1\n      pop\n        /* \"contracts/Tournament.sol\":5607:5636  tournament.matches.length - 3 */\n      tag_86\n      swap2\n      swap1\n      tag_59\n      jump\t// in\n    tag_86:\n        /* \"contracts/Tournament.sol\":5588:5637  tournament.matches[tournament.matches.length - 3] */\n      dup2\n      sload\n      dup2\n      lt\n      tag_87\n      jumpi\n      tag_88\n      tag_76\n      jump\t// in\n    tag_88:\n    tag_87:\n      swap1\n      0x00\n      mstore\n      keccak256(0x00, 0x20)\n      swap1\n      0x03\n      mul\n      add\n        /* \"contracts/Tournament.sol\":5588:5644  tournament.matches[tournament.matches.length - 3].winner */\n      0x02\n      add\n      0x00\n      swap1\n      sload\n      swap1\n      0x0100\n      exp\n      swap1\n      div\n      0xffffffffffffffffffffffffffffffffffffffff\n      and\n        /* \"contracts/Tournament.sol\":5580:5654  payable(tournament.matches[tournament.matches.length - 3].winner).transfer */\n      0xffffffffffffffffffffffffffffffffffffffff\n      and\n        /* \"contracts/Tournament.sol\":5580:5672  payable(tournament.matches[tournament.matches.length - 3].winner).transfer(thirdPlaceReward) */\n      0x08fc\n        /* \"contracts/Tournament.sol\":5655:5671  thirdPlaceReward */\n      dup4\n        /* \"contracts/Tournament.sol\":5580:5672  payable(tournament.matches[tournament.matches.length - 3].winner).transfer(thirdPlaceReward) */\n      swap1\n      dup2\n      iszero\n      mul\n      swap1\n      mload(0x40)\n      0x00\n      mload(0x40)\n      dup1\n      dup4\n      sub\n      dup2\n      dup6\n      dup9\n      dup9\n      call\n      swap4\n      pop\n      pop\n      pop\n      pop\n      iszero\n      dup1\n      iszero\n      tag_91\n      jumpi\n      returndatasize\n      0x00\n      dup1\n      returndatacopy\n      revert(0x00, returndatasize)\n    tag_91:\n      pop\n        /* \"contracts/Tournament.sol\":5691:5701  tournament */\n      dup5\n        /* \"contracts/Tournament.sol\":5691:5709  tournament.matches */\n      0x00\n      add\n        /* \"contracts/Tournament.sol\":5738:5739  4 */\n      0x04\n        /* \"contracts/Tournament.sol\":5710:5720  tournament */\n      dup7\n        /* \"contracts/Tournament.sol\":5710:5728  tournament.matches */\n      0x00\n      add\n        /* \"contracts/Tournament.sol\":5710:5735  tournament.matches.length */\n      dup1\n      sload\n      swap1\n      pop\n        /* \"contracts/Tournament.sol\":5710:5739  tournament.matches.length - 4 */\n      tag_92\n      swap2\n      swap1\n      tag_59\n      jump\t// in\n    tag_92:\n        /* \"contracts/Tournament.sol\":5691:5740  tournament.matches[tournament.matches.length - 4] */\n      dup2\n      sload\n      dup2\n      lt\n      tag_93\n      jumpi\n      tag_94\n      tag_76\n      jump\t// in\n    tag_94:\n    tag_93:\n      swap1\n      0x00\n      mstore\n      keccak256(0x00, 0x20)\n      swap1\n      0x03\n      mul\n      add\n        /* \"contracts/Tournament.sol\":5691:5747  tournament.matches[tournament.matches.length - 4].winner */\n      0x02\n      add\n      0x00\n      swap1\n      sload\n      swap1\n      0x0100\n      exp\n      swap1\n      div\n      0xffffffffffffffffffffffffffffffffffffffff\n      and\n        /* \"contracts/Tournament.sol\":5683:5757  payable(tournament.matches[tournament.matches.length - 4].winner).transfer */\n      0xffffffffffffffffffffffffffffffffffffffff\n      and\n        /* \"contracts/Tournament.sol\":5683:5776  payable(tournament.matches[tournament.matches.length - 4].winner).transfer(fourthPlaceReward) */\n      0x08fc\n        /* \"contracts/Tournament.sol\":5758:5775  fourthPlaceReward */\n      dup3\n        /* \"contracts/Tournament.sol\":5683:5776  payable(tournament.matches[tournament.matches.length - 4].winner).transfer(fourthPlaceReward) */\n      swap1\n      dup2\n      iszero\n      mul\n      swap1\n      mload(0x40)\n      0x00\n      mload(0x40)\n      dup1\n      dup4\n      sub\n      dup2\n      dup6\n      dup9\n      dup9\n      call\n      swap4\n      pop\n      pop\n      pop\n      pop\n      iszero\n      dup1\n      iszero\n      tag_97\n      jumpi\n      returndatasize\n      0x00\n      dup1\n      returndatacopy\n      revert(0x00, returndatasize)\n    tag_97:\n      pop\n        /* \"contracts/Tournament.sol\":4845:5784  {... */\n      pop\n      pop\n      pop\n      pop\n      pop\n        /* \"contracts/Tournament.sol\":1195:1196  _ */\n      pop\n        /* \"contracts/Tournament.sol\":4744:5784  function distributeRewards(uint256 _tournamentId) external onlyOwner tournamentExists(_tournamentId) {... */\n      pop\n      jump\t// out\n        /* \"contracts/Tournament.sol\":2857:3671  function startTournament(uint256 _tournamentId) external onlyOwner tournamentExists(_tournamentId) {... */\n    tag_23:\n        /* \"contracts/Tournament.sol\":1141:1146  owner */\n      0x00\n      dup1\n      sload\n      swap1\n      0x0100\n      exp\n      swap1\n      div\n      0xffffffffffffffffffffffffffffffffffffffff\n      and\n        /* \"contracts/Tournament.sol\":1127:1146  msg.sender == owner */\n      0xffffffffffffffffffffffffffffffffffffffff\n      and\n        /* \"contracts/Tournament.sol\":1127:1137  msg.sender */\n      caller\n        /* \"contracts/Tournament.sol\":1127:1146  msg.sender == owner */\n      0xffffffffffffffffffffffffffffffffffffffff\n      and\n      eq\n        /* \"contracts/Tournament.sol\":1119:1184  require(msg.sender == owner, \"Only owner can call this function\") */\n      tag_99\n      jumpi\n      mload(0x40)\n      0x08c379a000000000000000000000000000000000000000000000000000000000\n      dup2\n      mstore\n      0x04\n      add\n      tag_100\n      swap1\n      tag_52\n      jump\t// in\n    tag_100:\n      mload(0x40)\n      dup1\n      swap2\n      sub\n      swap1\n      revert\n    tag_99:\n        /* \"contracts/Tournament.sol\":2941:2954  _tournamentId */\n      dup1\n        /* \"contracts/Tournament.sol\":1392:1393  0 */\n      0x00\n        /* \"contracts/Tournament.sol\":1350:1361  tournaments */\n      0x02\n        /* \"contracts/Tournament.sol\":1350:1376  tournaments[_tournamentId] */\n      0x00\n        /* \"contracts/Tournament.sol\":1362:1375  _tournamentId */\n      dup4\n        /* \"contracts/Tournament.sol\":1350:1376  tournaments[_tournamentId] */\n      dup2\n      mstore\n      0x20\n      add\n      swap1\n      dup2\n      mstore\n      0x20\n      add\n      0x00\n      keccak256\n        /* \"contracts/Tournament.sol\":1350:1382  tournaments[_tournamentId].teams */\n      0x01\n      add\n        /* \"contracts/Tournament.sol\":1350:1389  tournaments[_tournamentId].teams.length */\n      dup1\n      sload\n      swap1\n      pop\n        /* \"contracts/Tournament.sol\":1350:1393  tournaments[_tournamentId].teams.length > 0 */\n      gt\n        /* \"contracts/Tournament.sol\":1342:1423  require(tournaments[_tournamentId].teams.length > 0, \"Tournament does not exist\") */\n      tag_102\n      jumpi\n      mload(0x40)\n      0x08c379a000000000000000000000000000000000000000000000000000000000\n      dup2\n      mstore\n      0x04\n      add\n      tag_103\n      swap1\n      tag_56\n      jump\t// in\n    tag_103:\n      mload(0x40)\n      dup1\n      swap2\n      sub\n      swap1\n      revert\n    tag_102:\n        /* \"contracts/Tournament.sol\":2963:2996  TournamentInfo storage tournament */\n      0x00\n        /* \"contracts/Tournament.sol\":2999:3010  tournaments */\n      0x02\n        /* \"contracts/Tournament.sol\":2999:3025  tournaments[_tournamentId] */\n      0x00\n        /* \"contracts/Tournament.sol\":3011:3024  _tournamentId */\n      dup5\n        /* \"contracts/Tournament.sol\":2999:3025  tournaments[_tournamentId] */\n      dup2\n      mstore\n      0x20\n      add\n      swap1\n      dup2\n      mstore\n      0x20\n      add\n      0x00\n      keccak256\n        /* \"contracts/Tournament.sol\":2963:3025  TournamentInfo storage tournament = tournaments[_tournamentId] */\n      swap1\n      pop\n        /* \"contracts/Tournament.sol\":3032:3048  uint256 numTeams */\n      0x00\n        /* \"contracts/Tournament.sol\":3051:3061  tournament */\n      dup2\n        /* \"contracts/Tournament.sol\":3051:3067  tournament.teams */\n      0x01\n      add\n        /* \"contracts/Tournament.sol\":3051:3074  tournament.teams.length */\n      dup1\n      sload\n      swap1\n      pop\n        /* \"contracts/Tournament.sol\":3032:3074  uint256 numTeams = tournament.teams.length */\n      swap1\n      pop\n        /* \"contracts/Tournament.sol\":3107:3108  0 */\n      0x00\n        /* \"contracts/Tournament.sol\":3102:3103  2 */\n      0x02\n        /* \"contracts/Tournament.sol\":3091:3099  numTeams */\n      dup3\n        /* \"contracts/Tournament.sol\":3091:3103  numTeams % 2 */\n      tag_105\n      swap2\n      swap1\n      tag_106\n      jump\t// in\n    tag_105:\n        /* \"contracts/Tournament.sol\":3091:3108  numTeams % 2 == 0 */\n      eq\n        /* \"contracts/Tournament.sol\":3083:3141  require(numTeams % 2 == 0, \"Number of teams must be even\") */\n      tag_107\n      jumpi\n      mload(0x40)\n      0x08c379a000000000000000000000000000000000000000000000000000000000\n      dup2\n      mstore\n      0x04\n      add\n      tag_108\n      swap1\n      tag_109\n      jump\t// in\n    tag_108:\n      mload(0x40)\n      dup1\n      swap2\n      sub\n      swap1\n      revert\n    tag_107:\n        /* \"contracts/Tournament.sol\":3249:3250  1 */\n      0x01\n        /* \"contracts/Tournament.sol\":3238:3246  numTeams */\n      dup2\n        /* \"contracts/Tournament.sol\":3238:3250  numTeams - 1 */\n      tag_110\n      swap2\n      swap1\n      tag_59\n      jump\t// in\n    tag_110:\n        /* \"contracts/Tournament.sol\":3210:3220  tournament */\n      dup3\n        /* \"contracts/Tournament.sol\":3210:3228  tournament.matches */\n      0x00\n      add\n        /* \"contracts/Tournament.sol\":3210:3235  tournament.matches.length */\n      dup1\n      sload\n      swap1\n      pop\n        /* \"contracts/Tournament.sol\":3210:3250  tournament.matches.length < numTeams - 1 */\n      lt\n        /* \"contracts/Tournament.sol\":3202:3285  require(tournament.matches.length < numTeams - 1, \"Tournament has already started\") */\n      tag_111\n      jumpi\n      mload(0x40)\n      0x08c379a000000000000000000000000000000000000000000000000000000000\n      dup2\n      mstore\n      0x04\n      add\n      tag_112\n      swap1\n      tag_113\n      jump\t// in\n    tag_112:\n      mload(0x40)\n      dup1\n      swap2\n      sub\n      swap1\n      revert\n    tag_111:\n        /* \"contracts/Tournament.sol\":3299:3308  uint256 i */\n      0x00\n        /* \"contracts/Tournament.sol\":3294:3568  for (uint256 i = 0; i < numTeams / 2; i++) {... */\n    tag_114:\n        /* \"contracts/Tournament.sol\":3329:3330  2 */\n      0x02\n        /* \"contracts/Tournament.sol\":3318:3326  numTeams */\n      dup3\n        /* \"contracts/Tournament.sol\":3318:3330  numTeams / 2 */\n      tag_117\n      swap2\n      swap1\n      tag_66\n      jump\t// in\n    tag_117:\n        /* \"contracts/Tournament.sol\":3314:3315  i */\n      dup2\n        /* \"contracts/Tournament.sol\":3314:3330  i < numTeams / 2 */\n      lt\n        /* \"contracts/Tournament.sol\":3294:3568  for (uint256 i = 0; i < numTeams / 2; i++) {... */\n      iszero\n      tag_115\n      jumpi\n        /* \"contracts/Tournament.sol\":3348:3358  tournament */\n      dup3\n        /* \"contracts/Tournament.sol\":3348:3366  tournament.matches */\n      0x00\n      add\n        /* \"contracts/Tournament.sol\":3372:3559  Match({... */\n      mload(0x40)\n      dup1\n      0x80\n      add\n      0x40\n      mstore\n      dup1\n        /* \"contracts/Tournament.sol\":3400:3410  tournament */\n      dup6\n        /* \"contracts/Tournament.sol\":3400:3416  tournament.teams */\n      0x01\n      add\n        /* \"contracts/Tournament.sol\":3421:3422  2 */\n      0x02\n        /* \"contracts/Tournament.sol\":3417:3418  i */\n      dup6\n        /* \"contracts/Tournament.sol\":3417:3422  i * 2 */\n      tag_118\n      swap2\n      swap1\n      tag_64\n      jump\t// in\n    tag_118:\n        /* \"contracts/Tournament.sol\":3400:3423  tournament.teams[i * 2] */\n      dup2\n      sload\n      dup2\n      lt\n      tag_119\n      jumpi\n      tag_120\n      tag_76\n      jump\t// in\n    tag_120:\n    tag_119:\n      swap1\n      0x00\n      mstore\n      keccak256(0x00, 0x20)\n      add\n      0x00\n      swap1\n      sload\n      swap1\n      0x0100\n      exp\n      swap1\n      div\n      0xffffffffffffffffffffffffffffffffffffffff\n      and\n        /* \"contracts/Tournament.sol\":3372:3559  Match({... */\n      0xffffffffffffffffffffffffffffffffffffffff\n      and\n      dup2\n      mstore\n      0x20\n      add\n        /* \"contracts/Tournament.sol\":3445:3455  tournament */\n      dup6\n        /* \"contracts/Tournament.sol\":3445:3461  tournament.teams */\n      0x01\n      add\n        /* \"contracts/Tournament.sol\":3470:3471  1 */\n      0x01\n        /* \"contracts/Tournament.sol\":3466:3467  2 */\n      0x02\n        /* \"contracts/Tournament.sol\":3462:3463  i */\n      dup7\n        /* \"contracts/Tournament.sol\":3462:3467  i * 2 */\n      tag_122\n      swap2\n      swap1\n      tag_64\n      jump\t// in\n    tag_122:\n        /* \"contracts/Tournament.sol\":3462:3471  i * 2 + 1 */\n      tag_123\n      swap2\n      swap1\n      tag_124\n      jump\t// in\n    tag_123:\n        /* \"contracts/Tournament.sol\":3445:3472  tournament.teams[i * 2 + 1] */\n      dup2\n      sload\n      dup2\n      lt\n      tag_125\n      jumpi\n      tag_126\n      tag_76\n      jump\t// in\n    tag_126:\n    tag_125:\n      swap1\n      0x00\n      mstore\n      keccak256(0x00, 0x20)\n      add\n      0x00\n      swap1\n      sload\n      swap1\n      0x0100\n      exp\n      swap1\n      div\n      0xffffffffffffffffffffffffffffffffffffffff\n      and\n        /* \"contracts/Tournament.sol\":3372:3559  Match({... */\n      0xffffffffffffffffffffffffffffffffffffffff\n      and\n      dup2\n      mstore\n      0x20\n      add\n        /* \"contracts/Tournament.sol\":3503:3504  0 */\n      0x00\n        /* \"contracts/Tournament.sol\":3372:3559  Match({... */\n      0xffffffffffffffffffffffffffffffffffffffff\n      and\n      dup2\n      mstore\n      0x20\n      add\n        /* \"contracts/Tournament.sol\":3528:3547  MatchStatus.Pending */\n      0x00\n        /* \"contracts/Tournament.sol\":3372:3559  Match({... */\n      0x01\n      dup2\n      gt\n      iszero\n      tag_128\n      jumpi\n      tag_129\n      tag_130\n      jump\t// in\n    tag_129:\n    tag_128:\n      dup2\n      mstore\n      pop\n        /* \"contracts/Tournament.sol\":3348:3560  tournament.matches.push(Match({... */\n      swap1\n      dup1\n      0x01\n      dup2\n      sload\n      add\n      dup1\n      dup3\n      sstore\n      dup1\n      swap2\n      pop\n      pop\n      0x01\n      swap1\n      sub\n      swap1\n      0x00\n      mstore\n      keccak256(0x00, 0x20)\n      swap1\n      0x03\n      mul\n      add\n      0x00\n      swap1\n      swap2\n      swap1\n      swap2\n      swap1\n      swap2\n      pop\n      0x00\n      dup3\n      add\n      mload\n      dup2\n      0x00\n      add\n      exp(0x0100, 0x00)\n      dup2\n      sload\n      dup2\n      0xffffffffffffffffffffffffffffffffffffffff\n      mul\n      not\n      and\n      swap1\n      dup4\n      0xffffffffffffffffffffffffffffffffffffffff\n      and\n      mul\n      or\n      swap1\n      sstore\n      pop\n      0x20\n      dup3\n      add\n      mload\n      dup2\n      0x01\n      add\n      exp(0x0100, 0x00)\n      dup2\n      sload\n      dup2\n      0xffffffffffffffffffffffffffffffffffffffff\n      mul\n      not\n      and\n      swap1\n      dup4\n      0xffffffffffffffffffffffffffffffffffffffff\n      and\n      mul\n      or\n      swap1\n      sstore\n      pop\n      0x40\n      dup3\n      add\n      mload\n      dup2\n      0x02\n      add\n      exp(0x0100, 0x00)\n      dup2\n      sload\n      dup2\n      0xffffffffffffffffffffffffffffffffffffffff\n      mul\n      not\n      and\n      swap1\n      dup4\n      0xffffffffffffffffffffffffffffffffffffffff\n      and\n      mul\n      or\n      swap1\n      sstore\n      pop\n      0x60\n      dup3\n      add\n      mload\n      dup2\n      0x02\n      add\n      exp(0x0100, 0x14)\n      dup2\n      sload\n      dup2\n      0xff\n      mul\n      not\n      and\n      swap1\n      dup4\n      0x01\n      dup2\n      gt\n      iszero\n      tag_132\n      jumpi\n      tag_133\n      tag_130\n      jump\t// in\n    tag_133:\n    tag_132:\n      mul\n      or\n      swap1\n      sstore\n      pop\n      pop\n      pop\n        /* \"contracts/Tournament.sol\":3332:3335  i++ */\n      dup1\n      dup1\n      tag_134\n      swap1\n      tag_135\n      jump\t// in\n    tag_134:\n      swap2\n      pop\n      pop\n        /* \"contracts/Tournament.sol\":3294:3568  for (uint256 i = 0; i < numTeams / 2; i++) {... */\n      jump(tag_114)\n    tag_115:\n      pop\n        /* \"contracts/Tournament.sol\":3666:3667  0 */\n      0x00\n        /* \"contracts/Tournament.sol\":3646:3663  currentMatchIndex */\n      0x03\n        /* \"contracts/Tournament.sol\":3646:3667  currentMatchIndex = 0 */\n      dup2\n      swap1\n      sstore\n      pop\n        /* \"contracts/Tournament.sol\":2956:3671  {... */\n      pop\n      pop\n        /* \"contracts/Tournament.sol\":1195:1196  _ */\n      pop\n        /* \"contracts/Tournament.sol\":2857:3671  function startTournament(uint256 _tournamentId) external onlyOwner tournamentExists(_tournamentId) {... */\n      pop\n      jump\t// out\n        /* \"contracts/Tournament.sol\":165:190  uint256 public rewardPool */\n    tag_25:\n      sload(0x01)\n      dup2\n      jump\t// out\n        /* \"contracts/Tournament.sol\":3753:4553  function completeMatch(uint256 _tournamentId, uint256 _matchIndex, address _winner) external onlyOwner tournamentExists(_tournamentId) {... */\n    tag_30:\n        /* \"contracts/Tournament.sol\":1141:1146  owner */\n      0x00\n      dup1\n      sload\n      swap1\n      0x0100\n      exp\n      swap1\n      div\n      0xffffffffffffffffffffffffffffffffffffffff\n      and\n        /* \"contracts/Tournament.sol\":1127:1146  msg.sender == owner */\n      0xffffffffffffffffffffffffffffffffffffffff\n      and\n        /* \"contracts/Tournament.sol\":1127:1137  msg.sender */\n      caller\n        /* \"contracts/Tournament.sol\":1127:1146  msg.sender == owner */\n      0xffffffffffffffffffffffffffffffffffffffff\n      and\n      eq\n        /* \"contracts/Tournament.sol\":1119:1184  require(msg.sender == owner, \"Only owner can call this function\") */\n      tag_137\n      jumpi\n      mload(0x40)\n      0x08c379a000000000000000000000000000000000000000000000000000000000\n      dup2\n      mstore\n      0x04\n      add\n      tag_138\n      swap1\n      tag_52\n      jump\t// in\n    tag_138:\n      mload(0x40)\n      dup1\n      swap2\n      sub\n      swap1\n      revert\n    tag_137:\n        /* \"contracts/Tournament.sol\":3873:3886  _tournamentId */\n      dup3\n        /* \"contracts/Tournament.sol\":1392:1393  0 */\n      0x00\n        /* \"contracts/Tournament.sol\":1350:1361  tournaments */\n      0x02\n        /* \"contracts/Tournament.sol\":1350:1376  tournaments[_tournamentId] */\n      0x00\n        /* \"contracts/Tournament.sol\":1362:1375  _tournamentId */\n      dup4\n        /* \"contracts/Tournament.sol\":1350:1376  tournaments[_tournamentId] */\n      dup2\n      mstore\n      0x20\n      add\n      swap1\n      dup2\n      mstore\n      0x20\n      add\n      0x00\n      keccak256\n        /* \"contracts/Tournament.sol\":1350:1382  tournaments[_tournamentId].teams */\n      0x01\n      add\n        /* \"contracts/Tournament.sol\":1350:1389  tournaments[_tournamentId].teams.length */\n      dup1\n      sload\n      swap1\n      pop\n        /* \"contracts/Tournament.sol\":1350:1393  tournaments[_tournamentId].teams.length > 0 */\n      gt\n        /* \"contracts/Tournament.sol\":1342:1423  require(tournaments[_tournamentId].teams.length > 0, \"Tournament does not exist\") */\n      tag_140\n      jumpi\n      mload(0x40)\n      0x08c379a000000000000000000000000000000000000000000000000000000000\n      dup2\n      mstore\n      0x04\n      add\n      tag_141\n      swap1\n      tag_56\n      jump\t// in\n    tag_141:\n      mload(0x40)\n      dup1\n      swap2\n      sub\n      swap1\n      revert\n    tag_140:\n        /* \"contracts/Tournament.sol\":3899:3932  TournamentInfo storage tournament */\n      0x00\n        /* \"contracts/Tournament.sol\":3935:3946  tournaments */\n      0x02\n        /* \"contracts/Tournament.sol\":3935:3961  tournaments[_tournamentId] */\n      0x00\n        /* \"contracts/Tournament.sol\":3947:3960  _tournamentId */\n      dup7\n        /* \"contracts/Tournament.sol\":3935:3961  tournaments[_tournamentId] */\n      dup2\n      mstore\n      0x20\n      add\n      swap1\n      dup2\n      mstore\n      0x20\n      add\n      0x00\n      keccak256\n        /* \"contracts/Tournament.sol\":3899:3961  TournamentInfo storage tournament = tournaments[_tournamentId] */\n      swap1\n      pop\n        /* \"contracts/Tournament.sol\":3994:4004  tournament */\n      dup1\n        /* \"contracts/Tournament.sol\":3994:4012  tournament.matches */\n      0x00\n      add\n        /* \"contracts/Tournament.sol\":3994:4019  tournament.matches.length */\n      dup1\n      sload\n      swap1\n      pop\n        /* \"contracts/Tournament.sol\":3980:3991  _matchIndex */\n      dup5\n        /* \"contracts/Tournament.sol\":3980:4019  _matchIndex < tournament.matches.length */\n      lt\n        /* \"contracts/Tournament.sol\":3972:4043  require(_matchIndex < tournament.matches.length, \"Invalid match index\") */\n      tag_143\n      jumpi\n      mload(0x40)\n      0x08c379a000000000000000000000000000000000000000000000000000000000\n      dup2\n      mstore\n      0x04\n      add\n      tag_144\n      swap1\n      tag_145\n      jump\t// in\n    tag_144:\n      mload(0x40)\n      dup1\n      swap2\n      sub\n      swap1\n      revert\n    tag_143:\n        /* \"contracts/Tournament.sol\":4104:4123  MatchStatus.Pending */\n      0x00\n        /* \"contracts/Tournament.sol\":4062:4123  tournament.matches[_matchIndex].status == MatchStatus.Pending */\n      0x01\n      dup2\n      gt\n      iszero\n      tag_146\n      jumpi\n      tag_147\n      tag_130\n      jump\t// in\n    tag_147:\n    tag_146:\n        /* \"contracts/Tournament.sol\":4062:4072  tournament */\n      dup2\n        /* \"contracts/Tournament.sol\":4062:4080  tournament.matches */\n      0x00\n      add\n        /* \"contracts/Tournament.sol\":4081:4092  _matchIndex */\n      dup6\n        /* \"contracts/Tournament.sol\":4062:4093  tournament.matches[_matchIndex] */\n      dup2\n      sload\n      dup2\n      lt\n      tag_148\n      jumpi\n      tag_149\n      tag_76\n      jump\t// in\n    tag_149:\n    tag_148:\n      swap1\n      0x00\n      mstore\n      keccak256(0x00, 0x20)\n      swap1\n      0x03\n      mul\n      add\n        /* \"contracts/Tournament.sol\":4062:4100  tournament.matches[_matchIndex].status */\n      0x02\n      add\n      0x14\n      swap1\n      sload\n      swap1\n      0x0100\n      exp\n      swap1\n      div\n      0xff\n      and\n        /* \"contracts/Tournament.sol\":4062:4123  tournament.matches[_matchIndex].status == MatchStatus.Pending */\n      0x01\n      dup2\n      gt\n      iszero\n      tag_151\n      jumpi\n      tag_152\n      tag_130\n      jump\t// in\n    tag_152:\n    tag_151:\n      eq\n        /* \"contracts/Tournament.sol\":4054:4151  require(tournament.matches[_matchIndex].status == MatchStatus.Pending, \"Match already completed\") */\n      tag_153\n      jumpi\n      mload(0x40)\n      0x08c379a000000000000000000000000000000000000000000000000000000000\n      dup2\n      mstore\n      0x04\n      add\n      tag_154\n      swap1\n      tag_155\n      jump\t// in\n    tag_154:\n      mload(0x40)\n      dup1\n      swap2\n      sub\n      swap1\n      revert\n    tag_153:\n        /* \"contracts/Tournament.sol\":4400:4407  _winner */\n      dup3\n        /* \"contracts/Tournament.sol\":4359:4369  tournament */\n      dup2\n        /* \"contracts/Tournament.sol\":4359:4377  tournament.matches */\n      0x00\n      add\n        /* \"contracts/Tournament.sol\":4378:4389  _matchIndex */\n      dup6\n        /* \"contracts/Tournament.sol\":4359:4390  tournament.matches[_matchIndex] */\n      dup2\n      sload\n      dup2\n      lt\n      tag_156\n      jumpi\n      tag_157\n      tag_76\n      jump\t// in\n    tag_157:\n    tag_156:\n      swap1\n      0x00\n      mstore\n      keccak256(0x00, 0x20)\n      swap1\n      0x03\n      mul\n      add\n        /* \"contracts/Tournament.sol\":4359:4397  tournament.matches[_matchIndex].winner */\n      0x02\n      add\n      0x00\n        /* \"contracts/Tournament.sol\":4359:4407  tournament.matches[_matchIndex].winner = _winner */\n      0x0100\n      exp\n      dup2\n      sload\n      dup2\n      0xffffffffffffffffffffffffffffffffffffffff\n      mul\n      not\n      and\n      swap1\n      dup4\n      0xffffffffffffffffffffffffffffffffffffffff\n      and\n      mul\n      or\n      swap1\n      sstore\n      pop\n        /* \"contracts/Tournament.sol\":4459:4480  MatchStatus.Completed */\n      0x01\n        /* \"contracts/Tournament.sol\":4418:4428  tournament */\n      dup2\n        /* \"contracts/Tournament.sol\":4418:4436  tournament.matches */\n      0x00\n      add\n        /* \"contracts/Tournament.sol\":4437:4448  _matchIndex */\n      dup6\n        /* \"contracts/Tournament.sol\":4418:4449  tournament.matches[_matchIndex] */\n      dup2\n      sload\n      dup2\n      lt\n      tag_159\n      jumpi\n      tag_160\n      tag_76\n      jump\t// in\n    tag_160:\n    tag_159:\n      swap1\n      0x00\n      mstore\n      keccak256(0x00, 0x20)\n      swap1\n      0x03\n      mul\n      add\n        /* \"contracts/Tournament.sol\":4418:4456  tournament.matches[_matchIndex].status */\n      0x02\n      add\n      0x14\n        /* \"contracts/Tournament.sol\":4418:4480  tournament.matches[_matchIndex].status = MatchStatus.Completed */\n      0x0100\n      exp\n      dup2\n      sload\n      dup2\n      0xff\n      mul\n      not\n      and\n      swap1\n      dup4\n      0x01\n      dup2\n      gt\n      iszero\n      tag_162\n      jumpi\n      tag_163\n      tag_130\n      jump\t// in\n    tag_163:\n    tag_162:\n      mul\n      or\n      swap1\n      sstore\n      pop\n        /* \"contracts/Tournament.sol\":4513:4526  _tournamentId */\n      dup5\n        /* \"contracts/Tournament.sol\":4498:4549  MatchCompleted(_tournamentId, _matchIndex, _winner) */\n      0x8d60b015965672d4594cbe60ae278e009bdef53b71cccf704014a4860ccf8a57\n        /* \"contracts/Tournament.sol\":4528:4539  _matchIndex */\n      dup6\n        /* \"contracts/Tournament.sol\":4541:4548  _winner */\n      dup6\n        /* \"contracts/Tournament.sol\":4498:4549  MatchCompleted(_tournamentId, _matchIndex, _winner) */\n      mload(0x40)\n      tag_164\n      swap3\n      swap2\n      swap1\n      tag_165\n      jump\t// in\n    tag_164:\n      mload(0x40)\n      dup1\n      swap2\n      sub\n      swap1\n      log2\n        /* \"contracts/Tournament.sol\":3888:4553  {... */\n      pop\n        /* \"contracts/Tournament.sol\":1195:1196  _ */\n      pop\n        /* \"contracts/Tournament.sol\":3753:4553  function completeMatch(uint256 _tournamentId, uint256 _matchIndex, address _winner) external onlyOwner tournamentExists(_tournamentId) {... */\n      pop\n      pop\n      pop\n      jump\t// out\n        /* \"contracts/Tournament.sol\":1926:2076  function getTournamentTeams(uint256 _tournamentId) external view returns (address[] memory) {... */\n    tag_33:\n        /* \"contracts/Tournament.sol\":2000:2016  address[] memory */\n      0x60\n        /* \"contracts/Tournament.sol\":2036:2047  tournaments */\n      0x02\n        /* \"contracts/Tournament.sol\":2036:2062  tournaments[_tournamentId] */\n      0x00\n        /* \"contracts/Tournament.sol\":2048:2061  _tournamentId */\n      dup4\n        /* \"contracts/Tournament.sol\":2036:2062  tournaments[_tournamentId] */\n      dup2\n      mstore\n      0x20\n      add\n      swap1\n      dup2\n      mstore\n      0x20\n      add\n      0x00\n      keccak256\n        /* \"contracts/Tournament.sol\":2036:2068  tournaments[_tournamentId].teams */\n      0x01\n      add\n        /* \"contracts/Tournament.sol\":2029:2068  return tournaments[_tournamentId].teams */\n      dup1\n      sload\n      dup1\n      0x20\n      mul\n      0x20\n      add\n      mload(0x40)\n      swap1\n      dup2\n      add\n      0x40\n      mstore\n      dup1\n      swap3\n      swap2\n      swap1\n      dup2\n      dup2\n      mstore\n      0x20\n      add\n      dup3\n      dup1\n      sload\n      dup1\n      iszero\n      tag_167\n      jumpi\n      0x20\n      mul\n      dup3\n      add\n      swap2\n      swap1\n      0x00\n      mstore\n      keccak256(0x00, 0x20)\n      swap1\n    tag_168:\n      dup2\n      0x00\n      swap1\n      sload\n      swap1\n      0x0100\n      exp\n      swap1\n      div\n      0xffffffffffffffffffffffffffffffffffffffff\n      and\n      0xffffffffffffffffffffffffffffffffffffffff\n      and\n      dup2\n      mstore\n      0x20\n      add\n      swap1\n      0x01\n      add\n      swap1\n      dup1\n      dup4\n      gt\n      tag_168\n      jumpi\n    tag_167:\n      pop\n      pop\n      pop\n      pop\n      pop\n      swap1\n      pop\n        /* \"contracts/Tournament.sol\":1926:2076  function getTournamentTeams(uint256 _tournamentId) external view returns (address[] memory) {... */\n      swap2\n      swap1\n      pop\n      jump\t// out\n        /* \"contracts/Tournament.sol\":110:130  address public owner */\n    tag_37:\n      0x00\n      dup1\n      sload\n      swap1\n      0x0100\n      exp\n      swap1\n      div\n      0xffffffffffffffffffffffffffffffffffffffff\n      and\n      dup2\n      jump\t// out\n        /* \"contracts/Tournament.sol\":2373:2781  function createTournament(uint256 _tournamentId, address[] memory _teams) external onlyOwner tournamentNotStarted(_tournamentId) {... */\n    tag_43:\n        /* \"contracts/Tournament.sol\":1141:1146  owner */\n      0x00\n      dup1\n      sload\n      swap1\n      0x0100\n      exp\n      swap1\n      div\n      0xffffffffffffffffffffffffffffffffffffffff\n      and\n        /* \"contracts/Tournament.sol\":1127:1146  msg.sender == owner */\n      0xffffffffffffffffffffffffffffffffffffffff\n      and\n        /* \"contracts/Tournament.sol\":1127:1137  msg.sender */\n      caller\n        /* \"contracts/Tournament.sol\":1127:1146  msg.sender == owner */\n      0xffffffffffffffffffffffffffffffffffffffff\n      and\n      eq\n        /* \"contracts/Tournament.sol\":1119:1184  require(msg.sender == owner, \"Only owner can call this function\") */\n      tag_170\n      jumpi\n      mload(0x40)\n      0x08c379a000000000000000000000000000000000000000000000000000000000\n      dup2\n      mstore\n      0x04\n      add\n      tag_171\n      swap1\n      tag_52\n      jump\t// in\n    tag_171:\n      mload(0x40)\n      dup1\n      swap2\n      sub\n      swap1\n      revert\n    tag_170:\n        /* \"contracts/Tournament.sol\":2487:2500  _tournamentId */\n      dup2\n        /* \"contracts/Tournament.sol\":1651:1652  0 */\n      0x00\n        /* \"contracts/Tournament.sol\":1606:1617  tournaments */\n      0x02\n        /* \"contracts/Tournament.sol\":1606:1632  tournaments[_tournamentId] */\n      0x00\n        /* \"contracts/Tournament.sol\":1618:1631  _tournamentId */\n      dup4\n        /* \"contracts/Tournament.sol\":1606:1632  tournaments[_tournamentId] */\n      dup2\n      mstore\n      0x20\n      add\n      swap1\n      dup2\n      mstore\n      0x20\n      add\n      0x00\n      keccak256\n        /* \"contracts/Tournament.sol\":1606:1640  tournaments[_tournamentId].matches */\n      0x00\n      add\n        /* \"contracts/Tournament.sol\":1606:1647  tournaments[_tournamentId].matches.length */\n      dup1\n      sload\n      swap1\n      pop\n        /* \"contracts/Tournament.sol\":1606:1652  tournaments[_tournamentId].matches.length == 0 */\n      eq\n        /* \"contracts/Tournament.sol\":1598:1687  require(tournaments[_tournamentId].matches.length == 0, \"Tournament has already started\") */\n      tag_173\n      jumpi\n      mload(0x40)\n      0x08c379a000000000000000000000000000000000000000000000000000000000\n      dup2\n      mstore\n      0x04\n      add\n      tag_174\n      swap1\n      tag_113\n      jump\t// in\n    tag_174:\n      mload(0x40)\n      dup1\n      swap2\n      sub\n      swap1\n      revert\n    tag_173:\n        /* \"contracts/Tournament.sol\":2538:2539  8 */\n      0x08\n        /* \"contracts/Tournament.sol\":2521:2527  _teams */\n      dup3\n        /* \"contracts/Tournament.sol\":2521:2534  _teams.length */\n      mload\n        /* \"contracts/Tournament.sol\":2521:2539  _teams.length == 8 */\n      eq\n        /* \"contracts/Tournament.sol\":2521:2562  _teams.length == 8 || _teams.length == 16 */\n      dup1\n      tag_176\n      jumpi\n      pop\n        /* \"contracts/Tournament.sol\":2560:2562  16 */\n      0x10\n        /* \"contracts/Tournament.sol\":2543:2549  _teams */\n      dup3\n        /* \"contracts/Tournament.sol\":2543:2556  _teams.length */\n      mload\n        /* \"contracts/Tournament.sol\":2543:2562  _teams.length == 16 */\n      eq\n        /* \"contracts/Tournament.sol\":2521:2562  _teams.length == 8 || _teams.length == 16 */\n    tag_176:\n        /* \"contracts/Tournament.sol\":2513:2598  require(_teams.length == 8 || _teams.length == 16, \"Number of teams must be 8 or 16\") */\n      tag_177\n      jumpi\n      mload(0x40)\n      0x08c379a000000000000000000000000000000000000000000000000000000000\n      dup2\n      mstore\n      0x04\n      add\n      tag_178\n      swap1\n      tag_179\n      jump\t// in\n    tag_178:\n      mload(0x40)\n      dup1\n      swap2\n      sub\n      swap1\n      revert\n    tag_177:\n        /* \"contracts/Tournament.sol\":2611:2647  TournamentInfo storage newTournament */\n      0x00\n        /* \"contracts/Tournament.sol\":2650:2661  tournaments */\n      0x02\n        /* \"contracts/Tournament.sol\":2650:2676  tournaments[_tournamentId] */\n      0x00\n        /* \"contracts/Tournament.sol\":2662:2675  _tournamentId */\n      dup6\n        /* \"contracts/Tournament.sol\":2650:2676  tournaments[_tournamentId] */\n      dup2\n      mstore\n      0x20\n      add\n      swap1\n      dup2\n      mstore\n      0x20\n      add\n      0x00\n      keccak256\n        /* \"contracts/Tournament.sol\":2611:2676  TournamentInfo storage newTournament = tournaments[_tournamentId] */\n      swap1\n      pop\n        /* \"contracts/Tournament.sol\":2709:2715  _teams */\n      dup3\n        /* \"contracts/Tournament.sol\":2687:2700  newTournament */\n      dup2\n        /* \"contracts/Tournament.sol\":2687:2706  newTournament.teams */\n      0x01\n      add\n        /* \"contracts/Tournament.sol\":2687:2715  newTournament.teams = _teams */\n      swap1\n      dup1\n      mload\n      swap1\n      0x20\n      add\n      swap1\n      tag_180\n      swap3\n      swap2\n      swap1\n      tag_181\n      jump\t// in\n    tag_180:\n      pop\n        /* \"contracts/Tournament.sol\":2751:2764  _tournamentId */\n      dup4\n        /* \"contracts/Tournament.sol\":2733:2773  TournamentCreated(_tournamentId, _teams) */\n      0xa47122c4660339cf88308783d3c2a9ed10d7809cc28e552e580a7a89722f6da9\n        /* \"contracts/Tournament.sol\":2766:2772  _teams */\n      dup5\n        /* \"contracts/Tournament.sol\":2733:2773  TournamentCreated(_tournamentId, _teams) */\n      mload(0x40)\n      tag_182\n      swap2\n      swap1\n      tag_35\n      jump\t// in\n    tag_182:\n      mload(0x40)\n      dup1\n      swap2\n      sub\n      swap1\n      log2\n        /* \"contracts/Tournament.sol\":2502:2781  {... */\n      pop\n        /* \"contracts/Tournament.sol\":1195:1196  _ */\n      pop\n        /* \"contracts/Tournament.sol\":2373:2781  function createTournament(uint256 _tournamentId, address[] memory _teams) external onlyOwner tournamentNotStarted(_tournamentId) {... */\n      pop\n      pop\n      jump\t// out\n        /* \"contracts/Tournament.sol\":2141:2293  function getTournamentMatches(uint256 _tournamentId) external view returns (Match[] memory) {... */\n    tag_46:\n        /* \"contracts/Tournament.sol\":2217:2231  Match[] memory */\n      0x60\n        /* \"contracts/Tournament.sol\":2251:2262  tournaments */\n      0x02\n        /* \"contracts/Tournament.sol\":2251:2277  tournaments[_tournamentId] */\n      0x00\n        /* \"contracts/Tournament.sol\":2263:2276  _tournamentId */\n      dup4\n        /* \"contracts/Tournament.sol\":2251:2277  tournaments[_tournamentId] */\n      dup2\n      mstore\n      0x20\n      add\n      swap1\n      dup2\n      mstore\n      0x20\n      add\n      0x00\n      keccak256\n        /* \"contracts/Tournament.sol\":2251:2285  tournaments[_tournamentId].matches */\n      0x00\n      add\n        /* \"contracts/Tournament.sol\":2244:2285  return tournaments[_tournamentId].matches */\n      dup1\n      sload\n      dup1\n      0x20\n      mul\n      0x20\n      add\n      mload(0x40)\n      swap1\n      dup2\n      add\n      0x40\n      mstore\n      dup1\n      swap3\n      swap2\n      swap1\n      dup2\n      dup2\n      mstore\n      0x20\n      add\n      0x00\n      swap1\n    tag_184:\n      dup3\n      dup3\n      lt\n      iszero\n      tag_185\n      jumpi\n      dup4\n      dup3\n      swap1\n      0x00\n      mstore\n      keccak256(0x00, 0x20)\n      swap1\n      0x03\n      mul\n      add\n      mload(0x40)\n      dup1\n      0x80\n      add\n      0x40\n      mstore\n      swap1\n      dup2\n      0x00\n      dup3\n      add\n      0x00\n      swap1\n      sload\n      swap1\n      0x0100\n      exp\n      swap1\n      div\n      0xffffffffffffffffffffffffffffffffffffffff\n      and\n      0xffffffffffffffffffffffffffffffffffffffff\n      and\n      0xffffffffffffffffffffffffffffffffffffffff\n      and\n      dup2\n      mstore\n      0x20\n      add\n      0x01\n      dup3\n      add\n      0x00\n      swap1\n      sload\n      swap1\n      0x0100\n      exp\n      swap1\n      div\n      0xffffffffffffffffffffffffffffffffffffffff\n      and\n      0xffffffffffffffffffffffffffffffffffffffff\n      and\n      0xffffffffffffffffffffffffffffffffffffffff\n      and\n      dup2\n      mstore\n      0x20\n      add\n      0x02\n      dup3\n      add\n      0x00\n      swap1\n      sload\n      swap1\n      0x0100\n      exp\n      swap1\n      div\n      0xffffffffffffffffffffffffffffffffffffffff\n      and\n      0xffffffffffffffffffffffffffffffffffffffff\n      and\n      0xffffffffffffffffffffffffffffffffffffffff\n      and\n      dup2\n      mstore\n      0x20\n      add\n      0x02\n      dup3\n      add\n      0x14\n      swap1\n      sload\n      swap1\n      0x0100\n      exp\n      swap1\n      div\n      0xff\n      and\n      0x01\n      dup2\n      gt\n      iszero\n      tag_187\n      jumpi\n      tag_188\n      tag_130\n      jump\t// in\n    tag_188:\n    tag_187:\n      0x01\n      dup2\n      gt\n      iszero\n      tag_189\n      jumpi\n      tag_190\n      tag_130\n      jump\t// in\n    tag_190:\n    tag_189:\n      dup2\n      mstore\n      pop\n      pop\n      dup2\n      mstore\n      0x20\n      add\n      swap1\n      0x01\n      add\n      swap1\n      jump(tag_184)\n    tag_185:\n      pop\n      pop\n      pop\n      pop\n      swap1\n      pop\n        /* \"contracts/Tournament.sol\":2141:2293  function getTournamentMatches(uint256 _tournamentId) external view returns (Match[] memory) {... */\n      swap2\n      swap1\n      pop\n      jump\t// out\n    tag_181:\n      dup3\n      dup1\n      sload\n      dup3\n      dup3\n      sstore\n      swap1\n      0x00\n      mstore\n      keccak256(0x00, 0x20)\n      swap1\n      dup2\n      add\n      swap3\n      dup3\n      iszero\n      tag_191\n      jumpi\n      swap2\n      0x20\n      mul\n      dup3\n      add\n    tag_192:\n      dup3\n      dup2\n      gt\n      iszero\n      tag_193\n      jumpi\n      dup3\n      mload\n      dup3\n      exp(0x0100, 0x00)\n      dup2\n      sload\n      dup2\n      0xffffffffffffffffffffffffffffffffffffffff\n      mul\n      not\n      and\n      swap1\n      dup4\n      0xffffffffffffffffffffffffffffffffffffffff\n      and\n      mul\n      or\n      swap1\n      sstore\n      pop\n      swap2\n      0x20\n      add\n      swap2\n      swap1\n      0x01\n      add\n      swap1\n      jump(tag_192)\n    tag_193:\n    tag_191:\n      pop\n      swap1\n      pop\n      tag_194\n      swap2\n      swap1\n      tag_195\n      jump\t// in\n    tag_194:\n      pop\n      swap1\n      jump\t// out\n    tag_195:\n    tag_196:\n      dup1\n      dup3\n      gt\n      iszero\n      tag_197\n      jumpi\n      0x00\n      dup2\n      0x00\n      swap1\n      sstore\n      pop\n      0x01\n      add\n      jump(tag_196)\n    tag_197:\n      pop\n      swap1\n      jump\t// out\n        /* \"#utility.yul\":7:84   */\n    tag_198:\n        /* \"#utility.yul\":44:51   */\n      0x00\n        /* \"#utility.yul\":73:78   */\n      dup2\n        /* \"#utility.yul\":62:78   */\n      swap1\n      pop\n        /* \"#utility.yul\":7:84   */\n      swap2\n      swap1\n      pop\n      jump\t// out\n        /* \"#utility.yul\":90:208   */\n    tag_199:\n        /* \"#utility.yul\":177:201   */\n      tag_259\n        /* \"#utility.yul\":195:200   */\n      dup2\n        /* \"#utility.yul\":177:201   */\n      tag_198\n      jump\t// in\n    tag_259:\n        /* \"#utility.yul\":172:175   */\n      dup3\n        /* \"#utility.yul\":165:202   */\n      mstore\n        /* \"#utility.yul\":90:208   */\n      pop\n      pop\n      jump\t// out\n        /* \"#utility.yul\":214:436   */\n    tag_16:\n        /* \"#utility.yul\":307:311   */\n      0x00\n        /* \"#utility.yul\":345:347   */\n      0x20\n        /* \"#utility.yul\":334:343   */\n      dup3\n        /* \"#utility.yul\":330:348   */\n      add\n        /* \"#utility.yul\":322:348   */\n      swap1\n      pop\n        /* \"#utility.yul\":358:429   */\n      tag_261\n        /* \"#utility.yul\":426:427   */\n      0x00\n        /* \"#utility.yul\":415:424   */\n      dup4\n        /* \"#utility.yul\":411:428   */\n      add\n        /* \"#utility.yul\":402:408   */\n      dup5\n        /* \"#utility.yul\":358:429   */\n      tag_199\n      jump\t// in\n    tag_261:\n        /* \"#utility.yul\":214:436   */\n      swap3\n      swap2\n      pop\n      pop\n      jump\t// out\n        /* \"#utility.yul\":442:517   */\n    tag_200:\n        /* \"#utility.yul\":475:481   */\n      0x00\n        /* \"#utility.yul\":508:510   */\n      0x40\n        /* \"#utility.yul\":502:511   */\n      mload\n        /* \"#utility.yul\":492:511   */\n      swap1\n      pop\n        /* \"#utility.yul\":442:517   */\n      swap1\n      jump\t// out\n        /* \"#utility.yul\":523:640   */\n    tag_201:\n        /* \"#utility.yul\":632:633   */\n      0x00\n        /* \"#utility.yul\":629:630   */\n      dup1\n        /* \"#utility.yul\":622:634   */\n      revert\n        /* \"#utility.yul\":646:763   */\n    tag_202:\n        /* \"#utility.yul\":755:756   */\n      0x00\n        /* \"#utility.yul\":752:753   */\n      dup1\n        /* \"#utility.yul\":745:757   */\n      revert\n        /* \"#utility.yul\":769:891   */\n    tag_203:\n        /* \"#utility.yul\":842:866   */\n      tag_266\n        /* \"#utility.yul\":860:865   */\n      dup2\n        /* \"#utility.yul\":842:866   */\n      tag_198\n      jump\t// in\n    tag_266:\n        /* \"#utility.yul\":835:840   */\n      dup2\n        /* \"#utility.yul\":832:867   */\n      eq\n        /* \"#utility.yul\":822:885   */\n      tag_267\n      jumpi\n        /* \"#utility.yul\":881:882   */\n      0x00\n        /* \"#utility.yul\":878:879   */\n      dup1\n        /* \"#utility.yul\":871:883   */\n      revert\n        /* \"#utility.yul\":822:885   */\n    tag_267:\n        /* \"#utility.yul\":769:891   */\n      pop\n      jump\t// out\n        /* \"#utility.yul\":897:1036   */\n    tag_204:\n        /* \"#utility.yul\":943:948   */\n      0x00\n        /* \"#utility.yul\":981:987   */\n      dup2\n        /* \"#utility.yul\":968:988   */\n      calldataload\n        /* \"#utility.yul\":959:988   */\n      swap1\n      pop\n        /* \"#utility.yul\":997:1030   */\n      tag_269\n        /* \"#utility.yul\":1024:1029   */\n      dup2\n        /* \"#utility.yul\":997:1030   */\n      tag_203\n      jump\t// in\n    tag_269:\n        /* \"#utility.yul\":897:1036   */\n      swap3\n      swap2\n      pop\n      pop\n      jump\t// out\n        /* \"#utility.yul\":1042:1371   */\n    tag_19:\n        /* \"#utility.yul\":1101:1107   */\n      0x00\n        /* \"#utility.yul\":1150:1152   */\n      0x20\n        /* \"#utility.yul\":1138:1147   */\n      dup3\n        /* \"#utility.yul\":1129:1136   */\n      dup5\n        /* \"#utility.yul\":1125:1148   */\n      sub\n        /* \"#utility.yul\":1121:1153   */\n      slt\n        /* \"#utility.yul\":1118:1237   */\n      iszero\n      tag_271\n      jumpi\n        /* \"#utility.yul\":1156:1235   */\n      tag_272\n      tag_201\n      jump\t// in\n    tag_272:\n        /* \"#utility.yul\":1118:1237   */\n    tag_271:\n        /* \"#utility.yul\":1276:1277   */\n      0x00\n        /* \"#utility.yul\":1301:1354   */\n      tag_273\n        /* \"#utility.yul\":1346:1353   */\n      dup5\n        /* \"#utility.yul\":1337:1343   */\n      dup3\n        /* \"#utility.yul\":1326:1335   */\n      dup6\n        /* \"#utility.yul\":1322:1344   */\n      add\n        /* \"#utility.yul\":1301:1354   */\n      tag_204\n      jump\t// in\n    tag_273:\n        /* \"#utility.yul\":1291:1354   */\n      swap2\n      pop\n        /* \"#utility.yul\":1247:1364   */\n      pop\n        /* \"#utility.yul\":1042:1371   */\n      swap3\n      swap2\n      pop\n      pop\n      jump\t// out\n        /* \"#utility.yul\":1377:1503   */\n    tag_205:\n        /* \"#utility.yul\":1414:1421   */\n      0x00\n        /* \"#utility.yul\":1454:1496   */\n      0xffffffffffffffffffffffffffffffffffffffff\n        /* \"#utility.yul\":1447:1452   */\n      dup3\n        /* \"#utility.yul\":1443:1497   */\n      and\n        /* \"#utility.yul\":1432:1497   */\n      swap1\n      pop\n        /* \"#utility.yul\":1377:1503   */\n      swap2\n      swap1\n      pop\n      jump\t// out\n        /* \"#utility.yul\":1509:1605   */\n    tag_206:\n        /* \"#utility.yul\":1546:1553   */\n      0x00\n        /* \"#utility.yul\":1575:1599   */\n      tag_276\n        /* \"#utility.yul\":1593:1598   */\n      dup3\n        /* \"#utility.yul\":1575:1599   */\n      tag_205\n      jump\t// in\n    tag_276:\n        /* \"#utility.yul\":1564:1599   */\n      swap1\n      pop\n        /* \"#utility.yul\":1509:1605   */\n      swap2\n      swap1\n      pop\n      jump\t// out\n        /* \"#utility.yul\":1611:1733   */\n    tag_207:\n        /* \"#utility.yul\":1684:1708   */\n      tag_278\n        /* \"#utility.yul\":1702:1707   */\n      dup2\n        /* \"#utility.yul\":1684:1708   */\n      tag_206\n      jump\t// in\n    tag_278:\n        /* \"#utility.yul\":1677:1682   */\n      dup2\n        /* \"#utility.yul\":1674:1709   */\n      eq\n        /* \"#utility.yul\":1664:1727   */\n      tag_279\n      jumpi\n        /* \"#utility.yul\":1723:1724   */\n      0x00\n        /* \"#utility.yul\":1720:1721   */\n      dup1\n        /* \"#utility.yul\":1713:1725   */\n      revert\n        /* \"#utility.yul\":1664:1727   */\n    tag_279:\n        /* \"#utility.yul\":1611:1733   */\n      pop\n      jump\t// out\n        /* \"#utility.yul\":1739:1878   */\n    tag_208:\n        /* \"#utility.yul\":1785:1790   */\n      0x00\n        /* \"#utility.yul\":1823:1829   */\n      dup2\n        /* \"#utility.yul\":1810:1830   */\n      calldataload\n        /* \"#utility.yul\":1801:1830   */\n      swap1\n      pop\n        /* \"#utility.yul\":1839:1872   */\n      tag_281\n        /* \"#utility.yul\":1866:1871   */\n      dup2\n        /* \"#utility.yul\":1839:1872   */\n      tag_207\n      jump\t// in\n    tag_281:\n        /* \"#utility.yul\":1739:1878   */\n      swap3\n      swap2\n      pop\n      pop\n      jump\t// out\n        /* \"#utility.yul\":1884:2503   */\n    tag_29:\n        /* \"#utility.yul\":1961:1967   */\n      0x00\n        /* \"#utility.yul\":1969:1975   */\n      dup1\n        /* \"#utility.yul\":1977:1983   */\n      0x00\n        /* \"#utility.yul\":2026:2028   */\n      0x60\n        /* \"#utility.yul\":2014:2023   */\n      dup5\n        /* \"#utility.yul\":2005:2012   */\n      dup7\n        /* \"#utility.yul\":2001:2024   */\n      sub\n        /* \"#utility.yul\":1997:2029   */\n      slt\n        /* \"#utility.yul\":1994:2113   */\n      iszero\n      tag_283\n      jumpi\n        /* \"#utility.yul\":2032:2111   */\n      tag_284\n      tag_201\n      jump\t// in\n    tag_284:\n        /* \"#utility.yul\":1994:2113   */\n    tag_283:\n        /* \"#utility.yul\":2152:2153   */\n      0x00\n        /* \"#utility.yul\":2177:2230   */\n      tag_285\n        /* \"#utility.yul\":2222:2229   */\n      dup7\n        /* \"#utility.yul\":2213:2219   */\n      dup3\n        /* \"#utility.yul\":2202:2211   */\n      dup8\n        /* \"#utility.yul\":2198:2220   */\n      add\n        /* \"#utility.yul\":2177:2230   */\n      tag_204\n      jump\t// in\n    tag_285:\n        /* \"#utility.yul\":2167:2230   */\n      swap4\n      pop\n        /* \"#utility.yul\":2123:2240   */\n      pop\n        /* \"#utility.yul\":2279:2281   */\n      0x20\n        /* \"#utility.yul\":2305:2358   */\n      tag_286\n        /* \"#utility.yul\":2350:2357   */\n      dup7\n        /* \"#utility.yul\":2341:2347   */\n      dup3\n        /* \"#utility.yul\":2330:2339   */\n      dup8\n        /* \"#utility.yul\":2326:2348   */\n      add\n        /* \"#utility.yul\":2305:2358   */\n      tag_204\n      jump\t// in\n    tag_286:\n        /* \"#utility.yul\":2295:2358   */\n      swap3\n      pop\n        /* \"#utility.yul\":2250:2368   */\n      pop\n        /* \"#utility.yul\":2407:2409   */\n      0x40\n        /* \"#utility.yul\":2433:2486   */\n      tag_287\n        /* \"#utility.yul\":2478:2485   */\n      dup7\n        /* \"#utility.yul\":2469:2475   */\n      dup3\n        /* \"#utility.yul\":2458:2467   */\n      dup8\n        /* \"#utility.yul\":2454:2476   */\n      add\n        /* \"#utility.yul\":2433:2486   */\n      tag_208\n      jump\t// in\n    tag_287:\n        /* \"#utility.yul\":2423:2486   */\n      swap2\n      pop\n        /* \"#utility.yul\":2378:2496   */\n      pop\n        /* \"#utility.yul\":1884:2503   */\n      swap3\n      pop\n      swap3\n      pop\n      swap3\n      jump\t// out\n        /* \"#utility.yul\":2509:2623   */\n    tag_209:\n        /* \"#utility.yul\":2576:2582   */\n      0x00\n        /* \"#utility.yul\":2610:2615   */\n      dup2\n        /* \"#utility.yul\":2604:2616   */\n      mload\n        /* \"#utility.yul\":2594:2616   */\n      swap1\n      pop\n        /* \"#utility.yul\":2509:2623   */\n      swap2\n      swap1\n      pop\n      jump\t// out\n        /* \"#utility.yul\":2629:2813   */\n    tag_210:\n        /* \"#utility.yul\":2728:2739   */\n      0x00\n        /* \"#utility.yul\":2762:2768   */\n      dup3\n        /* \"#utility.yul\":2757:2760   */\n      dup3\n        /* \"#utility.yul\":2750:2769   */\n      mstore\n        /* \"#utility.yul\":2802:2806   */\n      0x20\n        /* \"#utility.yul\":2797:2800   */\n      dup3\n        /* \"#utility.yul\":2793:2807   */\n      add\n        /* \"#utility.yul\":2778:2807   */\n      swap1\n      pop\n        /* \"#utility.yul\":2629:2813   */\n      swap3\n      swap2\n      pop\n      pop\n      jump\t// out\n        /* \"#utility.yul\":2819:2951   */\n    tag_211:\n        /* \"#utility.yul\":2886:2890   */\n      0x00\n        /* \"#utility.yul\":2909:2912   */\n      dup2\n        /* \"#utility.yul\":2901:2912   */\n      swap1\n      pop\n        /* \"#utility.yul\":2939:2943   */\n      0x20\n        /* \"#utility.yul\":2934:2937   */\n      dup3\n        /* \"#utility.yul\":2930:2944   */\n      add\n        /* \"#utility.yul\":2922:2944   */\n      swap1\n      pop\n        /* \"#utility.yul\":2819:2951   */\n      swap2\n      swap1\n      pop\n      jump\t// out\n        /* \"#utility.yul\":2957:3065   */\n    tag_212:\n        /* \"#utility.yul\":3034:3058   */\n      tag_292\n        /* \"#utility.yul\":3052:3057   */\n      dup2\n        /* \"#utility.yul\":3034:3058   */\n      tag_206\n      jump\t// in\n    tag_292:\n        /* \"#utility.yul\":3029:3032   */\n      dup3\n        /* \"#utility.yul\":3022:3059   */\n      mstore\n        /* \"#utility.yul\":2957:3065   */\n      pop\n      pop\n      jump\t// out\n        /* \"#utility.yul\":3071:3250   */\n    tag_213:\n        /* \"#utility.yul\":3140:3150   */\n      0x00\n        /* \"#utility.yul\":3161:3207   */\n      tag_294\n        /* \"#utility.yul\":3203:3206   */\n      dup4\n        /* \"#utility.yul\":3195:3201   */\n      dup4\n        /* \"#utility.yul\":3161:3207   */\n      tag_212\n      jump\t// in\n    tag_294:\n        /* \"#utility.yul\":3239:3243   */\n      0x20\n        /* \"#utility.yul\":3234:3237   */\n      dup4\n        /* \"#utility.yul\":3230:3244   */\n      add\n        /* \"#utility.yul\":3216:3244   */\n      swap1\n      pop\n        /* \"#utility.yul\":3071:3250   */\n      swap3\n      swap2\n      pop\n      pop\n      jump\t// out\n        /* \"#utility.yul\":3256:3369   */\n    tag_214:\n        /* \"#utility.yul\":3326:3330   */\n      0x00\n        /* \"#utility.yul\":3358:3362   */\n      0x20\n        /* \"#utility.yul\":3353:3356   */\n      dup3\n        /* \"#utility.yul\":3349:3363   */\n      add\n        /* \"#utility.yul\":3341:3363   */\n      swap1\n      pop\n        /* \"#utility.yul\":3256:3369   */\n      swap2\n      swap1\n      pop\n      jump\t// out\n        /* \"#utility.yul\":3405:4137   */\n    tag_215:\n        /* \"#utility.yul\":3524:3527   */\n      0x00\n        /* \"#utility.yul\":3553:3607   */\n      tag_297\n        /* \"#utility.yul\":3601:3606   */\n      dup3\n        /* \"#utility.yul\":3553:3607   */\n      tag_209\n      jump\t// in\n    tag_297:\n        /* \"#utility.yul\":3623:3709   */\n      tag_298\n        /* \"#utility.yul\":3702:3708   */\n      dup2\n        /* \"#utility.yul\":3697:3700   */\n      dup6\n        /* \"#utility.yul\":3623:3709   */\n      tag_210\n      jump\t// in\n    tag_298:\n        /* \"#utility.yul\":3616:3709   */\n      swap4\n      pop\n        /* \"#utility.yul\":3733:3789   */\n      tag_299\n        /* \"#utility.yul\":3783:3788   */\n      dup4\n        /* \"#utility.yul\":3733:3789   */\n      tag_211\n      jump\t// in\n    tag_299:\n        /* \"#utility.yul\":3812:3819   */\n      dup1\n        /* \"#utility.yul\":3843:3844   */\n      0x00\n        /* \"#utility.yul\":3828:4112   */\n    tag_300:\n        /* \"#utility.yul\":3853:3859   */\n      dup4\n        /* \"#utility.yul\":3850:3851   */\n      dup2\n        /* \"#utility.yul\":3847:3860   */\n      lt\n        /* \"#utility.yul\":3828:4112   */\n      iszero\n      tag_302\n      jumpi\n        /* \"#utility.yul\":3929:3935   */\n      dup2\n        /* \"#utility.yul\":3923:3936   */\n      mload\n        /* \"#utility.yul\":3956:4019   */\n      tag_303\n        /* \"#utility.yul\":4015:4018   */\n      dup9\n        /* \"#utility.yul\":4000:4013   */\n      dup3\n        /* \"#utility.yul\":3956:4019   */\n      tag_213\n      jump\t// in\n    tag_303:\n        /* \"#utility.yul\":3949:4019   */\n      swap8\n      pop\n        /* \"#utility.yul\":4042:4102   */\n      tag_304\n        /* \"#utility.yul\":4095:4101   */\n      dup4\n        /* \"#utility.yul\":4042:4102   */\n      tag_214\n      jump\t// in\n    tag_304:\n        /* \"#utility.yul\":4032:4102   */\n      swap3\n      pop\n        /* \"#utility.yul\":3888:4112   */\n      pop\n        /* \"#utility.yul\":3875:3876   */\n      0x01\n        /* \"#utility.yul\":3872:3873   */\n      dup2\n        /* \"#utility.yul\":3868:3877   */\n      add\n        /* \"#utility.yul\":3863:3877   */\n      swap1\n      pop\n        /* \"#utility.yul\":3828:4112   */\n      jump(tag_300)\n    tag_302:\n        /* \"#utility.yul\":3832:3846   */\n      pop\n        /* \"#utility.yul\":4128:4131   */\n      dup6\n        /* \"#utility.yul\":4121:4131   */\n      swap4\n      pop\n        /* \"#utility.yul\":3529:4137   */\n      pop\n      pop\n      pop\n        /* \"#utility.yul\":3405:4137   */\n      swap3\n      swap2\n      pop\n      pop\n      jump\t// out\n        /* \"#utility.yul\":4143:4516   */\n    tag_35:\n        /* \"#utility.yul\":4286:4290   */\n      0x00\n        /* \"#utility.yul\":4324:4326   */\n      0x20\n        /* \"#utility.yul\":4313:4322   */\n      dup3\n        /* \"#utility.yul\":4309:4327   */\n      add\n        /* \"#utility.yul\":4301:4327   */\n      swap1\n      pop\n        /* \"#utility.yul\":4373:4382   */\n      dup2\n        /* \"#utility.yul\":4367:4371   */\n      dup2\n        /* \"#utility.yul\":4363:4383   */\n      sub\n        /* \"#utility.yul\":4359:4360   */\n      0x00\n        /* \"#utility.yul\":4348:4357   */\n      dup4\n        /* \"#utility.yul\":4344:4361   */\n      add\n        /* \"#utility.yul\":4337:4384   */\n      mstore\n        /* \"#utility.yul\":4401:4509   */\n      tag_306\n        /* \"#utility.yul\":4504:4508   */\n      dup2\n        /* \"#utility.yul\":4495:4501   */\n      dup5\n        /* \"#utility.yul\":4401:4509   */\n      tag_215\n      jump\t// in\n    tag_306:\n        /* \"#utility.yul\":4393:4509   */\n      swap1\n      pop\n        /* \"#utility.yul\":4143:4516   */\n      swap3\n      swap2\n      pop\n      pop\n      jump\t// out\n        /* \"#utility.yul\":4522:4640   */\n    tag_216:\n        /* \"#utility.yul\":4609:4633   */\n      tag_308\n        /* \"#utility.yul\":4627:4632   */\n      dup2\n        /* \"#utility.yul\":4609:4633   */\n      tag_206\n      jump\t// in\n    tag_308:\n        /* \"#utility.yul\":4604:4607   */\n      dup3\n        /* \"#utility.yul\":4597:4634   */\n      mstore\n        /* \"#utility.yul\":4522:4640   */\n      pop\n      pop\n      jump\t// out\n        /* \"#utility.yul\":4646:4868   */\n    tag_39:\n        /* \"#utility.yul\":4739:4743   */\n      0x00\n        /* \"#utility.yul\":4777:4779   */\n      0x20\n        /* \"#utility.yul\":4766:4775   */\n      dup3\n        /* \"#utility.yul\":4762:4780   */\n      add\n        /* \"#utility.yul\":4754:4780   */\n      swap1\n      pop\n        /* \"#utility.yul\":4790:4861   */\n      tag_310\n        /* \"#utility.yul\":4858:4859   */\n      0x00\n        /* \"#utility.yul\":4847:4856   */\n      dup4\n        /* \"#utility.yul\":4843:4860   */\n      add\n        /* \"#utility.yul\":4834:4840   */\n      dup5\n        /* \"#utility.yul\":4790:4861   */\n      tag_216\n      jump\t// in\n    tag_310:\n        /* \"#utility.yul\":4646:4868   */\n      swap3\n      swap2\n      pop\n      pop\n      jump\t// out\n        /* \"#utility.yul\":4874:4991   */\n    tag_217:\n        /* \"#utility.yul\":4983:4984   */\n      0x00\n        /* \"#utility.yul\":4980:4981   */\n      dup1\n        /* \"#utility.yul\":4973:4985   */\n      revert\n        /* \"#utility.yul\":4997:5099   */\n    tag_218:\n        /* \"#utility.yul\":5038:5044   */\n      0x00\n        /* \"#utility.yul\":5089:5091   */\n      0x1f\n        /* \"#utility.yul\":5085:5092   */\n      not\n        /* \"#utility.yul\":5080:5082   */\n      0x1f\n        /* \"#utility.yul\":5073:5078   */\n      dup4\n        /* \"#utility.yul\":5069:5083   */\n      add\n        /* \"#utility.yul\":5065:5093   */\n      and\n        /* \"#utility.yul\":5055:5093   */\n      swap1\n      pop\n        /* \"#utility.yul\":4997:5099   */\n      swap2\n      swap1\n      pop\n      jump\t// out\n        /* \"#utility.yul\":5105:5285   */\n    tag_219:\n        /* \"#utility.yul\":5153:5230   */\n      0x4e487b7100000000000000000000000000000000000000000000000000000000\n        /* \"#utility.yul\":5150:5151   */\n      0x00\n        /* \"#utility.yul\":5143:5231   */\n      mstore\n        /* \"#utility.yul\":5250:5254   */\n      0x41\n        /* \"#utility.yul\":5247:5248   */\n      0x04\n        /* \"#utility.yul\":5240:5255   */\n      mstore\n        /* \"#utility.yul\":5274:5278   */\n      0x24\n        /* \"#utility.yul\":5271:5272   */\n      0x00\n        /* \"#utility.yul\":5264:5279   */\n      revert\n        /* \"#utility.yul\":5291:5572   */\n    tag_220:\n        /* \"#utility.yul\":5374:5401   */\n      tag_315\n        /* \"#utility.yul\":5396:5400   */\n      dup3\n        /* \"#utility.yul\":5374:5401   */\n      tag_218\n      jump\t// in\n    tag_315:\n        /* \"#utility.yul\":5366:5372   */\n      dup2\n        /* \"#utility.yul\":5362:5402   */\n      add\n        /* \"#utility.yul\":5504:5510   */\n      dup2\n        /* \"#utility.yul\":5492:5502   */\n      dup2\n        /* \"#utility.yul\":5489:5511   */\n      lt\n        /* \"#utility.yul\":5468:5486   */\n      0xffffffffffffffff\n        /* \"#utility.yul\":5456:5466   */\n      dup3\n        /* \"#utility.yul\":5453:5487   */\n      gt\n        /* \"#utility.yul\":5450:5512   */\n      or\n        /* \"#utility.yul\":5447:5535   */\n      iszero\n      tag_316\n      jumpi\n        /* \"#utility.yul\":5515:5533   */\n      tag_317\n      tag_219\n      jump\t// in\n    tag_317:\n        /* \"#utility.yul\":5447:5535   */\n    tag_316:\n        /* \"#utility.yul\":5555:5565   */\n      dup1\n        /* \"#utility.yul\":5551:5553   */\n      0x40\n        /* \"#utility.yul\":5544:5566   */\n      mstore\n        /* \"#utility.yul\":5334:5572   */\n      pop\n        /* \"#utility.yul\":5291:5572   */\n      pop\n      pop\n      jump\t// out\n        /* \"#utility.yul\":5578:5707   */\n    tag_221:\n        /* \"#utility.yul\":5612:5618   */\n      0x00\n        /* \"#utility.yul\":5639:5659   */\n      tag_319\n      tag_200\n      jump\t// in\n    tag_319:\n        /* \"#utility.yul\":5629:5659   */\n      swap1\n      pop\n        /* \"#utility.yul\":5668:5701   */\n      tag_320\n        /* \"#utility.yul\":5696:5700   */\n      dup3\n        /* \"#utility.yul\":5688:5694   */\n      dup3\n        /* \"#utility.yul\":5668:5701   */\n      tag_220\n      jump\t// in\n    tag_320:\n        /* \"#utility.yul\":5578:5707   */\n      swap2\n      swap1\n      pop\n      jump\t// out\n        /* \"#utility.yul\":5713:6024   */\n    tag_222:\n        /* \"#utility.yul\":5790:5794   */\n      0x00\n        /* \"#utility.yul\":5880:5898   */\n      0xffffffffffffffff\n        /* \"#utility.yul\":5872:5878   */\n      dup3\n        /* \"#utility.yul\":5869:5899   */\n      gt\n        /* \"#utility.yul\":5866:5922   */\n      iszero\n      tag_322\n      jumpi\n        /* \"#utility.yul\":5902:5920   */\n      tag_323\n      tag_219\n      jump\t// in\n    tag_323:\n        /* \"#utility.yul\":5866:5922   */\n    tag_322:\n        /* \"#utility.yul\":5952:5956   */\n      0x20\n        /* \"#utility.yul\":5944:5950   */\n      dup3\n        /* \"#utility.yul\":5940:5957   */\n      mul\n        /* \"#utility.yul\":5932:5957   */\n      swap1\n      pop\n        /* \"#utility.yul\":6012:6016   */\n      0x20\n        /* \"#utility.yul\":6006:6010   */\n      dup2\n        /* \"#utility.yul\":6002:6017   */\n      add\n        /* \"#utility.yul\":5994:6017   */\n      swap1\n      pop\n        /* \"#utility.yul\":5713:6024   */\n      swap2\n      swap1\n      pop\n      jump\t// out\n        /* \"#utility.yul\":6030:6147   */\n    tag_223:\n        /* \"#utility.yul\":6139:6140   */\n      0x00\n        /* \"#utility.yul\":6136:6137   */\n      dup1\n        /* \"#utility.yul\":6129:6141   */\n      revert\n        /* \"#utility.yul\":6170:6880   */\n    tag_224:\n        /* \"#utility.yul\":6266:6271   */\n      0x00\n        /* \"#utility.yul\":6291:6372   */\n      tag_326\n        /* \"#utility.yul\":6307:6371   */\n      tag_327\n        /* \"#utility.yul\":6364:6370   */\n      dup5\n        /* \"#utility.yul\":6307:6371   */\n      tag_222\n      jump\t// in\n    tag_327:\n        /* \"#utility.yul\":6291:6372   */\n      tag_221\n      jump\t// in\n    tag_326:\n        /* \"#utility.yul\":6282:6372   */\n      swap1\n      pop\n        /* \"#utility.yul\":6392:6397   */\n      dup1\n        /* \"#utility.yul\":6421:6427   */\n      dup4\n        /* \"#utility.yul\":6414:6419   */\n      dup3\n        /* \"#utility.yul\":6407:6428   */\n      mstore\n        /* \"#utility.yul\":6455:6459   */\n      0x20\n        /* \"#utility.yul\":6448:6453   */\n      dup3\n        /* \"#utility.yul\":6444:6460   */\n      add\n        /* \"#utility.yul\":6437:6460   */\n      swap1\n      pop\n        /* \"#utility.yul\":6508:6512   */\n      0x20\n        /* \"#utility.yul\":6500:6506   */\n      dup5\n        /* \"#utility.yul\":6496:6513   */\n      mul\n        /* \"#utility.yul\":6488:6494   */\n      dup4\n        /* \"#utility.yul\":6484:6514   */\n      add\n        /* \"#utility.yul\":6537:6540   */\n      dup6\n        /* \"#utility.yul\":6529:6535   */\n      dup2\n        /* \"#utility.yul\":6526:6541   */\n      gt\n        /* \"#utility.yul\":6523:6645   */\n      iszero\n      tag_328\n      jumpi\n        /* \"#utility.yul\":6556:6635   */\n      tag_329\n      tag_223\n      jump\t// in\n    tag_329:\n        /* \"#utility.yul\":6523:6645   */\n    tag_328:\n        /* \"#utility.yul\":6671:6677   */\n      dup4\n        /* \"#utility.yul\":6654:6874   */\n    tag_330:\n        /* \"#utility.yul\":6688:6694   */\n      dup2\n        /* \"#utility.yul\":6683:6686   */\n      dup2\n        /* \"#utility.yul\":6680:6695   */\n      lt\n        /* \"#utility.yul\":6654:6874   */\n      iszero\n      tag_332\n      jumpi\n        /* \"#utility.yul\":6763:6766   */\n      dup1\n        /* \"#utility.yul\":6792:6829   */\n      tag_333\n        /* \"#utility.yul\":6825:6828   */\n      dup9\n        /* \"#utility.yul\":6813:6823   */\n      dup3\n        /* \"#utility.yul\":6792:6829   */\n      tag_208\n      jump\t// in\n    tag_333:\n        /* \"#utility.yul\":6787:6790   */\n      dup5\n        /* \"#utility.yul\":6780:6830   */\n      mstore\n        /* \"#utility.yul\":6859:6863   */\n      0x20\n        /* \"#utility.yul\":6854:6857   */\n      dup5\n        /* \"#utility.yul\":6850:6864   */\n      add\n        /* \"#utility.yul\":6843:6864   */\n      swap4\n      pop\n        /* \"#utility.yul\":6730:6874   */\n      pop\n        /* \"#utility.yul\":6714:6718   */\n      0x20\n        /* \"#utility.yul\":6709:6712   */\n      dup2\n        /* \"#utility.yul\":6705:6719   */\n      add\n        /* \"#utility.yul\":6698:6719   */\n      swap1\n      pop\n        /* \"#utility.yul\":6654:6874   */\n      jump(tag_330)\n    tag_332:\n        /* \"#utility.yul\":6658:6679   */\n      pop\n        /* \"#utility.yul\":6272:6880   */\n      pop\n      pop\n        /* \"#utility.yul\":6170:6880   */\n      swap4\n      swap3\n      pop\n      pop\n      pop\n      jump\t// out\n        /* \"#utility.yul\":6903:7273   */\n    tag_225:\n        /* \"#utility.yul\":6974:6979   */\n      0x00\n        /* \"#utility.yul\":7023:7026   */\n      dup3\n        /* \"#utility.yul\":7016:7020   */\n      0x1f\n        /* \"#utility.yul\":7008:7014   */\n      dup4\n        /* \"#utility.yul\":7004:7021   */\n      add\n        /* \"#utility.yul\":7000:7027   */\n      slt\n        /* \"#utility.yul\":6990:7112   */\n      tag_335\n      jumpi\n        /* \"#utility.yul\":7031:7110   */\n      tag_336\n      tag_217\n      jump\t// in\n    tag_336:\n        /* \"#utility.yul\":6990:7112   */\n    tag_335:\n        /* \"#utility.yul\":7148:7154   */\n      dup2\n        /* \"#utility.yul\":7135:7155   */\n      calldataload\n        /* \"#utility.yul\":7173:7267   */\n      tag_337\n        /* \"#utility.yul\":7263:7266   */\n      dup5\n        /* \"#utility.yul\":7255:7261   */\n      dup3\n        /* \"#utility.yul\":7248:7252   */\n      0x20\n        /* \"#utility.yul\":7240:7246   */\n      dup7\n        /* \"#utility.yul\":7236:7253   */\n      add\n        /* \"#utility.yul\":7173:7267   */\n      tag_224\n      jump\t// in\n    tag_337:\n        /* \"#utility.yul\":7164:7267   */\n      swap2\n      pop\n        /* \"#utility.yul\":6980:7273   */\n      pop\n        /* \"#utility.yul\":6903:7273   */\n      swap3\n      swap2\n      pop\n      pop\n      jump\t// out\n        /* \"#utility.yul\":7279:7963   */\n    tag_42:\n        /* \"#utility.yul\":7372:7378   */\n      0x00\n        /* \"#utility.yul\":7380:7386   */\n      dup1\n        /* \"#utility.yul\":7429:7431   */\n      0x40\n        /* \"#utility.yul\":7417:7426   */\n      dup4\n        /* \"#utility.yul\":7408:7415   */\n      dup6\n        /* \"#utility.yul\":7404:7427   */\n      sub\n        /* \"#utility.yul\":7400:7432   */\n      slt\n        /* \"#utility.yul\":7397:7516   */\n      iszero\n      tag_339\n      jumpi\n        /* \"#utility.yul\":7435:7514   */\n      tag_340\n      tag_201\n      jump\t// in\n    tag_340:\n        /* \"#utility.yul\":7397:7516   */\n    tag_339:\n        /* \"#utility.yul\":7555:7556   */\n      0x00\n        /* \"#utility.yul\":7580:7633   */\n      tag_341\n        /* \"#utility.yul\":7625:7632   */\n      dup6\n        /* \"#utility.yul\":7616:7622   */\n      dup3\n        /* \"#utility.yul\":7605:7614   */\n      dup7\n        /* \"#utility.yul\":7601:7623   */\n      add\n        /* \"#utility.yul\":7580:7633   */\n      tag_204\n      jump\t// in\n    tag_341:\n        /* \"#utility.yul\":7570:7633   */\n      swap3\n      pop\n        /* \"#utility.yul\":7526:7643   */\n      pop\n        /* \"#utility.yul\":7710:7712   */\n      0x20\n        /* \"#utility.yul\":7699:7708   */\n      dup4\n        /* \"#utility.yul\":7695:7713   */\n      add\n        /* \"#utility.yul\":7682:7714   */\n      calldataload\n        /* \"#utility.yul\":7741:7759   */\n      0xffffffffffffffff\n        /* \"#utility.yul\":7733:7739   */\n      dup2\n        /* \"#utility.yul\":7730:7760   */\n      gt\n        /* \"#utility.yul\":7727:7844   */\n      iszero\n      tag_342\n      jumpi\n        /* \"#utility.yul\":7763:7842   */\n      tag_343\n      tag_202\n      jump\t// in\n    tag_343:\n        /* \"#utility.yul\":7727:7844   */\n    tag_342:\n        /* \"#utility.yul\":7868:7946   */\n      tag_344\n        /* \"#utility.yul\":7938:7945   */\n      dup6\n        /* \"#utility.yul\":7929:7935   */\n      dup3\n        /* \"#utility.yul\":7918:7927   */\n      dup7\n        /* \"#utility.yul\":7914:7936   */\n      add\n        /* \"#utility.yul\":7868:7946   */\n      tag_225\n      jump\t// in\n    tag_344:\n        /* \"#utility.yul\":7858:7946   */\n      swap2\n      pop\n        /* \"#utility.yul\":7653:7956   */\n      pop\n        /* \"#utility.yul\":7279:7963   */\n      swap3\n      pop\n      swap3\n      swap1\n      pop\n      jump\t// out\n        /* \"#utility.yul\":7969:8104   */\n    tag_226:\n        /* \"#utility.yul\":8057:8063   */\n      0x00\n        /* \"#utility.yul\":8091:8096   */\n      dup2\n        /* \"#utility.yul\":8085:8097   */\n      mload\n        /* \"#utility.yul\":8075:8097   */\n      swap1\n      pop\n        /* \"#utility.yul\":7969:8104   */\n      swap2\n      swap1\n      pop\n      jump\t// out\n        /* \"#utility.yul\":8110:8315   */\n    tag_227:\n        /* \"#utility.yul\":8230:8241   */\n      0x00\n        /* \"#utility.yul\":8264:8270   */\n      dup3\n        /* \"#utility.yul\":8259:8262   */\n      dup3\n        /* \"#utility.yul\":8252:8271   */\n      mstore\n        /* \"#utility.yul\":8304:8308   */\n      0x20\n        /* \"#utility.yul\":8299:8302   */\n      dup3\n        /* \"#utility.yul\":8295:8309   */\n      add\n        /* \"#utility.yul\":8280:8309   */\n      swap1\n      pop\n        /* \"#utility.yul\":8110:8315   */\n      swap3\n      swap2\n      pop\n      pop\n      jump\t// out\n        /* \"#utility.yul\":8321:8474   */\n    tag_228:\n        /* \"#utility.yul\":8409:8413   */\n      0x00\n        /* \"#utility.yul\":8432:8435   */\n      dup2\n        /* \"#utility.yul\":8424:8435   */\n      swap1\n      pop\n        /* \"#utility.yul\":8462:8466   */\n      0x20\n        /* \"#utility.yul\":8457:8460   */\n      dup3\n        /* \"#utility.yul\":8453:8467   */\n      add\n        /* \"#utility.yul\":8445:8467   */\n      swap1\n      pop\n        /* \"#utility.yul\":8321:8474   */\n      swap2\n      swap1\n      pop\n      jump\t// out\n        /* \"#utility.yul\":8480:8660   */\n    tag_130:\n        /* \"#utility.yul\":8528:8605   */\n      0x4e487b7100000000000000000000000000000000000000000000000000000000\n        /* \"#utility.yul\":8525:8526   */\n      0x00\n        /* \"#utility.yul\":8518:8606   */\n      mstore\n        /* \"#utility.yul\":8625:8629   */\n      0x21\n        /* \"#utility.yul\":8622:8623   */\n      0x04\n        /* \"#utility.yul\":8615:8630   */\n      mstore\n        /* \"#utility.yul\":8649:8653   */\n      0x24\n        /* \"#utility.yul\":8646:8647   */\n      0x00\n        /* \"#utility.yul\":8639:8654   */\n      revert\n        /* \"#utility.yul\":8666:8784   */\n    tag_229:\n        /* \"#utility.yul\":8752:8753   */\n      0x02\n        /* \"#utility.yul\":8745:8750   */\n      dup2\n        /* \"#utility.yul\":8742:8754   */\n      lt\n        /* \"#utility.yul\":8732:8778   */\n      tag_350\n      jumpi\n        /* \"#utility.yul\":8758:8776   */\n      tag_351\n      tag_130\n      jump\t// in\n    tag_351:\n        /* \"#utility.yul\":8732:8778   */\n    tag_350:\n        /* \"#utility.yul\":8666:8784   */\n      pop\n      jump\t// out\n        /* \"#utility.yul\":8790:8927   */\n    tag_230:\n        /* \"#utility.yul\":8840:8847   */\n      0x00\n        /* \"#utility.yul\":8869:8874   */\n      dup2\n        /* \"#utility.yul\":8858:8874   */\n      swap1\n      pop\n        /* \"#utility.yul\":8875:8921   */\n      tag_353\n        /* \"#utility.yul\":8915:8920   */\n      dup3\n        /* \"#utility.yul\":8875:8921   */\n      tag_229\n      jump\t// in\n    tag_353:\n        /* \"#utility.yul\":8790:8927   */\n      swap2\n      swap1\n      pop\n      jump\t// out\n        /* \"#utility.yul\":8933:9070   */\n    tag_231:\n        /* \"#utility.yul\":8994:9003   */\n      0x00\n        /* \"#utility.yul\":9027:9064   */\n      tag_355\n        /* \"#utility.yul\":9058:9063   */\n      dup3\n        /* \"#utility.yul\":9027:9064   */\n      tag_230\n      jump\t// in\n    tag_355:\n        /* \"#utility.yul\":9014:9064   */\n      swap1\n      pop\n        /* \"#utility.yul\":8933:9070   */\n      swap2\n      swap1\n      pop\n      jump\t// out\n        /* \"#utility.yul\":9076:9219   */\n    tag_232:\n        /* \"#utility.yul\":9164:9212   */\n      tag_357\n        /* \"#utility.yul\":9206:9211   */\n      dup2\n        /* \"#utility.yul\":9164:9212   */\n      tag_231\n      jump\t// in\n    tag_357:\n        /* \"#utility.yul\":9159:9162   */\n      dup3\n        /* \"#utility.yul\":9152:9213   */\n      mstore\n        /* \"#utility.yul\":9076:9219   */\n      pop\n      pop\n      jump\t// out\n        /* \"#utility.yul\":9283:10137   */\n    tag_233:\n        /* \"#utility.yul\":9412:9416   */\n      0x80\n        /* \"#utility.yul\":9407:9410   */\n      dup3\n        /* \"#utility.yul\":9403:9417   */\n      add\n        /* \"#utility.yul\":9500:9504   */\n      0x00\n        /* \"#utility.yul\":9493:9498   */\n      dup3\n        /* \"#utility.yul\":9489:9505   */\n      add\n        /* \"#utility.yul\":9483:9506   */\n      mload\n        /* \"#utility.yul\":9519:9582   */\n      tag_359\n        /* \"#utility.yul\":9576:9580   */\n      0x00\n        /* \"#utility.yul\":9571:9574   */\n      dup6\n        /* \"#utility.yul\":9567:9581   */\n      add\n        /* \"#utility.yul\":9553:9565   */\n      dup3\n        /* \"#utility.yul\":9519:9582   */\n      tag_212\n      jump\t// in\n    tag_359:\n        /* \"#utility.yul\":9427:9592   */\n      pop\n        /* \"#utility.yul\":9675:9679   */\n      0x20\n        /* \"#utility.yul\":9668:9673   */\n      dup3\n        /* \"#utility.yul\":9664:9680   */\n      add\n        /* \"#utility.yul\":9658:9681   */\n      mload\n        /* \"#utility.yul\":9694:9757   */\n      tag_360\n        /* \"#utility.yul\":9751:9755   */\n      0x20\n        /* \"#utility.yul\":9746:9749   */\n      dup6\n        /* \"#utility.yul\":9742:9756   */\n      add\n        /* \"#utility.yul\":9728:9740   */\n      dup3\n        /* \"#utility.yul\":9694:9757   */\n      tag_212\n      jump\t// in\n    tag_360:\n        /* \"#utility.yul\":9602:9767   */\n      pop\n        /* \"#utility.yul\":9851:9855   */\n      0x40\n        /* \"#utility.yul\":9844:9849   */\n      dup3\n        /* \"#utility.yul\":9840:9856   */\n      add\n        /* \"#utility.yul\":9834:9857   */\n      mload\n        /* \"#utility.yul\":9870:9933   */\n      tag_361\n        /* \"#utility.yul\":9927:9931   */\n      0x40\n        /* \"#utility.yul\":9922:9925   */\n      dup6\n        /* \"#utility.yul\":9918:9932   */\n      add\n        /* \"#utility.yul\":9904:9916   */\n      dup3\n        /* \"#utility.yul\":9870:9933   */\n      tag_212\n      jump\t// in\n    tag_361:\n        /* \"#utility.yul\":9777:9943   */\n      pop\n        /* \"#utility.yul\":10027:10031   */\n      0x60\n        /* \"#utility.yul\":10020:10025   */\n      dup3\n        /* \"#utility.yul\":10016:10032   */\n      add\n        /* \"#utility.yul\":10010:10033   */\n      mload\n        /* \"#utility.yul\":10046:10120   */\n      tag_362\n        /* \"#utility.yul\":10114:10118   */\n      0x60\n        /* \"#utility.yul\":10109:10112   */\n      dup6\n        /* \"#utility.yul\":10105:10119   */\n      add\n        /* \"#utility.yul\":10091:10103   */\n      dup3\n        /* \"#utility.yul\":10046:10120   */\n      tag_232\n      jump\t// in\n    tag_362:\n        /* \"#utility.yul\":9953:10130   */\n      pop\n        /* \"#utility.yul\":9381:10137   */\n      pop\n        /* \"#utility.yul\":9283:10137   */\n      pop\n      pop\n      jump\t// out\n        /* \"#utility.yul\":10143:10406   */\n    tag_234:\n        /* \"#utility.yul\":10254:10264   */\n      0x00\n        /* \"#utility.yul\":10275:10363   */\n      tag_364\n        /* \"#utility.yul\":10359:10362   */\n      dup4\n        /* \"#utility.yul\":10351:10357   */\n      dup4\n        /* \"#utility.yul\":10275:10363   */\n      tag_233\n      jump\t// in\n    tag_364:\n        /* \"#utility.yul\":10395:10399   */\n      0x80\n        /* \"#utility.yul\":10390:10393   */\n      dup4\n        /* \"#utility.yul\":10386:10400   */\n      add\n        /* \"#utility.yul\":10372:10400   */\n      swap1\n      pop\n        /* \"#utility.yul\":10143:10406   */\n      swap3\n      swap2\n      pop\n      pop\n      jump\t// out\n        /* \"#utility.yul\":10412:10546   */\n    tag_235:\n        /* \"#utility.yul\":10503:10507   */\n      0x00\n        /* \"#utility.yul\":10535:10539   */\n      0x20\n        /* \"#utility.yul\":10530:10533   */\n      dup3\n        /* \"#utility.yul\":10526:10540   */\n      add\n        /* \"#utility.yul\":10518:10540   */\n      swap1\n      pop\n        /* \"#utility.yul\":10412:10546   */\n      swap2\n      swap1\n      pop\n      jump\t// out\n        /* \"#utility.yul\":10614:11514   */\n    tag_236:\n        /* \"#utility.yul\":10775:10778   */\n      0x00\n        /* \"#utility.yul\":10804:10879   */\n      tag_367\n        /* \"#utility.yul\":10873:10878   */\n      dup3\n        /* \"#utility.yul\":10804:10879   */\n      tag_226\n      jump\t// in\n    tag_367:\n        /* \"#utility.yul\":10895:11002   */\n      tag_368\n        /* \"#utility.yul\":10995:11001   */\n      dup2\n        /* \"#utility.yul\":10990:10993   */\n      dup6\n        /* \"#utility.yul\":10895:11002   */\n      tag_227\n      jump\t// in\n    tag_368:\n        /* \"#utility.yul\":10888:11002   */\n      swap4\n      pop\n        /* \"#utility.yul\":11026:11103   */\n      tag_369\n        /* \"#utility.yul\":11097:11102   */\n      dup4\n        /* \"#utility.yul\":11026:11103   */\n      tag_228\n      jump\t// in\n    tag_369:\n        /* \"#utility.yul\":11126:11133   */\n      dup1\n        /* \"#utility.yul\":11157:11158   */\n      0x00\n        /* \"#utility.yul\":11142:11489   */\n    tag_370:\n        /* \"#utility.yul\":11167:11173   */\n      dup4\n        /* \"#utility.yul\":11164:11165   */\n      dup2\n        /* \"#utility.yul\":11161:11174   */\n      lt\n        /* \"#utility.yul\":11142:11489   */\n      iszero\n      tag_372\n      jumpi\n        /* \"#utility.yul\":11243:11249   */\n      dup2\n        /* \"#utility.yul\":11237:11250   */\n      mload\n        /* \"#utility.yul\":11270:11375   */\n      tag_373\n        /* \"#utility.yul\":11371:11374   */\n      dup9\n        /* \"#utility.yul\":11356:11369   */\n      dup3\n        /* \"#utility.yul\":11270:11375   */\n      tag_234\n      jump\t// in\n    tag_373:\n        /* \"#utility.yul\":11263:11375   */\n      swap8\n      pop\n        /* \"#utility.yul\":11398:11479   */\n      tag_374\n        /* \"#utility.yul\":11472:11478   */\n      dup4\n        /* \"#utility.yul\":11398:11479   */\n      tag_235\n      jump\t// in\n    tag_374:\n        /* \"#utility.yul\":11388:11479   */\n      swap3\n      pop\n        /* \"#utility.yul\":11202:11489   */\n      pop\n        /* \"#utility.yul\":11189:11190   */\n      0x01\n        /* \"#utility.yul\":11186:11187   */\n      dup2\n        /* \"#utility.yul\":11182:11191   */\n      add\n        /* \"#utility.yul\":11177:11191   */\n      swap1\n      pop\n        /* \"#utility.yul\":11142:11489   */\n      jump(tag_370)\n    tag_372:\n        /* \"#utility.yul\":11146:11160   */\n      pop\n        /* \"#utility.yul\":11505:11508   */\n      dup6\n        /* \"#utility.yul\":11498:11508   */\n      swap4\n      pop\n        /* \"#utility.yul\":10780:11514   */\n      pop\n      pop\n      pop\n        /* \"#utility.yul\":10614:11514   */\n      swap3\n      swap2\n      pop\n      pop\n      jump\t// out\n        /* \"#utility.yul\":11520:11977   */\n    tag_48:\n        /* \"#utility.yul\":11705:11709   */\n      0x00\n        /* \"#utility.yul\":11743:11745   */\n      0x20\n        /* \"#utility.yul\":11732:11741   */\n      dup3\n        /* \"#utility.yul\":11728:11746   */\n      add\n        /* \"#utility.yul\":11720:11746   */\n      swap1\n      pop\n        /* \"#utility.yul\":11792:11801   */\n      dup2\n        /* \"#utility.yul\":11786:11790   */\n      dup2\n        /* \"#utility.yul\":11782:11802   */\n      sub\n        /* \"#utility.yul\":11778:11779   */\n      0x00\n        /* \"#utility.yul\":11767:11776   */\n      dup4\n        /* \"#utility.yul\":11763:11780   */\n      add\n        /* \"#utility.yul\":11756:11803   */\n      mstore\n        /* \"#utility.yul\":11820:11970   */\n      tag_376\n        /* \"#utility.yul\":11965:11969   */\n      dup2\n        /* \"#utility.yul\":11956:11962   */\n      dup5\n        /* \"#utility.yul\":11820:11970   */\n      tag_236\n      jump\t// in\n    tag_376:\n        /* \"#utility.yul\":11812:11970   */\n      swap1\n      pop\n        /* \"#utility.yul\":11520:11977   */\n      swap3\n      swap2\n      pop\n      pop\n      jump\t// out\n        /* \"#utility.yul\":11983:12152   */\n    tag_237:\n        /* \"#utility.yul\":12067:12078   */\n      0x00\n        /* \"#utility.yul\":12101:12107   */\n      dup3\n        /* \"#utility.yul\":12096:12099   */\n      dup3\n        /* \"#utility.yul\":12089:12108   */\n      mstore\n        /* \"#utility.yul\":12141:12145   */\n      0x20\n        /* \"#utility.yul\":12136:12139   */\n      dup3\n        /* \"#utility.yul\":12132:12146   */\n      add\n        /* \"#utility.yul\":12117:12146   */\n      swap1\n      pop\n        /* \"#utility.yul\":11983:12152   */\n      swap3\n      swap2\n      pop\n      pop\n      jump\t// out\n        /* \"#utility.yul\":12158:12378   */\n    tag_238:\n        /* \"#utility.yul\":12298:12332   */\n      0x4f6e6c79206f776e65722063616e2063616c6c20746869732066756e6374696f\n        /* \"#utility.yul\":12294:12295   */\n      0x00\n        /* \"#utility.yul\":12286:12292   */\n      dup3\n        /* \"#utility.yul\":12282:12296   */\n      add\n        /* \"#utility.yul\":12275:12333   */\n      mstore\n        /* \"#utility.yul\":12367:12370   */\n      0x6e00000000000000000000000000000000000000000000000000000000000000\n        /* \"#utility.yul\":12362:12364   */\n      0x20\n        /* \"#utility.yul\":12354:12360   */\n      dup3\n        /* \"#utility.yul\":12350:12365   */\n      add\n        /* \"#utility.yul\":12343:12371   */\n      mstore\n        /* \"#utility.yul\":12158:12378   */\n      pop\n      jump\t// out\n        /* \"#utility.yul\":12384:12750   */\n    tag_239:\n        /* \"#utility.yul\":12526:12529   */\n      0x00\n        /* \"#utility.yul\":12547:12614   */\n      tag_380\n        /* \"#utility.yul\":12611:12613   */\n      0x21\n        /* \"#utility.yul\":12606:12609   */\n      dup4\n        /* \"#utility.yul\":12547:12614   */\n      tag_237\n      jump\t// in\n    tag_380:\n        /* \"#utility.yul\":12540:12614   */\n      swap2\n      pop\n        /* \"#utility.yul\":12623:12716   */\n      tag_381\n        /* \"#utility.yul\":12712:12715   */\n      dup3\n        /* \"#utility.yul\":12623:12716   */\n      tag_238\n      jump\t// in\n    tag_381:\n        /* \"#utility.yul\":12741:12743   */\n      0x40\n        /* \"#utility.yul\":12736:12739   */\n      dup3\n        /* \"#utility.yul\":12732:12744   */\n      add\n        /* \"#utility.yul\":12725:12744   */\n      swap1\n      pop\n        /* \"#utility.yul\":12384:12750   */\n      swap2\n      swap1\n      pop\n      jump\t// out\n        /* \"#utility.yul\":12756:13175   */\n    tag_52:\n        /* \"#utility.yul\":12922:12926   */\n      0x00\n        /* \"#utility.yul\":12960:12962   */\n      0x20\n        /* \"#utility.yul\":12949:12958   */\n      dup3\n        /* \"#utility.yul\":12945:12963   */\n      add\n        /* \"#utility.yul\":12937:12963   */\n      swap1\n      pop\n        /* \"#utility.yul\":13009:13018   */\n      dup2\n        /* \"#utility.yul\":13003:13007   */\n      dup2\n        /* \"#utility.yul\":12999:13019   */\n      sub\n        /* \"#utility.yul\":12995:12996   */\n      0x00\n        /* \"#utility.yul\":12984:12993   */\n      dup4\n        /* \"#utility.yul\":12980:12997   */\n      add\n        /* \"#utility.yul\":12973:13020   */\n      mstore\n        /* \"#utility.yul\":13037:13168   */\n      tag_383\n        /* \"#utility.yul\":13163:13167   */\n      dup2\n        /* \"#utility.yul\":13037:13168   */\n      tag_239\n      jump\t// in\n    tag_383:\n        /* \"#utility.yul\":13029:13168   */\n      swap1\n      pop\n        /* \"#utility.yul\":12756:13175   */\n      swap2\n      swap1\n      pop\n      jump\t// out\n        /* \"#utility.yul\":13181:13356   */\n    tag_240:\n        /* \"#utility.yul\":13321:13348   */\n      0x546f75726e616d656e7420646f6573206e6f7420657869737400000000000000\n        /* \"#utility.yul\":13317:13318   */\n      0x00\n        /* \"#utility.yul\":13309:13315   */\n      dup3\n        /* \"#utility.yul\":13305:13319   */\n      add\n        /* \"#utility.yul\":13298:13349   */\n      mstore\n        /* \"#utility.yul\":13181:13356   */\n      pop\n      jump\t// out\n        /* \"#utility.yul\":13362:13728   */\n    tag_241:\n        /* \"#utility.yul\":13504:13507   */\n      0x00\n        /* \"#utility.yul\":13525:13592   */\n      tag_386\n        /* \"#utility.yul\":13589:13591   */\n      0x19\n        /* \"#utility.yul\":13584:13587   */\n      dup4\n        /* \"#utility.yul\":13525:13592   */\n      tag_237\n      jump\t// in\n    tag_386:\n        /* \"#utility.yul\":13518:13592   */\n      swap2\n      pop\n        /* \"#utility.yul\":13601:13694   */\n      tag_387\n        /* \"#utility.yul\":13690:13693   */\n      dup3\n        /* \"#utility.yul\":13601:13694   */\n      tag_240\n      jump\t// in\n    tag_387:\n        /* \"#utility.yul\":13719:13721   */\n      0x20\n        /* \"#utility.yul\":13714:13717   */\n      dup3\n        /* \"#utility.yul\":13710:13722   */\n      add\n        /* \"#utility.yul\":13703:13722   */\n      swap1\n      pop\n        /* \"#utility.yul\":13362:13728   */\n      swap2\n      swap1\n      pop\n      jump\t// out\n        /* \"#utility.yul\":13734:14153   */\n    tag_56:\n        /* \"#utility.yul\":13900:13904   */\n      0x00\n        /* \"#utility.yul\":13938:13940   */\n      0x20\n        /* \"#utility.yul\":13927:13936   */\n      dup3\n        /* \"#utility.yul\":13923:13941   */\n      add\n        /* \"#utility.yul\":13915:13941   */\n      swap1\n      pop\n        /* \"#utility.yul\":13987:13996   */\n      dup2\n        /* \"#utility.yul\":13981:13985   */\n      dup2\n        /* \"#utility.yul\":13977:13997   */\n      sub\n        /* \"#utility.yul\":13973:13974   */\n      0x00\n        /* \"#utility.yul\":13962:13971   */\n      dup4\n        /* \"#utility.yul\":13958:13975   */\n      add\n        /* \"#utility.yul\":13951:13998   */\n      mstore\n        /* \"#utility.yul\":14015:14146   */\n      tag_389\n        /* \"#utility.yul\":14141:14145   */\n      dup2\n        /* \"#utility.yul\":14015:14146   */\n      tag_241\n      jump\t// in\n    tag_389:\n        /* \"#utility.yul\":14007:14146   */\n      swap1\n      pop\n        /* \"#utility.yul\":13734:14153   */\n      swap2\n      swap1\n      pop\n      jump\t// out\n        /* \"#utility.yul\":14159:14339   */\n    tag_242:\n        /* \"#utility.yul\":14207:14284   */\n      0x4e487b7100000000000000000000000000000000000000000000000000000000\n        /* \"#utility.yul\":14204:14205   */\n      0x00\n        /* \"#utility.yul\":14197:14285   */\n      mstore\n        /* \"#utility.yul\":14304:14308   */\n      0x11\n        /* \"#utility.yul\":14301:14302   */\n      0x04\n        /* \"#utility.yul\":14294:14309   */\n      mstore\n        /* \"#utility.yul\":14328:14332   */\n      0x24\n        /* \"#utility.yul\":14325:14326   */\n      0x00\n        /* \"#utility.yul\":14318:14333   */\n      revert\n        /* \"#utility.yul\":14345:14539   */\n    tag_59:\n        /* \"#utility.yul\":14385:14389   */\n      0x00\n        /* \"#utility.yul\":14405:14425   */\n      tag_392\n        /* \"#utility.yul\":14423:14424   */\n      dup3\n        /* \"#utility.yul\":14405:14425   */\n      tag_198\n      jump\t// in\n    tag_392:\n        /* \"#utility.yul\":14400:14425   */\n      swap2\n      pop\n        /* \"#utility.yul\":14439:14459   */\n      tag_393\n        /* \"#utility.yul\":14457:14458   */\n      dup4\n        /* \"#utility.yul\":14439:14459   */\n      tag_198\n      jump\t// in\n    tag_393:\n        /* \"#utility.yul\":14434:14459   */\n      swap3\n      pop\n        /* \"#utility.yul\":14483:14484   */\n      dup3\n        /* \"#utility.yul\":14480:14481   */\n      dup3\n        /* \"#utility.yul\":14476:14485   */\n      sub\n        /* \"#utility.yul\":14468:14485   */\n      swap1\n      pop\n        /* \"#utility.yul\":14507:14508   */\n      dup2\n        /* \"#utility.yul\":14501:14505   */\n      dup2\n        /* \"#utility.yul\":14498:14509   */\n      gt\n        /* \"#utility.yul\":14495:14532   */\n      iszero\n      tag_394\n      jumpi\n        /* \"#utility.yul\":14512:14530   */\n      tag_395\n      tag_242\n      jump\t// in\n    tag_395:\n        /* \"#utility.yul\":14495:14532   */\n    tag_394:\n        /* \"#utility.yul\":14345:14539   */\n      swap3\n      swap2\n      pop\n      pop\n      jump\t// out\n        /* \"#utility.yul\":14545:14718   */\n    tag_243:\n        /* \"#utility.yul\":14685:14710   */\n      0x546f75726e616d656e74206e6f742066696e6973686564000000000000000000\n        /* \"#utility.yul\":14681:14682   */\n      0x00\n        /* \"#utility.yul\":14673:14679   */\n      dup3\n        /* \"#utility.yul\":14669:14683   */\n      add\n        /* \"#utility.yul\":14662:14711   */\n      mstore\n        /* \"#utility.yul\":14545:14718   */\n      pop\n      jump\t// out\n        /* \"#utility.yul\":14724:15090   */\n    tag_244:\n        /* \"#utility.yul\":14866:14869   */\n      0x00\n        /* \"#utility.yul\":14887:14954   */\n      tag_398\n        /* \"#utility.yul\":14951:14953   */\n      0x17\n        /* \"#utility.yul\":14946:14949   */\n      dup4\n        /* \"#utility.yul\":14887:14954   */\n      tag_237\n      jump\t// in\n    tag_398:\n        /* \"#utility.yul\":14880:14954   */\n      swap2\n      pop\n        /* \"#utility.yul\":14963:15056   */\n      tag_399\n        /* \"#utility.yul\":15052:15055   */\n      dup3\n        /* \"#utility.yul\":14963:15056   */\n      tag_243\n      jump\t// in\n    tag_399:\n        /* \"#utility.yul\":15081:15083   */\n      0x20\n        /* \"#utility.yul\":15076:15079   */\n      dup3\n        /* \"#utility.yul\":15072:15084   */\n      add\n        /* \"#utility.yul\":15065:15084   */\n      swap1\n      pop\n        /* \"#utility.yul\":14724:15090   */\n      swap2\n      swap1\n      pop\n      jump\t// out\n        /* \"#utility.yul\":15096:15515   */\n    tag_62:\n        /* \"#utility.yul\":15262:15266   */\n      0x00\n        /* \"#utility.yul\":15300:15302   */\n      0x20\n        /* \"#utility.yul\":15289:15298   */\n      dup3\n        /* \"#utility.yul\":15285:15303   */\n      add\n        /* \"#utility.yul\":15277:15303   */\n      swap1\n      pop\n        /* \"#utility.yul\":15349:15358   */\n      dup2\n        /* \"#utility.yul\":15343:15347   */\n      dup2\n        /* \"#utility.yul\":15339:15359   */\n      sub\n        /* \"#utility.yul\":15335:15336   */\n      0x00\n        /* \"#utility.yul\":15324:15333   */\n      dup4\n        /* \"#utility.yul\":15320:15337   */\n      add\n        /* \"#utility.yul\":15313:15360   */\n      mstore\n        /* \"#utility.yul\":15377:15508   */\n      tag_401\n        /* \"#utility.yul\":15503:15507   */\n      dup2\n        /* \"#utility.yul\":15377:15508   */\n      tag_244\n      jump\t// in\n    tag_401:\n        /* \"#utility.yul\":15369:15508   */\n      swap1\n      pop\n        /* \"#utility.yul\":15096:15515   */\n      swap2\n      swap1\n      pop\n      jump\t// out\n        /* \"#utility.yul\":15521:15931   */\n    tag_64:\n        /* \"#utility.yul\":15561:15568   */\n      0x00\n        /* \"#utility.yul\":15584:15604   */\n      tag_403\n        /* \"#utility.yul\":15602:15603   */\n      dup3\n        /* \"#utility.yul\":15584:15604   */\n      tag_198\n      jump\t// in\n    tag_403:\n        /* \"#utility.yul\":15579:15604   */\n      swap2\n      pop\n        /* \"#utility.yul\":15618:15638   */\n      tag_404\n        /* \"#utility.yul\":15636:15637   */\n      dup4\n        /* \"#utility.yul\":15618:15638   */\n      tag_198\n      jump\t// in\n    tag_404:\n        /* \"#utility.yul\":15613:15638   */\n      swap3\n      pop\n        /* \"#utility.yul\":15673:15674   */\n      dup3\n        /* \"#utility.yul\":15670:15671   */\n      dup3\n        /* \"#utility.yul\":15666:15675   */\n      mul\n        /* \"#utility.yul\":15695:15725   */\n      tag_405\n        /* \"#utility.yul\":15713:15724   */\n      dup2\n        /* \"#utility.yul\":15695:15725   */\n      tag_198\n      jump\t// in\n    tag_405:\n        /* \"#utility.yul\":15684:15725   */\n      swap2\n      pop\n        /* \"#utility.yul\":15874:15875   */\n      dup3\n        /* \"#utility.yul\":15865:15872   */\n      dup3\n        /* \"#utility.yul\":15861:15876   */\n      div\n        /* \"#utility.yul\":15858:15859   */\n      dup5\n        /* \"#utility.yul\":15855:15877   */\n      eq\n        /* \"#utility.yul\":15835:15836   */\n      dup4\n        /* \"#utility.yul\":15828:15837   */\n      iszero\n        /* \"#utility.yul\":15808:15891   */\n      or\n        /* \"#utility.yul\":15785:15924   */\n      tag_406\n      jumpi\n        /* \"#utility.yul\":15904:15922   */\n      tag_407\n      tag_242\n      jump\t// in\n    tag_407:\n        /* \"#utility.yul\":15785:15924   */\n    tag_406:\n        /* \"#utility.yul\":15569:15931   */\n      pop\n        /* \"#utility.yul\":15521:15931   */\n      swap3\n      swap2\n      pop\n      pop\n      jump\t// out\n        /* \"#utility.yul\":15937:16117   */\n    tag_245:\n        /* \"#utility.yul\":15985:16062   */\n      0x4e487b7100000000000000000000000000000000000000000000000000000000\n        /* \"#utility.yul\":15982:15983   */\n      0x00\n        /* \"#utility.yul\":15975:16063   */\n      mstore\n        /* \"#utility.yul\":16082:16086   */\n      0x12\n        /* \"#utility.yul\":16079:16080   */\n      0x04\n        /* \"#utility.yul\":16072:16087   */\n      mstore\n        /* \"#utility.yul\":16106:16110   */\n      0x24\n        /* \"#utility.yul\":16103:16104   */\n      0x00\n        /* \"#utility.yul\":16096:16111   */\n      revert\n        /* \"#utility.yul\":16123:16308   */\n    tag_66:\n        /* \"#utility.yul\":16163:16164   */\n      0x00\n        /* \"#utility.yul\":16180:16200   */\n      tag_410\n        /* \"#utility.yul\":16198:16199   */\n      dup3\n        /* \"#utility.yul\":16180:16200   */\n      tag_198\n      jump\t// in\n    tag_410:\n        /* \"#utility.yul\":16175:16200   */\n      swap2\n      pop\n        /* \"#utility.yul\":16214:16234   */\n      tag_411\n        /* \"#utility.yul\":16232:16233   */\n      dup4\n        /* \"#utility.yul\":16214:16234   */\n      tag_198\n      jump\t// in\n    tag_411:\n        /* \"#utility.yul\":16209:16234   */\n      swap3\n      pop\n        /* \"#utility.yul\":16253:16254   */\n      dup3\n        /* \"#utility.yul\":16243:16278   */\n      tag_412\n      jumpi\n        /* \"#utility.yul\":16258:16276   */\n      tag_413\n      tag_245\n      jump\t// in\n    tag_413:\n        /* \"#utility.yul\":16243:16278   */\n    tag_412:\n        /* \"#utility.yul\":16300:16301   */\n      dup3\n        /* \"#utility.yul\":16297:16298   */\n      dup3\n        /* \"#utility.yul\":16293:16302   */\n      div\n        /* \"#utility.yul\":16288:16302   */\n      swap1\n      pop\n        /* \"#utility.yul\":16123:16308   */\n      swap3\n      swap2\n      pop\n      pop\n      jump\t// out\n        /* \"#utility.yul\":16314:16494   */\n    tag_76:\n        /* \"#utility.yul\":16362:16439   */\n      0x4e487b7100000000000000000000000000000000000000000000000000000000\n        /* \"#utility.yul\":16359:16360   */\n      0x00\n        /* \"#utility.yul\":16352:16440   */\n      mstore\n        /* \"#utility.yul\":16459:16463   */\n      0x32\n        /* \"#utility.yul\":16456:16457   */\n      0x04\n        /* \"#utility.yul\":16449:16464   */\n      mstore\n        /* \"#utility.yul\":16483:16487   */\n      0x24\n        /* \"#utility.yul\":16480:16481   */\n      0x00\n        /* \"#utility.yul\":16473:16488   */\n      revert\n        /* \"#utility.yul\":16500:16676   */\n    tag_106:\n        /* \"#utility.yul\":16532:16533   */\n      0x00\n        /* \"#utility.yul\":16549:16569   */\n      tag_416\n        /* \"#utility.yul\":16567:16568   */\n      dup3\n        /* \"#utility.yul\":16549:16569   */\n      tag_198\n      jump\t// in\n    tag_416:\n        /* \"#utility.yul\":16544:16569   */\n      swap2\n      pop\n        /* \"#utility.yul\":16583:16603   */\n      tag_417\n        /* \"#utility.yul\":16601:16602   */\n      dup4\n        /* \"#utility.yul\":16583:16603   */\n      tag_198\n      jump\t// in\n    tag_417:\n        /* \"#utility.yul\":16578:16603   */\n      swap3\n      pop\n        /* \"#utility.yul\":16622:16623   */\n      dup3\n        /* \"#utility.yul\":16612:16647   */\n      tag_418\n      jumpi\n        /* \"#utility.yul\":16627:16645   */\n      tag_419\n      tag_245\n      jump\t// in\n    tag_419:\n        /* \"#utility.yul\":16612:16647   */\n    tag_418:\n        /* \"#utility.yul\":16668:16669   */\n      dup3\n        /* \"#utility.yul\":16665:16666   */\n      dup3\n        /* \"#utility.yul\":16661:16670   */\n      mod\n        /* \"#utility.yul\":16656:16670   */\n      swap1\n      pop\n        /* \"#utility.yul\":16500:16676   */\n      swap3\n      swap2\n      pop\n      pop\n      jump\t// out\n        /* \"#utility.yul\":16682:16860   */\n    tag_246:\n        /* \"#utility.yul\":16822:16852   */\n      0x4e756d626572206f66207465616d73206d757374206265206576656e00000000\n        /* \"#utility.yul\":16818:16819   */\n      0x00\n        /* \"#utility.yul\":16810:16816   */\n      dup3\n        /* \"#utility.yul\":16806:16820   */\n      add\n        /* \"#utility.yul\":16799:16853   */\n      mstore\n        /* \"#utility.yul\":16682:16860   */\n      pop\n      jump\t// out\n        /* \"#utility.yul\":16866:17232   */\n    tag_247:\n        /* \"#utility.yul\":17008:17011   */\n      0x00\n        /* \"#utility.yul\":17029:17096   */\n      tag_422\n        /* \"#utility.yul\":17093:17095   */\n      0x1c\n        /* \"#utility.yul\":17088:17091   */\n      dup4\n        /* \"#utility.yul\":17029:17096   */\n      tag_237\n      jump\t// in\n    tag_422:\n        /* \"#utility.yul\":17022:17096   */\n      swap2\n      pop\n        /* \"#utility.yul\":17105:17198   */\n      tag_423\n        /* \"#utility.yul\":17194:17197   */\n      dup3\n        /* \"#utility.yul\":17105:17198   */\n      tag_246\n      jump\t// in\n    tag_423:\n        /* \"#utility.yul\":17223:17225   */\n      0x20\n        /* \"#utility.yul\":17218:17221   */\n      dup3\n        /* \"#utility.yul\":17214:17226   */\n      add\n        /* \"#utility.yul\":17207:17226   */\n      swap1\n      pop\n        /* \"#utility.yul\":16866:17232   */\n      swap2\n      swap1\n      pop\n      jump\t// out\n        /* \"#utility.yul\":17238:17657   */\n    tag_109:\n        /* \"#utility.yul\":17404:17408   */\n      0x00\n        /* \"#utility.yul\":17442:17444   */\n      0x20\n        /* \"#utility.yul\":17431:17440   */\n      dup3\n        /* \"#utility.yul\":17427:17445   */\n      add\n        /* \"#utility.yul\":17419:17445   */\n      swap1\n      pop\n        /* \"#utility.yul\":17491:17500   */\n      dup2\n        /* \"#utility.yul\":17485:17489   */\n      dup2\n        /* \"#utility.yul\":17481:17501   */\n      sub\n        /* \"#utility.yul\":17477:17478   */\n      0x00\n        /* \"#utility.yul\":17466:17475   */\n      dup4\n        /* \"#utility.yul\":17462:17479   */\n      add\n        /* \"#utility.yul\":17455:17502   */\n      mstore\n        /* \"#utility.yul\":17519:17650   */\n      tag_425\n        /* \"#utility.yul\":17645:17649   */\n      dup2\n        /* \"#utility.yul\":17519:17650   */\n      tag_247\n      jump\t// in\n    tag_425:\n        /* \"#utility.yul\":17511:17650   */\n      swap1\n      pop\n        /* \"#utility.yul\":17238:17657   */\n      swap2\n      swap1\n      pop\n      jump\t// out\n        /* \"#utility.yul\":17663:17843   */\n    tag_248:\n        /* \"#utility.yul\":17803:17835   */\n      0x546f75726e616d656e742068617320616c726561647920737461727465640000\n        /* \"#utility.yul\":17799:17800   */\n      0x00\n        /* \"#utility.yul\":17791:17797   */\n      dup3\n        /* \"#utility.yul\":17787:17801   */\n      add\n        /* \"#utility.yul\":17780:17836   */\n      mstore\n        /* \"#utility.yul\":17663:17843   */\n      pop\n      jump\t// out\n        /* \"#utility.yul\":17849:18215   */\n    tag_249:\n        /* \"#utility.yul\":17991:17994   */\n      0x00\n        /* \"#utility.yul\":18012:18079   */\n      tag_428\n        /* \"#utility.yul\":18076:18078   */\n      0x1e\n        /* \"#utility.yul\":18071:18074   */\n      dup4\n        /* \"#utility.yul\":18012:18079   */\n      tag_237\n      jump\t// in\n    tag_428:\n        /* \"#utility.yul\":18005:18079   */\n      swap2\n      pop\n        /* \"#utility.yul\":18088:18181   */\n      tag_429\n        /* \"#utility.yul\":18177:18180   */\n      dup3\n        /* \"#utility.yul\":18088:18181   */\n      tag_248\n      jump\t// in\n    tag_429:\n        /* \"#utility.yul\":18206:18208   */\n      0x20\n        /* \"#utility.yul\":18201:18204   */\n      dup3\n        /* \"#utility.yul\":18197:18209   */\n      add\n        /* \"#utility.yul\":18190:18209   */\n      swap1\n      pop\n        /* \"#utility.yul\":17849:18215   */\n      swap2\n      swap1\n      pop\n      jump\t// out\n        /* \"#utility.yul\":18221:18640   */\n    tag_113:\n        /* \"#utility.yul\":18387:18391   */\n      0x00\n        /* \"#utility.yul\":18425:18427   */\n      0x20\n        /* \"#utility.yul\":18414:18423   */\n      dup3\n        /* \"#utility.yul\":18410:18428   */\n      add\n        /* \"#utility.yul\":18402:18428   */\n      swap1\n      pop\n        /* \"#utility.yul\":18474:18483   */\n      dup2\n        /* \"#utility.yul\":18468:18472   */\n      dup2\n        /* \"#utility.yul\":18464:18484   */\n      sub\n        /* \"#utility.yul\":18460:18461   */\n      0x00\n        /* \"#utility.yul\":18449:18458   */\n      dup4\n        /* \"#utility.yul\":18445:18462   */\n      add\n        /* \"#utility.yul\":18438:18485   */\n      mstore\n        /* \"#utility.yul\":18502:18633   */\n      tag_431\n        /* \"#utility.yul\":18628:18632   */\n      dup2\n        /* \"#utility.yul\":18502:18633   */\n      tag_249\n      jump\t// in\n    tag_431:\n        /* \"#utility.yul\":18494:18633   */\n      swap1\n      pop\n        /* \"#utility.yul\":18221:18640   */\n      swap2\n      swap1\n      pop\n      jump\t// out\n        /* \"#utility.yul\":18646:18837   */\n    tag_124:\n        /* \"#utility.yul\":18686:18689   */\n      0x00\n        /* \"#utility.yul\":18705:18725   */\n      tag_433\n        /* \"#utility.yul\":18723:18724   */\n      dup3\n        /* \"#utility.yul\":18705:18725   */\n      tag_198\n      jump\t// in\n    tag_433:\n        /* \"#utility.yul\":18700:18725   */\n      swap2\n      pop\n        /* \"#utility.yul\":18739:18759   */\n      tag_434\n        /* \"#utility.yul\":18757:18758   */\n      dup4\n        /* \"#utility.yul\":18739:18759   */\n      tag_198\n      jump\t// in\n    tag_434:\n        /* \"#utility.yul\":18734:18759   */\n      swap3\n      pop\n        /* \"#utility.yul\":18782:18783   */\n      dup3\n        /* \"#utility.yul\":18779:18780   */\n      dup3\n        /* \"#utility.yul\":18775:18784   */\n      add\n        /* \"#utility.yul\":18768:18784   */\n      swap1\n      pop\n        /* \"#utility.yul\":18803:18806   */\n      dup1\n        /* \"#utility.yul\":18800:18801   */\n      dup3\n        /* \"#utility.yul\":18797:18807   */\n      gt\n        /* \"#utility.yul\":18794:18830   */\n      iszero\n      tag_435\n      jumpi\n        /* \"#utility.yul\":18810:18828   */\n      tag_436\n      tag_242\n      jump\t// in\n    tag_436:\n        /* \"#utility.yul\":18794:18830   */\n    tag_435:\n        /* \"#utility.yul\":18646:18837   */\n      swap3\n      swap2\n      pop\n      pop\n      jump\t// out\n        /* \"#utility.yul\":18843:19076   */\n    tag_135:\n        /* \"#utility.yul\":18882:18885   */\n      0x00\n        /* \"#utility.yul\":18905:18929   */\n      tag_438\n        /* \"#utility.yul\":18923:18928   */\n      dup3\n        /* \"#utility.yul\":18905:18929   */\n      tag_198\n      jump\t// in\n    tag_438:\n        /* \"#utility.yul\":18896:18929   */\n      swap2\n      pop\n        /* \"#utility.yul\":18951:19017   */\n      0xffffffffffffffffffffffffffffffffffffffffffffffffffffffffffffffff\n        /* \"#utility.yul\":18944:18949   */\n      dup3\n        /* \"#utility.yul\":18941:19018   */\n      sub\n        /* \"#utility.yul\":18938:19041   */\n      tag_439\n      jumpi\n        /* \"#utility.yul\":19021:19039   */\n      tag_440\n      tag_242\n      jump\t// in\n    tag_440:\n        /* \"#utility.yul\":18938:19041   */\n    tag_439:\n        /* \"#utility.yul\":19068:19069   */\n      0x01\n        /* \"#utility.yul\":19061:19066   */\n      dup3\n        /* \"#utility.yul\":19057:19070   */\n      add\n        /* \"#utility.yul\":19050:19070   */\n      swap1\n      pop\n        /* \"#utility.yul\":18843:19076   */\n      swap2\n      swap1\n      pop\n      jump\t// out\n        /* \"#utility.yul\":19082:19251   */\n    tag_250:\n        /* \"#utility.yul\":19222:19243   */\n      0x496e76616c6964206d6174636820696e64657800000000000000000000000000\n        /* \"#utility.yul\":19218:19219   */\n      0x00\n        /* \"#utility.yul\":19210:19216   */\n      dup3\n        /* \"#utility.yul\":19206:19220   */\n      add\n        /* \"#utility.yul\":19199:19244   */\n      mstore\n        /* \"#utility.yul\":19082:19251   */\n      pop\n      jump\t// out\n        /* \"#utility.yul\":19257:19623   */\n    tag_251:\n        /* \"#utility.yul\":19399:19402   */\n      0x00\n        /* \"#utility.yul\":19420:19487   */\n      tag_443\n        /* \"#utility.yul\":19484:19486   */\n      0x13\n        /* \"#utility.yul\":19479:19482   */\n      dup4\n        /* \"#utility.yul\":19420:19487   */\n      tag_237\n      jump\t// in\n    tag_443:\n        /* \"#utility.yul\":19413:19487   */\n      swap2\n      pop\n        /* \"#utility.yul\":19496:19589   */\n      tag_444\n        /* \"#utility.yul\":19585:19588   */\n      dup3\n        /* \"#utility.yul\":19496:19589   */\n      tag_250\n      jump\t// in\n    tag_444:\n        /* \"#utility.yul\":19614:19616   */\n      0x20\n        /* \"#utility.yul\":19609:19612   */\n      dup3\n        /* \"#utility.yul\":19605:19617   */\n      add\n        /* \"#utility.yul\":19598:19617   */\n      swap1\n      pop\n        /* \"#utility.yul\":19257:19623   */\n      swap2\n      swap1\n      pop\n      jump\t// out\n        /* \"#utility.yul\":19629:20048   */\n    tag_145:\n        /* \"#utility.yul\":19795:19799   */\n      0x00\n        /* \"#utility.yul\":19833:19835   */\n      0x20\n        /* \"#utility.yul\":19822:19831   */\n      dup3\n        /* \"#utility.yul\":19818:19836   */\n      add\n        /* \"#utility.yul\":19810:19836   */\n      swap1\n      pop\n        /* \"#utility.yul\":19882:19891   */\n      dup2\n        /* \"#utility.yul\":19876:19880   */\n      dup2\n        /* \"#utility.yul\":19872:19892   */\n      sub\n        /* \"#utility.yul\":19868:19869   */\n      0x00\n        /* \"#utility.yul\":19857:19866   */\n      dup4\n        /* \"#utility.yul\":19853:19870   */\n      add\n        /* \"#utility.yul\":19846:19893   */\n      mstore\n        /* \"#utility.yul\":19910:20041   */\n      tag_446\n        /* \"#utility.yul\":20036:20040   */\n      dup2\n        /* \"#utility.yul\":19910:20041   */\n      tag_251\n      jump\t// in\n    tag_446:\n        /* \"#utility.yul\":19902:20041   */\n      swap1\n      pop\n        /* \"#utility.yul\":19629:20048   */\n      swap2\n      swap1\n      pop\n      jump\t// out\n        /* \"#utility.yul\":20054:20227   */\n    tag_252:\n        /* \"#utility.yul\":20194:20219   */\n      0x4d6174636820616c726561647920636f6d706c65746564000000000000000000\n        /* \"#utility.yul\":20190:20191   */\n      0x00\n        /* \"#utility.yul\":20182:20188   */\n      dup3\n        /* \"#utility.yul\":20178:20192   */\n      add\n        /* \"#utility.yul\":20171:20220   */\n      mstore\n        /* \"#utility.yul\":20054:20227   */\n      pop\n      jump\t// out\n        /* \"#utility.yul\":20233:20599   */\n    tag_253:\n        /* \"#utility.yul\":20375:20378   */\n      0x00\n        /* \"#utility.yul\":20396:20463   */\n      tag_449\n        /* \"#utility.yul\":20460:20462   */\n      0x17\n        /* \"#utility.yul\":20455:20458   */\n      dup4\n        /* \"#utility.yul\":20396:20463   */\n      tag_237\n      jump\t// in\n    tag_449:\n        /* \"#utility.yul\":20389:20463   */\n      swap2\n      pop\n        /* \"#utility.yul\":20472:20565   */\n      tag_450\n        /* \"#utility.yul\":20561:20564   */\n      dup3\n        /* \"#utility.yul\":20472:20565   */\n      tag_252\n      jump\t// in\n    tag_450:\n        /* \"#utility.yul\":20590:20592   */\n      0x20\n        /* \"#utility.yul\":20585:20588   */\n      dup3\n        /* \"#utility.yul\":20581:20593   */\n      add\n        /* \"#utility.yul\":20574:20593   */\n      swap1\n      pop\n        /* \"#utility.yul\":20233:20599   */\n      swap2\n      swap1\n      pop\n      jump\t// out\n        /* \"#utility.yul\":20605:21024   */\n    tag_155:\n        /* \"#utility.yul\":20771:20775   */\n      0x00\n        /* \"#utility.yul\":20809:20811   */\n      0x20\n        /* \"#utility.yul\":20798:20807   */\n      dup3\n        /* \"#utility.yul\":20794:20812   */\n      add\n        /* \"#utility.yul\":20786:20812   */\n      swap1\n      pop\n        /* \"#utility.yul\":20858:20867   */\n      dup2\n        /* \"#utility.yul\":20852:20856   */\n      dup2\n        /* \"#utility.yul\":20848:20868   */\n      sub\n        /* \"#utility.yul\":20844:20845   */\n      0x00\n        /* \"#utility.yul\":20833:20842   */\n      dup4\n        /* \"#utility.yul\":20829:20846   */\n      add\n        /* \"#utility.yul\":20822:20869   */\n      mstore\n        /* \"#utility.yul\":20886:21017   */\n      tag_452\n        /* \"#utility.yul\":21012:21016   */\n      dup2\n        /* \"#utility.yul\":20886:21017   */\n      tag_253\n      jump\t// in\n    tag_452:\n        /* \"#utility.yul\":20878:21017   */\n      swap1\n      pop\n        /* \"#utility.yul\":20605:21024   */\n      swap2\n      swap1\n      pop\n      jump\t// out\n        /* \"#utility.yul\":21030:21362   */\n    tag_165:\n        /* \"#utility.yul\":21151:21155   */\n      0x00\n        /* \"#utility.yul\":21189:21191   */\n      0x40\n        /* \"#utility.yul\":21178:21187   */\n      dup3\n        /* \"#utility.yul\":21174:21192   */\n      add\n        /* \"#utility.yul\":21166:21192   */\n      swap1\n      pop\n        /* \"#utility.yul\":21202:21273   */\n      tag_454\n        /* \"#utility.yul\":21270:21271   */\n      0x00\n        /* \"#utility.yul\":21259:21268   */\n      dup4\n        /* \"#utility.yul\":21255:21272   */\n      add\n        /* \"#utility.yul\":21246:21252   */\n      dup6\n        /* \"#utility.yul\":21202:21273   */\n      tag_199\n      jump\t// in\n    tag_454:\n        /* \"#utility.yul\":21283:21355   */\n      tag_455\n        /* \"#utility.yul\":21351:21353   */\n      0x20\n        /* \"#utility.yul\":21340:21349   */\n      dup4\n        /* \"#utility.yul\":21336:21354   */\n      add\n        /* \"#utility.yul\":21327:21333   */\n      dup5\n        /* \"#utility.yul\":21283:21355   */\n      tag_216\n      jump\t// in\n    tag_455:\n        /* \"#utility.yul\":21030:21362   */\n      swap4\n      swap3\n      pop\n      pop\n      pop\n      jump\t// out\n        /* \"#utility.yul\":21368:21549   */\n    tag_254:\n        /* \"#utility.yul\":21508:21541   */\n      0x4e756d626572206f66207465616d73206d7573742062652038206f7220313600\n        /* \"#utility.yul\":21504:21505   */\n      0x00\n        /* \"#utility.yul\":21496:21502   */\n      dup3\n        /* \"#utility.yul\":21492:21506   */\n      add\n        /* \"#utility.yul\":21485:21542   */\n      mstore\n        /* \"#utility.yul\":21368:21549   */\n      pop\n      jump\t// out\n        /* \"#utility.yul\":21555:21921   */\n    tag_255:\n        /* \"#utility.yul\":21697:21700   */\n      0x00\n        /* \"#utility.yul\":21718:21785   */\n      tag_458\n        /* \"#utility.yul\":21782:21784   */\n      0x1f\n        /* \"#utility.yul\":21777:21780   */\n      dup4\n        /* \"#utility.yul\":21718:21785   */\n      tag_237\n      jump\t// in\n    tag_458:\n        /* \"#utility.yul\":21711:21785   */\n      swap2\n      pop\n        /* \"#utility.yul\":21794:21887   */\n      tag_459\n        /* \"#utility.yul\":21883:21886   */\n      dup3\n        /* \"#utility.yul\":21794:21887   */\n      tag_254\n      jump\t// in\n    tag_459:\n        /* \"#utility.yul\":21912:21914   */\n      0x20\n        /* \"#utility.yul\":21907:21910   */\n      dup3\n        /* \"#utility.yul\":21903:21915   */\n      add\n        /* \"#utility.yul\":21896:21915   */\n      swap1\n      pop\n        /* \"#utility.yul\":21555:21921   */\n      swap2\n      swap1\n      pop\n      jump\t// out\n        /* \"#utility.yul\":21927:22346   */\n    tag_179:\n        /* \"#utility.yul\":22093:22097   */\n      0x00\n        /* \"#utility.yul\":22131:22133   */\n      0x20\n        /* \"#utility.yul\":22120:22129   */\n      dup3\n        /* \"#utility.yul\":22116:22134   */\n      add\n        /* \"#utility.yul\":22108:22134   */\n      swap1\n      pop\n        /* \"#utility.yul\":22180:22189   */\n      dup2\n        /* \"#utility.yul\":22174:22178   */\n      dup2\n        /* \"#utility.yul\":22170:22190   */\n      sub\n        /* \"#utility.yul\":22166:22167   */\n      0x00\n        /* \"#utility.yul\":22155:22164   */\n      dup4\n        /* \"#utility.yul\":22151:22168   */\n      add\n        /* \"#utility.yul\":22144:22191   */\n      mstore\n        /* \"#utility.yul\":22208:22339   */\n      tag_461\n        /* \"#utility.yul\":22334:22338   */\n      dup2\n        /* \"#utility.yul\":22208:22339   */\n      tag_255\n      jump\t// in\n    tag_461:\n        /* \"#utility.yul\":22200:22339   */\n      swap1\n      pop\n        /* \"#utility.yul\":21927:22346   */\n      swap2\n      swap1\n      pop\n      jump\t// out\n\n    auxdata: 0xa26469706673582212206612da143f6afac9d159485e763c63c87b5040762a2648401c542f9fc38c6f1964736f6c63430008120033\n}\n",
				"bytecode": {
					"linkReferences": {},
					"object": "608060405234801561001057600080fd5b50336000806101000a81548173ffffffffffffffffffffffffffffffffffffffff021916908373ffffffffffffffffffffffffffffffffffffffff160217905550611d9b806100606000396000f3fe608060405234801561001057600080fd5b50600436106100935760003560e01c80636f4cf972116100665780636f4cf9721461010c57806387c2825f146101285780638da5cb5b14610158578063be5973d614610176578063d8c57e851461019257610093565b8063566378cc1461009857806359974e38146100b6578063651ea943146100d257806366666aa9146100ee575b600080fd5b6100a06101c2565b6040516100ad919061122f565b60405180910390f35b6100d060048036038101906100cb919061128a565b6101c8565b005b6100ec60048036038101906100e7919061128a565b61062f565b005b6100f6610a69565b604051610103919061122f565b60405180910390f35b61012660048036038101906101219190611315565b610a6f565b005b610142600480360381019061013d919061128a565b610d4c565b60405161014f9190611426565b60405180910390f35b610160610df0565b60405161016d9190611457565b60405180910390f35b610190600480360381019061018b91906115cb565b610e14565b005b6101ac60048036038101906101a7919061128a565b610fbd565b6040516101b991906117a2565b60405180910390f35b60035481565b60008054906101000a900473ffffffffffffffffffffffffffffffffffffffff1673ffffffffffffffffffffffffffffffffffffffff163373ffffffffffffffffffffffffffffffffffffffff1614610256576040517f08c379a000000000000000000000000000000000000000000000000000000000815260040161024d90611847565b60405180910390fd5b8060006002600083815260200190815260200160002060010180549050116102b3576040517f08c379a00000000000000000000000000000000000000000000000000000000081526004016102aa906118b3565b60405180910390fd5b6000600260008481526020019081526020016000209050600181600101805490506102de9190611902565b816000018054905014610326576040517f08c379a000000000000000000000000000000000000000000000000000000000815260040161031d90611982565b60405180910390fd5b60006064603260015461033991906119a2565b6103439190611a13565b905060006064601e60015461035891906119a2565b6103629190611a13565b905060006064600a60015461037791906119a2565b6103819190611a13565b905060006064600a60015461039691906119a2565b6103a09190611a13565b905084600001600186600001805490506103ba9190611902565b815481106103cb576103ca611a44565b5b906000526020600020906003020160020160009054906101000a900473ffffffffffffffffffffffffffffffffffffffff1673ffffffffffffffffffffffffffffffffffffffff166108fc859081150290604051600060405180830381858888f19350505050158015610442573d6000803e3d6000fd5b50846000016002866000018054905061045b9190611902565b8154811061046c5761046b611a44565b5b906000526020600020906003020160020160009054906101000a900473ffffffffffffffffffffffffffffffffffffffff1673ffffffffffffffffffffffffffffffffffffffff166108fc849081150290604051600060405180830381858888f193505050501580156104e3573d6000803e3d6000fd5b5084600001600386600001805490506104fc9190611902565b8154811061050d5761050c611a44565b5b906000526020600020906003020160020160009054906101000a900473ffffffffffffffffffffffffffffffffffffffff1673ffffffffffffffffffffffffffffffffffffffff166108fc839081150290604051600060405180830381858888f19350505050158015610584573d6000803e3d6000fd5b50846000016004866000018054905061059d9190611902565b815481106105ae576105ad611a44565b5b906000526020600020906003020160020160009054906101000a900473ffffffffffffffffffffffffffffffffffffffff1673ffffffffffffffffffffffffffffffffffffffff166108fc829081150290604051600060405180830381858888f19350505050158015610625573d6000803e3d6000fd5b5050505050505050565b60008054906101000a900473ffffffffffffffffffffffffffffffffffffffff1673ffffffffffffffffffffffffffffffffffffffff163373ffffffffffffffffffffffffffffffffffffffff16146106bd576040517f08c379a00000000000000000000000000000000000000000000000000000000081526004016106b490611847565b60405180910390fd5b80600060026000838152602001908152602001600020600101805490501161071a576040517f08c379a0000000000000000000000000000000000000000000000000000000008152600401610711906118b3565b60405180910390fd5b6000600260008481526020019081526020016000209050600081600101805490509050600060028261074c9190611a73565b1461078c576040517f08c379a000000000000000000000000000000000000000000000000000000000815260040161078390611af0565b60405180910390fd5b6001816107999190611902565b8260000180549050106107e1576040517f08c379a00000000000000000000000000000000000000000000000000000000081526004016107d890611b5c565b60405180910390fd5b60005b6002826107f19190611a13565b811015610a5a578260000160405180608001604052808560010160028561081891906119a2565b8154811061082957610828611a44565b5b9060005260206000200160009054906101000a900473ffffffffffffffffffffffffffffffffffffffff1673ffffffffffffffffffffffffffffffffffffffff16815260200185600101600160028661088291906119a2565b61088c9190611b7c565b8154811061089d5761089c611a44565b5b9060005260206000200160009054906101000a900473ffffffffffffffffffffffffffffffffffffffff1673ffffffffffffffffffffffffffffffffffffffff168152602001600073ffffffffffffffffffffffffffffffffffffffff1681526020016000600181111561091457610913611653565b5b815250908060018154018082558091505060019003906000526020600020906003020160009091909190915060008201518160000160006101000a81548173ffffffffffffffffffffffffffffffffffffffff021916908373ffffffffffffffffffffffffffffffffffffffff16021790555060208201518160010160006101000a81548173ffffffffffffffffffffffffffffffffffffffff021916908373ffffffffffffffffffffffffffffffffffffffff16021790555060408201518160020160006101000a81548173ffffffffffffffffffffffffffffffffffffffff021916908373ffffffffffffffffffffffffffffffffffffffff16021790555060608201518160020160146101000a81548160ff02191690836001811115610a4057610a3f611653565b5b021790555050508080610a5290611bb0565b9150506107e4565b50600060038190555050505050565b60015481565b60008054906101000a900473ffffffffffffffffffffffffffffffffffffffff1673ffffffffffffffffffffffffffffffffffffffff163373ffffffffffffffffffffffffffffffffffffffff1614610afd576040517f08c379a0000000000000000000000000000000000000000000000000000000008152600401610af490611847565b60405180910390fd5b826000600260008381526020019081526020016000206001018054905011610b5a576040517f08c379a0000000000000000000000000000000000000000000000000000000008152600401610b51906118b3565b60405180910390fd5b600060026000868152602001908152602001600020905080600001805490508410610bba576040517f08c379a0000000000000000000000000000000000000000000000000000000008152600401610bb190611c44565b60405180910390fd5b60006001811115610bce57610bcd611653565b5b816000018581548110610be457610be3611a44565b5b906000526020600020906003020160020160149054906101000a900460ff166001811115610c1557610c14611653565b5b14610c55576040517f08c379a0000000000000000000000000000000000000000000000000000000008152600401610c4c90611cb0565b60405180910390fd5b82816000018581548110610c6c57610c6b611a44565b5b906000526020600020906003020160020160006101000a81548173ffffffffffffffffffffffffffffffffffffffff021916908373ffffffffffffffffffffffffffffffffffffffff1602179055506001816000018581548110610cd357610cd2611a44565b5b906000526020600020906003020160020160146101000a81548160ff02191690836001811115610d0657610d05611653565b5b0217905550847f8d60b015965672d4594cbe60ae278e009bdef53b71cccf704014a4860ccf8a578585604051610d3d929190611cd0565b60405180910390a25050505050565b606060026000838152602001908152602001600020600101805480602002602001604051908101604052809291908181526020018280548015610de457602002820191906000526020600020905b8160009054906101000a900473ffffffffffffffffffffffffffffffffffffffff1673ffffffffffffffffffffffffffffffffffffffff1681526020019060010190808311610d9a575b50505050509050919050565b60008054906101000a900473ffffffffffffffffffffffffffffffffffffffff1681565b60008054906101000a900473ffffffffffffffffffffffffffffffffffffffff1673ffffffffffffffffffffffffffffffffffffffff163373ffffffffffffffffffffffffffffffffffffffff1614610ea2576040517f08c379a0000000000000000000000000000000000000000000000000000000008152600401610e9990611847565b60405180910390fd5b816000600260008381526020019081526020016000206000018054905014610eff576040517f08c379a0000000000000000000000000000000000000000000000000000000008152600401610ef690611b5c565b60405180910390fd5b600882511480610f10575060108251145b610f4f576040517f08c379a0000000000000000000000000000000000000000000000000000000008152600401610f4690611d45565b60405180910390fd5b600060026000858152602001908152602001600020905082816001019080519060200190610f7e92919061116f565b50837fa47122c4660339cf88308783d3c2a9ed10d7809cc28e552e580a7a89722f6da984604051610faf9190611426565b60405180910390a250505050565b606060026000838152602001908152602001600020600001805480602002602001604051908101604052809291908181526020016000905b8282101561116457838290600052602060002090600302016040518060800160405290816000820160009054906101000a900473ffffffffffffffffffffffffffffffffffffffff1673ffffffffffffffffffffffffffffffffffffffff1673ffffffffffffffffffffffffffffffffffffffff1681526020016001820160009054906101000a900473ffffffffffffffffffffffffffffffffffffffff1673ffffffffffffffffffffffffffffffffffffffff1673ffffffffffffffffffffffffffffffffffffffff1681526020016002820160009054906101000a900473ffffffffffffffffffffffffffffffffffffffff1673ffffffffffffffffffffffffffffffffffffffff1673ffffffffffffffffffffffffffffffffffffffff1681526020016002820160149054906101000a900460ff16600181111561113f5761113e611653565b5b600181111561115157611150611653565b5b8152505081526020019060010190610ff5565b505050509050919050565b8280548282559060005260206000209081019282156111e8579160200282015b828111156111e75782518260006101000a81548173ffffffffffffffffffffffffffffffffffffffff021916908373ffffffffffffffffffffffffffffffffffffffff1602179055509160200191906001019061118f565b5b5090506111f591906111f9565b5090565b5b808211156112125760008160009055506001016111fa565b5090565b6000819050919050565b61122981611216565b82525050565b60006020820190506112446000830184611220565b92915050565b6000604051905090565b600080fd5b600080fd5b61126781611216565b811461127257600080fd5b50565b6000813590506112848161125e565b92915050565b6000602082840312156112a05761129f611254565b5b60006112ae84828501611275565b91505092915050565b600073ffffffffffffffffffffffffffffffffffffffff82169050919050565b60006112e2826112b7565b9050919050565b6112f2816112d7565b81146112fd57600080fd5b50565b60008135905061130f816112e9565b92915050565b60008060006060848603121561132e5761132d611254565b5b600061133c86828701611275565b935050602061134d86828701611275565b925050604061135e86828701611300565b9150509250925092565b600081519050919050565b600082825260208201905092915050565b6000819050602082019050919050565b61139d816112d7565b82525050565b60006113af8383611394565b60208301905092915050565b6000602082019050919050565b60006113d382611368565b6113dd8185611373565b93506113e883611384565b8060005b8381101561141957815161140088826113a3565b975061140b836113bb565b9250506001810190506113ec565b5085935050505092915050565b6000602082019050818103600083015261144081846113c8565b905092915050565b611451816112d7565b82525050565b600060208201905061146c6000830184611448565b92915050565b600080fd5b6000601f19601f8301169050919050565b7f4e487b7100000000000000000000000000000000000000000000000000000000600052604160045260246000fd5b6114c082611477565b810181811067ffffffffffffffff821117156114df576114de611488565b5b80604052505050565b60006114f261124a565b90506114fe82826114b7565b919050565b600067ffffffffffffffff82111561151e5761151d611488565b5b602082029050602081019050919050565b600080fd5b600061154761154284611503565b6114e8565b9050808382526020820190506020840283018581111561156a5761156961152f565b5b835b81811015611593578061157f8882611300565b84526020840193505060208101905061156c565b5050509392505050565b600082601f8301126115b2576115b1611472565b5b81356115c2848260208601611534565b91505092915050565b600080604083850312156115e2576115e1611254565b5b60006115f085828601611275565b925050602083013567ffffffffffffffff81111561161157611610611259565b5b61161d8582860161159d565b9150509250929050565b600081519050919050565b600082825260208201905092915050565b6000819050602082019050919050565b7f4e487b7100000000000000000000000000000000000000000000000000000000600052602160045260246000fd5b6002811061169357611692611653565b5b50565b60008190506116a482611682565b919050565b60006116b482611696565b9050919050565b6116c4816116a9565b82525050565b6080820160008201516116e06000850182611394565b5060208201516116f36020850182611394565b5060408201516117066040850182611394565b50606082015161171960608501826116bb565b50505050565b600061172b83836116ca565b60808301905092915050565b6000602082019050919050565b600061174f82611627565b6117598185611632565b935061176483611643565b8060005b8381101561179557815161177c888261171f565b975061178783611737565b925050600181019050611768565b5085935050505092915050565b600060208201905081810360008301526117bc8184611744565b905092915050565b600082825260208201905092915050565b7f4f6e6c79206f776e65722063616e2063616c6c20746869732066756e6374696f60008201527f6e00000000000000000000000000000000000000000000000000000000000000602082015250565b60006118316021836117c4565b915061183c826117d5565b604082019050919050565b6000602082019050818103600083015261186081611824565b9050919050565b7f546f75726e616d656e7420646f6573206e6f7420657869737400000000000000600082015250565b600061189d6019836117c4565b91506118a882611867565b602082019050919050565b600060208201905081810360008301526118cc81611890565b9050919050565b7f4e487b7100000000000000000000000000000000000000000000000000000000600052601160045260246000fd5b600061190d82611216565b915061191883611216565b92508282039050818111156119305761192f6118d3565b5b92915050565b7f546f75726e616d656e74206e6f742066696e6973686564000000000000000000600082015250565b600061196c6017836117c4565b915061197782611936565b602082019050919050565b6000602082019050818103600083015261199b8161195f565b9050919050565b60006119ad82611216565b91506119b883611216565b92508282026119c681611216565b915082820484148315176119dd576119dc6118d3565b5b5092915050565b7f4e487b7100000000000000000000000000000000000000000000000000000000600052601260045260246000fd5b6000611a1e82611216565b9150611a2983611216565b925082611a3957611a386119e4565b5b828204905092915050565b7f4e487b7100000000000000000000000000000000000000000000000000000000600052603260045260246000fd5b6000611a7e82611216565b9150611a8983611216565b925082611a9957611a986119e4565b5b828206905092915050565b7f4e756d626572206f66207465616d73206d757374206265206576656e00000000600082015250565b6000611ada601c836117c4565b9150611ae582611aa4565b602082019050919050565b60006020820190508181036000830152611b0981611acd565b9050919050565b7f546f75726e616d656e742068617320616c726561647920737461727465640000600082015250565b6000611b46601e836117c4565b9150611b5182611b10565b602082019050919050565b60006020820190508181036000830152611b7581611b39565b9050919050565b6000611b8782611216565b9150611b9283611216565b9250828201905080821115611baa57611ba96118d3565b5b92915050565b6000611bbb82611216565b91507fffffffffffffffffffffffffffffffffffffffffffffffffffffffffffffffff8203611bed57611bec6118d3565b5b600182019050919050565b7f496e76616c6964206d6174636820696e64657800000000000000000000000000600082015250565b6000611c2e6013836117c4565b9150611c3982611bf8565b602082019050919050565b60006020820190508181036000830152611c5d81611c21565b9050919050565b7f4d6174636820616c726561647920636f6d706c65746564000000000000000000600082015250565b6000611c9a6017836117c4565b9150611ca582611c64565b602082019050919050565b60006020820190508181036000830152611cc981611c8d565b9050919050565b6000604082019050611ce56000830185611220565b611cf26020830184611448565b9392505050565b7f4e756d626572206f66207465616d73206d7573742062652038206f7220313600600082015250565b6000611d2f601f836117c4565b9150611d3a82611cf9565b602082019050919050565b60006020820190508181036000830152611d5e81611d22565b905091905056fea26469706673582212206612da143f6afac9d159485e763c63c87b5040762a2648401c542f9fc38c6f1964736f6c63430008120033",
					"opcodes": "PUSH1 0x80 PUSH1 0x40 MSTORE CALLVALUE DUP1 ISZERO PUSH2 0x10 JUMPI PUSH1 0x0 DUP1 REVERT JUMPDEST POP CALLER PUSH1 0x0 DUP1 PUSH2 0x100 EXP DUP2 SLOAD DUP2 PUSH20 0xFFFFFFFFFFFFFFFFFFFFFFFFFFFFFFFFFFFFFFFF MUL NOT AND SWAP1 DUP4 PUSH20 0xFFFFFFFFFFFFFFFFFFFFFFFFFFFFFFFFFFFFFFFF AND MUL OR SWAP1 SSTORE POP PUSH2 0x1D9B DUP1 PUSH2 0x60 PUSH1 0x0 CODECOPY PUSH1 0x0 RETURN INVALID PUSH1 0x80 PUSH1 0x40 MSTORE CALLVALUE DUP1 ISZERO PUSH2 0x10 JUMPI PUSH1 0x0 DUP1 REVERT JUMPDEST POP PUSH1 0x4 CALLDATASIZE LT PUSH2 0x93 JUMPI PUSH1 0x0 CALLDATALOAD PUSH1 0xE0 SHR DUP1 PUSH4 0x6F4CF972 GT PUSH2 0x66 JUMPI DUP1 PUSH4 0x6F4CF972 EQ PUSH2 0x10C JUMPI DUP1 PUSH4 0x87C2825F EQ PUSH2 0x128 JUMPI DUP1 PUSH4 0x8DA5CB5B EQ PUSH2 0x158 JUMPI DUP1 PUSH4 0xBE5973D6 EQ PUSH2 0x176 JUMPI DUP1 PUSH4 0xD8C57E85 EQ PUSH2 0x192 JUMPI PUSH2 0x93 JUMP JUMPDEST DUP1 PUSH4 0x566378CC EQ PUSH2 0x98 JUMPI DUP1 PUSH4 0x59974E38 EQ PUSH2 0xB6 JUMPI DUP1 PUSH4 0x651EA943 EQ PUSH2 0xD2 JUMPI DUP1 PUSH4 0x66666AA9 EQ PUSH2 0xEE JUMPI JUMPDEST PUSH1 0x0 DUP1 REVERT JUMPDEST PUSH2 0xA0 PUSH2 0x1C2 JUMP JUMPDEST PUSH1 0x40 MLOAD PUSH2 0xAD SWAP2 SWAP1 PUSH2 0x122F JUMP JUMPDEST PUSH1 0x40 MLOAD DUP1 SWAP2 SUB SWAP1 RETURN JUMPDEST PUSH2 0xD0 PUSH1 0x4 DUP1 CALLDATASIZE SUB DUP2 ADD SWAP1 PUSH2 0xCB SWAP2 SWAP1 PUSH2 0x128A JUMP JUMPDEST PUSH2 0x1C8 JUMP JUMPDEST STOP JUMPDEST PUSH2 0xEC PUSH1 0x4 DUP1 CALLDATASIZE SUB DUP2 ADD SWAP1 PUSH2 0xE7 SWAP2 SWAP1 PUSH2 0x128A JUMP JUMPDEST PUSH2 0x62F JUMP JUMPDEST STOP JUMPDEST PUSH2 0xF6 PUSH2 0xA69 JUMP JUMPDEST PUSH1 0x40 MLOAD PUSH2 0x103 SWAP2 SWAP1 PUSH2 0x122F JUMP JUMPDEST PUSH1 0x40 MLOAD DUP1 SWAP2 SUB SWAP1 RETURN JUMPDEST PUSH2 0x126 PUSH1 0x4 DUP1 CALLDATASIZE SUB DUP2 ADD SWAP1 PUSH2 0x121 SWAP2 SWAP1 PUSH2 0x1315 JUMP JUMPDEST PUSH2 0xA6F JUMP JUMPDEST STOP JUMPDEST PUSH2 0x142 PUSH1 0x4 DUP1 CALLDATASIZE SUB DUP2 ADD SWAP1 PUSH2 0x13D SWAP2 SWAP1 PUSH2 0x128A JUMP JUMPDEST PUSH2 0xD4C JUMP JUMPDEST PUSH1 0x40 MLOAD PUSH2 0x14F SWAP2 SWAP1 PUSH2 0x1426 JUMP JUMPDEST PUSH1 0x40 MLOAD DUP1 SWAP2 SUB SWAP1 RETURN JUMPDEST PUSH2 0x160 PUSH2 0xDF0 JUMP JUMPDEST PUSH1 0x40 MLOAD PUSH2 0x16D SWAP2 SWAP1 PUSH2 0x1457 JUMP JUMPDEST PUSH1 0x40 MLOAD DUP1 SWAP2 SUB SWAP1 RETURN JUMPDEST PUSH2 0x190 PUSH1 0x4 DUP1 CALLDATASIZE SUB DUP2 ADD SWAP1 PUSH2 0x18B SWAP2 SWAP1 PUSH2 0x15CB JUMP JUMPDEST PUSH2 0xE14 JUMP JUMPDEST STOP JUMPDEST PUSH2 0x1AC PUSH1 0x4 DUP1 CALLDATASIZE SUB DUP2 ADD SWAP1 PUSH2 0x1A7 SWAP2 SWAP1 PUSH2 0x128A JUMP JUMPDEST PUSH2 0xFBD JUMP JUMPDEST PUSH1 0x40 MLOAD PUSH2 0x1B9 SWAP2 SWAP1 PUSH2 0x17A2 JUMP JUMPDEST PUSH1 0x40 MLOAD DUP1 SWAP2 SUB SWAP1 RETURN JUMPDEST PUSH1 0x3 SLOAD DUP2 JUMP JUMPDEST PUSH1 0x0 DUP1 SLOAD SWAP1 PUSH2 0x100 EXP SWAP1 DIV PUSH20 0xFFFFFFFFFFFFFFFFFFFFFFFFFFFFFFFFFFFFFFFF AND PUSH20 0xFFFFFFFFFFFFFFFFFFFFFFFFFFFFFFFFFFFFFFFF AND CALLER PUSH20 0xFFFFFFFFFFFFFFFFFFFFFFFFFFFFFFFFFFFFFFFF AND EQ PUSH2 0x256 JUMPI PUSH1 0x40 MLOAD PUSH32 0x8C379A000000000000000000000000000000000000000000000000000000000 DUP2 MSTORE PUSH1 0x4 ADD PUSH2 0x24D SWAP1 PUSH2 0x1847 JUMP JUMPDEST PUSH1 0x40 MLOAD DUP1 SWAP2 SUB SWAP1 REVERT JUMPDEST DUP1 PUSH1 0x0 PUSH1 0x2 PUSH1 0x0 DUP4 DUP2 MSTORE PUSH1 0x20 ADD SWAP1 DUP2 MSTORE PUSH1 0x20 ADD PUSH1 0x0 KECCAK256 PUSH1 0x1 ADD DUP1 SLOAD SWAP1 POP GT PUSH2 0x2B3 JUMPI PUSH1 0x40 MLOAD PUSH32 0x8C379A000000000000000000000000000000000000000000000000000000000 DUP2 MSTORE PUSH1 0x4 ADD PUSH2 0x2AA SWAP1 PUSH2 0x18B3 JUMP JUMPDEST PUSH1 0x40 MLOAD DUP1 SWAP2 SUB SWAP1 REVERT JUMPDEST PUSH1 0x0 PUSH1 0x2 PUSH1 0x0 DUP5 DUP2 MSTORE PUSH1 0x20 ADD SWAP1 DUP2 MSTORE PUSH1 0x20 ADD PUSH1 0x0 KECCAK256 SWAP1 POP PUSH1 0x1 DUP2 PUSH1 0x1 ADD DUP1 SLOAD SWAP1 POP PUSH2 0x2DE SWAP2 SWAP1 PUSH2 0x1902 JUMP JUMPDEST DUP2 PUSH1 0x0 ADD DUP1 SLOAD SWAP1 POP EQ PUSH2 0x326 JUMPI PUSH1 0x40 MLOAD PUSH32 0x8C379A000000000000000000000000000000000000000000000000000000000 DUP2 MSTORE PUSH1 0x4 ADD PUSH2 0x31D SWAP1 PUSH2 0x1982 JUMP JUMPDEST PUSH1 0x40 MLOAD DUP1 SWAP2 SUB SWAP1 REVERT JUMPDEST PUSH1 0x0 PUSH1 0x64 PUSH1 0x32 PUSH1 0x1 SLOAD PUSH2 0x339 SWAP2 SWAP1 PUSH2 0x19A2 JUMP JUMPDEST PUSH2 0x343 SWAP2 SWAP1 PUSH2 0x1A13 JUMP JUMPDEST SWAP1 POP PUSH1 0x0 PUSH1 0x64 PUSH1 0x1E PUSH1 0x1 SLOAD PUSH2 0x358 SWAP2 SWAP1 PUSH2 0x19A2 JUMP JUMPDEST PUSH2 0x362 SWAP2 SWAP1 PUSH2 0x1A13 JUMP JUMPDEST SWAP1 POP PUSH1 0x0 PUSH1 0x64 PUSH1 0xA PUSH1 0x1 SLOAD PUSH2 0x377 SWAP2 SWAP1 PUSH2 0x19A2 JUMP JUMPDEST PUSH2 0x381 SWAP2 SWAP1 PUSH2 0x1A13 JUMP JUMPDEST SWAP1 POP PUSH1 0x0 PUSH1 0x64 PUSH1 0xA PUSH1 0x1 SLOAD PUSH2 0x396 SWAP2 SWAP1 PUSH2 0x19A2 JUMP JUMPDEST PUSH2 0x3A0 SWAP2 SWAP1 PUSH2 0x1A13 JUMP JUMPDEST SWAP1 POP DUP5 PUSH1 0x0 ADD PUSH1 0x1 DUP7 PUSH1 0x0 ADD DUP1 SLOAD SWAP1 POP PUSH2 0x3BA SWAP2 SWAP1 PUSH2 0x1902 JUMP JUMPDEST DUP2 SLOAD DUP2 LT PUSH2 0x3CB JUMPI PUSH2 0x3CA PUSH2 0x1A44 JUMP JUMPDEST JUMPDEST SWAP1 PUSH1 0x0 MSTORE PUSH1 0x20 PUSH1 0x0 KECCAK256 SWAP1 PUSH1 0x3 MUL ADD PUSH1 0x2 ADD PUSH1 0x0 SWAP1 SLOAD SWAP1 PUSH2 0x100 EXP SWAP1 DIV PUSH20 0xFFFFFFFFFFFFFFFFFFFFFFFFFFFFFFFFFFFFFFFF AND PUSH20 0xFFFFFFFFFFFFFFFFFFFFFFFFFFFFFFFFFFFFFFFF AND PUSH2 0x8FC DUP6 SWAP1 DUP2 ISZERO MUL SWAP1 PUSH1 0x40 MLOAD PUSH1 0x0 PUSH1 0x40 MLOAD DUP1 DUP4 SUB DUP2 DUP6 DUP9 DUP9 CALL SWAP4 POP POP POP POP ISZERO DUP1 ISZERO PUSH2 0x442 JUMPI RETURNDATASIZE PUSH1 0x0 DUP1 RETURNDATACOPY RETURNDATASIZE PUSH1 0x0 REVERT JUMPDEST POP DUP5 PUSH1 0x0 ADD PUSH1 0x2 DUP7 PUSH1 0x0 ADD DUP1 SLOAD SWAP1 POP PUSH2 0x45B SWAP2 SWAP1 PUSH2 0x1902 JUMP JUMPDEST DUP2 SLOAD DUP2 LT PUSH2 0x46C JUMPI PUSH2 0x46B PUSH2 0x1A44 JUMP JUMPDEST JUMPDEST SWAP1 PUSH1 0x0 MSTORE PUSH1 0x20 PUSH1 0x0 KECCAK256 SWAP1 PUSH1 0x3 MUL ADD PUSH1 0x2 ADD PUSH1 0x0 SWAP1 SLOAD SWAP1 PUSH2 0x100 EXP SWAP1 DIV PUSH20 0xFFFFFFFFFFFFFFFFFFFFFFFFFFFFFFFFFFFFFFFF AND PUSH20 0xFFFFFFFFFFFFFFFFFFFFFFFFFFFFFFFFFFFFFFFF AND PUSH2 0x8FC DUP5 SWAP1 DUP2 ISZERO MUL SWAP1 PUSH1 0x40 MLOAD PUSH1 0x0 PUSH1 0x40 MLOAD DUP1 DUP4 SUB DUP2 DUP6 DUP9 DUP9 CALL SWAP4 POP POP POP POP ISZERO DUP1 ISZERO PUSH2 0x4E3 JUMPI RETURNDATASIZE PUSH1 0x0 DUP1 RETURNDATACOPY RETURNDATASIZE PUSH1 0x0 REVERT JUMPDEST POP DUP5 PUSH1 0x0 ADD PUSH1 0x3 DUP7 PUSH1 0x0 ADD DUP1 SLOAD SWAP1 POP PUSH2 0x4FC SWAP2 SWAP1 PUSH2 0x1902 JUMP JUMPDEST DUP2 SLOAD DUP2 LT PUSH2 0x50D JUMPI PUSH2 0x50C PUSH2 0x1A44 JUMP JUMPDEST JUMPDEST SWAP1 PUSH1 0x0 MSTORE PUSH1 0x20 PUSH1 0x0 KECCAK256 SWAP1 PUSH1 0x3 MUL ADD PUSH1 0x2 ADD PUSH1 0x0 SWAP1 SLOAD SWAP1 PUSH2 0x100 EXP SWAP1 DIV PUSH20 0xFFFFFFFFFFFFFFFFFFFFFFFFFFFFFFFFFFFFFFFF AND PUSH20 0xFFFFFFFFFFFFFFFFFFFFFFFFFFFFFFFFFFFFFFFF AND PUSH2 0x8FC DUP4 SWAP1 DUP2 ISZERO MUL SWAP1 PUSH1 0x40 MLOAD PUSH1 0x0 PUSH1 0x40 MLOAD DUP1 DUP4 SUB DUP2 DUP6 DUP9 DUP9 CALL SWAP4 POP POP POP POP ISZERO DUP1 ISZERO PUSH2 0x584 JUMPI RETURNDATASIZE PUSH1 0x0 DUP1 RETURNDATACOPY RETURNDATASIZE PUSH1 0x0 REVERT JUMPDEST POP DUP5 PUSH1 0x0 ADD PUSH1 0x4 DUP7 PUSH1 0x0 ADD DUP1 SLOAD SWAP1 POP PUSH2 0x59D SWAP2 SWAP1 PUSH2 0x1902 JUMP JUMPDEST DUP2 SLOAD DUP2 LT PUSH2 0x5AE JUMPI PUSH2 0x5AD PUSH2 0x1A44 JUMP JUMPDEST JUMPDEST SWAP1 PUSH1 0x0 MSTORE PUSH1 0x20 PUSH1 0x0 KECCAK256 SWAP1 PUSH1 0x3 MUL ADD PUSH1 0x2 ADD PUSH1 0x0 SWAP1 SLOAD SWAP1 PUSH2 0x100 EXP SWAP1 DIV PUSH20 0xFFFFFFFFFFFFFFFFFFFFFFFFFFFFFFFFFFFFFFFF AND PUSH20 0xFFFFFFFFFFFFFFFFFFFFFFFFFFFFFFFFFFFFFFFF AND PUSH2 0x8FC DUP3 SWAP1 DUP2 ISZERO MUL SWAP1 PUSH1 0x40 MLOAD PUSH1 0x0 PUSH1 0x40 MLOAD DUP1 DUP4 SUB DUP2 DUP6 DUP9 DUP9 CALL SWAP4 POP POP POP POP ISZERO DUP1 ISZERO PUSH2 0x625 JUMPI RETURNDATASIZE PUSH1 0x0 DUP1 RETURNDATACOPY RETURNDATASIZE PUSH1 0x0 REVERT JUMPDEST POP POP POP POP POP POP POP POP JUMP JUMPDEST PUSH1 0x0 DUP1 SLOAD SWAP1 PUSH2 0x100 EXP SWAP1 DIV PUSH20 0xFFFFFFFFFFFFFFFFFFFFFFFFFFFFFFFFFFFFFFFF AND PUSH20 0xFFFFFFFFFFFFFFFFFFFFFFFFFFFFFFFFFFFFFFFF AND CALLER PUSH20 0xFFFFFFFFFFFFFFFFFFFFFFFFFFFFFFFFFFFFFFFF AND EQ PUSH2 0x6BD JUMPI PUSH1 0x40 MLOAD PUSH32 0x8C379A000000000000000000000000000000000000000000000000000000000 DUP2 MSTORE PUSH1 0x4 ADD PUSH2 0x6B4 SWAP1 PUSH2 0x1847 JUMP JUMPDEST PUSH1 0x40 MLOAD DUP1 SWAP2 SUB SWAP1 REVERT JUMPDEST DUP1 PUSH1 0x0 PUSH1 0x2 PUSH1 0x0 DUP4 DUP2 MSTORE PUSH1 0x20 ADD SWAP1 DUP2 MSTORE PUSH1 0x20 ADD PUSH1 0x0 KECCAK256 PUSH1 0x1 ADD DUP1 SLOAD SWAP1 POP GT PUSH2 0x71A JUMPI PUSH1 0x40 MLOAD PUSH32 0x8C379A000000000000000000000000000000000000000000000000000000000 DUP2 MSTORE PUSH1 0x4 ADD PUSH2 0x711 SWAP1 PUSH2 0x18B3 JUMP JUMPDEST PUSH1 0x40 MLOAD DUP1 SWAP2 SUB SWAP1 REVERT JUMPDEST PUSH1 0x0 PUSH1 0x2 PUSH1 0x0 DUP5 DUP2 MSTORE PUSH1 0x20 ADD SWAP1 DUP2 MSTORE PUSH1 0x20 ADD PUSH1 0x0 KECCAK256 SWAP1 POP PUSH1 0x0 DUP2 PUSH1 0x1 ADD DUP1 SLOAD SWAP1 POP SWAP1 POP PUSH1 0x0 PUSH1 0x2 DUP3 PUSH2 0x74C SWAP2 SWAP1 PUSH2 0x1A73 JUMP JUMPDEST EQ PUSH2 0x78C JUMPI PUSH1 0x40 MLOAD PUSH32 0x8C379A000000000000000000000000000000000000000000000000000000000 DUP2 MSTORE PUSH1 0x4 ADD PUSH2 0x783 SWAP1 PUSH2 0x1AF0 JUMP JUMPDEST PUSH1 0x40 MLOAD DUP1 SWAP2 SUB SWAP1 REVERT JUMPDEST PUSH1 0x1 DUP2 PUSH2 0x799 SWAP2 SWAP1 PUSH2 0x1902 JUMP JUMPDEST DUP3 PUSH1 0x0 ADD DUP1 SLOAD SWAP1 POP LT PUSH2 0x7E1 JUMPI PUSH1 0x40 MLOAD PUSH32 0x8C379A000000000000000000000000000000000000000000000000000000000 DUP2 MSTORE PUSH1 0x4 ADD PUSH2 0x7D8 SWAP1 PUSH2 0x1B5C JUMP JUMPDEST PUSH1 0x40 MLOAD DUP1 SWAP2 SUB SWAP1 REVERT JUMPDEST PUSH1 0x0 JUMPDEST PUSH1 0x2 DUP3 PUSH2 0x7F1 SWAP2 SWAP1 PUSH2 0x1A13 JUMP JUMPDEST DUP2 LT ISZERO PUSH2 0xA5A JUMPI DUP3 PUSH1 0x0 ADD PUSH1 0x40 MLOAD DUP1 PUSH1 0x80 ADD PUSH1 0x40 MSTORE DUP1 DUP6 PUSH1 0x1 ADD PUSH1 0x2 DUP6 PUSH2 0x818 SWAP2 SWAP1 PUSH2 0x19A2 JUMP JUMPDEST DUP2 SLOAD DUP2 LT PUSH2 0x829 JUMPI PUSH2 0x828 PUSH2 0x1A44 JUMP JUMPDEST JUMPDEST SWAP1 PUSH1 0x0 MSTORE PUSH1 0x20 PUSH1 0x0 KECCAK256 ADD PUSH1 0x0 SWAP1 SLOAD SWAP1 PUSH2 0x100 EXP SWAP1 DIV PUSH20 0xFFFFFFFFFFFFFFFFFFFFFFFFFFFFFFFFFFFFFFFF AND PUSH20 0xFFFFFFFFFFFFFFFFFFFFFFFFFFFFFFFFFFFFFFFF AND DUP2 MSTORE PUSH1 0x20 ADD DUP6 PUSH1 0x1 ADD PUSH1 0x1 PUSH1 0x2 DUP7 PUSH2 0x882 SWAP2 SWAP1 PUSH2 0x19A2 JUMP JUMPDEST PUSH2 0x88C SWAP2 SWAP1 PUSH2 0x1B7C JUMP JUMPDEST DUP2 SLOAD DUP2 LT PUSH2 0x89D JUMPI PUSH2 0x89C PUSH2 0x1A44 JUMP JUMPDEST JUMPDEST SWAP1 PUSH1 0x0 MSTORE PUSH1 0x20 PUSH1 0x0 KECCAK256 ADD PUSH1 0x0 SWAP1 SLOAD SWAP1 PUSH2 0x100 EXP SWAP1 DIV PUSH20 0xFFFFFFFFFFFFFFFFFFFFFFFFFFFFFFFFFFFFFFFF AND PUSH20 0xFFFFFFFFFFFFFFFFFFFFFFFFFFFFFFFFFFFFFFFF AND DUP2 MSTORE PUSH1 0x20 ADD PUSH1 0x0 PUSH20 0xFFFFFFFFFFFFFFFFFFFFFFFFFFFFFFFFFFFFFFFF AND DUP2 MSTORE PUSH1 0x20 ADD PUSH1 0x0 PUSH1 0x1 DUP2 GT ISZERO PUSH2 0x914 JUMPI PUSH2 0x913 PUSH2 0x1653 JUMP JUMPDEST JUMPDEST DUP2 MSTORE POP SWAP1 DUP1 PUSH1 0x1 DUP2 SLOAD ADD DUP1 DUP3 SSTORE DUP1 SWAP2 POP POP PUSH1 0x1 SWAP1 SUB SWAP1 PUSH1 0x0 MSTORE PUSH1 0x20 PUSH1 0x0 KECCAK256 SWAP1 PUSH1 0x3 MUL ADD PUSH1 0x0 SWAP1 SWAP2 SWAP1 SWAP2 SWAP1 SWAP2 POP PUSH1 0x0 DUP3 ADD MLOAD DUP2 PUSH1 0x0 ADD PUSH1 0x0 PUSH2 0x100 EXP DUP2 SLOAD DUP2 PUSH20 0xFFFFFFFFFFFFFFFFFFFFFFFFFFFFFFFFFFFFFFFF MUL NOT AND SWAP1 DUP4 PUSH20 0xFFFFFFFFFFFFFFFFFFFFFFFFFFFFFFFFFFFFFFFF AND MUL OR SWAP1 SSTORE POP PUSH1 0x20 DUP3 ADD MLOAD DUP2 PUSH1 0x1 ADD PUSH1 0x0 PUSH2 0x100 EXP DUP2 SLOAD DUP2 PUSH20 0xFFFFFFFFFFFFFFFFFFFFFFFFFFFFFFFFFFFFFFFF MUL NOT AND SWAP1 DUP4 PUSH20 0xFFFFFFFFFFFFFFFFFFFFFFFFFFFFFFFFFFFFFFFF AND MUL OR SWAP1 SSTORE POP PUSH1 0x40 DUP3 ADD MLOAD DUP2 PUSH1 0x2 ADD PUSH1 0x0 PUSH2 0x100 EXP DUP2 SLOAD DUP2 PUSH20 0xFFFFFFFFFFFFFFFFFFFFFFFFFFFFFFFFFFFFFFFF MUL NOT AND SWAP1 DUP4 PUSH20 0xFFFFFFFFFFFFFFFFFFFFFFFFFFFFFFFFFFFFFFFF AND MUL OR SWAP1 SSTORE POP PUSH1 0x60 DUP3 ADD MLOAD DUP2 PUSH1 0x2 ADD PUSH1 0x14 PUSH2 0x100 EXP DUP2 SLOAD DUP2 PUSH1 0xFF MUL NOT AND SWAP1 DUP4 PUSH1 0x1 DUP2 GT ISZERO PUSH2 0xA40 JUMPI PUSH2 0xA3F PUSH2 0x1653 JUMP JUMPDEST JUMPDEST MUL OR SWAP1 SSTORE POP POP POP DUP1 DUP1 PUSH2 0xA52 SWAP1 PUSH2 0x1BB0 JUMP JUMPDEST SWAP2 POP POP PUSH2 0x7E4 JUMP JUMPDEST POP PUSH1 0x0 PUSH1 0x3 DUP2 SWAP1 SSTORE POP POP POP POP POP JUMP JUMPDEST PUSH1 0x1 SLOAD DUP2 JUMP JUMPDEST PUSH1 0x0 DUP1 SLOAD SWAP1 PUSH2 0x100 EXP SWAP1 DIV PUSH20 0xFFFFFFFFFFFFFFFFFFFFFFFFFFFFFFFFFFFFFFFF AND PUSH20 0xFFFFFFFFFFFFFFFFFFFFFFFFFFFFFFFFFFFFFFFF AND CALLER PUSH20 0xFFFFFFFFFFFFFFFFFFFFFFFFFFFFFFFFFFFFFFFF AND EQ PUSH2 0xAFD JUMPI PUSH1 0x40 MLOAD PUSH32 0x8C379A000000000000000000000000000000000000000000000000000000000 DUP2 MSTORE PUSH1 0x4 ADD PUSH2 0xAF4 SWAP1 PUSH2 0x1847 JUMP JUMPDEST PUSH1 0x40 MLOAD DUP1 SWAP2 SUB SWAP1 REVERT JUMPDEST DUP3 PUSH1 0x0 PUSH1 0x2 PUSH1 0x0 DUP4 DUP2 MSTORE PUSH1 0x20 ADD SWAP1 DUP2 MSTORE PUSH1 0x20 ADD PUSH1 0x0 KECCAK256 PUSH1 0x1 ADD DUP1 SLOAD SWAP1 POP GT PUSH2 0xB5A JUMPI PUSH1 0x40 MLOAD PUSH32 0x8C379A000000000000000000000000000000000000000000000000000000000 DUP2 MSTORE PUSH1 0x4 ADD PUSH2 0xB51 SWAP1 PUSH2 0x18B3 JUMP JUMPDEST PUSH1 0x40 MLOAD DUP1 SWAP2 SUB SWAP1 REVERT JUMPDEST PUSH1 0x0 PUSH1 0x2 PUSH1 0x0 DUP7 DUP2 MSTORE PUSH1 0x20 ADD SWAP1 DUP2 MSTORE PUSH1 0x20 ADD PUSH1 0x0 KECCAK256 SWAP1 POP DUP1 PUSH1 0x0 ADD DUP1 SLOAD SWAP1 POP DUP5 LT PUSH2 0xBBA JUMPI PUSH1 0x40 MLOAD PUSH32 0x8C379A000000000000000000000000000000000000000000000000000000000 DUP2 MSTORE PUSH1 0x4 ADD PUSH2 0xBB1 SWAP1 PUSH2 0x1C44 JUMP JUMPDEST PUSH1 0x40 MLOAD DUP1 SWAP2 SUB SWAP1 REVERT JUMPDEST PUSH1 0x0 PUSH1 0x1 DUP2 GT ISZERO PUSH2 0xBCE JUMPI PUSH2 0xBCD PUSH2 0x1653 JUMP JUMPDEST JUMPDEST DUP2 PUSH1 0x0 ADD DUP6 DUP2 SLOAD DUP2 LT PUSH2 0xBE4 JUMPI PUSH2 0xBE3 PUSH2 0x1A44 JUMP JUMPDEST JUMPDEST SWAP1 PUSH1 0x0 MSTORE PUSH1 0x20 PUSH1 0x0 KECCAK256 SWAP1 PUSH1 0x3 MUL ADD PUSH1 0x2 ADD PUSH1 0x14 SWAP1 SLOAD SWAP1 PUSH2 0x100 EXP SWAP1 DIV PUSH1 0xFF AND PUSH1 0x1 DUP2 GT ISZERO PUSH2 0xC15 JUMPI PUSH2 0xC14 PUSH2 0x1653 JUMP JUMPDEST JUMPDEST EQ PUSH2 0xC55 JUMPI PUSH1 0x40 MLOAD PUSH32 0x8C379A000000000000000000000000000000000000000000000000000000000 DUP2 MSTORE PUSH1 0x4 ADD PUSH2 0xC4C SWAP1 PUSH2 0x1CB0 JUMP JUMPDEST PUSH1 0x40 MLOAD DUP1 SWAP2 SUB SWAP1 REVERT JUMPDEST DUP3 DUP2 PUSH1 0x0 ADD DUP6 DUP2 SLOAD DUP2 LT PUSH2 0xC6C JUMPI PUSH2 0xC6B PUSH2 0x1A44 JUMP JUMPDEST JUMPDEST SWAP1 PUSH1 0x0 MSTORE PUSH1 0x20 PUSH1 0x0 KECCAK256 SWAP1 PUSH1 0x3 MUL ADD PUSH1 0x2 ADD PUSH1 0x0 PUSH2 0x100 EXP DUP2 SLOAD DUP2 PUSH20 0xFFFFFFFFFFFFFFFFFFFFFFFFFFFFFFFFFFFFFFFF MUL NOT AND SWAP1 DUP4 PUSH20 0xFFFFFFFFFFFFFFFFFFFFFFFFFFFFFFFFFFFFFFFF AND MUL OR SWAP1 SSTORE POP PUSH1 0x1 DUP2 PUSH1 0x0 ADD DUP6 DUP2 SLOAD DUP2 LT PUSH2 0xCD3 JUMPI PUSH2 0xCD2 PUSH2 0x1A44 JUMP JUMPDEST JUMPDEST SWAP1 PUSH1 0x0 MSTORE PUSH1 0x20 PUSH1 0x0 KECCAK256 SWAP1 PUSH1 0x3 MUL ADD PUSH1 0x2 ADD PUSH1 0x14 PUSH2 0x100 EXP DUP2 SLOAD DUP2 PUSH1 0xFF MUL NOT AND SWAP1 DUP4 PUSH1 0x1 DUP2 GT ISZERO PUSH2 0xD06 JUMPI PUSH2 0xD05 PUSH2 0x1653 JUMP JUMPDEST JUMPDEST MUL OR SWAP1 SSTORE POP DUP5 PUSH32 0x8D60B015965672D4594CBE60AE278E009BDEF53B71CCCF704014A4860CCF8A57 DUP6 DUP6 PUSH1 0x40 MLOAD PUSH2 0xD3D SWAP3 SWAP2 SWAP1 PUSH2 0x1CD0 JUMP JUMPDEST PUSH1 0x40 MLOAD DUP1 SWAP2 SUB SWAP1 LOG2 POP POP POP POP POP JUMP JUMPDEST PUSH1 0x60 PUSH1 0x2 PUSH1 0x0 DUP4 DUP2 MSTORE PUSH1 0x20 ADD SWAP1 DUP2 MSTORE PUSH1 0x20 ADD PUSH1 0x0 KECCAK256 PUSH1 0x1 ADD DUP1 SLOAD DUP1 PUSH1 0x20 MUL PUSH1 0x20 ADD PUSH1 0x40 MLOAD SWAP1 DUP2 ADD PUSH1 0x40 MSTORE DUP1 SWAP3 SWAP2 SWAP1 DUP2 DUP2 MSTORE PUSH1 0x20 ADD DUP3 DUP1 SLOAD DUP1 ISZERO PUSH2 0xDE4 JUMPI PUSH1 0x20 MUL DUP3 ADD SWAP2 SWAP1 PUSH1 0x0 MSTORE PUSH1 0x20 PUSH1 0x0 KECCAK256 SWAP1 JUMPDEST DUP2 PUSH1 0x0 SWAP1 SLOAD SWAP1 PUSH2 0x100 EXP SWAP1 DIV PUSH20 0xFFFFFFFFFFFFFFFFFFFFFFFFFFFFFFFFFFFFFFFF AND PUSH20 0xFFFFFFFFFFFFFFFFFFFFFFFFFFFFFFFFFFFFFFFF AND DUP2 MSTORE PUSH1 0x20 ADD SWAP1 PUSH1 0x1 ADD SWAP1 DUP1 DUP4 GT PUSH2 0xD9A JUMPI JUMPDEST POP POP POP POP POP SWAP1 POP SWAP2 SWAP1 POP JUMP JUMPDEST PUSH1 0x0 DUP1 SLOAD SWAP1 PUSH2 0x100 EXP SWAP1 DIV PUSH20 0xFFFFFFFFFFFFFFFFFFFFFFFFFFFFFFFFFFFFFFFF AND DUP2 JUMP JUMPDEST PUSH1 0x0 DUP1 SLOAD SWAP1 PUSH2 0x100 EXP SWAP1 DIV PUSH20 0xFFFFFFFFFFFFFFFFFFFFFFFFFFFFFFFFFFFFFFFF AND PUSH20 0xFFFFFFFFFFFFFFFFFFFFFFFFFFFFFFFFFFFFFFFF AND CALLER PUSH20 0xFFFFFFFFFFFFFFFFFFFFFFFFFFFFFFFFFFFFFFFF AND EQ PUSH2 0xEA2 JUMPI PUSH1 0x40 MLOAD PUSH32 0x8C379A000000000000000000000000000000000000000000000000000000000 DUP2 MSTORE PUSH1 0x4 ADD PUSH2 0xE99 SWAP1 PUSH2 0x1847 JUMP JUMPDEST PUSH1 0x40 MLOAD DUP1 SWAP2 SUB SWAP1 REVERT JUMPDEST DUP2 PUSH1 0x0 PUSH1 0x2 PUSH1 0x0 DUP4 DUP2 MSTORE PUSH1 0x20 ADD SWAP1 DUP2 MSTORE PUSH1 0x20 ADD PUSH1 0x0 KECCAK256 PUSH1 0x0 ADD DUP1 SLOAD SWAP1 POP EQ PUSH2 0xEFF JUMPI PUSH1 0x40 MLOAD PUSH32 0x8C379A000000000000000000000000000000000000000000000000000000000 DUP2 MSTORE PUSH1 0x4 ADD PUSH2 0xEF6 SWAP1 PUSH2 0x1B5C JUMP JUMPDEST PUSH1 0x40 MLOAD DUP1 SWAP2 SUB SWAP1 REVERT JUMPDEST PUSH1 0x8 DUP3 MLOAD EQ DUP1 PUSH2 0xF10 JUMPI POP PUSH1 0x10 DUP3 MLOAD EQ JUMPDEST PUSH2 0xF4F JUMPI PUSH1 0x40 MLOAD PUSH32 0x8C379A000000000000000000000000000000000000000000000000000000000 DUP2 MSTORE PUSH1 0x4 ADD PUSH2 0xF46 SWAP1 PUSH2 0x1D45 JUMP JUMPDEST PUSH1 0x40 MLOAD DUP1 SWAP2 SUB SWAP1 REVERT JUMPDEST PUSH1 0x0 PUSH1 0x2 PUSH1 0x0 DUP6 DUP2 MSTORE PUSH1 0x20 ADD SWAP1 DUP2 MSTORE PUSH1 0x20 ADD PUSH1 0x0 KECCAK256 SWAP1 POP DUP3 DUP2 PUSH1 0x1 ADD SWAP1 DUP1 MLOAD SWAP1 PUSH1 0x20 ADD SWAP1 PUSH2 0xF7E SWAP3 SWAP2 SWAP1 PUSH2 0x116F JUMP JUMPDEST POP DUP4 PUSH32 0xA47122C4660339CF88308783D3C2A9ED10D7809CC28E552E580A7A89722F6DA9 DUP5 PUSH1 0x40 MLOAD PUSH2 0xFAF SWAP2 SWAP1 PUSH2 0x1426 JUMP JUMPDEST PUSH1 0x40 MLOAD DUP1 SWAP2 SUB SWAP1 LOG2 POP POP POP POP JUMP JUMPDEST PUSH1 0x60 PUSH1 0x2 PUSH1 0x0 DUP4 DUP2 MSTORE PUSH1 0x20 ADD SWAP1 DUP2 MSTORE PUSH1 0x20 ADD PUSH1 0x0 KECCAK256 PUSH1 0x0 ADD DUP1 SLOAD DUP1 PUSH1 0x20 MUL PUSH1 0x20 ADD PUSH1 0x40 MLOAD SWAP1 DUP2 ADD PUSH1 0x40 MSTORE DUP1 SWAP3 SWAP2 SWAP1 DUP2 DUP2 MSTORE PUSH1 0x20 ADD PUSH1 0x0 SWAP1 JUMPDEST DUP3 DUP3 LT ISZERO PUSH2 0x1164 JUMPI DUP4 DUP3 SWAP1 PUSH1 0x0 MSTORE PUSH1 0x20 PUSH1 0x0 KECCAK256 SWAP1 PUSH1 0x3 MUL ADD PUSH1 0x40 MLOAD DUP1 PUSH1 0x80 ADD PUSH1 0x40 MSTORE SWAP1 DUP2 PUSH1 0x0 DUP3 ADD PUSH1 0x0 SWAP1 SLOAD SWAP1 PUSH2 0x100 EXP SWAP1 DIV PUSH20 0xFFFFFFFFFFFFFFFFFFFFFFFFFFFFFFFFFFFFFFFF AND PUSH20 0xFFFFFFFFFFFFFFFFFFFFFFFFFFFFFFFFFFFFFFFF AND PUSH20 0xFFFFFFFFFFFFFFFFFFFFFFFFFFFFFFFFFFFFFFFF AND DUP2 MSTORE PUSH1 0x20 ADD PUSH1 0x1 DUP3 ADD PUSH1 0x0 SWAP1 SLOAD SWAP1 PUSH2 0x100 EXP SWAP1 DIV PUSH20 0xFFFFFFFFFFFFFFFFFFFFFFFFFFFFFFFFFFFFFFFF AND PUSH20 0xFFFFFFFFFFFFFFFFFFFFFFFFFFFFFFFFFFFFFFFF AND PUSH20 0xFFFFFFFFFFFFFFFFFFFFFFFFFFFFFFFFFFFFFFFF AND DUP2 MSTORE PUSH1 0x20 ADD PUSH1 0x2 DUP3 ADD PUSH1 0x0 SWAP1 SLOAD SWAP1 PUSH2 0x100 EXP SWAP1 DIV PUSH20 0xFFFFFFFFFFFFFFFFFFFFFFFFFFFFFFFFFFFFFFFF AND PUSH20 0xFFFFFFFFFFFFFFFFFFFFFFFFFFFFFFFFFFFFFFFF AND PUSH20 0xFFFFFFFFFFFFFFFFFFFFFFFFFFFFFFFFFFFFFFFF AND DUP2 MSTORE PUSH1 0x20 ADD PUSH1 0x2 DUP3 ADD PUSH1 0x14 SWAP1 SLOAD SWAP1 PUSH2 0x100 EXP SWAP1 DIV PUSH1 0xFF AND PUSH1 0x1 DUP2 GT ISZERO PUSH2 0x113F JUMPI PUSH2 0x113E PUSH2 0x1653 JUMP JUMPDEST JUMPDEST PUSH1 0x1 DUP2 GT ISZERO PUSH2 0x1151 JUMPI PUSH2 0x1150 PUSH2 0x1653 JUMP JUMPDEST JUMPDEST DUP2 MSTORE POP POP DUP2 MSTORE PUSH1 0x20 ADD SWAP1 PUSH1 0x1 ADD SWAP1 PUSH2 0xFF5 JUMP JUMPDEST POP POP POP POP SWAP1 POP SWAP2 SWAP1 POP JUMP JUMPDEST DUP3 DUP1 SLOAD DUP3 DUP3 SSTORE SWAP1 PUSH1 0x0 MSTORE PUSH1 0x20 PUSH1 0x0 KECCAK256 SWAP1 DUP2 ADD SWAP3 DUP3 ISZERO PUSH2 0x11E8 JUMPI SWAP2 PUSH1 0x20 MUL DUP3 ADD JUMPDEST DUP3 DUP2 GT ISZERO PUSH2 0x11E7 JUMPI DUP3 MLOAD DUP3 PUSH1 0x0 PUSH2 0x100 EXP DUP2 SLOAD DUP2 PUSH20 0xFFFFFFFFFFFFFFFFFFFFFFFFFFFFFFFFFFFFFFFF MUL NOT AND SWAP1 DUP4 PUSH20 0xFFFFFFFFFFFFFFFFFFFFFFFFFFFFFFFFFFFFFFFF AND MUL OR SWAP1 SSTORE POP SWAP2 PUSH1 0x20 ADD SWAP2 SWAP1 PUSH1 0x1 ADD SWAP1 PUSH2 0x118F JUMP JUMPDEST JUMPDEST POP SWAP1 POP PUSH2 0x11F5 SWAP2 SWAP1 PUSH2 0x11F9 JUMP JUMPDEST POP SWAP1 JUMP JUMPDEST JUMPDEST DUP1 DUP3 GT ISZERO PUSH2 0x1212 JUMPI PUSH1 0x0 DUP2 PUSH1 0x0 SWAP1 SSTORE POP PUSH1 0x1 ADD PUSH2 0x11FA JUMP JUMPDEST POP SWAP1 JUMP JUMPDEST PUSH1 0x0 DUP2 SWAP1 POP SWAP2 SWAP1 POP JUMP JUMPDEST PUSH2 0x1229 DUP2 PUSH2 0x1216 JUMP JUMPDEST DUP3 MSTORE POP POP JUMP JUMPDEST PUSH1 0x0 PUSH1 0x20 DUP3 ADD SWAP1 POP PUSH2 0x1244 PUSH1 0x0 DUP4 ADD DUP5 PUSH2 0x1220 JUMP JUMPDEST SWAP3 SWAP2 POP POP JUMP JUMPDEST PUSH1 0x0 PUSH1 0x40 MLOAD SWAP1 POP SWAP1 JUMP JUMPDEST PUSH1 0x0 DUP1 REVERT JUMPDEST PUSH1 0x0 DUP1 REVERT JUMPDEST PUSH2 0x1267 DUP2 PUSH2 0x1216 JUMP JUMPDEST DUP2 EQ PUSH2 0x1272 JUMPI PUSH1 0x0 DUP1 REVERT JUMPDEST POP JUMP JUMPDEST PUSH1 0x0 DUP2 CALLDATALOAD SWAP1 POP PUSH2 0x1284 DUP2 PUSH2 0x125E JUMP JUMPDEST SWAP3 SWAP2 POP POP JUMP JUMPDEST PUSH1 0x0 PUSH1 0x20 DUP3 DUP5 SUB SLT ISZERO PUSH2 0x12A0 JUMPI PUSH2 0x129F PUSH2 0x1254 JUMP JUMPDEST JUMPDEST PUSH1 0x0 PUSH2 0x12AE DUP5 DUP3 DUP6 ADD PUSH2 0x1275 JUMP JUMPDEST SWAP2 POP POP SWAP3 SWAP2 POP POP JUMP JUMPDEST PUSH1 0x0 PUSH20 0xFFFFFFFFFFFFFFFFFFFFFFFFFFFFFFFFFFFFFFFF DUP3 AND SWAP1 POP SWAP2 SWAP1 POP JUMP JUMPDEST PUSH1 0x0 PUSH2 0x12E2 DUP3 PUSH2 0x12B7 JUMP JUMPDEST SWAP1 POP SWAP2 SWAP1 POP JUMP JUMPDEST PUSH2 0x12F2 DUP2 PUSH2 0x12D7 JUMP JUMPDEST DUP2 EQ PUSH2 0x12FD JUMPI PUSH1 0x0 DUP1 REVERT JUMPDEST POP JUMP JUMPDEST PUSH1 0x0 DUP2 CALLDATALOAD SWAP1 POP PUSH2 0x130F DUP2 PUSH2 0x12E9 JUMP JUMPDEST SWAP3 SWAP2 POP POP JUMP JUMPDEST PUSH1 0x0 DUP1 PUSH1 0x0 PUSH1 0x60 DUP5 DUP7 SUB SLT ISZERO PUSH2 0x132E JUMPI PUSH2 0x132D PUSH2 0x1254 JUMP JUMPDEST JUMPDEST PUSH1 0x0 PUSH2 0x133C DUP7 DUP3 DUP8 ADD PUSH2 0x1275 JUMP JUMPDEST SWAP4 POP POP PUSH1 0x20 PUSH2 0x134D DUP7 DUP3 DUP8 ADD PUSH2 0x1275 JUMP JUMPDEST SWAP3 POP POP PUSH1 0x40 PUSH2 0x135E DUP7 DUP3 DUP8 ADD PUSH2 0x1300 JUMP JUMPDEST SWAP2 POP POP SWAP3 POP SWAP3 POP SWAP3 JUMP JUMPDEST PUSH1 0x0 DUP2 MLOAD SWAP1 POP SWAP2 SWAP1 POP JUMP JUMPDEST PUSH1 0x0 DUP3 DUP3 MSTORE PUSH1 0x20 DUP3 ADD SWAP1 POP SWAP3 SWAP2 POP POP JUMP JUMPDEST PUSH1 0x0 DUP2 SWAP1 POP PUSH1 0x20 DUP3 ADD SWAP1 POP SWAP2 SWAP1 POP JUMP JUMPDEST PUSH2 0x139D DUP2 PUSH2 0x12D7 JUMP JUMPDEST DUP3 MSTORE POP POP JUMP JUMPDEST PUSH1 0x0 PUSH2 0x13AF DUP4 DUP4 PUSH2 0x1394 JUMP JUMPDEST PUSH1 0x20 DUP4 ADD SWAP1 POP SWAP3 SWAP2 POP POP JUMP JUMPDEST PUSH1 0x0 PUSH1 0x20 DUP3 ADD SWAP1 POP SWAP2 SWAP1 POP JUMP JUMPDEST PUSH1 0x0 PUSH2 0x13D3 DUP3 PUSH2 0x1368 JUMP JUMPDEST PUSH2 0x13DD DUP2 DUP6 PUSH2 0x1373 JUMP JUMPDEST SWAP4 POP PUSH2 0x13E8 DUP4 PUSH2 0x1384 JUMP JUMPDEST DUP1 PUSH1 0x0 JUMPDEST DUP4 DUP2 LT ISZERO PUSH2 0x1419 JUMPI DUP2 MLOAD PUSH2 0x1400 DUP9 DUP3 PUSH2 0x13A3 JUMP JUMPDEST SWAP8 POP PUSH2 0x140B DUP4 PUSH2 0x13BB JUMP JUMPDEST SWAP3 POP POP PUSH1 0x1 DUP2 ADD SWAP1 POP PUSH2 0x13EC JUMP JUMPDEST POP DUP6 SWAP4 POP POP POP POP SWAP3 SWAP2 POP POP JUMP JUMPDEST PUSH1 0x0 PUSH1 0x20 DUP3 ADD SWAP1 POP DUP2 DUP2 SUB PUSH1 0x0 DUP4 ADD MSTORE PUSH2 0x1440 DUP2 DUP5 PUSH2 0x13C8 JUMP JUMPDEST SWAP1 POP SWAP3 SWAP2 POP POP JUMP JUMPDEST PUSH2 0x1451 DUP2 PUSH2 0x12D7 JUMP JUMPDEST DUP3 MSTORE POP POP JUMP JUMPDEST PUSH1 0x0 PUSH1 0x20 DUP3 ADD SWAP1 POP PUSH2 0x146C PUSH1 0x0 DUP4 ADD DUP5 PUSH2 0x1448 JUMP JUMPDEST SWAP3 SWAP2 POP POP JUMP JUMPDEST PUSH1 0x0 DUP1 REVERT JUMPDEST PUSH1 0x0 PUSH1 0x1F NOT PUSH1 0x1F DUP4 ADD AND SWAP1 POP SWAP2 SWAP1 POP JUMP JUMPDEST PUSH32 0x4E487B7100000000000000000000000000000000000000000000000000000000 PUSH1 0x0 MSTORE PUSH1 0x41 PUSH1 0x4 MSTORE PUSH1 0x24 PUSH1 0x0 REVERT JUMPDEST PUSH2 0x14C0 DUP3 PUSH2 0x1477 JUMP JUMPDEST DUP2 ADD DUP2 DUP2 LT PUSH8 0xFFFFFFFFFFFFFFFF DUP3 GT OR ISZERO PUSH2 0x14DF JUMPI PUSH2 0x14DE PUSH2 0x1488 JUMP JUMPDEST JUMPDEST DUP1 PUSH1 0x40 MSTORE POP POP POP JUMP JUMPDEST PUSH1 0x0 PUSH2 0x14F2 PUSH2 0x124A JUMP JUMPDEST SWAP1 POP PUSH2 0x14FE DUP3 DUP3 PUSH2 0x14B7 JUMP JUMPDEST SWAP2 SWAP1 POP JUMP JUMPDEST PUSH1 0x0 PUSH8 0xFFFFFFFFFFFFFFFF DUP3 GT ISZERO PUSH2 0x151E JUMPI PUSH2 0x151D PUSH2 0x1488 JUMP JUMPDEST JUMPDEST PUSH1 0x20 DUP3 MUL SWAP1 POP PUSH1 0x20 DUP2 ADD SWAP1 POP SWAP2 SWAP1 POP JUMP JUMPDEST PUSH1 0x0 DUP1 REVERT JUMPDEST PUSH1 0x0 PUSH2 0x1547 PUSH2 0x1542 DUP5 PUSH2 0x1503 JUMP JUMPDEST PUSH2 0x14E8 JUMP JUMPDEST SWAP1 POP DUP1 DUP4 DUP3 MSTORE PUSH1 0x20 DUP3 ADD SWAP1 POP PUSH1 0x20 DUP5 MUL DUP4 ADD DUP6 DUP2 GT ISZERO PUSH2 0x156A JUMPI PUSH2 0x1569 PUSH2 0x152F JUMP JUMPDEST JUMPDEST DUP4 JUMPDEST DUP2 DUP2 LT ISZERO PUSH2 0x1593 JUMPI DUP1 PUSH2 0x157F DUP9 DUP3 PUSH2 0x1300 JUMP JUMPDEST DUP5 MSTORE PUSH1 0x20 DUP5 ADD SWAP4 POP POP PUSH1 0x20 DUP2 ADD SWAP1 POP PUSH2 0x156C JUMP JUMPDEST POP POP POP SWAP4 SWAP3 POP POP POP JUMP JUMPDEST PUSH1 0x0 DUP3 PUSH1 0x1F DUP4 ADD SLT PUSH2 0x15B2 JUMPI PUSH2 0x15B1 PUSH2 0x1472 JUMP JUMPDEST JUMPDEST DUP2 CALLDATALOAD PUSH2 0x15C2 DUP5 DUP3 PUSH1 0x20 DUP7 ADD PUSH2 0x1534 JUMP JUMPDEST SWAP2 POP POP SWAP3 SWAP2 POP POP JUMP JUMPDEST PUSH1 0x0 DUP1 PUSH1 0x40 DUP4 DUP6 SUB SLT ISZERO PUSH2 0x15E2 JUMPI PUSH2 0x15E1 PUSH2 0x1254 JUMP JUMPDEST JUMPDEST PUSH1 0x0 PUSH2 0x15F0 DUP6 DUP3 DUP7 ADD PUSH2 0x1275 JUMP JUMPDEST SWAP3 POP POP PUSH1 0x20 DUP4 ADD CALLDATALOAD PUSH8 0xFFFFFFFFFFFFFFFF DUP2 GT ISZERO PUSH2 0x1611 JUMPI PUSH2 0x1610 PUSH2 0x1259 JUMP JUMPDEST JUMPDEST PUSH2 0x161D DUP6 DUP3 DUP7 ADD PUSH2 0x159D JUMP JUMPDEST SWAP2 POP POP SWAP3 POP SWAP3 SWAP1 POP JUMP JUMPDEST PUSH1 0x0 DUP2 MLOAD SWAP1 POP SWAP2 SWAP1 POP JUMP JUMPDEST PUSH1 0x0 DUP3 DUP3 MSTORE PUSH1 0x20 DUP3 ADD SWAP1 POP SWAP3 SWAP2 POP POP JUMP JUMPDEST PUSH1 0x0 DUP2 SWAP1 POP PUSH1 0x20 DUP3 ADD SWAP1 POP SWAP2 SWAP1 POP JUMP JUMPDEST PUSH32 0x4E487B7100000000000000000000000000000000000000000000000000000000 PUSH1 0x0 MSTORE PUSH1 0x21 PUSH1 0x4 MSTORE PUSH1 0x24 PUSH1 0x0 REVERT JUMPDEST PUSH1 0x2 DUP2 LT PUSH2 0x1693 JUMPI PUSH2 0x1692 PUSH2 0x1653 JUMP JUMPDEST JUMPDEST POP JUMP JUMPDEST PUSH1 0x0 DUP2 SWAP1 POP PUSH2 0x16A4 DUP3 PUSH2 0x1682 JUMP JUMPDEST SWAP2 SWAP1 POP JUMP JUMPDEST PUSH1 0x0 PUSH2 0x16B4 DUP3 PUSH2 0x1696 JUMP JUMPDEST SWAP1 POP SWAP2 SWAP1 POP JUMP JUMPDEST PUSH2 0x16C4 DUP2 PUSH2 0x16A9 JUMP JUMPDEST DUP3 MSTORE POP POP JUMP JUMPDEST PUSH1 0x80 DUP3 ADD PUSH1 0x0 DUP3 ADD MLOAD PUSH2 0x16E0 PUSH1 0x0 DUP6 ADD DUP3 PUSH2 0x1394 JUMP JUMPDEST POP PUSH1 0x20 DUP3 ADD MLOAD PUSH2 0x16F3 PUSH1 0x20 DUP6 ADD DUP3 PUSH2 0x1394 JUMP JUMPDEST POP PUSH1 0x40 DUP3 ADD MLOAD PUSH2 0x1706 PUSH1 0x40 DUP6 ADD DUP3 PUSH2 0x1394 JUMP JUMPDEST POP PUSH1 0x60 DUP3 ADD MLOAD PUSH2 0x1719 PUSH1 0x60 DUP6 ADD DUP3 PUSH2 0x16BB JUMP JUMPDEST POP POP POP POP JUMP JUMPDEST PUSH1 0x0 PUSH2 0x172B DUP4 DUP4 PUSH2 0x16CA JUMP JUMPDEST PUSH1 0x80 DUP4 ADD SWAP1 POP SWAP3 SWAP2 POP POP JUMP JUMPDEST PUSH1 0x0 PUSH1 0x20 DUP3 ADD SWAP1 POP SWAP2 SWAP1 POP JUMP JUMPDEST PUSH1 0x0 PUSH2 0x174F DUP3 PUSH2 0x1627 JUMP JUMPDEST PUSH2 0x1759 DUP2 DUP6 PUSH2 0x1632 JUMP JUMPDEST SWAP4 POP PUSH2 0x1764 DUP4 PUSH2 0x1643 JUMP JUMPDEST DUP1 PUSH1 0x0 JUMPDEST DUP4 DUP2 LT ISZERO PUSH2 0x1795 JUMPI DUP2 MLOAD PUSH2 0x177C DUP9 DUP3 PUSH2 0x171F JUMP JUMPDEST SWAP8 POP PUSH2 0x1787 DUP4 PUSH2 0x1737 JUMP JUMPDEST SWAP3 POP POP PUSH1 0x1 DUP2 ADD SWAP1 POP PUSH2 0x1768 JUMP JUMPDEST POP DUP6 SWAP4 POP POP POP POP SWAP3 SWAP2 POP POP JUMP JUMPDEST PUSH1 0x0 PUSH1 0x20 DUP3 ADD SWAP1 POP DUP2 DUP2 SUB PUSH1 0x0 DUP4 ADD MSTORE PUSH2 0x17BC DUP2 DUP5 PUSH2 0x1744 JUMP JUMPDEST SWAP1 POP SWAP3 SWAP2 POP POP JUMP JUMPDEST PUSH1 0x0 DUP3 DUP3 MSTORE PUSH1 0x20 DUP3 ADD SWAP1 POP SWAP3 SWAP2 POP POP JUMP JUMPDEST PUSH32 0x4F6E6C79206F776E65722063616E2063616C6C20746869732066756E6374696F PUSH1 0x0 DUP3 ADD MSTORE PUSH32 0x6E00000000000000000000000000000000000000000000000000000000000000 PUSH1 0x20 DUP3 ADD MSTORE POP JUMP JUMPDEST PUSH1 0x0 PUSH2 0x1831 PUSH1 0x21 DUP4 PUSH2 0x17C4 JUMP JUMPDEST SWAP2 POP PUSH2 0x183C DUP3 PUSH2 0x17D5 JUMP JUMPDEST PUSH1 0x40 DUP3 ADD SWAP1 POP SWAP2 SWAP1 POP JUMP JUMPDEST PUSH1 0x0 PUSH1 0x20 DUP3 ADD SWAP1 POP DUP2 DUP2 SUB PUSH1 0x0 DUP4 ADD MSTORE PUSH2 0x1860 DUP2 PUSH2 0x1824 JUMP JUMPDEST SWAP1 POP SWAP2 SWAP1 POP JUMP JUMPDEST PUSH32 0x546F75726E616D656E7420646F6573206E6F7420657869737400000000000000 PUSH1 0x0 DUP3 ADD MSTORE POP JUMP JUMPDEST PUSH1 0x0 PUSH2 0x189D PUSH1 0x19 DUP4 PUSH2 0x17C4 JUMP JUMPDEST SWAP2 POP PUSH2 0x18A8 DUP3 PUSH2 0x1867 JUMP JUMPDEST PUSH1 0x20 DUP3 ADD SWAP1 POP SWAP2 SWAP1 POP JUMP JUMPDEST PUSH1 0x0 PUSH1 0x20 DUP3 ADD SWAP1 POP DUP2 DUP2 SUB PUSH1 0x0 DUP4 ADD MSTORE PUSH2 0x18CC DUP2 PUSH2 0x1890 JUMP JUMPDEST SWAP1 POP SWAP2 SWAP1 POP JUMP JUMPDEST PUSH32 0x4E487B7100000000000000000000000000000000000000000000000000000000 PUSH1 0x0 MSTORE PUSH1 0x11 PUSH1 0x4 MSTORE PUSH1 0x24 PUSH1 0x0 REVERT JUMPDEST PUSH1 0x0 PUSH2 0x190D DUP3 PUSH2 0x1216 JUMP JUMPDEST SWAP2 POP PUSH2 0x1918 DUP4 PUSH2 0x1216 JUMP JUMPDEST SWAP3 POP DUP3 DUP3 SUB SWAP1 POP DUP2 DUP2 GT ISZERO PUSH2 0x1930 JUMPI PUSH2 0x192F PUSH2 0x18D3 JUMP JUMPDEST JUMPDEST SWAP3 SWAP2 POP POP JUMP JUMPDEST PUSH32 0x546F75726E616D656E74206E6F742066696E6973686564000000000000000000 PUSH1 0x0 DUP3 ADD MSTORE POP JUMP JUMPDEST PUSH1 0x0 PUSH2 0x196C PUSH1 0x17 DUP4 PUSH2 0x17C4 JUMP JUMPDEST SWAP2 POP PUSH2 0x1977 DUP3 PUSH2 0x1936 JUMP JUMPDEST PUSH1 0x20 DUP3 ADD SWAP1 POP SWAP2 SWAP1 POP JUMP JUMPDEST PUSH1 0x0 PUSH1 0x20 DUP3 ADD SWAP1 POP DUP2 DUP2 SUB PUSH1 0x0 DUP4 ADD MSTORE PUSH2 0x199B DUP2 PUSH2 0x195F JUMP JUMPDEST SWAP1 POP SWAP2 SWAP1 POP JUMP JUMPDEST PUSH1 0x0 PUSH2 0x19AD DUP3 PUSH2 0x1216 JUMP JUMPDEST SWAP2 POP PUSH2 0x19B8 DUP4 PUSH2 0x1216 JUMP JUMPDEST SWAP3 POP DUP3 DUP3 MUL PUSH2 0x19C6 DUP2 PUSH2 0x1216 JUMP JUMPDEST SWAP2 POP DUP3 DUP3 DIV DUP5 EQ DUP4 ISZERO OR PUSH2 0x19DD JUMPI PUSH2 0x19DC PUSH2 0x18D3 JUMP JUMPDEST JUMPDEST POP SWAP3 SWAP2 POP POP JUMP JUMPDEST PUSH32 0x4E487B7100000000000000000000000000000000000000000000000000000000 PUSH1 0x0 MSTORE PUSH1 0x12 PUSH1 0x4 MSTORE PUSH1 0x24 PUSH1 0x0 REVERT JUMPDEST PUSH1 0x0 PUSH2 0x1A1E DUP3 PUSH2 0x1216 JUMP JUMPDEST SWAP2 POP PUSH2 0x1A29 DUP4 PUSH2 0x1216 JUMP JUMPDEST SWAP3 POP DUP3 PUSH2 0x1A39 JUMPI PUSH2 0x1A38 PUSH2 0x19E4 JUMP JUMPDEST JUMPDEST DUP3 DUP3 DIV SWAP1 POP SWAP3 SWAP2 POP POP JUMP JUMPDEST PUSH32 0x4E487B7100000000000000000000000000000000000000000000000000000000 PUSH1 0x0 MSTORE PUSH1 0x32 PUSH1 0x4 MSTORE PUSH1 0x24 PUSH1 0x0 REVERT JUMPDEST PUSH1 0x0 PUSH2 0x1A7E DUP3 PUSH2 0x1216 JUMP JUMPDEST SWAP2 POP PUSH2 0x1A89 DUP4 PUSH2 0x1216 JUMP JUMPDEST SWAP3 POP DUP3 PUSH2 0x1A99 JUMPI PUSH2 0x1A98 PUSH2 0x19E4 JUMP JUMPDEST JUMPDEST DUP3 DUP3 MOD SWAP1 POP SWAP3 SWAP2 POP POP JUMP JUMPDEST PUSH32 0x4E756D626572206F66207465616D73206D757374206265206576656E00000000 PUSH1 0x0 DUP3 ADD MSTORE POP JUMP JUMPDEST PUSH1 0x0 PUSH2 0x1ADA PUSH1 0x1C DUP4 PUSH2 0x17C4 JUMP JUMPDEST SWAP2 POP PUSH2 0x1AE5 DUP3 PUSH2 0x1AA4 JUMP JUMPDEST PUSH1 0x20 DUP3 ADD SWAP1 POP SWAP2 SWAP1 POP JUMP JUMPDEST PUSH1 0x0 PUSH1 0x20 DUP3 ADD SWAP1 POP DUP2 DUP2 SUB PUSH1 0x0 DUP4 ADD MSTORE PUSH2 0x1B09 DUP2 PUSH2 0x1ACD JUMP JUMPDEST SWAP1 POP SWAP2 SWAP1 POP JUMP JUMPDEST PUSH32 0x546F75726E616D656E742068617320616C726561647920737461727465640000 PUSH1 0x0 DUP3 ADD MSTORE POP JUMP JUMPDEST PUSH1 0x0 PUSH2 0x1B46 PUSH1 0x1E DUP4 PUSH2 0x17C4 JUMP JUMPDEST SWAP2 POP PUSH2 0x1B51 DUP3 PUSH2 0x1B10 JUMP JUMPDEST PUSH1 0x20 DUP3 ADD SWAP1 POP SWAP2 SWAP1 POP JUMP JUMPDEST PUSH1 0x0 PUSH1 0x20 DUP3 ADD SWAP1 POP DUP2 DUP2 SUB PUSH1 0x0 DUP4 ADD MSTORE PUSH2 0x1B75 DUP2 PUSH2 0x1B39 JUMP JUMPDEST SWAP1 POP SWAP2 SWAP1 POP JUMP JUMPDEST PUSH1 0x0 PUSH2 0x1B87 DUP3 PUSH2 0x1216 JUMP JUMPDEST SWAP2 POP PUSH2 0x1B92 DUP4 PUSH2 0x1216 JUMP JUMPDEST SWAP3 POP DUP3 DUP3 ADD SWAP1 POP DUP1 DUP3 GT ISZERO PUSH2 0x1BAA JUMPI PUSH2 0x1BA9 PUSH2 0x18D3 JUMP JUMPDEST JUMPDEST SWAP3 SWAP2 POP POP JUMP JUMPDEST PUSH1 0x0 PUSH2 0x1BBB DUP3 PUSH2 0x1216 JUMP JUMPDEST SWAP2 POP PUSH32 0xFFFFFFFFFFFFFFFFFFFFFFFFFFFFFFFFFFFFFFFFFFFFFFFFFFFFFFFFFFFFFFFF DUP3 SUB PUSH2 0x1BED JUMPI PUSH2 0x1BEC PUSH2 0x18D3 JUMP JUMPDEST JUMPDEST PUSH1 0x1 DUP3 ADD SWAP1 POP SWAP2 SWAP1 POP JUMP JUMPDEST PUSH32 0x496E76616C6964206D6174636820696E64657800000000000000000000000000 PUSH1 0x0 DUP3 ADD MSTORE POP JUMP JUMPDEST PUSH1 0x0 PUSH2 0x1C2E PUSH1 0x13 DUP4 PUSH2 0x17C4 JUMP JUMPDEST SWAP2 POP PUSH2 0x1C39 DUP3 PUSH2 0x1BF8 JUMP JUMPDEST PUSH1 0x20 DUP3 ADD SWAP1 POP SWAP2 SWAP1 POP JUMP JUMPDEST PUSH1 0x0 PUSH1 0x20 DUP3 ADD SWAP1 POP DUP2 DUP2 SUB PUSH1 0x0 DUP4 ADD MSTORE PUSH2 0x1C5D DUP2 PUSH2 0x1C21 JUMP JUMPDEST SWAP1 POP SWAP2 SWAP1 POP JUMP JUMPDEST PUSH32 0x4D6174636820616C726561647920636F6D706C65746564000000000000000000 PUSH1 0x0 DUP3 ADD MSTORE POP JUMP JUMPDEST PUSH1 0x0 PUSH2 0x1C9A PUSH1 0x17 DUP4 PUSH2 0x17C4 JUMP JUMPDEST SWAP2 POP PUSH2 0x1CA5 DUP3 PUSH2 0x1C64 JUMP JUMPDEST PUSH1 0x20 DUP3 ADD SWAP1 POP SWAP2 SWAP1 POP JUMP JUMPDEST PUSH1 0x0 PUSH1 0x20 DUP3 ADD SWAP1 POP DUP2 DUP2 SUB PUSH1 0x0 DUP4 ADD MSTORE PUSH2 0x1CC9 DUP2 PUSH2 0x1C8D JUMP JUMPDEST SWAP1 POP SWAP2 SWAP1 POP JUMP JUMPDEST PUSH1 0x0 PUSH1 0x40 DUP3 ADD SWAP1 POP PUSH2 0x1CE5 PUSH1 0x0 DUP4 ADD DUP6 PUSH2 0x1220 JUMP JUMPDEST PUSH2 0x1CF2 PUSH1 0x20 DUP4 ADD DUP5 PUSH2 0x1448 JUMP JUMPDEST SWAP4 SWAP3 POP POP POP JUMP JUMPDEST PUSH32 0x4E756D626572206F66207465616D73206D7573742062652038206F7220313600 PUSH1 0x0 DUP3 ADD MSTORE POP JUMP JUMPDEST PUSH1 0x0 PUSH2 0x1D2F PUSH1 0x1F DUP4 PUSH2 0x17C4 JUMP JUMPDEST SWAP2 POP PUSH2 0x1D3A DUP3 PUSH2 0x1CF9 JUMP JUMPDEST PUSH1 0x20 DUP3 ADD SWAP1 POP SWAP2 SWAP1 POP JUMP JUMPDEST PUSH1 0x0 PUSH1 0x20 DUP3 ADD SWAP1 POP DUP2 DUP2 SUB PUSH1 0x0 DUP4 ADD MSTORE PUSH2 0x1D5E DUP2 PUSH2 0x1D22 JUMP JUMPDEST SWAP1 POP SWAP2 SWAP1 POP JUMP INVALID LOG2 PUSH5 0x6970667358 0x22 SLT KECCAK256 PUSH7 0x12DA143F6AFAC9 0xD1 MSIZE BASEFEE 0x5E PUSH23 0x3C63C87B5040762A2648401C542F9FC38C6F1964736F6C PUSH4 0x43000812 STOP CALLER "
				},
				"gasEstimates": {
					"creation": {
						"codeDepositCost": "1515800",
						"executionCost": "25848",
						"totalCost": "1541648"
					},
					"external": {
						"completeMatch(uint256,uint256,address)": "infinite",
						"createTournament(uint256,address[])": "infinite",
						"currentMatchIndex()": "2430",
						"distributeRewards(uint256)": "infinite",
						"getTournamentMatches(uint256)": "infinite",
						"getTournamentTeams(uint256)": "infinite",
						"owner()": "2555",
						"rewardPool()": "2496",
						"startTournament(uint256)": "infinite"
					}
				},
				"methodIdentifiers": {
					"completeMatch(uint256,uint256,address)": "6f4cf972",
					"createTournament(uint256,address[])": "be5973d6",
					"currentMatchIndex()": "566378cc",
					"distributeRewards(uint256)": "59974e38",
					"getTournamentMatches(uint256)": "d8c57e85",
					"getTournamentTeams(uint256)": "87c2825f",
					"owner()": "8da5cb5b",
					"rewardPool()": "66666aa9",
					"startTournament(uint256)": "651ea943"
				}
			},
			"storageLayout": {
				"storage": [
					{
						"astId": 3,
						"contract": "contracts/Tournament.sol:Tournament",
						"label": "owner",
						"offset": 0,
						"slot": "0",
						"type": "t_address"
					},
					{
						"astId": 5,
						"contract": "contracts/Tournament.sol:Tournament",
						"label": "rewardPool",
						"offset": 0,
						"slot": "1",
						"type": "t_uint256"
					},
					{
						"astId": 31,
						"contract": "contracts/Tournament.sol:Tournament",
						"label": "tournaments",
						"offset": 0,
						"slot": "2",
						"type": "t_mapping(t_uint256,t_struct(TournamentInfo)26_storage)"
					},
					{
						"astId": 94,
						"contract": "contracts/Tournament.sol:Tournament",
						"label": "currentMatchIndex",
						"offset": 0,
						"slot": "3",
						"type": "t_uint256"
					}
				],
				"types": {
					"t_address": {
						"encoding": "inplace",
						"label": "address",
						"numberOfBytes": "20"
					},
					"t_array(t_address)dyn_storage": {
						"base": "t_address",
						"encoding": "dynamic_array",
						"label": "address[]",
						"numberOfBytes": "32"
					},
					"t_array(t_struct(Match)18_storage)dyn_storage": {
						"base": "t_struct(Match)18_storage",
						"encoding": "dynamic_array",
						"label": "struct Tournament.Match[]",
						"numberOfBytes": "32"
					},
					"t_enum(MatchStatus)8": {
						"encoding": "inplace",
						"label": "enum Tournament.MatchStatus",
						"numberOfBytes": "1"
					},
					"t_mapping(t_uint256,t_struct(TournamentInfo)26_storage)": {
						"encoding": "mapping",
						"key": "t_uint256",
						"label": "mapping(uint256 => struct Tournament.TournamentInfo)",
						"numberOfBytes": "32",
						"value": "t_struct(TournamentInfo)26_storage"
					},
					"t_struct(Match)18_storage": {
						"encoding": "inplace",
						"label": "struct Tournament.Match",
						"members": [
							{
								"astId": 10,
								"contract": "contracts/Tournament.sol:Tournament",
								"label": "team1",
								"offset": 0,
								"slot": "0",
								"type": "t_address"
							},
							{
								"astId": 12,
								"contract": "contracts/Tournament.sol:Tournament",
								"label": "team2",
								"offset": 0,
								"slot": "1",
								"type": "t_address"
							},
							{
								"astId": 14,
								"contract": "contracts/Tournament.sol:Tournament",
								"label": "winner",
								"offset": 0,
								"slot": "2",
								"type": "t_address"
							},
							{
								"astId": 17,
								"contract": "contracts/Tournament.sol:Tournament",
								"label": "status",
								"offset": 20,
								"slot": "2",
								"type": "t_enum(MatchStatus)8"
							}
						],
						"numberOfBytes": "96"
					},
					"t_struct(TournamentInfo)26_storage": {
						"encoding": "inplace",
						"label": "struct Tournament.TournamentInfo",
						"members": [
							{
								"astId": 22,
								"contract": "contracts/Tournament.sol:Tournament",
								"label": "matches",
								"offset": 0,
								"slot": "0",
								"type": "t_array(t_struct(Match)18_storage)dyn_storage"
							},
							{
								"astId": 25,
								"contract": "contracts/Tournament.sol:Tournament",
								"label": "teams",
								"offset": 0,
								"slot": "1",
								"type": "t_array(t_address)dyn_storage"
							}
						],
						"numberOfBytes": "64"
					},
					"t_uint256": {
						"encoding": "inplace",
						"label": "uint256",
						"numberOfBytes": "32"
					}
				}
			},
			"userdoc": {
				"kind": "user",
				"methods": {},
				"version": 1
			}
		}
	}
}