{
	"contracts/Tournament.sol": {
		"Tournament": {
			"abi": [
				{
					"inputs": [],
					"stateMutability": "nonpayable",
					"type": "constructor"
				},
				{
					"anonymous": false,
					"inputs": [
						{
							"indexed": true,
							"internalType": "uint256",
							"name": "tournamentId",
							"type": "uint256"
						},
						{
							"indexed": false,
							"internalType": "uint256",
							"name": "numMatches",
							"type": "uint256"
						},
						{
							"indexed": false,
							"internalType": "uint256",
							"name": "numTeams",
							"type": "uint256"
						}
					],
					"name": "DebugRewardDistribution",
					"type": "event"
				},
				{
					"anonymous": false,
					"inputs": [
						{
							"indexed": true,
							"internalType": "uint256",
							"name": "tournamentId",
							"type": "uint256"
						},
						{
							"indexed": false,
							"internalType": "uint256",
							"name": "matchIndex",
							"type": "uint256"
						},
						{
							"indexed": false,
							"internalType": "address",
							"name": "winner",
							"type": "address"
						}
					],
					"name": "MatchCompleted",
					"type": "event"
				},
				{
					"anonymous": false,
					"inputs": [
						{
							"indexed": true,
							"internalType": "uint256",
							"name": "tournamentId",
							"type": "uint256"
						},
						{
							"indexed": false,
							"internalType": "address[]",
							"name": "teams",
							"type": "address[]"
						}
					],
					"name": "TournamentCreated",
					"type": "event"
				},
				{
					"inputs": [
						{
							"internalType": "uint256",
							"name": "_tournamentId",
							"type": "uint256"
						},
						{
							"internalType": "uint256",
							"name": "_matchIndex",
							"type": "uint256"
						},
						{
							"internalType": "address",
							"name": "_winner",
							"type": "address"
						}
					],
					"name": "completeMatch",
					"outputs": [],
					"stateMutability": "nonpayable",
					"type": "function"
				},
				{
					"inputs": [
						{
							"internalType": "uint256",
							"name": "_tournamentId",
							"type": "uint256"
						},
						{
							"internalType": "address[]",
							"name": "_teams",
							"type": "address[]"
						}
					],
					"name": "createTournament",
					"outputs": [],
					"stateMutability": "nonpayable",
					"type": "function"
				},
				{
					"inputs": [],
					"name": "currentMatchIndex",
					"outputs": [
						{
							"internalType": "uint256",
							"name": "",
							"type": "uint256"
						}
					],
					"stateMutability": "view",
					"type": "function"
				},
				{
					"inputs": [],
					"name": "deposit",
					"outputs": [],
					"stateMutability": "payable",
					"type": "function"
				},
				{
					"inputs": [
						{
							"internalType": "uint256",
							"name": "_tournamentId",
							"type": "uint256"
						}
					],
					"name": "distributeRewards",
					"outputs": [],
					"stateMutability": "nonpayable",
					"type": "function"
				},
				{
					"inputs": [
						{
							"internalType": "uint256",
							"name": "_tournamentId",
							"type": "uint256"
						}
					],
					"name": "getTournamentMatches",
					"outputs": [
						{
							"components": [
								{
									"internalType": "address",
									"name": "team1",
									"type": "address"
								},
								{
									"internalType": "address",
									"name": "team2",
									"type": "address"
								},
								{
									"internalType": "address",
									"name": "winner",
									"type": "address"
								},
								{
									"internalType": "enum Tournament.MatchStatus",
									"name": "status",
									"type": "uint8"
								}
							],
							"internalType": "struct Tournament.Match[]",
							"name": "",
							"type": "tuple[]"
						}
					],
					"stateMutability": "view",
					"type": "function"
				},
				{
					"inputs": [
						{
							"internalType": "uint256",
							"name": "_tournamentId",
							"type": "uint256"
						}
					],
					"name": "getTournamentTeams",
					"outputs": [
						{
							"internalType": "address[]",
							"name": "",
							"type": "address[]"
						}
					],
					"stateMutability": "view",
					"type": "function"
				},
				{
					"inputs": [],
					"name": "owner",
					"outputs": [
						{
							"internalType": "address",
							"name": "",
							"type": "address"
						}
					],
					"stateMutability": "view",
					"type": "function"
				},
				{
					"inputs": [],
					"name": "rewardPool",
					"outputs": [
						{
							"internalType": "uint256",
							"name": "",
							"type": "uint256"
						}
					],
					"stateMutability": "view",
					"type": "function"
				},
				{
					"inputs": [
						{
							"internalType": "uint256",
							"name": "_tournamentId",
							"type": "uint256"
						}
					],
					"name": "startTournament",
					"outputs": [],
					"stateMutability": "nonpayable",
					"type": "function"
				}
			],
			"devdoc": {
				"kind": "dev",
				"methods": {},
				"version": 1
			},
			"evm": {
				"assembly": "    /* \"contracts/Tournament.sol\":60:6588  contract Tournament {... */\n  mstore(0x40, 0x80)\n    /* \"contracts/Tournament.sol\":1867:1918  constructor() {... */\n  callvalue\n  dup1\n  iszero\n  tag_1\n  jumpi\n  0x00\n  dup1\n  revert\ntag_1:\n  pop\n    /* \"contracts/Tournament.sol\":1900:1910  msg.sender */\n  caller\n    /* \"contracts/Tournament.sol\":1892:1897  owner */\n  0x00\n  dup1\n    /* \"contracts/Tournament.sol\":1892:1910  owner = msg.sender */\n  0x0100\n  exp\n  dup2\n  sload\n  dup2\n  0xffffffffffffffffffffffffffffffffffffffff\n  mul\n  not\n  and\n  swap1\n  dup4\n  0xffffffffffffffffffffffffffffffffffffffff\n  and\n  mul\n  or\n  swap1\n  sstore\n  pop\n    /* \"contracts/Tournament.sol\":60:6588  contract Tournament {... */\n  dataSize(sub_0)\n  dup1\n  dataOffset(sub_0)\n  0x00\n  codecopy\n  0x00\n  return\nstop\n\nsub_0: assembly {\n        /* \"contracts/Tournament.sol\":60:6588  contract Tournament {... */\n      mstore(0x40, 0x80)\n      jumpi(tag_1, lt(calldatasize, 0x04))\n      shr(0xe0, calldataload(0x00))\n      dup1\n      0x87c2825f\n      gt\n      tag_12\n      jumpi\n      dup1\n      0x87c2825f\n      eq\n      tag_7\n      jumpi\n      dup1\n      0x8da5cb5b\n      eq\n      tag_8\n      jumpi\n      dup1\n      0xbe5973d6\n      eq\n      tag_9\n      jumpi\n      dup1\n      0xd0e30db0\n      eq\n      tag_10\n      jumpi\n      dup1\n      0xd8c57e85\n      eq\n      tag_11\n      jumpi\n      jump(tag_1)\n    tag_12:\n      dup1\n      0x566378cc\n      eq\n      tag_2\n      jumpi\n      dup1\n      0x59974e38\n      eq\n      tag_3\n      jumpi\n      dup1\n      0x651ea943\n      eq\n      tag_4\n      jumpi\n      dup1\n      0x66666aa9\n      eq\n      tag_5\n      jumpi\n      dup1\n      0x6f4cf972\n      eq\n      tag_6\n      jumpi\n    tag_1:\n      0x00\n      dup1\n      revert\n        /* \"contracts/Tournament.sol\":1782:1814  uint256 public currentMatchIndex */\n    tag_2:\n      callvalue\n      dup1\n      iszero\n      tag_13\n      jumpi\n      0x00\n      dup1\n      revert\n    tag_13:\n      pop\n      tag_14\n      tag_15\n      jump\t// in\n    tag_14:\n      mload(0x40)\n      tag_16\n      swap2\n      swap1\n      tag_17\n      jump\t// in\n    tag_16:\n      mload(0x40)\n      dup1\n      swap2\n      sub\n      swap1\n      return\n        /* \"contracts/Tournament.sol\":5449:6499  function distributeRewards(uint256 _tournamentId) external onlyOwner tournamentExists(_tournamentId) {... */\n    tag_3:\n      callvalue\n      dup1\n      iszero\n      tag_18\n      jumpi\n      0x00\n      dup1\n      revert\n    tag_18:\n      pop\n      tag_19\n      0x04\n      dup1\n      calldatasize\n      sub\n      dup2\n      add\n      swap1\n      tag_20\n      swap2\n      swap1\n      tag_21\n      jump\t// in\n    tag_20:\n      tag_22\n      jump\t// in\n    tag_19:\n      stop\n        /* \"contracts/Tournament.sol\":2926:3800  function startTournament(uint256 _tournamentId) external onlyOwner tournamentExists(_tournamentId) {... */\n    tag_4:\n      callvalue\n      dup1\n      iszero\n      tag_23\n      jumpi\n      0x00\n      dup1\n      revert\n    tag_23:\n      pop\n      tag_24\n      0x04\n      dup1\n      calldatasize\n      sub\n      dup2\n      add\n      swap1\n      tag_25\n      swap2\n      swap1\n      tag_21\n      jump\t// in\n    tag_25:\n      tag_26\n      jump\t// in\n    tag_24:\n      stop\n        /* \"contracts/Tournament.sol\":165:190  uint256 public rewardPool */\n    tag_5:\n      callvalue\n      dup1\n      iszero\n      tag_27\n      jumpi\n      0x00\n      dup1\n      revert\n    tag_27:\n      pop\n      tag_28\n      tag_29\n      jump\t// in\n    tag_28:\n      mload(0x40)\n      tag_30\n      swap2\n      swap1\n      tag_17\n      jump\t// in\n    tag_30:\n      mload(0x40)\n      dup1\n      swap2\n      sub\n      swap1\n      return\n        /* \"contracts/Tournament.sol\":3956:5258  function completeMatch(uint256 _tournamentId, uint256 _matchIndex, address _winner) public {... */\n    tag_6:\n      callvalue\n      dup1\n      iszero\n      tag_31\n      jumpi\n      0x00\n      dup1\n      revert\n    tag_31:\n      pop\n      tag_32\n      0x04\n      dup1\n      calldatasize\n      sub\n      dup2\n      add\n      swap1\n      tag_33\n      swap2\n      swap1\n      tag_34\n      jump\t// in\n    tag_33:\n      tag_35\n      jump\t// in\n    tag_32:\n      stop\n        /* \"contracts/Tournament.sol\":1995:2145  function getTournamentTeams(uint256 _tournamentId) external view returns (address[] memory) {... */\n    tag_7:\n      callvalue\n      dup1\n      iszero\n      tag_36\n      jumpi\n      0x00\n      dup1\n      revert\n    tag_36:\n      pop\n      tag_37\n      0x04\n      dup1\n      calldatasize\n      sub\n      dup2\n      add\n      swap1\n      tag_38\n      swap2\n      swap1\n      tag_21\n      jump\t// in\n    tag_38:\n      tag_39\n      jump\t// in\n    tag_37:\n      mload(0x40)\n      tag_40\n      swap2\n      swap1\n      tag_41\n      jump\t// in\n    tag_40:\n      mload(0x40)\n      dup1\n      swap2\n      sub\n      swap1\n      return\n        /* \"contracts/Tournament.sol\":110:130  address public owner */\n    tag_8:\n      callvalue\n      dup1\n      iszero\n      tag_42\n      jumpi\n      0x00\n      dup1\n      revert\n    tag_42:\n      pop\n      tag_43\n      tag_44\n      jump\t// in\n    tag_43:\n      mload(0x40)\n      tag_45\n      swap2\n      swap1\n      tag_46\n      jump\t// in\n    tag_45:\n      mload(0x40)\n      dup1\n      swap2\n      sub\n      swap1\n      return\n        /* \"contracts/Tournament.sol\":2442:2850  function createTournament(uint256 _tournamentId, address[] memory _teams) external onlyOwner tournamentNotStarted(_tournamentId) {... */\n    tag_9:\n      callvalue\n      dup1\n      iszero\n      tag_47\n      jumpi\n      0x00\n      dup1\n      revert\n    tag_47:\n      pop\n      tag_48\n      0x04\n      dup1\n      calldatasize\n      sub\n      dup2\n      add\n      swap1\n      tag_49\n      swap2\n      swap1\n      tag_50\n      jump\t// in\n    tag_49:\n      tag_51\n      jump\t// in\n    tag_48:\n      stop\n        /* \"contracts/Tournament.sol\":6511:6585  function deposit() external payable {... */\n    tag_10:\n      tag_52\n      tag_53\n      jump\t// in\n    tag_52:\n      stop\n        /* \"contracts/Tournament.sol\":2210:2362  function getTournamentMatches(uint256 _tournamentId) external view returns (Match[] memory) {... */\n    tag_11:\n      callvalue\n      dup1\n      iszero\n      tag_54\n      jumpi\n      0x00\n      dup1\n      revert\n    tag_54:\n      pop\n      tag_55\n      0x04\n      dup1\n      calldatasize\n      sub\n      dup2\n      add\n      swap1\n      tag_56\n      swap2\n      swap1\n      tag_21\n      jump\t// in\n    tag_56:\n      tag_57\n      jump\t// in\n    tag_55:\n      mload(0x40)\n      tag_58\n      swap2\n      swap1\n      tag_59\n      jump\t// in\n    tag_58:\n      mload(0x40)\n      dup1\n      swap2\n      sub\n      swap1\n      return\n        /* \"contracts/Tournament.sol\":1782:1814  uint256 public currentMatchIndex */\n    tag_15:\n      sload(0x03)\n      dup2\n      jump\t// out\n        /* \"contracts/Tournament.sol\":5449:6499  function distributeRewards(uint256 _tournamentId) external onlyOwner tournamentExists(_tournamentId) {... */\n    tag_22:\n        /* \"contracts/Tournament.sol\":1210:1215  owner */\n      0x00\n      dup1\n      sload\n      swap1\n      0x0100\n      exp\n      swap1\n      div\n      0xffffffffffffffffffffffffffffffffffffffff\n      and\n        /* \"contracts/Tournament.sol\":1196:1215  msg.sender == owner */\n      0xffffffffffffffffffffffffffffffffffffffff\n      and\n        /* \"contracts/Tournament.sol\":1196:1206  msg.sender */\n      caller\n        /* \"contracts/Tournament.sol\":1196:1215  msg.sender == owner */\n      0xffffffffffffffffffffffffffffffffffffffff\n      and\n      eq\n        /* \"contracts/Tournament.sol\":1188:1253  require(msg.sender == owner, \"Only owner can call this function\") */\n      tag_61\n      jumpi\n      mload(0x40)\n      0x08c379a000000000000000000000000000000000000000000000000000000000\n      dup2\n      mstore\n      0x04\n      add\n      tag_62\n      swap1\n      tag_63\n      jump\t// in\n    tag_62:\n      mload(0x40)\n      dup1\n      swap2\n      sub\n      swap1\n      revert\n    tag_61:\n        /* \"contracts/Tournament.sol\":5535:5548  _tournamentId */\n      dup1\n        /* \"contracts/Tournament.sol\":1461:1462  0 */\n      0x00\n        /* \"contracts/Tournament.sol\":1419:1430  tournaments */\n      0x02\n        /* \"contracts/Tournament.sol\":1419:1445  tournaments[_tournamentId] */\n      0x00\n        /* \"contracts/Tournament.sol\":1431:1444  _tournamentId */\n      dup4\n        /* \"contracts/Tournament.sol\":1419:1445  tournaments[_tournamentId] */\n      dup2\n      mstore\n      0x20\n      add\n      swap1\n      dup2\n      mstore\n      0x20\n      add\n      0x00\n      keccak256\n        /* \"contracts/Tournament.sol\":1419:1451  tournaments[_tournamentId].teams */\n      0x00\n      add\n        /* \"contracts/Tournament.sol\":1419:1458  tournaments[_tournamentId].teams.length */\n      dup1\n      sload\n      swap1\n      pop\n        /* \"contracts/Tournament.sol\":1419:1462  tournaments[_tournamentId].teams.length > 0 */\n      gt\n        /* \"contracts/Tournament.sol\":1411:1492  require(tournaments[_tournamentId].teams.length > 0, \"Tournament does not exist\") */\n      tag_65\n      jumpi\n      mload(0x40)\n      0x08c379a000000000000000000000000000000000000000000000000000000000\n      dup2\n      mstore\n      0x04\n      add\n      tag_66\n      swap1\n      tag_67\n      jump\t// in\n    tag_66:\n      mload(0x40)\n      dup1\n      swap2\n      sub\n      swap1\n      revert\n    tag_65:\n        /* \"contracts/Tournament.sol\":5561:5594  TournamentInfo storage tournament */\n      0x00\n        /* \"contracts/Tournament.sol\":5597:5608  tournaments */\n      0x02\n        /* \"contracts/Tournament.sol\":5597:5623  tournaments[_tournamentId] */\n      0x00\n        /* \"contracts/Tournament.sol\":5609:5622  _tournamentId */\n      dup5\n        /* \"contracts/Tournament.sol\":5597:5623  tournaments[_tournamentId] */\n      dup2\n      mstore\n      0x20\n      add\n      swap1\n      dup2\n      mstore\n      0x20\n      add\n      0x00\n      keccak256\n        /* \"contracts/Tournament.sol\":5561:5623  TournamentInfo storage tournament = tournaments[_tournamentId] */\n      swap1\n      pop\n        /* \"contracts/Tournament.sol\":5697:5698  1 */\n      0x01\n        /* \"contracts/Tournament.sol\":5671:5681  tournament */\n      dup2\n        /* \"contracts/Tournament.sol\":5671:5687  tournament.teams */\n      0x00\n      add\n        /* \"contracts/Tournament.sol\":5671:5694  tournament.teams.length */\n      dup1\n      sload\n      swap1\n      pop\n        /* \"contracts/Tournament.sol\":5671:5698  tournament.teams.length - 1 */\n      tag_69\n      swap2\n      swap1\n      tag_70\n      jump\t// in\n    tag_69:\n        /* \"contracts/Tournament.sol\":5642:5652  tournament */\n      dup2\n        /* \"contracts/Tournament.sol\":5642:5660  tournament.matches */\n      0x01\n      add\n        /* \"contracts/Tournament.sol\":5642:5667  tournament.matches.length */\n      dup1\n      sload\n      swap1\n      pop\n        /* \"contracts/Tournament.sol\":5642:5698  tournament.matches.length == tournament.teams.length - 1 */\n      eq\n        /* \"contracts/Tournament.sol\":5634:5726  require(tournament.matches.length == tournament.teams.length - 1, \"Tournament not finished\") */\n      tag_71\n      jumpi\n      mload(0x40)\n      0x08c379a000000000000000000000000000000000000000000000000000000000\n      dup2\n      mstore\n      0x04\n      add\n      tag_72\n      swap1\n      tag_73\n      jump\t// in\n    tag_72:\n      mload(0x40)\n      dup1\n      swap2\n      sub\n      swap1\n      revert\n    tag_71:\n        /* \"contracts/Tournament.sol\":5790:5814  uint256 firstPlaceReward */\n      0x00\n        /* \"contracts/Tournament.sol\":5837:5840  100 */\n      0x64\n        /* \"contracts/Tournament.sol\":5831:5833  50 */\n      0x32\n        /* \"contracts/Tournament.sol\":5818:5828  rewardPool */\n      sload(0x01)\n        /* \"contracts/Tournament.sol\":5818:5833  rewardPool * 50 */\n      tag_74\n      swap2\n      swap1\n      tag_75\n      jump\t// in\n    tag_74:\n        /* \"contracts/Tournament.sol\":5817:5840  (rewardPool * 50) / 100 */\n      tag_76\n      swap2\n      swap1\n      tag_77\n      jump\t// in\n    tag_76:\n        /* \"contracts/Tournament.sol\":5790:5840  uint256 firstPlaceReward = (rewardPool * 50) / 100 */\n      swap1\n      pop\n        /* \"contracts/Tournament.sol\":5851:5876  uint256 secondPlaceReward */\n      0x00\n        /* \"contracts/Tournament.sol\":5899:5902  100 */\n      0x64\n        /* \"contracts/Tournament.sol\":5893:5895  30 */\n      0x1e\n        /* \"contracts/Tournament.sol\":5880:5890  rewardPool */\n      sload(0x01)\n        /* \"contracts/Tournament.sol\":5880:5895  rewardPool * 30 */\n      tag_78\n      swap2\n      swap1\n      tag_75\n      jump\t// in\n    tag_78:\n        /* \"contracts/Tournament.sol\":5879:5902  (rewardPool * 30) / 100 */\n      tag_79\n      swap2\n      swap1\n      tag_77\n      jump\t// in\n    tag_79:\n        /* \"contracts/Tournament.sol\":5851:5902  uint256 secondPlaceReward = (rewardPool * 30) / 100 */\n      swap1\n      pop\n        /* \"contracts/Tournament.sol\":5913:5937  uint256 thirdPlaceReward */\n      0x00\n        /* \"contracts/Tournament.sol\":5960:5963  100 */\n      0x64\n        /* \"contracts/Tournament.sol\":5954:5956  10 */\n      0x0a\n        /* \"contracts/Tournament.sol\":5941:5951  rewardPool */\n      sload(0x01)\n        /* \"contracts/Tournament.sol\":5941:5956  rewardPool * 10 */\n      tag_80\n      swap2\n      swap1\n      tag_75\n      jump\t// in\n    tag_80:\n        /* \"contracts/Tournament.sol\":5940:5963  (rewardPool * 10) / 100 */\n      tag_81\n      swap2\n      swap1\n      tag_77\n      jump\t// in\n    tag_81:\n        /* \"contracts/Tournament.sol\":5913:5963  uint256 thirdPlaceReward = (rewardPool * 10) / 100 */\n      swap1\n      pop\n        /* \"contracts/Tournament.sol\":5974:5999  uint256 fourthPlaceReward */\n      0x00\n        /* \"contracts/Tournament.sol\":6022:6025  100 */\n      0x64\n        /* \"contracts/Tournament.sol\":6016:6018  10 */\n      0x0a\n        /* \"contracts/Tournament.sol\":6003:6013  rewardPool */\n      sload(0x01)\n        /* \"contracts/Tournament.sol\":6003:6018  rewardPool * 10 */\n      tag_82\n      swap2\n      swap1\n      tag_75\n      jump\t// in\n    tag_82:\n        /* \"contracts/Tournament.sol\":6002:6025  (rewardPool * 10) / 100 */\n      tag_83\n      swap2\n      swap1\n      tag_77\n      jump\t// in\n    tag_83:\n        /* \"contracts/Tournament.sol\":5974:6025  uint256 fourthPlaceReward = (rewardPool * 10) / 100 */\n      swap1\n      pop\n        /* \"contracts/Tournament.sol\":6096:6106  tournament */\n      dup5\n        /* \"contracts/Tournament.sol\":6096:6114  tournament.matches */\n      0x01\n      add\n        /* \"contracts/Tournament.sol\":6143:6144  1 */\n      0x01\n        /* \"contracts/Tournament.sol\":6115:6125  tournament */\n      dup7\n        /* \"contracts/Tournament.sol\":6115:6133  tournament.matches */\n      0x01\n      add\n        /* \"contracts/Tournament.sol\":6115:6140  tournament.matches.length */\n      dup1\n      sload\n      swap1\n      pop\n        /* \"contracts/Tournament.sol\":6115:6144  tournament.matches.length - 1 */\n      tag_84\n      swap2\n      swap1\n      tag_70\n      jump\t// in\n    tag_84:\n        /* \"contracts/Tournament.sol\":6096:6145  tournament.matches[tournament.matches.length - 1] */\n      dup2\n      sload\n      dup2\n      lt\n      tag_85\n      jumpi\n      tag_86\n      tag_87\n      jump\t// in\n    tag_86:\n    tag_85:\n      swap1\n      0x00\n      mstore\n      keccak256(0x00, 0x20)\n      swap1\n      0x03\n      mul\n      add\n        /* \"contracts/Tournament.sol\":6096:6152  tournament.matches[tournament.matches.length - 1].winner */\n      0x02\n      add\n      0x00\n      swap1\n      sload\n      swap1\n      0x0100\n      exp\n      swap1\n      div\n      0xffffffffffffffffffffffffffffffffffffffff\n      and\n        /* \"contracts/Tournament.sol\":6088:6162  payable(tournament.matches[tournament.matches.length - 1].winner).transfer */\n      0xffffffffffffffffffffffffffffffffffffffff\n      and\n        /* \"contracts/Tournament.sol\":6088:6180  payable(tournament.matches[tournament.matches.length - 1].winner).transfer(firstPlaceReward) */\n      0x08fc\n        /* \"contracts/Tournament.sol\":6163:6179  firstPlaceReward */\n      dup6\n        /* \"contracts/Tournament.sol\":6088:6180  payable(tournament.matches[tournament.matches.length - 1].winner).transfer(firstPlaceReward) */\n      swap1\n      dup2\n      iszero\n      mul\n      swap1\n      mload(0x40)\n      0x00\n      mload(0x40)\n      dup1\n      dup4\n      sub\n      dup2\n      dup6\n      dup9\n      dup9\n      call\n      swap4\n      pop\n      pop\n      pop\n      pop\n      iszero\n      dup1\n      iszero\n      tag_90\n      jumpi\n      returndatasize\n      0x00\n      dup1\n      returndatacopy\n      revert(0x00, returndatasize)\n    tag_90:\n      pop\n        /* \"contracts/Tournament.sol\":6199:6209  tournament */\n      dup5\n        /* \"contracts/Tournament.sol\":6199:6217  tournament.matches */\n      0x01\n      add\n        /* \"contracts/Tournament.sol\":6246:6247  2 */\n      0x02\n        /* \"contracts/Tournament.sol\":6218:6228  tournament */\n      dup7\n        /* \"contracts/Tournament.sol\":6218:6236  tournament.matches */\n      0x01\n      add\n        /* \"contracts/Tournament.sol\":6218:6243  tournament.matches.length */\n      dup1\n      sload\n      swap1\n      pop\n        /* \"contracts/Tournament.sol\":6218:6247  tournament.matches.length - 2 */\n      tag_91\n      swap2\n      swap1\n      tag_70\n      jump\t// in\n    tag_91:\n        /* \"contracts/Tournament.sol\":6199:6248  tournament.matches[tournament.matches.length - 2] */\n      dup2\n      sload\n      dup2\n      lt\n      tag_92\n      jumpi\n      tag_93\n      tag_87\n      jump\t// in\n    tag_93:\n    tag_92:\n      swap1\n      0x00\n      mstore\n      keccak256(0x00, 0x20)\n      swap1\n      0x03\n      mul\n      add\n        /* \"contracts/Tournament.sol\":6199:6255  tournament.matches[tournament.matches.length - 2].winner */\n      0x02\n      add\n      0x00\n      swap1\n      sload\n      swap1\n      0x0100\n      exp\n      swap1\n      div\n      0xffffffffffffffffffffffffffffffffffffffff\n      and\n        /* \"contracts/Tournament.sol\":6191:6265  payable(tournament.matches[tournament.matches.length - 2].winner).transfer */\n      0xffffffffffffffffffffffffffffffffffffffff\n      and\n        /* \"contracts/Tournament.sol\":6191:6284  payable(tournament.matches[tournament.matches.length - 2].winner).transfer(secondPlaceReward) */\n      0x08fc\n        /* \"contracts/Tournament.sol\":6266:6283  secondPlaceReward */\n      dup5\n        /* \"contracts/Tournament.sol\":6191:6284  payable(tournament.matches[tournament.matches.length - 2].winner).transfer(secondPlaceReward) */\n      swap1\n      dup2\n      iszero\n      mul\n      swap1\n      mload(0x40)\n      0x00\n      mload(0x40)\n      dup1\n      dup4\n      sub\n      dup2\n      dup6\n      dup9\n      dup9\n      call\n      swap4\n      pop\n      pop\n      pop\n      pop\n      iszero\n      dup1\n      iszero\n      tag_96\n      jumpi\n      returndatasize\n      0x00\n      dup1\n      returndatacopy\n      revert(0x00, returndatasize)\n    tag_96:\n      pop\n        /* \"contracts/Tournament.sol\":6303:6313  tournament */\n      dup5\n        /* \"contracts/Tournament.sol\":6303:6321  tournament.matches */\n      0x01\n      add\n        /* \"contracts/Tournament.sol\":6350:6351  3 */\n      0x03\n        /* \"contracts/Tournament.sol\":6322:6332  tournament */\n      dup7\n        /* \"contracts/Tournament.sol\":6322:6340  tournament.matches */\n      0x01\n      add\n        /* \"contracts/Tournament.sol\":6322:6347  tournament.matches.length */\n      dup1\n      sload\n      swap1\n      pop\n        /* \"contracts/Tournament.sol\":6322:6351  tournament.matches.length - 3 */\n      tag_97\n      swap2\n      swap1\n      tag_70\n      jump\t// in\n    tag_97:\n        /* \"contracts/Tournament.sol\":6303:6352  tournament.matches[tournament.matches.length - 3] */\n      dup2\n      sload\n      dup2\n      lt\n      tag_98\n      jumpi\n      tag_99\n      tag_87\n      jump\t// in\n    tag_99:\n    tag_98:\n      swap1\n      0x00\n      mstore\n      keccak256(0x00, 0x20)\n      swap1\n      0x03\n      mul\n      add\n        /* \"contracts/Tournament.sol\":6303:6359  tournament.matches[tournament.matches.length - 3].winner */\n      0x02\n      add\n      0x00\n      swap1\n      sload\n      swap1\n      0x0100\n      exp\n      swap1\n      div\n      0xffffffffffffffffffffffffffffffffffffffff\n      and\n        /* \"contracts/Tournament.sol\":6295:6369  payable(tournament.matches[tournament.matches.length - 3].winner).transfer */\n      0xffffffffffffffffffffffffffffffffffffffff\n      and\n        /* \"contracts/Tournament.sol\":6295:6387  payable(tournament.matches[tournament.matches.length - 3].winner).transfer(thirdPlaceReward) */\n      0x08fc\n        /* \"contracts/Tournament.sol\":6370:6386  thirdPlaceReward */\n      dup4\n        /* \"contracts/Tournament.sol\":6295:6387  payable(tournament.matches[tournament.matches.length - 3].winner).transfer(thirdPlaceReward) */\n      swap1\n      dup2\n      iszero\n      mul\n      swap1\n      mload(0x40)\n      0x00\n      mload(0x40)\n      dup1\n      dup4\n      sub\n      dup2\n      dup6\n      dup9\n      dup9\n      call\n      swap4\n      pop\n      pop\n      pop\n      pop\n      iszero\n      dup1\n      iszero\n      tag_102\n      jumpi\n      returndatasize\n      0x00\n      dup1\n      returndatacopy\n      revert(0x00, returndatasize)\n    tag_102:\n      pop\n        /* \"contracts/Tournament.sol\":6406:6416  tournament */\n      dup5\n        /* \"contracts/Tournament.sol\":6406:6424  tournament.matches */\n      0x01\n      add\n        /* \"contracts/Tournament.sol\":6453:6454  4 */\n      0x04\n        /* \"contracts/Tournament.sol\":6425:6435  tournament */\n      dup7\n        /* \"contracts/Tournament.sol\":6425:6443  tournament.matches */\n      0x01\n      add\n        /* \"contracts/Tournament.sol\":6425:6450  tournament.matches.length */\n      dup1\n      sload\n      swap1\n      pop\n        /* \"contracts/Tournament.sol\":6425:6454  tournament.matches.length - 4 */\n      tag_103\n      swap2\n      swap1\n      tag_70\n      jump\t// in\n    tag_103:\n        /* \"contracts/Tournament.sol\":6406:6455  tournament.matches[tournament.matches.length - 4] */\n      dup2\n      sload\n      dup2\n      lt\n      tag_104\n      jumpi\n      tag_105\n      tag_87\n      jump\t// in\n    tag_105:\n    tag_104:\n      swap1\n      0x00\n      mstore\n      keccak256(0x00, 0x20)\n      swap1\n      0x03\n      mul\n      add\n        /* \"contracts/Tournament.sol\":6406:6462  tournament.matches[tournament.matches.length - 4].winner */\n      0x02\n      add\n      0x00\n      swap1\n      sload\n      swap1\n      0x0100\n      exp\n      swap1\n      div\n      0xffffffffffffffffffffffffffffffffffffffff\n      and\n        /* \"contracts/Tournament.sol\":6398:6472  payable(tournament.matches[tournament.matches.length - 4].winner).transfer */\n      0xffffffffffffffffffffffffffffffffffffffff\n      and\n        /* \"contracts/Tournament.sol\":6398:6491  payable(tournament.matches[tournament.matches.length - 4].winner).transfer(fourthPlaceReward) */\n      0x08fc\n        /* \"contracts/Tournament.sol\":6473:6490  fourthPlaceReward */\n      dup3\n        /* \"contracts/Tournament.sol\":6398:6491  payable(tournament.matches[tournament.matches.length - 4].winner).transfer(fourthPlaceReward) */\n      swap1\n      dup2\n      iszero\n      mul\n      swap1\n      mload(0x40)\n      0x00\n      mload(0x40)\n      dup1\n      dup4\n      sub\n      dup2\n      dup6\n      dup9\n      dup9\n      call\n      swap4\n      pop\n      pop\n      pop\n      pop\n      iszero\n      dup1\n      iszero\n      tag_108\n      jumpi\n      returndatasize\n      0x00\n      dup1\n      returndatacopy\n      revert(0x00, returndatasize)\n    tag_108:\n      pop\n        /* \"contracts/Tournament.sol\":5550:6499  {... */\n      pop\n      pop\n      pop\n      pop\n      pop\n        /* \"contracts/Tournament.sol\":1264:1265  _ */\n      pop\n        /* \"contracts/Tournament.sol\":5449:6499  function distributeRewards(uint256 _tournamentId) external onlyOwner tournamentExists(_tournamentId) {... */\n      pop\n      jump\t// out\n        /* \"contracts/Tournament.sol\":2926:3800  function startTournament(uint256 _tournamentId) external onlyOwner tournamentExists(_tournamentId) {... */\n    tag_26:\n        /* \"contracts/Tournament.sol\":1210:1215  owner */\n      0x00\n      dup1\n      sload\n      swap1\n      0x0100\n      exp\n      swap1\n      div\n      0xffffffffffffffffffffffffffffffffffffffff\n      and\n        /* \"contracts/Tournament.sol\":1196:1215  msg.sender == owner */\n      0xffffffffffffffffffffffffffffffffffffffff\n      and\n        /* \"contracts/Tournament.sol\":1196:1206  msg.sender */\n      caller\n        /* \"contracts/Tournament.sol\":1196:1215  msg.sender == owner */\n      0xffffffffffffffffffffffffffffffffffffffff\n      and\n      eq\n        /* \"contracts/Tournament.sol\":1188:1253  require(msg.sender == owner, \"Only owner can call this function\") */\n      tag_110\n      jumpi\n      mload(0x40)\n      0x08c379a000000000000000000000000000000000000000000000000000000000\n      dup2\n      mstore\n      0x04\n      add\n      tag_111\n      swap1\n      tag_63\n      jump\t// in\n    tag_111:\n      mload(0x40)\n      dup1\n      swap2\n      sub\n      swap1\n      revert\n    tag_110:\n        /* \"contracts/Tournament.sol\":3010:3023  _tournamentId */\n      dup1\n        /* \"contracts/Tournament.sol\":1461:1462  0 */\n      0x00\n        /* \"contracts/Tournament.sol\":1419:1430  tournaments */\n      0x02\n        /* \"contracts/Tournament.sol\":1419:1445  tournaments[_tournamentId] */\n      0x00\n        /* \"contracts/Tournament.sol\":1431:1444  _tournamentId */\n      dup4\n        /* \"contracts/Tournament.sol\":1419:1445  tournaments[_tournamentId] */\n      dup2\n      mstore\n      0x20\n      add\n      swap1\n      dup2\n      mstore\n      0x20\n      add\n      0x00\n      keccak256\n        /* \"contracts/Tournament.sol\":1419:1451  tournaments[_tournamentId].teams */\n      0x00\n      add\n        /* \"contracts/Tournament.sol\":1419:1458  tournaments[_tournamentId].teams.length */\n      dup1\n      sload\n      swap1\n      pop\n        /* \"contracts/Tournament.sol\":1419:1462  tournaments[_tournamentId].teams.length > 0 */\n      gt\n        /* \"contracts/Tournament.sol\":1411:1492  require(tournaments[_tournamentId].teams.length > 0, \"Tournament does not exist\") */\n      tag_113\n      jumpi\n      mload(0x40)\n      0x08c379a000000000000000000000000000000000000000000000000000000000\n      dup2\n      mstore\n      0x04\n      add\n      tag_114\n      swap1\n      tag_67\n      jump\t// in\n    tag_114:\n      mload(0x40)\n      dup1\n      swap2\n      sub\n      swap1\n      revert\n    tag_113:\n        /* \"contracts/Tournament.sol\":3036:3069  TournamentInfo storage tournament */\n      0x00\n        /* \"contracts/Tournament.sol\":3072:3083  tournaments */\n      0x02\n        /* \"contracts/Tournament.sol\":3072:3098  tournaments[_tournamentId] */\n      0x00\n        /* \"contracts/Tournament.sol\":3084:3097  _tournamentId */\n      dup5\n        /* \"contracts/Tournament.sol\":3072:3098  tournaments[_tournamentId] */\n      dup2\n      mstore\n      0x20\n      add\n      swap1\n      dup2\n      mstore\n      0x20\n      add\n      0x00\n      keccak256\n        /* \"contracts/Tournament.sol\":3036:3098  TournamentInfo storage tournament = tournaments[_tournamentId] */\n      swap1\n      pop\n        /* \"contracts/Tournament.sol\":3109:3125  uint256 numTeams */\n      0x00\n        /* \"contracts/Tournament.sol\":3128:3138  tournament */\n      dup2\n        /* \"contracts/Tournament.sol\":3128:3144  tournament.teams */\n      0x00\n      add\n        /* \"contracts/Tournament.sol\":3128:3151  tournament.teams.length */\n      dup1\n      sload\n      swap1\n      pop\n        /* \"contracts/Tournament.sol\":3109:3151  uint256 numTeams = tournament.teams.length */\n      swap1\n      pop\n        /* \"contracts/Tournament.sol\":3188:3189  0 */\n      0x00\n        /* \"contracts/Tournament.sol\":3183:3184  2 */\n      0x02\n        /* \"contracts/Tournament.sol\":3172:3180  numTeams */\n      dup3\n        /* \"contracts/Tournament.sol\":3172:3184  numTeams % 2 */\n      tag_116\n      swap2\n      swap1\n      tag_117\n      jump\t// in\n    tag_116:\n        /* \"contracts/Tournament.sol\":3172:3189  numTeams % 2 == 0 */\n      eq\n        /* \"contracts/Tournament.sol\":3164:3222  require(numTeams % 2 == 0, \"Number of teams must be even\") */\n      tag_118\n      jumpi\n      mload(0x40)\n      0x08c379a000000000000000000000000000000000000000000000000000000000\n      dup2\n      mstore\n      0x04\n      add\n      tag_119\n      swap1\n      tag_120\n      jump\t// in\n    tag_119:\n      mload(0x40)\n      dup1\n      swap2\n      sub\n      swap1\n      revert\n    tag_118:\n        /* \"contracts/Tournament.sol\":3334:3335  1 */\n      0x01\n        /* \"contracts/Tournament.sol\":3323:3331  numTeams */\n      dup2\n        /* \"contracts/Tournament.sol\":3323:3335  numTeams - 1 */\n      tag_121\n      swap2\n      swap1\n      tag_70\n      jump\t// in\n    tag_121:\n        /* \"contracts/Tournament.sol\":3295:3305  tournament */\n      dup3\n        /* \"contracts/Tournament.sol\":3295:3313  tournament.matches */\n      0x01\n      add\n        /* \"contracts/Tournament.sol\":3295:3320  tournament.matches.length */\n      dup1\n      sload\n      swap1\n      pop\n        /* \"contracts/Tournament.sol\":3295:3335  tournament.matches.length < numTeams - 1 */\n      lt\n        /* \"contracts/Tournament.sol\":3287:3370  require(tournament.matches.length < numTeams - 1, \"Tournament has already started\") */\n      tag_122\n      jumpi\n      mload(0x40)\n      0x08c379a000000000000000000000000000000000000000000000000000000000\n      dup2\n      mstore\n      0x04\n      add\n      tag_123\n      swap1\n      tag_124\n      jump\t// in\n    tag_123:\n      mload(0x40)\n      dup1\n      swap2\n      sub\n      swap1\n      revert\n    tag_122:\n        /* \"contracts/Tournament.sol\":3388:3397  uint256 i */\n      0x00\n        /* \"contracts/Tournament.sol\":3383:3685  for (uint256 i = 0; i < numTeams / 2; i++) {... */\n    tag_125:\n        /* \"contracts/Tournament.sol\":3418:3419  2 */\n      0x02\n        /* \"contracts/Tournament.sol\":3407:3415  numTeams */\n      dup3\n        /* \"contracts/Tournament.sol\":3407:3419  numTeams / 2 */\n      tag_128\n      swap2\n      swap1\n      tag_77\n      jump\t// in\n    tag_128:\n        /* \"contracts/Tournament.sol\":3403:3404  i */\n      dup2\n        /* \"contracts/Tournament.sol\":3403:3419  i < numTeams / 2 */\n      lt\n        /* \"contracts/Tournament.sol\":3383:3685  for (uint256 i = 0; i < numTeams / 2; i++) {... */\n      iszero\n      tag_126\n      jumpi\n        /* \"contracts/Tournament.sol\":3441:3451  tournament */\n      dup3\n        /* \"contracts/Tournament.sol\":3441:3459  tournament.matches */\n      0x01\n      add\n        /* \"contracts/Tournament.sol\":3465:3672  Match({... */\n      mload(0x40)\n      dup1\n      0x80\n      add\n      0x40\n      mstore\n      dup1\n        /* \"contracts/Tournament.sol\":3497:3507  tournament */\n      dup6\n        /* \"contracts/Tournament.sol\":3497:3513  tournament.teams */\n      0x00\n      add\n        /* \"contracts/Tournament.sol\":3518:3519  2 */\n      0x02\n        /* \"contracts/Tournament.sol\":3514:3515  i */\n      dup6\n        /* \"contracts/Tournament.sol\":3514:3519  i * 2 */\n      tag_129\n      swap2\n      swap1\n      tag_75\n      jump\t// in\n    tag_129:\n        /* \"contracts/Tournament.sol\":3497:3520  tournament.teams[i * 2] */\n      dup2\n      sload\n      dup2\n      lt\n      tag_130\n      jumpi\n      tag_131\n      tag_87\n      jump\t// in\n    tag_131:\n    tag_130:\n      swap1\n      0x00\n      mstore\n      keccak256(0x00, 0x20)\n      add\n      0x00\n      swap1\n      sload\n      swap1\n      0x0100\n      exp\n      swap1\n      div\n      0xffffffffffffffffffffffffffffffffffffffff\n      and\n        /* \"contracts/Tournament.sol\":3465:3672  Match({... */\n      0xffffffffffffffffffffffffffffffffffffffff\n      and\n      dup2\n      mstore\n      0x20\n      add\n        /* \"contracts/Tournament.sol\":3546:3556  tournament */\n      dup6\n        /* \"contracts/Tournament.sol\":3546:3562  tournament.teams */\n      0x00\n      add\n        /* \"contracts/Tournament.sol\":3571:3572  1 */\n      0x01\n        /* \"contracts/Tournament.sol\":3567:3568  2 */\n      0x02\n        /* \"contracts/Tournament.sol\":3563:3564  i */\n      dup7\n        /* \"contracts/Tournament.sol\":3563:3568  i * 2 */\n      tag_133\n      swap2\n      swap1\n      tag_75\n      jump\t// in\n    tag_133:\n        /* \"contracts/Tournament.sol\":3563:3572  i * 2 + 1 */\n      tag_134\n      swap2\n      swap1\n      tag_135\n      jump\t// in\n    tag_134:\n        /* \"contracts/Tournament.sol\":3546:3573  tournament.teams[i * 2 + 1] */\n      dup2\n      sload\n      dup2\n      lt\n      tag_136\n      jumpi\n      tag_137\n      tag_87\n      jump\t// in\n    tag_137:\n    tag_136:\n      swap1\n      0x00\n      mstore\n      keccak256(0x00, 0x20)\n      add\n      0x00\n      swap1\n      sload\n      swap1\n      0x0100\n      exp\n      swap1\n      div\n      0xffffffffffffffffffffffffffffffffffffffff\n      and\n        /* \"contracts/Tournament.sol\":3465:3672  Match({... */\n      0xffffffffffffffffffffffffffffffffffffffff\n      and\n      dup2\n      mstore\n      0x20\n      add\n        /* \"contracts/Tournament.sol\":3608:3609  0 */\n      0x00\n        /* \"contracts/Tournament.sol\":3465:3672  Match({... */\n      0xffffffffffffffffffffffffffffffffffffffff\n      and\n      dup2\n      mstore\n      0x20\n      add\n        /* \"contracts/Tournament.sol\":3637:3656  MatchStatus.Pending */\n      0x00\n        /* \"contracts/Tournament.sol\":3465:3672  Match({... */\n      0x01\n      dup2\n      gt\n      iszero\n      tag_139\n      jumpi\n      tag_140\n      tag_141\n      jump\t// in\n    tag_140:\n    tag_139:\n      dup2\n      mstore\n      pop\n        /* \"contracts/Tournament.sol\":3441:3673  tournament.matches.push(Match({... */\n      swap1\n      dup1\n      0x01\n      dup2\n      sload\n      add\n      dup1\n      dup3\n      sstore\n      dup1\n      swap2\n      pop\n      pop\n      0x01\n      swap1\n      sub\n      swap1\n      0x00\n      mstore\n      keccak256(0x00, 0x20)\n      swap1\n      0x03\n      mul\n      add\n      0x00\n      swap1\n      swap2\n      swap1\n      swap2\n      swap1\n      swap2\n      pop\n      0x00\n      dup3\n      add\n      mload\n      dup2\n      0x00\n      add\n      exp(0x0100, 0x00)\n      dup2\n      sload\n      dup2\n      0xffffffffffffffffffffffffffffffffffffffff\n      mul\n      not\n      and\n      swap1\n      dup4\n      0xffffffffffffffffffffffffffffffffffffffff\n      and\n      mul\n      or\n      swap1\n      sstore\n      pop\n      0x20\n      dup3\n      add\n      mload\n      dup2\n      0x01\n      add\n      exp(0x0100, 0x00)\n      dup2\n      sload\n      dup2\n      0xffffffffffffffffffffffffffffffffffffffff\n      mul\n      not\n      and\n      swap1\n      dup4\n      0xffffffffffffffffffffffffffffffffffffffff\n      and\n      mul\n      or\n      swap1\n      sstore\n      pop\n      0x40\n      dup3\n      add\n      mload\n      dup2\n      0x02\n      add\n      exp(0x0100, 0x00)\n      dup2\n      sload\n      dup2\n      0xffffffffffffffffffffffffffffffffffffffff\n      mul\n      not\n      and\n      swap1\n      dup4\n      0xffffffffffffffffffffffffffffffffffffffff\n      and\n      mul\n      or\n      swap1\n      sstore\n      pop\n      0x60\n      dup3\n      add\n      mload\n      dup2\n      0x02\n      add\n      exp(0x0100, 0x14)\n      dup2\n      sload\n      dup2\n      0xff\n      mul\n      not\n      and\n      swap1\n      dup4\n      0x01\n      dup2\n      gt\n      iszero\n      tag_143\n      jumpi\n      tag_144\n      tag_141\n      jump\t// in\n    tag_144:\n    tag_143:\n      mul\n      or\n      swap1\n      sstore\n      pop\n      pop\n      pop\n        /* \"contracts/Tournament.sol\":3421:3424  i++ */\n      dup1\n      dup1\n      tag_145\n      swap1\n      tag_146\n      jump\t// in\n    tag_145:\n      swap2\n      pop\n      pop\n        /* \"contracts/Tournament.sol\":3383:3685  for (uint256 i = 0; i < numTeams / 2; i++) {... */\n      jump(tag_125)\n    tag_126:\n      pop\n        /* \"contracts/Tournament.sol\":3787:3788  0 */\n      0x00\n        /* \"contracts/Tournament.sol\":3767:3784  currentMatchIndex */\n      0x03\n        /* \"contracts/Tournament.sol\":3767:3788  currentMatchIndex = 0 */\n      dup2\n      swap1\n      sstore\n      pop\n        /* \"contracts/Tournament.sol\":3025:3800  {... */\n      pop\n      pop\n        /* \"contracts/Tournament.sol\":1264:1265  _ */\n      pop\n        /* \"contracts/Tournament.sol\":2926:3800  function startTournament(uint256 _tournamentId) external onlyOwner tournamentExists(_tournamentId) {... */\n      pop\n      jump\t// out\n        /* \"contracts/Tournament.sol\":165:190  uint256 public rewardPool */\n    tag_29:\n      sload(0x01)\n      dup2\n      jump\t// out\n        /* \"contracts/Tournament.sol\":3956:5258  function completeMatch(uint256 _tournamentId, uint256 _matchIndex, address _winner) public {... */\n    tag_35:\n        /* \"contracts/Tournament.sol\":4054:4087  TournamentInfo storage tournament */\n      0x00\n        /* \"contracts/Tournament.sol\":4090:4101  tournaments */\n      0x02\n        /* \"contracts/Tournament.sol\":4090:4116  tournaments[_tournamentId] */\n      0x00\n        /* \"contracts/Tournament.sol\":4102:4115  _tournamentId */\n      dup6\n        /* \"contracts/Tournament.sol\":4090:4116  tournaments[_tournamentId] */\n      dup2\n      mstore\n      0x20\n      add\n      swap1\n      dup2\n      mstore\n      0x20\n      add\n      0x00\n      keccak256\n        /* \"contracts/Tournament.sol\":4054:4116  TournamentInfo storage tournament = tournaments[_tournamentId] */\n      swap1\n      pop\n        /* \"contracts/Tournament.sol\":4123:4150  Match storage matchInstance */\n      0x00\n        /* \"contracts/Tournament.sol\":4153:4163  tournament */\n      dup2\n        /* \"contracts/Tournament.sol\":4153:4171  tournament.matches */\n      0x01\n      add\n        /* \"contracts/Tournament.sol\":4172:4183  _matchIndex */\n      dup5\n        /* \"contracts/Tournament.sol\":4153:4184  tournament.matches[_matchIndex] */\n      dup2\n      sload\n      dup2\n      lt\n      tag_148\n      jumpi\n      tag_149\n      tag_87\n      jump\t// in\n    tag_149:\n    tag_148:\n      swap1\n      0x00\n      mstore\n      keccak256(0x00, 0x20)\n      swap1\n      0x03\n      mul\n      add\n        /* \"contracts/Tournament.sol\":4123:4184  Match storage matchInstance = tournament.matches[_matchIndex] */\n      swap1\n      pop\n        /* \"contracts/Tournament.sol\":4214:4221  _winner */\n      dup3\n        /* \"contracts/Tournament.sol\":4191:4204  matchInstance */\n      dup2\n        /* \"contracts/Tournament.sol\":4191:4211  matchInstance.winner */\n      0x02\n      add\n      0x00\n        /* \"contracts/Tournament.sol\":4191:4221  matchInstance.winner = _winner */\n      0x0100\n      exp\n      dup2\n      sload\n      dup2\n      0xffffffffffffffffffffffffffffffffffffffff\n      mul\n      not\n      and\n      swap1\n      dup4\n      0xffffffffffffffffffffffffffffffffffffffff\n      and\n      mul\n      or\n      swap1\n      sstore\n      pop\n        /* \"contracts/Tournament.sol\":4251:4272  MatchStatus.Completed */\n      0x01\n        /* \"contracts/Tournament.sol\":4228:4241  matchInstance */\n      dup2\n        /* \"contracts/Tournament.sol\":4228:4248  matchInstance.status */\n      0x02\n      add\n      0x14\n        /* \"contracts/Tournament.sol\":4228:4272  matchInstance.status = MatchStatus.Completed */\n      0x0100\n      exp\n      dup2\n      sload\n      dup2\n      0xff\n      mul\n      not\n      and\n      swap1\n      dup4\n      0x01\n      dup2\n      gt\n      iszero\n      tag_151\n      jumpi\n      tag_152\n      tag_141\n      jump\t// in\n    tag_152:\n    tag_151:\n      mul\n      or\n      swap1\n      sstore\n      pop\n        /* \"contracts/Tournament.sol\":4325:4326  2 */\n      0x02\n        /* \"contracts/Tournament.sol\":4299:4309  tournament */\n      dup3\n        /* \"contracts/Tournament.sol\":4299:4315  tournament.teams */\n      0x00\n      add\n        /* \"contracts/Tournament.sol\":4299:4322  tournament.teams.length */\n      dup1\n      sload\n      swap1\n      pop\n        /* \"contracts/Tournament.sol\":4299:4326  tournament.teams.length / 2 */\n      tag_153\n      swap2\n      swap1\n      tag_77\n      jump\t// in\n    tag_153:\n        /* \"contracts/Tournament.sol\":4285:4296  _matchIndex */\n      dup5\n        /* \"contracts/Tournament.sol\":4285:4326  _matchIndex < tournament.teams.length / 2 */\n      lt\n        /* \"contracts/Tournament.sol\":4281:4541  if (_matchIndex < tournament.teams.length / 2) {... */\n      iszero\n      tag_154\n      jumpi\n        /* \"contracts/Tournament.sol\":4339:4349  tournament */\n      dup2\n        /* \"contracts/Tournament.sol\":4339:4366  tournament.secondRoundTeams */\n      0x02\n      add\n        /* \"contracts/Tournament.sol\":4372:4379  _winner */\n      dup4\n        /* \"contracts/Tournament.sol\":4339:4380  tournament.secondRoundTeams.push(_winner) */\n      swap1\n      dup1\n      0x01\n      dup2\n      sload\n      add\n      dup1\n      dup3\n      sstore\n      dup1\n      swap2\n      pop\n      pop\n      0x01\n      swap1\n      sub\n      swap1\n      0x00\n      mstore\n      keccak256(0x00, 0x20)\n      add\n      0x00\n      swap1\n      swap2\n      swap1\n      swap2\n      swap1\n      swap2\n      0x0100\n      exp\n      dup2\n      sload\n      dup2\n      0xffffffffffffffffffffffffffffffffffffffff\n      mul\n      not\n      and\n      swap1\n      dup4\n      0xffffffffffffffffffffffffffffffffffffffff\n      and\n      mul\n      or\n      swap1\n      sstore\n      pop\n        /* \"contracts/Tournament.sol\":4281:4541  if (_matchIndex < tournament.teams.length / 2) {... */\n      jump(tag_156)\n    tag_154:\n        /* \"contracts/Tournament.sol\":4479:4480  2 */\n      0x02\n        /* \"contracts/Tournament.sol\":4442:4452  tournament */\n      dup3\n        /* \"contracts/Tournament.sol\":4442:4469  tournament.secondRoundTeams */\n      0x02\n      add\n        /* \"contracts/Tournament.sol\":4442:4476  tournament.secondRoundTeams.length */\n      dup1\n      sload\n      swap1\n      pop\n        /* \"contracts/Tournament.sol\":4442:4480  tournament.secondRoundTeams.length / 2 */\n      tag_157\n      swap2\n      swap1\n      tag_77\n      jump\t// in\n    tag_157:\n        /* \"contracts/Tournament.sol\":4438:4439  2 */\n      0x02\n        /* \"contracts/Tournament.sol\":4412:4422  tournament */\n      dup4\n        /* \"contracts/Tournament.sol\":4412:4428  tournament.teams */\n      0x00\n      add\n        /* \"contracts/Tournament.sol\":4412:4435  tournament.teams.length */\n      dup1\n      sload\n      swap1\n      pop\n        /* \"contracts/Tournament.sol\":4412:4439  tournament.teams.length / 2 */\n      tag_158\n      swap2\n      swap1\n      tag_77\n      jump\t// in\n    tag_158:\n        /* \"contracts/Tournament.sol\":4412:4480  tournament.teams.length / 2 + tournament.secondRoundTeams.length / 2 */\n      tag_159\n      swap2\n      swap1\n      tag_135\n      jump\t// in\n    tag_159:\n        /* \"contracts/Tournament.sol\":4398:4409  _matchIndex */\n      dup5\n        /* \"contracts/Tournament.sol\":4398:4480  _matchIndex < tournament.teams.length / 2 + tournament.secondRoundTeams.length / 2 */\n      lt\n        /* \"contracts/Tournament.sol\":4394:4541  if (_matchIndex < tournament.teams.length / 2 + tournament.secondRoundTeams.length / 2) {... */\n      iszero\n      tag_160\n      jumpi\n        /* \"contracts/Tournament.sol\":4493:4503  tournament */\n      dup2\n        /* \"contracts/Tournament.sol\":4493:4519  tournament.finalRoundTeams */\n      0x03\n      add\n        /* \"contracts/Tournament.sol\":4525:4532  _winner */\n      dup4\n        /* \"contracts/Tournament.sol\":4493:4533  tournament.finalRoundTeams.push(_winner) */\n      swap1\n      dup1\n      0x01\n      dup2\n      sload\n      add\n      dup1\n      dup3\n      sstore\n      dup1\n      swap2\n      pop\n      pop\n      0x01\n      swap1\n      sub\n      swap1\n      0x00\n      mstore\n      keccak256(0x00, 0x20)\n      add\n      0x00\n      swap1\n      swap2\n      swap1\n      swap2\n      swap1\n      swap2\n      0x0100\n      exp\n      dup2\n      sload\n      dup2\n      0xffffffffffffffffffffffffffffffffffffffff\n      mul\n      not\n      and\n      swap1\n      dup4\n      0xffffffffffffffffffffffffffffffffffffffff\n      and\n      mul\n      or\n      swap1\n      sstore\n      pop\n        /* \"contracts/Tournament.sol\":4394:4541  if (_matchIndex < tournament.teams.length / 2 + tournament.secondRoundTeams.length / 2) {... */\n    tag_160:\n        /* \"contracts/Tournament.sol\":4281:4541  if (_matchIndex < tournament.teams.length / 2) {... */\n    tag_156:\n        /* \"contracts/Tournament.sol\":4709:4710  1 */\n      0x01\n        /* \"contracts/Tournament.sol\":4705:4706  2 */\n      0x02\n        /* \"contracts/Tournament.sol\":4679:4689  tournament */\n      dup4\n        /* \"contracts/Tournament.sol\":4679:4695  tournament.teams */\n      0x00\n      add\n        /* \"contracts/Tournament.sol\":4679:4702  tournament.teams.length */\n      dup1\n      sload\n      swap1\n      pop\n        /* \"contracts/Tournament.sol\":4679:4706  tournament.teams.length / 2 */\n      tag_162\n      swap2\n      swap1\n      tag_77\n      jump\t// in\n    tag_162:\n        /* \"contracts/Tournament.sol\":4679:4710  tournament.teams.length / 2 - 1 */\n      tag_163\n      swap2\n      swap1\n      tag_70\n      jump\t// in\n    tag_163:\n        /* \"contracts/Tournament.sol\":4664:4675  _matchIndex */\n      dup5\n        /* \"contracts/Tournament.sol\":4664:4710  _matchIndex == tournament.teams.length / 2 - 1 */\n      eq\n        /* \"contracts/Tournament.sol\":4664:4801  _matchIndex == tournament.teams.length / 2 - 1 || _matchIndex == tournament.teams.length / 2 + tournament.secondRoundTeams.length / 2 - 1 */\n      dup1\n      tag_164\n      jumpi\n      pop\n        /* \"contracts/Tournament.sol\":4800:4801  1 */\n      0x01\n        /* \"contracts/Tournament.sol\":4796:4797  2 */\n      0x02\n        /* \"contracts/Tournament.sol\":4759:4769  tournament */\n      dup4\n        /* \"contracts/Tournament.sol\":4759:4786  tournament.secondRoundTeams */\n      0x02\n      add\n        /* \"contracts/Tournament.sol\":4759:4793  tournament.secondRoundTeams.length */\n      dup1\n      sload\n      swap1\n      pop\n        /* \"contracts/Tournament.sol\":4759:4797  tournament.secondRoundTeams.length / 2 */\n      tag_165\n      swap2\n      swap1\n      tag_77\n      jump\t// in\n    tag_165:\n        /* \"contracts/Tournament.sol\":4755:4756  2 */\n      0x02\n        /* \"contracts/Tournament.sol\":4729:4739  tournament */\n      dup5\n        /* \"contracts/Tournament.sol\":4729:4745  tournament.teams */\n      0x00\n      add\n        /* \"contracts/Tournament.sol\":4729:4752  tournament.teams.length */\n      dup1\n      sload\n      swap1\n      pop\n        /* \"contracts/Tournament.sol\":4729:4756  tournament.teams.length / 2 */\n      tag_166\n      swap2\n      swap1\n      tag_77\n      jump\t// in\n    tag_166:\n        /* \"contracts/Tournament.sol\":4729:4797  tournament.teams.length / 2 + tournament.secondRoundTeams.length / 2 */\n      tag_167\n      swap2\n      swap1\n      tag_135\n      jump\t// in\n    tag_167:\n        /* \"contracts/Tournament.sol\":4729:4801  tournament.teams.length / 2 + tournament.secondRoundTeams.length / 2 - 1 */\n      tag_168\n      swap2\n      swap1\n      tag_70\n      jump\t// in\n    tag_168:\n        /* \"contracts/Tournament.sol\":4714:4725  _matchIndex */\n      dup5\n        /* \"contracts/Tournament.sol\":4714:4801  _matchIndex == tournament.teams.length / 2 + tournament.secondRoundTeams.length / 2 - 1 */\n      eq\n        /* \"contracts/Tournament.sol\":4664:4801  _matchIndex == tournament.teams.length / 2 - 1 || _matchIndex == tournament.teams.length / 2 + tournament.secondRoundTeams.length / 2 - 1 */\n    tag_164:\n        /* \"contracts/Tournament.sol\":4660:5255  if (_matchIndex == tournament.teams.length / 2 - 1 || _matchIndex == tournament.teams.length / 2 + tournament.secondRoundTeams.length / 2 - 1) {... */\n      iszero\n      tag_169\n      jumpi\n        /* \"contracts/Tournament.sol\":4814:4839  address[] storage winners */\n      0x00\n        /* \"contracts/Tournament.sol\":4887:4888  1 */\n      0x01\n        /* \"contracts/Tournament.sol\":4883:4884  2 */\n      0x02\n        /* \"contracts/Tournament.sol\":4857:4867  tournament */\n      dup5\n        /* \"contracts/Tournament.sol\":4857:4873  tournament.teams */\n      0x00\n      add\n        /* \"contracts/Tournament.sol\":4857:4880  tournament.teams.length */\n      dup1\n      sload\n      swap1\n      pop\n        /* \"contracts/Tournament.sol\":4857:4884  tournament.teams.length / 2 */\n      tag_170\n      swap2\n      swap1\n      tag_77\n      jump\t// in\n    tag_170:\n        /* \"contracts/Tournament.sol\":4857:4888  tournament.teams.length / 2 - 1 */\n      tag_171\n      swap2\n      swap1\n      tag_70\n      jump\t// in\n    tag_171:\n        /* \"contracts/Tournament.sol\":4842:4853  _matchIndex */\n      dup6\n        /* \"contracts/Tournament.sol\":4842:4888  _matchIndex == tournament.teams.length / 2 - 1 */\n      eq\n        /* \"contracts/Tournament.sol\":4842:4947  _matchIndex == tournament.teams.length / 2 - 1 ? tournament.secondRoundTeams : tournament.finalRoundTeams */\n      tag_172\n      jumpi\n        /* \"contracts/Tournament.sol\":4921:4931  tournament */\n      dup3\n        /* \"contracts/Tournament.sol\":4921:4947  tournament.finalRoundTeams */\n      0x03\n      add\n        /* \"contracts/Tournament.sol\":4842:4947  _matchIndex == tournament.teams.length / 2 - 1 ? tournament.secondRoundTeams : tournament.finalRoundTeams */\n      jump(tag_173)\n    tag_172:\n        /* \"contracts/Tournament.sol\":4891:4901  tournament */\n      dup3\n        /* \"contracts/Tournament.sol\":4891:4918  tournament.secondRoundTeams */\n      0x02\n      add\n        /* \"contracts/Tournament.sol\":4842:4947  _matchIndex == tournament.teams.length / 2 - 1 ? tournament.secondRoundTeams : tournament.finalRoundTeams */\n    tag_173:\n        /* \"contracts/Tournament.sol\":4814:4947  address[] storage winners = _matchIndex == tournament.teams.length / 2 - 1 ? tournament.secondRoundTeams : tournament.finalRoundTeams */\n      swap1\n      pop\n        /* \"contracts/Tournament.sol\":4963:4972  uint256 i */\n      0x00\n        /* \"contracts/Tournament.sol\":4958:5248  for (uint256 i = 0; i < winners.length / 2; i++) {... */\n    tag_174:\n        /* \"contracts/Tournament.sol\":4999:5000  2 */\n      0x02\n        /* \"contracts/Tournament.sol\":4982:4989  winners */\n      dup3\n        /* \"contracts/Tournament.sol\":4982:4996  winners.length */\n      dup1\n      sload\n      swap1\n      pop\n        /* \"contracts/Tournament.sol\":4982:5000  winners.length / 2 */\n      tag_177\n      swap2\n      swap1\n      tag_77\n      jump\t// in\n    tag_177:\n        /* \"contracts/Tournament.sol\":4978:4979  i */\n      dup2\n        /* \"contracts/Tournament.sol\":4978:5000  i < winners.length / 2 */\n      lt\n        /* \"contracts/Tournament.sol\":4958:5248  for (uint256 i = 0; i < winners.length / 2; i++) {... */\n      iszero\n      tag_175\n      jumpi\n        /* \"contracts/Tournament.sol\":5022:5032  tournament */\n      dup4\n        /* \"contracts/Tournament.sol\":5022:5040  tournament.matches */\n      0x01\n      add\n        /* \"contracts/Tournament.sol\":5046:5235  Match({... */\n      mload(0x40)\n      dup1\n      0x80\n      add\n      0x40\n      mstore\n      dup1\n        /* \"contracts/Tournament.sol\":5078:5085  winners */\n      dup5\n        /* \"contracts/Tournament.sol\":5090:5091  2 */\n      0x02\n        /* \"contracts/Tournament.sol\":5086:5087  i */\n      dup6\n        /* \"contracts/Tournament.sol\":5086:5091  i * 2 */\n      tag_178\n      swap2\n      swap1\n      tag_75\n      jump\t// in\n    tag_178:\n        /* \"contracts/Tournament.sol\":5078:5092  winners[i * 2] */\n      dup2\n      sload\n      dup2\n      lt\n      tag_179\n      jumpi\n      tag_180\n      tag_87\n      jump\t// in\n    tag_180:\n    tag_179:\n      swap1\n      0x00\n      mstore\n      keccak256(0x00, 0x20)\n      add\n      0x00\n      swap1\n      sload\n      swap1\n      0x0100\n      exp\n      swap1\n      div\n      0xffffffffffffffffffffffffffffffffffffffff\n      and\n        /* \"contracts/Tournament.sol\":5046:5235  Match({... */\n      0xffffffffffffffffffffffffffffffffffffffff\n      and\n      dup2\n      mstore\n      0x20\n      add\n        /* \"contracts/Tournament.sol\":5118:5125  winners */\n      dup5\n        /* \"contracts/Tournament.sol\":5134:5135  1 */\n      0x01\n        /* \"contracts/Tournament.sol\":5130:5131  2 */\n      0x02\n        /* \"contracts/Tournament.sol\":5126:5127  i */\n      dup7\n        /* \"contracts/Tournament.sol\":5126:5131  i * 2 */\n      tag_182\n      swap2\n      swap1\n      tag_75\n      jump\t// in\n    tag_182:\n        /* \"contracts/Tournament.sol\":5126:5135  i * 2 + 1 */\n      tag_183\n      swap2\n      swap1\n      tag_135\n      jump\t// in\n    tag_183:\n        /* \"contracts/Tournament.sol\":5118:5136  winners[i * 2 + 1] */\n      dup2\n      sload\n      dup2\n      lt\n      tag_184\n      jumpi\n      tag_185\n      tag_87\n      jump\t// in\n    tag_185:\n    tag_184:\n      swap1\n      0x00\n      mstore\n      keccak256(0x00, 0x20)\n      add\n      0x00\n      swap1\n      sload\n      swap1\n      0x0100\n      exp\n      swap1\n      div\n      0xffffffffffffffffffffffffffffffffffffffff\n      and\n        /* \"contracts/Tournament.sol\":5046:5235  Match({... */\n      0xffffffffffffffffffffffffffffffffffffffff\n      and\n      dup2\n      mstore\n      0x20\n      add\n        /* \"contracts/Tournament.sol\":5171:5172  0 */\n      0x00\n        /* \"contracts/Tournament.sol\":5046:5235  Match({... */\n      0xffffffffffffffffffffffffffffffffffffffff\n      and\n      dup2\n      mstore\n      0x20\n      add\n        /* \"contracts/Tournament.sol\":5200:5219  MatchStatus.Pending */\n      0x00\n        /* \"contracts/Tournament.sol\":5046:5235  Match({... */\n      0x01\n      dup2\n      gt\n      iszero\n      tag_187\n      jumpi\n      tag_188\n      tag_141\n      jump\t// in\n    tag_188:\n    tag_187:\n      dup2\n      mstore\n      pop\n        /* \"contracts/Tournament.sol\":5022:5236  tournament.matches.push(Match({... */\n      swap1\n      dup1\n      0x01\n      dup2\n      sload\n      add\n      dup1\n      dup3\n      sstore\n      dup1\n      swap2\n      pop\n      pop\n      0x01\n      swap1\n      sub\n      swap1\n      0x00\n      mstore\n      keccak256(0x00, 0x20)\n      swap1\n      0x03\n      mul\n      add\n      0x00\n      swap1\n      swap2\n      swap1\n      swap2\n      swap1\n      swap2\n      pop\n      0x00\n      dup3\n      add\n      mload\n      dup2\n      0x00\n      add\n      exp(0x0100, 0x00)\n      dup2\n      sload\n      dup2\n      0xffffffffffffffffffffffffffffffffffffffff\n      mul\n      not\n      and\n      swap1\n      dup4\n      0xffffffffffffffffffffffffffffffffffffffff\n      and\n      mul\n      or\n      swap1\n      sstore\n      pop\n      0x20\n      dup3\n      add\n      mload\n      dup2\n      0x01\n      add\n      exp(0x0100, 0x00)\n      dup2\n      sload\n      dup2\n      0xffffffffffffffffffffffffffffffffffffffff\n      mul\n      not\n      and\n      swap1\n      dup4\n      0xffffffffffffffffffffffffffffffffffffffff\n      and\n      mul\n      or\n      swap1\n      sstore\n      pop\n      0x40\n      dup3\n      add\n      mload\n      dup2\n      0x02\n      add\n      exp(0x0100, 0x00)\n      dup2\n      sload\n      dup2\n      0xffffffffffffffffffffffffffffffffffffffff\n      mul\n      not\n      and\n      swap1\n      dup4\n      0xffffffffffffffffffffffffffffffffffffffff\n      and\n      mul\n      or\n      swap1\n      sstore\n      pop\n      0x60\n      dup3\n      add\n      mload\n      dup2\n      0x02\n      add\n      exp(0x0100, 0x14)\n      dup2\n      sload\n      dup2\n      0xff\n      mul\n      not\n      and\n      swap1\n      dup4\n      0x01\n      dup2\n      gt\n      iszero\n      tag_190\n      jumpi\n      tag_191\n      tag_141\n      jump\t// in\n    tag_191:\n    tag_190:\n      mul\n      or\n      swap1\n      sstore\n      pop\n      pop\n      pop\n        /* \"contracts/Tournament.sol\":5002:5005  i++ */\n      dup1\n      dup1\n      tag_192\n      swap1\n      tag_146\n      jump\t// in\n    tag_192:\n      swap2\n      pop\n      pop\n        /* \"contracts/Tournament.sol\":4958:5248  for (uint256 i = 0; i < winners.length / 2; i++) {... */\n      jump(tag_174)\n    tag_175:\n      pop\n        /* \"contracts/Tournament.sol\":4803:5255  {... */\n      pop\n        /* \"contracts/Tournament.sol\":4660:5255  if (_matchIndex == tournament.teams.length / 2 - 1 || _matchIndex == tournament.teams.length / 2 + tournament.secondRoundTeams.length / 2 - 1) {... */\n    tag_169:\n        /* \"contracts/Tournament.sol\":4047:5258  {... */\n      pop\n      pop\n        /* \"contracts/Tournament.sol\":3956:5258  function completeMatch(uint256 _tournamentId, uint256 _matchIndex, address _winner) public {... */\n      pop\n      pop\n      pop\n      jump\t// out\n        /* \"contracts/Tournament.sol\":1995:2145  function getTournamentTeams(uint256 _tournamentId) external view returns (address[] memory) {... */\n    tag_39:\n        /* \"contracts/Tournament.sol\":2069:2085  address[] memory */\n      0x60\n        /* \"contracts/Tournament.sol\":2105:2116  tournaments */\n      0x02\n        /* \"contracts/Tournament.sol\":2105:2131  tournaments[_tournamentId] */\n      0x00\n        /* \"contracts/Tournament.sol\":2117:2130  _tournamentId */\n      dup4\n        /* \"contracts/Tournament.sol\":2105:2131  tournaments[_tournamentId] */\n      dup2\n      mstore\n      0x20\n      add\n      swap1\n      dup2\n      mstore\n      0x20\n      add\n      0x00\n      keccak256\n        /* \"contracts/Tournament.sol\":2105:2137  tournaments[_tournamentId].teams */\n      0x00\n      add\n        /* \"contracts/Tournament.sol\":2098:2137  return tournaments[_tournamentId].teams */\n      dup1\n      sload\n      dup1\n      0x20\n      mul\n      0x20\n      add\n      mload(0x40)\n      swap1\n      dup2\n      add\n      0x40\n      mstore\n      dup1\n      swap3\n      swap2\n      swap1\n      dup2\n      dup2\n      mstore\n      0x20\n      add\n      dup3\n      dup1\n      sload\n      dup1\n      iszero\n      tag_194\n      jumpi\n      0x20\n      mul\n      dup3\n      add\n      swap2\n      swap1\n      0x00\n      mstore\n      keccak256(0x00, 0x20)\n      swap1\n    tag_195:\n      dup2\n      0x00\n      swap1\n      sload\n      swap1\n      0x0100\n      exp\n      swap1\n      div\n      0xffffffffffffffffffffffffffffffffffffffff\n      and\n      0xffffffffffffffffffffffffffffffffffffffff\n      and\n      dup2\n      mstore\n      0x20\n      add\n      swap1\n      0x01\n      add\n      swap1\n      dup1\n      dup4\n      gt\n      tag_195\n      jumpi\n    tag_194:\n      pop\n      pop\n      pop\n      pop\n      pop\n      swap1\n      pop\n        /* \"contracts/Tournament.sol\":1995:2145  function getTournamentTeams(uint256 _tournamentId) external view returns (address[] memory) {... */\n      swap2\n      swap1\n      pop\n      jump\t// out\n        /* \"contracts/Tournament.sol\":110:130  address public owner */\n    tag_44:\n      0x00\n      dup1\n      sload\n      swap1\n      0x0100\n      exp\n      swap1\n      div\n      0xffffffffffffffffffffffffffffffffffffffff\n      and\n      dup2\n      jump\t// out\n        /* \"contracts/Tournament.sol\":2442:2850  function createTournament(uint256 _tournamentId, address[] memory _teams) external onlyOwner tournamentNotStarted(_tournamentId) {... */\n    tag_51:\n        /* \"contracts/Tournament.sol\":1210:1215  owner */\n      0x00\n      dup1\n      sload\n      swap1\n      0x0100\n      exp\n      swap1\n      div\n      0xffffffffffffffffffffffffffffffffffffffff\n      and\n        /* \"contracts/Tournament.sol\":1196:1215  msg.sender == owner */\n      0xffffffffffffffffffffffffffffffffffffffff\n      and\n        /* \"contracts/Tournament.sol\":1196:1206  msg.sender */\n      caller\n        /* \"contracts/Tournament.sol\":1196:1215  msg.sender == owner */\n      0xffffffffffffffffffffffffffffffffffffffff\n      and\n      eq\n        /* \"contracts/Tournament.sol\":1188:1253  require(msg.sender == owner, \"Only owner can call this function\") */\n      tag_197\n      jumpi\n      mload(0x40)\n      0x08c379a000000000000000000000000000000000000000000000000000000000\n      dup2\n      mstore\n      0x04\n      add\n      tag_198\n      swap1\n      tag_63\n      jump\t// in\n    tag_198:\n      mload(0x40)\n      dup1\n      swap2\n      sub\n      swap1\n      revert\n    tag_197:\n        /* \"contracts/Tournament.sol\":2556:2569  _tournamentId */\n      dup2\n        /* \"contracts/Tournament.sol\":1720:1721  0 */\n      0x00\n        /* \"contracts/Tournament.sol\":1675:1686  tournaments */\n      0x02\n        /* \"contracts/Tournament.sol\":1675:1701  tournaments[_tournamentId] */\n      0x00\n        /* \"contracts/Tournament.sol\":1687:1700  _tournamentId */\n      dup4\n        /* \"contracts/Tournament.sol\":1675:1701  tournaments[_tournamentId] */\n      dup2\n      mstore\n      0x20\n      add\n      swap1\n      dup2\n      mstore\n      0x20\n      add\n      0x00\n      keccak256\n        /* \"contracts/Tournament.sol\":1675:1709  tournaments[_tournamentId].matches */\n      0x01\n      add\n        /* \"contracts/Tournament.sol\":1675:1716  tournaments[_tournamentId].matches.length */\n      dup1\n      sload\n      swap1\n      pop\n        /* \"contracts/Tournament.sol\":1675:1721  tournaments[_tournamentId].matches.length == 0 */\n      eq\n        /* \"contracts/Tournament.sol\":1667:1756  require(tournaments[_tournamentId].matches.length == 0, \"Tournament has already started\") */\n      tag_200\n      jumpi\n      mload(0x40)\n      0x08c379a000000000000000000000000000000000000000000000000000000000\n      dup2\n      mstore\n      0x04\n      add\n      tag_201\n      swap1\n      tag_124\n      jump\t// in\n    tag_201:\n      mload(0x40)\n      dup1\n      swap2\n      sub\n      swap1\n      revert\n    tag_200:\n        /* \"contracts/Tournament.sol\":2607:2608  8 */\n      0x08\n        /* \"contracts/Tournament.sol\":2590:2596  _teams */\n      dup3\n        /* \"contracts/Tournament.sol\":2590:2603  _teams.length */\n      mload\n        /* \"contracts/Tournament.sol\":2590:2608  _teams.length == 8 */\n      eq\n        /* \"contracts/Tournament.sol\":2590:2631  _teams.length == 8 || _teams.length == 16 */\n      dup1\n      tag_203\n      jumpi\n      pop\n        /* \"contracts/Tournament.sol\":2629:2631  16 */\n      0x10\n        /* \"contracts/Tournament.sol\":2612:2618  _teams */\n      dup3\n        /* \"contracts/Tournament.sol\":2612:2625  _teams.length */\n      mload\n        /* \"contracts/Tournament.sol\":2612:2631  _teams.length == 16 */\n      eq\n        /* \"contracts/Tournament.sol\":2590:2631  _teams.length == 8 || _teams.length == 16 */\n    tag_203:\n        /* \"contracts/Tournament.sol\":2582:2667  require(_teams.length == 8 || _teams.length == 16, \"Number of teams must be 8 or 16\") */\n      tag_204\n      jumpi\n      mload(0x40)\n      0x08c379a000000000000000000000000000000000000000000000000000000000\n      dup2\n      mstore\n      0x04\n      add\n      tag_205\n      swap1\n      tag_206\n      jump\t// in\n    tag_205:\n      mload(0x40)\n      dup1\n      swap2\n      sub\n      swap1\n      revert\n    tag_204:\n        /* \"contracts/Tournament.sol\":2680:2716  TournamentInfo storage newTournament */\n      0x00\n        /* \"contracts/Tournament.sol\":2719:2730  tournaments */\n      0x02\n        /* \"contracts/Tournament.sol\":2719:2745  tournaments[_tournamentId] */\n      0x00\n        /* \"contracts/Tournament.sol\":2731:2744  _tournamentId */\n      dup6\n        /* \"contracts/Tournament.sol\":2719:2745  tournaments[_tournamentId] */\n      dup2\n      mstore\n      0x20\n      add\n      swap1\n      dup2\n      mstore\n      0x20\n      add\n      0x00\n      keccak256\n        /* \"contracts/Tournament.sol\":2680:2745  TournamentInfo storage newTournament = tournaments[_tournamentId] */\n      swap1\n      pop\n        /* \"contracts/Tournament.sol\":2778:2784  _teams */\n      dup3\n        /* \"contracts/Tournament.sol\":2756:2769  newTournament */\n      dup2\n        /* \"contracts/Tournament.sol\":2756:2775  newTournament.teams */\n      0x00\n      add\n        /* \"contracts/Tournament.sol\":2756:2784  newTournament.teams = _teams */\n      swap1\n      dup1\n      mload\n      swap1\n      0x20\n      add\n      swap1\n      tag_207\n      swap3\n      swap2\n      swap1\n      tag_208\n      jump\t// in\n    tag_207:\n      pop\n        /* \"contracts/Tournament.sol\":2820:2833  _tournamentId */\n      dup4\n        /* \"contracts/Tournament.sol\":2802:2842  TournamentCreated(_tournamentId, _teams) */\n      0xa47122c4660339cf88308783d3c2a9ed10d7809cc28e552e580a7a89722f6da9\n        /* \"contracts/Tournament.sol\":2835:2841  _teams */\n      dup5\n        /* \"contracts/Tournament.sol\":2802:2842  TournamentCreated(_tournamentId, _teams) */\n      mload(0x40)\n      tag_209\n      swap2\n      swap1\n      tag_41\n      jump\t// in\n    tag_209:\n      mload(0x40)\n      dup1\n      swap2\n      sub\n      swap1\n      log2\n        /* \"contracts/Tournament.sol\":2571:2850  {... */\n      pop\n        /* \"contracts/Tournament.sol\":1264:1265  _ */\n      pop\n        /* \"contracts/Tournament.sol\":2442:2850  function createTournament(uint256 _tournamentId, address[] memory _teams) external onlyOwner tournamentNotStarted(_tournamentId) {... */\n      pop\n      pop\n      jump\t// out\n        /* \"contracts/Tournament.sol\":6511:6585  function deposit() external payable {... */\n    tag_53:\n        /* \"contracts/Tournament.sol\":6568:6577  msg.value */\n      callvalue\n        /* \"contracts/Tournament.sol\":6554:6564  rewardPool */\n      0x01\n      0x00\n        /* \"contracts/Tournament.sol\":6554:6577  rewardPool += msg.value */\n      dup3\n      dup3\n      sload\n      tag_211\n      swap2\n      swap1\n      tag_135\n      jump\t// in\n    tag_211:\n      swap3\n      pop\n      pop\n      dup2\n      swap1\n      sstore\n      pop\n        /* \"contracts/Tournament.sol\":6511:6585  function deposit() external payable {... */\n      jump\t// out\n        /* \"contracts/Tournament.sol\":2210:2362  function getTournamentMatches(uint256 _tournamentId) external view returns (Match[] memory) {... */\n    tag_57:\n        /* \"contracts/Tournament.sol\":2286:2300  Match[] memory */\n      0x60\n        /* \"contracts/Tournament.sol\":2320:2331  tournaments */\n      0x02\n        /* \"contracts/Tournament.sol\":2320:2346  tournaments[_tournamentId] */\n      0x00\n        /* \"contracts/Tournament.sol\":2332:2345  _tournamentId */\n      dup4\n        /* \"contracts/Tournament.sol\":2320:2346  tournaments[_tournamentId] */\n      dup2\n      mstore\n      0x20\n      add\n      swap1\n      dup2\n      mstore\n      0x20\n      add\n      0x00\n      keccak256\n        /* \"contracts/Tournament.sol\":2320:2354  tournaments[_tournamentId].matches */\n      0x01\n      add\n        /* \"contracts/Tournament.sol\":2313:2354  return tournaments[_tournamentId].matches */\n      dup1\n      sload\n      dup1\n      0x20\n      mul\n      0x20\n      add\n      mload(0x40)\n      swap1\n      dup2\n      add\n      0x40\n      mstore\n      dup1\n      swap3\n      swap2\n      swap1\n      dup2\n      dup2\n      mstore\n      0x20\n      add\n      0x00\n      swap1\n    tag_213:\n      dup3\n      dup3\n      lt\n      iszero\n      tag_214\n      jumpi\n      dup4\n      dup3\n      swap1\n      0x00\n      mstore\n      keccak256(0x00, 0x20)\n      swap1\n      0x03\n      mul\n      add\n      mload(0x40)\n      dup1\n      0x80\n      add\n      0x40\n      mstore\n      swap1\n      dup2\n      0x00\n      dup3\n      add\n      0x00\n      swap1\n      sload\n      swap1\n      0x0100\n      exp\n      swap1\n      div\n      0xffffffffffffffffffffffffffffffffffffffff\n      and\n      0xffffffffffffffffffffffffffffffffffffffff\n      and\n      0xffffffffffffffffffffffffffffffffffffffff\n      and\n      dup2\n      mstore\n      0x20\n      add\n      0x01\n      dup3\n      add\n      0x00\n      swap1\n      sload\n      swap1\n      0x0100\n      exp\n      swap1\n      div\n      0xffffffffffffffffffffffffffffffffffffffff\n      and\n      0xffffffffffffffffffffffffffffffffffffffff\n      and\n      0xffffffffffffffffffffffffffffffffffffffff\n      and\n      dup2\n      mstore\n      0x20\n      add\n      0x02\n      dup3\n      add\n      0x00\n      swap1\n      sload\n      swap1\n      0x0100\n      exp\n      swap1\n      div\n      0xffffffffffffffffffffffffffffffffffffffff\n      and\n      0xffffffffffffffffffffffffffffffffffffffff\n      and\n      0xffffffffffffffffffffffffffffffffffffffff\n      and\n      dup2\n      mstore\n      0x20\n      add\n      0x02\n      dup3\n      add\n      0x14\n      swap1\n      sload\n      swap1\n      0x0100\n      exp\n      swap1\n      div\n      0xff\n      and\n      0x01\n      dup2\n      gt\n      iszero\n      tag_216\n      jumpi\n      tag_217\n      tag_141\n      jump\t// in\n    tag_217:\n    tag_216:\n      0x01\n      dup2\n      gt\n      iszero\n      tag_218\n      jumpi\n      tag_219\n      tag_141\n      jump\t// in\n    tag_219:\n    tag_218:\n      dup2\n      mstore\n      pop\n      pop\n      dup2\n      mstore\n      0x20\n      add\n      swap1\n      0x01\n      add\n      swap1\n      jump(tag_213)\n    tag_214:\n      pop\n      pop\n      pop\n      pop\n      swap1\n      pop\n        /* \"contracts/Tournament.sol\":2210:2362  function getTournamentMatches(uint256 _tournamentId) external view returns (Match[] memory) {... */\n      swap2\n      swap1\n      pop\n      jump\t// out\n    tag_208:\n      dup3\n      dup1\n      sload\n      dup3\n      dup3\n      sstore\n      swap1\n      0x00\n      mstore\n      keccak256(0x00, 0x20)\n      swap1\n      dup2\n      add\n      swap3\n      dup3\n      iszero\n      tag_220\n      jumpi\n      swap2\n      0x20\n      mul\n      dup3\n      add\n    tag_221:\n      dup3\n      dup2\n      gt\n      iszero\n      tag_222\n      jumpi\n      dup3\n      mload\n      dup3\n      exp(0x0100, 0x00)\n      dup2\n      sload\n      dup2\n      0xffffffffffffffffffffffffffffffffffffffff\n      mul\n      not\n      and\n      swap1\n      dup4\n      0xffffffffffffffffffffffffffffffffffffffff\n      and\n      mul\n      or\n      swap1\n      sstore\n      pop\n      swap2\n      0x20\n      add\n      swap2\n      swap1\n      0x01\n      add\n      swap1\n      jump(tag_221)\n    tag_222:\n    tag_220:\n      pop\n      swap1\n      pop\n      tag_223\n      swap2\n      swap1\n      tag_224\n      jump\t// in\n    tag_223:\n      pop\n      swap1\n      jump\t// out\n    tag_224:\n    tag_225:\n      dup1\n      dup3\n      gt\n      iszero\n      tag_226\n      jumpi\n      0x00\n      dup2\n      0x00\n      swap1\n      sstore\n      pop\n      0x01\n      add\n      jump(tag_225)\n    tag_226:\n      pop\n      swap1\n      jump\t// out\n        /* \"#utility.yul\":7:84   */\n    tag_227:\n        /* \"#utility.yul\":44:51   */\n      0x00\n        /* \"#utility.yul\":73:78   */\n      dup2\n        /* \"#utility.yul\":62:78   */\n      swap1\n      pop\n        /* \"#utility.yul\":7:84   */\n      swap2\n      swap1\n      pop\n      jump\t// out\n        /* \"#utility.yul\":90:208   */\n    tag_228:\n        /* \"#utility.yul\":177:201   */\n      tag_284\n        /* \"#utility.yul\":195:200   */\n      dup2\n        /* \"#utility.yul\":177:201   */\n      tag_227\n      jump\t// in\n    tag_284:\n        /* \"#utility.yul\":172:175   */\n      dup3\n        /* \"#utility.yul\":165:202   */\n      mstore\n        /* \"#utility.yul\":90:208   */\n      pop\n      pop\n      jump\t// out\n        /* \"#utility.yul\":214:436   */\n    tag_17:\n        /* \"#utility.yul\":307:311   */\n      0x00\n        /* \"#utility.yul\":345:347   */\n      0x20\n        /* \"#utility.yul\":334:343   */\n      dup3\n        /* \"#utility.yul\":330:348   */\n      add\n        /* \"#utility.yul\":322:348   */\n      swap1\n      pop\n        /* \"#utility.yul\":358:429   */\n      tag_286\n        /* \"#utility.yul\":426:427   */\n      0x00\n        /* \"#utility.yul\":415:424   */\n      dup4\n        /* \"#utility.yul\":411:428   */\n      add\n        /* \"#utility.yul\":402:408   */\n      dup5\n        /* \"#utility.yul\":358:429   */\n      tag_228\n      jump\t// in\n    tag_286:\n        /* \"#utility.yul\":214:436   */\n      swap3\n      swap2\n      pop\n      pop\n      jump\t// out\n        /* \"#utility.yul\":442:517   */\n    tag_229:\n        /* \"#utility.yul\":475:481   */\n      0x00\n        /* \"#utility.yul\":508:510   */\n      0x40\n        /* \"#utility.yul\":502:511   */\n      mload\n        /* \"#utility.yul\":492:511   */\n      swap1\n      pop\n        /* \"#utility.yul\":442:517   */\n      swap1\n      jump\t// out\n        /* \"#utility.yul\":523:640   */\n    tag_230:\n        /* \"#utility.yul\":632:633   */\n      0x00\n        /* \"#utility.yul\":629:630   */\n      dup1\n        /* \"#utility.yul\":622:634   */\n      revert\n        /* \"#utility.yul\":646:763   */\n    tag_231:\n        /* \"#utility.yul\":755:756   */\n      0x00\n        /* \"#utility.yul\":752:753   */\n      dup1\n        /* \"#utility.yul\":745:757   */\n      revert\n        /* \"#utility.yul\":769:891   */\n    tag_232:\n        /* \"#utility.yul\":842:866   */\n      tag_291\n        /* \"#utility.yul\":860:865   */\n      dup2\n        /* \"#utility.yul\":842:866   */\n      tag_227\n      jump\t// in\n    tag_291:\n        /* \"#utility.yul\":835:840   */\n      dup2\n        /* \"#utility.yul\":832:867   */\n      eq\n        /* \"#utility.yul\":822:885   */\n      tag_292\n      jumpi\n        /* \"#utility.yul\":881:882   */\n      0x00\n        /* \"#utility.yul\":878:879   */\n      dup1\n        /* \"#utility.yul\":871:883   */\n      revert\n        /* \"#utility.yul\":822:885   */\n    tag_292:\n        /* \"#utility.yul\":769:891   */\n      pop\n      jump\t// out\n        /* \"#utility.yul\":897:1036   */\n    tag_233:\n        /* \"#utility.yul\":943:948   */\n      0x00\n        /* \"#utility.yul\":981:987   */\n      dup2\n        /* \"#utility.yul\":968:988   */\n      calldataload\n        /* \"#utility.yul\":959:988   */\n      swap1\n      pop\n        /* \"#utility.yul\":997:1030   */\n      tag_294\n        /* \"#utility.yul\":1024:1029   */\n      dup2\n        /* \"#utility.yul\":997:1030   */\n      tag_232\n      jump\t// in\n    tag_294:\n        /* \"#utility.yul\":897:1036   */\n      swap3\n      swap2\n      pop\n      pop\n      jump\t// out\n        /* \"#utility.yul\":1042:1371   */\n    tag_21:\n        /* \"#utility.yul\":1101:1107   */\n      0x00\n        /* \"#utility.yul\":1150:1152   */\n      0x20\n        /* \"#utility.yul\":1138:1147   */\n      dup3\n        /* \"#utility.yul\":1129:1136   */\n      dup5\n        /* \"#utility.yul\":1125:1148   */\n      sub\n        /* \"#utility.yul\":1121:1153   */\n      slt\n        /* \"#utility.yul\":1118:1237   */\n      iszero\n      tag_296\n      jumpi\n        /* \"#utility.yul\":1156:1235   */\n      tag_297\n      tag_230\n      jump\t// in\n    tag_297:\n        /* \"#utility.yul\":1118:1237   */\n    tag_296:\n        /* \"#utility.yul\":1276:1277   */\n      0x00\n        /* \"#utility.yul\":1301:1354   */\n      tag_298\n        /* \"#utility.yul\":1346:1353   */\n      dup5\n        /* \"#utility.yul\":1337:1343   */\n      dup3\n        /* \"#utility.yul\":1326:1335   */\n      dup6\n        /* \"#utility.yul\":1322:1344   */\n      add\n        /* \"#utility.yul\":1301:1354   */\n      tag_233\n      jump\t// in\n    tag_298:\n        /* \"#utility.yul\":1291:1354   */\n      swap2\n      pop\n        /* \"#utility.yul\":1247:1364   */\n      pop\n        /* \"#utility.yul\":1042:1371   */\n      swap3\n      swap2\n      pop\n      pop\n      jump\t// out\n        /* \"#utility.yul\":1377:1503   */\n    tag_234:\n        /* \"#utility.yul\":1414:1421   */\n      0x00\n        /* \"#utility.yul\":1454:1496   */\n      0xffffffffffffffffffffffffffffffffffffffff\n        /* \"#utility.yul\":1447:1452   */\n      dup3\n        /* \"#utility.yul\":1443:1497   */\n      and\n        /* \"#utility.yul\":1432:1497   */\n      swap1\n      pop\n        /* \"#utility.yul\":1377:1503   */\n      swap2\n      swap1\n      pop\n      jump\t// out\n        /* \"#utility.yul\":1509:1605   */\n    tag_235:\n        /* \"#utility.yul\":1546:1553   */\n      0x00\n        /* \"#utility.yul\":1575:1599   */\n      tag_301\n        /* \"#utility.yul\":1593:1598   */\n      dup3\n        /* \"#utility.yul\":1575:1599   */\n      tag_234\n      jump\t// in\n    tag_301:\n        /* \"#utility.yul\":1564:1599   */\n      swap1\n      pop\n        /* \"#utility.yul\":1509:1605   */\n      swap2\n      swap1\n      pop\n      jump\t// out\n        /* \"#utility.yul\":1611:1733   */\n    tag_236:\n        /* \"#utility.yul\":1684:1708   */\n      tag_303\n        /* \"#utility.yul\":1702:1707   */\n      dup2\n        /* \"#utility.yul\":1684:1708   */\n      tag_235\n      jump\t// in\n    tag_303:\n        /* \"#utility.yul\":1677:1682   */\n      dup2\n        /* \"#utility.yul\":1674:1709   */\n      eq\n        /* \"#utility.yul\":1664:1727   */\n      tag_304\n      jumpi\n        /* \"#utility.yul\":1723:1724   */\n      0x00\n        /* \"#utility.yul\":1720:1721   */\n      dup1\n        /* \"#utility.yul\":1713:1725   */\n      revert\n        /* \"#utility.yul\":1664:1727   */\n    tag_304:\n        /* \"#utility.yul\":1611:1733   */\n      pop\n      jump\t// out\n        /* \"#utility.yul\":1739:1878   */\n    tag_237:\n        /* \"#utility.yul\":1785:1790   */\n      0x00\n        /* \"#utility.yul\":1823:1829   */\n      dup2\n        /* \"#utility.yul\":1810:1830   */\n      calldataload\n        /* \"#utility.yul\":1801:1830   */\n      swap1\n      pop\n        /* \"#utility.yul\":1839:1872   */\n      tag_306\n        /* \"#utility.yul\":1866:1871   */\n      dup2\n        /* \"#utility.yul\":1839:1872   */\n      tag_236\n      jump\t// in\n    tag_306:\n        /* \"#utility.yul\":1739:1878   */\n      swap3\n      swap2\n      pop\n      pop\n      jump\t// out\n        /* \"#utility.yul\":1884:2503   */\n    tag_34:\n        /* \"#utility.yul\":1961:1967   */\n      0x00\n        /* \"#utility.yul\":1969:1975   */\n      dup1\n        /* \"#utility.yul\":1977:1983   */\n      0x00\n        /* \"#utility.yul\":2026:2028   */\n      0x60\n        /* \"#utility.yul\":2014:2023   */\n      dup5\n        /* \"#utility.yul\":2005:2012   */\n      dup7\n        /* \"#utility.yul\":2001:2024   */\n      sub\n        /* \"#utility.yul\":1997:2029   */\n      slt\n        /* \"#utility.yul\":1994:2113   */\n      iszero\n      tag_308\n      jumpi\n        /* \"#utility.yul\":2032:2111   */\n      tag_309\n      tag_230\n      jump\t// in\n    tag_309:\n        /* \"#utility.yul\":1994:2113   */\n    tag_308:\n        /* \"#utility.yul\":2152:2153   */\n      0x00\n        /* \"#utility.yul\":2177:2230   */\n      tag_310\n        /* \"#utility.yul\":2222:2229   */\n      dup7\n        /* \"#utility.yul\":2213:2219   */\n      dup3\n        /* \"#utility.yul\":2202:2211   */\n      dup8\n        /* \"#utility.yul\":2198:2220   */\n      add\n        /* \"#utility.yul\":2177:2230   */\n      tag_233\n      jump\t// in\n    tag_310:\n        /* \"#utility.yul\":2167:2230   */\n      swap4\n      pop\n        /* \"#utility.yul\":2123:2240   */\n      pop\n        /* \"#utility.yul\":2279:2281   */\n      0x20\n        /* \"#utility.yul\":2305:2358   */\n      tag_311\n        /* \"#utility.yul\":2350:2357   */\n      dup7\n        /* \"#utility.yul\":2341:2347   */\n      dup3\n        /* \"#utility.yul\":2330:2339   */\n      dup8\n        /* \"#utility.yul\":2326:2348   */\n      add\n        /* \"#utility.yul\":2305:2358   */\n      tag_233\n      jump\t// in\n    tag_311:\n        /* \"#utility.yul\":2295:2358   */\n      swap3\n      pop\n        /* \"#utility.yul\":2250:2368   */\n      pop\n        /* \"#utility.yul\":2407:2409   */\n      0x40\n        /* \"#utility.yul\":2433:2486   */\n      tag_312\n        /* \"#utility.yul\":2478:2485   */\n      dup7\n        /* \"#utility.yul\":2469:2475   */\n      dup3\n        /* \"#utility.yul\":2458:2467   */\n      dup8\n        /* \"#utility.yul\":2454:2476   */\n      add\n        /* \"#utility.yul\":2433:2486   */\n      tag_237\n      jump\t// in\n    tag_312:\n        /* \"#utility.yul\":2423:2486   */\n      swap2\n      pop\n        /* \"#utility.yul\":2378:2496   */\n      pop\n        /* \"#utility.yul\":1884:2503   */\n      swap3\n      pop\n      swap3\n      pop\n      swap3\n      jump\t// out\n        /* \"#utility.yul\":2509:2623   */\n    tag_238:\n        /* \"#utility.yul\":2576:2582   */\n      0x00\n        /* \"#utility.yul\":2610:2615   */\n      dup2\n        /* \"#utility.yul\":2604:2616   */\n      mload\n        /* \"#utility.yul\":2594:2616   */\n      swap1\n      pop\n        /* \"#utility.yul\":2509:2623   */\n      swap2\n      swap1\n      pop\n      jump\t// out\n        /* \"#utility.yul\":2629:2813   */\n    tag_239:\n        /* \"#utility.yul\":2728:2739   */\n      0x00\n        /* \"#utility.yul\":2762:2768   */\n      dup3\n        /* \"#utility.yul\":2757:2760   */\n      dup3\n        /* \"#utility.yul\":2750:2769   */\n      mstore\n        /* \"#utility.yul\":2802:2806   */\n      0x20\n        /* \"#utility.yul\":2797:2800   */\n      dup3\n        /* \"#utility.yul\":2793:2807   */\n      add\n        /* \"#utility.yul\":2778:2807   */\n      swap1\n      pop\n        /* \"#utility.yul\":2629:2813   */\n      swap3\n      swap2\n      pop\n      pop\n      jump\t// out\n        /* \"#utility.yul\":2819:2951   */\n    tag_240:\n        /* \"#utility.yul\":2886:2890   */\n      0x00\n        /* \"#utility.yul\":2909:2912   */\n      dup2\n        /* \"#utility.yul\":2901:2912   */\n      swap1\n      pop\n        /* \"#utility.yul\":2939:2943   */\n      0x20\n        /* \"#utility.yul\":2934:2937   */\n      dup3\n        /* \"#utility.yul\":2930:2944   */\n      add\n        /* \"#utility.yul\":2922:2944   */\n      swap1\n      pop\n        /* \"#utility.yul\":2819:2951   */\n      swap2\n      swap1\n      pop\n      jump\t// out\n        /* \"#utility.yul\":2957:3065   */\n    tag_241:\n        /* \"#utility.yul\":3034:3058   */\n      tag_317\n        /* \"#utility.yul\":3052:3057   */\n      dup2\n        /* \"#utility.yul\":3034:3058   */\n      tag_235\n      jump\t// in\n    tag_317:\n        /* \"#utility.yul\":3029:3032   */\n      dup3\n        /* \"#utility.yul\":3022:3059   */\n      mstore\n        /* \"#utility.yul\":2957:3065   */\n      pop\n      pop\n      jump\t// out\n        /* \"#utility.yul\":3071:3250   */\n    tag_242:\n        /* \"#utility.yul\":3140:3150   */\n      0x00\n        /* \"#utility.yul\":3161:3207   */\n      tag_319\n        /* \"#utility.yul\":3203:3206   */\n      dup4\n        /* \"#utility.yul\":3195:3201   */\n      dup4\n        /* \"#utility.yul\":3161:3207   */\n      tag_241\n      jump\t// in\n    tag_319:\n        /* \"#utility.yul\":3239:3243   */\n      0x20\n        /* \"#utility.yul\":3234:3237   */\n      dup4\n        /* \"#utility.yul\":3230:3244   */\n      add\n        /* \"#utility.yul\":3216:3244   */\n      swap1\n      pop\n        /* \"#utility.yul\":3071:3250   */\n      swap3\n      swap2\n      pop\n      pop\n      jump\t// out\n        /* \"#utility.yul\":3256:3369   */\n    tag_243:\n        /* \"#utility.yul\":3326:3330   */\n      0x00\n        /* \"#utility.yul\":3358:3362   */\n      0x20\n        /* \"#utility.yul\":3353:3356   */\n      dup3\n        /* \"#utility.yul\":3349:3363   */\n      add\n        /* \"#utility.yul\":3341:3363   */\n      swap1\n      pop\n        /* \"#utility.yul\":3256:3369   */\n      swap2\n      swap1\n      pop\n      jump\t// out\n        /* \"#utility.yul\":3405:4137   */\n    tag_244:\n        /* \"#utility.yul\":3524:3527   */\n      0x00\n        /* \"#utility.yul\":3553:3607   */\n      tag_322\n        /* \"#utility.yul\":3601:3606   */\n      dup3\n        /* \"#utility.yul\":3553:3607   */\n      tag_238\n      jump\t// in\n    tag_322:\n        /* \"#utility.yul\":3623:3709   */\n      tag_323\n        /* \"#utility.yul\":3702:3708   */\n      dup2\n        /* \"#utility.yul\":3697:3700   */\n      dup6\n        /* \"#utility.yul\":3623:3709   */\n      tag_239\n      jump\t// in\n    tag_323:\n        /* \"#utility.yul\":3616:3709   */\n      swap4\n      pop\n        /* \"#utility.yul\":3733:3789   */\n      tag_324\n        /* \"#utility.yul\":3783:3788   */\n      dup4\n        /* \"#utility.yul\":3733:3789   */\n      tag_240\n      jump\t// in\n    tag_324:\n        /* \"#utility.yul\":3812:3819   */\n      dup1\n        /* \"#utility.yul\":3843:3844   */\n      0x00\n        /* \"#utility.yul\":3828:4112   */\n    tag_325:\n        /* \"#utility.yul\":3853:3859   */\n      dup4\n        /* \"#utility.yul\":3850:3851   */\n      dup2\n        /* \"#utility.yul\":3847:3860   */\n      lt\n        /* \"#utility.yul\":3828:4112   */\n      iszero\n      tag_327\n      jumpi\n        /* \"#utility.yul\":3929:3935   */\n      dup2\n        /* \"#utility.yul\":3923:3936   */\n      mload\n        /* \"#utility.yul\":3956:4019   */\n      tag_328\n        /* \"#utility.yul\":4015:4018   */\n      dup9\n        /* \"#utility.yul\":4000:4013   */\n      dup3\n        /* \"#utility.yul\":3956:4019   */\n      tag_242\n      jump\t// in\n    tag_328:\n        /* \"#utility.yul\":3949:4019   */\n      swap8\n      pop\n        /* \"#utility.yul\":4042:4102   */\n      tag_329\n        /* \"#utility.yul\":4095:4101   */\n      dup4\n        /* \"#utility.yul\":4042:4102   */\n      tag_243\n      jump\t// in\n    tag_329:\n        /* \"#utility.yul\":4032:4102   */\n      swap3\n      pop\n        /* \"#utility.yul\":3888:4112   */\n      pop\n        /* \"#utility.yul\":3875:3876   */\n      0x01\n        /* \"#utility.yul\":3872:3873   */\n      dup2\n        /* \"#utility.yul\":3868:3877   */\n      add\n        /* \"#utility.yul\":3863:3877   */\n      swap1\n      pop\n        /* \"#utility.yul\":3828:4112   */\n      jump(tag_325)\n    tag_327:\n        /* \"#utility.yul\":3832:3846   */\n      pop\n        /* \"#utility.yul\":4128:4131   */\n      dup6\n        /* \"#utility.yul\":4121:4131   */\n      swap4\n      pop\n        /* \"#utility.yul\":3529:4137   */\n      pop\n      pop\n      pop\n        /* \"#utility.yul\":3405:4137   */\n      swap3\n      swap2\n      pop\n      pop\n      jump\t// out\n        /* \"#utility.yul\":4143:4516   */\n    tag_41:\n        /* \"#utility.yul\":4286:4290   */\n      0x00\n        /* \"#utility.yul\":4324:4326   */\n      0x20\n        /* \"#utility.yul\":4313:4322   */\n      dup3\n        /* \"#utility.yul\":4309:4327   */\n      add\n        /* \"#utility.yul\":4301:4327   */\n      swap1\n      pop\n        /* \"#utility.yul\":4373:4382   */\n      dup2\n        /* \"#utility.yul\":4367:4371   */\n      dup2\n        /* \"#utility.yul\":4363:4383   */\n      sub\n        /* \"#utility.yul\":4359:4360   */\n      0x00\n        /* \"#utility.yul\":4348:4357   */\n      dup4\n        /* \"#utility.yul\":4344:4361   */\n      add\n        /* \"#utility.yul\":4337:4384   */\n      mstore\n        /* \"#utility.yul\":4401:4509   */\n      tag_331\n        /* \"#utility.yul\":4504:4508   */\n      dup2\n        /* \"#utility.yul\":4495:4501   */\n      dup5\n        /* \"#utility.yul\":4401:4509   */\n      tag_244\n      jump\t// in\n    tag_331:\n        /* \"#utility.yul\":4393:4509   */\n      swap1\n      pop\n        /* \"#utility.yul\":4143:4516   */\n      swap3\n      swap2\n      pop\n      pop\n      jump\t// out\n        /* \"#utility.yul\":4522:4640   */\n    tag_245:\n        /* \"#utility.yul\":4609:4633   */\n      tag_333\n        /* \"#utility.yul\":4627:4632   */\n      dup2\n        /* \"#utility.yul\":4609:4633   */\n      tag_235\n      jump\t// in\n    tag_333:\n        /* \"#utility.yul\":4604:4607   */\n      dup3\n        /* \"#utility.yul\":4597:4634   */\n      mstore\n        /* \"#utility.yul\":4522:4640   */\n      pop\n      pop\n      jump\t// out\n        /* \"#utility.yul\":4646:4868   */\n    tag_46:\n        /* \"#utility.yul\":4739:4743   */\n      0x00\n        /* \"#utility.yul\":4777:4779   */\n      0x20\n        /* \"#utility.yul\":4766:4775   */\n      dup3\n        /* \"#utility.yul\":4762:4780   */\n      add\n        /* \"#utility.yul\":4754:4780   */\n      swap1\n      pop\n        /* \"#utility.yul\":4790:4861   */\n      tag_335\n        /* \"#utility.yul\":4858:4859   */\n      0x00\n        /* \"#utility.yul\":4847:4856   */\n      dup4\n        /* \"#utility.yul\":4843:4860   */\n      add\n        /* \"#utility.yul\":4834:4840   */\n      dup5\n        /* \"#utility.yul\":4790:4861   */\n      tag_245\n      jump\t// in\n    tag_335:\n        /* \"#utility.yul\":4646:4868   */\n      swap3\n      swap2\n      pop\n      pop\n      jump\t// out\n        /* \"#utility.yul\":4874:4991   */\n    tag_246:\n        /* \"#utility.yul\":4983:4984   */\n      0x00\n        /* \"#utility.yul\":4980:4981   */\n      dup1\n        /* \"#utility.yul\":4973:4985   */\n      revert\n        /* \"#utility.yul\":4997:5099   */\n    tag_247:\n        /* \"#utility.yul\":5038:5044   */\n      0x00\n        /* \"#utility.yul\":5089:5091   */\n      0x1f\n        /* \"#utility.yul\":5085:5092   */\n      not\n        /* \"#utility.yul\":5080:5082   */\n      0x1f\n        /* \"#utility.yul\":5073:5078   */\n      dup4\n        /* \"#utility.yul\":5069:5083   */\n      add\n        /* \"#utility.yul\":5065:5093   */\n      and\n        /* \"#utility.yul\":5055:5093   */\n      swap1\n      pop\n        /* \"#utility.yul\":4997:5099   */\n      swap2\n      swap1\n      pop\n      jump\t// out\n        /* \"#utility.yul\":5105:5285   */\n    tag_248:\n        /* \"#utility.yul\":5153:5230   */\n      0x4e487b7100000000000000000000000000000000000000000000000000000000\n        /* \"#utility.yul\":5150:5151   */\n      0x00\n        /* \"#utility.yul\":5143:5231   */\n      mstore\n        /* \"#utility.yul\":5250:5254   */\n      0x41\n        /* \"#utility.yul\":5247:5248   */\n      0x04\n        /* \"#utility.yul\":5240:5255   */\n      mstore\n        /* \"#utility.yul\":5274:5278   */\n      0x24\n        /* \"#utility.yul\":5271:5272   */\n      0x00\n        /* \"#utility.yul\":5264:5279   */\n      revert\n        /* \"#utility.yul\":5291:5572   */\n    tag_249:\n        /* \"#utility.yul\":5374:5401   */\n      tag_340\n        /* \"#utility.yul\":5396:5400   */\n      dup3\n        /* \"#utility.yul\":5374:5401   */\n      tag_247\n      jump\t// in\n    tag_340:\n        /* \"#utility.yul\":5366:5372   */\n      dup2\n        /* \"#utility.yul\":5362:5402   */\n      add\n        /* \"#utility.yul\":5504:5510   */\n      dup2\n        /* \"#utility.yul\":5492:5502   */\n      dup2\n        /* \"#utility.yul\":5489:5511   */\n      lt\n        /* \"#utility.yul\":5468:5486   */\n      0xffffffffffffffff\n        /* \"#utility.yul\":5456:5466   */\n      dup3\n        /* \"#utility.yul\":5453:5487   */\n      gt\n        /* \"#utility.yul\":5450:5512   */\n      or\n        /* \"#utility.yul\":5447:5535   */\n      iszero\n      tag_341\n      jumpi\n        /* \"#utility.yul\":5515:5533   */\n      tag_342\n      tag_248\n      jump\t// in\n    tag_342:\n        /* \"#utility.yul\":5447:5535   */\n    tag_341:\n        /* \"#utility.yul\":5555:5565   */\n      dup1\n        /* \"#utility.yul\":5551:5553   */\n      0x40\n        /* \"#utility.yul\":5544:5566   */\n      mstore\n        /* \"#utility.yul\":5334:5572   */\n      pop\n        /* \"#utility.yul\":5291:5572   */\n      pop\n      pop\n      jump\t// out\n        /* \"#utility.yul\":5578:5707   */\n    tag_250:\n        /* \"#utility.yul\":5612:5618   */\n      0x00\n        /* \"#utility.yul\":5639:5659   */\n      tag_344\n      tag_229\n      jump\t// in\n    tag_344:\n        /* \"#utility.yul\":5629:5659   */\n      swap1\n      pop\n        /* \"#utility.yul\":5668:5701   */\n      tag_345\n        /* \"#utility.yul\":5696:5700   */\n      dup3\n        /* \"#utility.yul\":5688:5694   */\n      dup3\n        /* \"#utility.yul\":5668:5701   */\n      tag_249\n      jump\t// in\n    tag_345:\n        /* \"#utility.yul\":5578:5707   */\n      swap2\n      swap1\n      pop\n      jump\t// out\n        /* \"#utility.yul\":5713:6024   */\n    tag_251:\n        /* \"#utility.yul\":5790:5794   */\n      0x00\n        /* \"#utility.yul\":5880:5898   */\n      0xffffffffffffffff\n        /* \"#utility.yul\":5872:5878   */\n      dup3\n        /* \"#utility.yul\":5869:5899   */\n      gt\n        /* \"#utility.yul\":5866:5922   */\n      iszero\n      tag_347\n      jumpi\n        /* \"#utility.yul\":5902:5920   */\n      tag_348\n      tag_248\n      jump\t// in\n    tag_348:\n        /* \"#utility.yul\":5866:5922   */\n    tag_347:\n        /* \"#utility.yul\":5952:5956   */\n      0x20\n        /* \"#utility.yul\":5944:5950   */\n      dup3\n        /* \"#utility.yul\":5940:5957   */\n      mul\n        /* \"#utility.yul\":5932:5957   */\n      swap1\n      pop\n        /* \"#utility.yul\":6012:6016   */\n      0x20\n        /* \"#utility.yul\":6006:6010   */\n      dup2\n        /* \"#utility.yul\":6002:6017   */\n      add\n        /* \"#utility.yul\":5994:6017   */\n      swap1\n      pop\n        /* \"#utility.yul\":5713:6024   */\n      swap2\n      swap1\n      pop\n      jump\t// out\n        /* \"#utility.yul\":6030:6147   */\n    tag_252:\n        /* \"#utility.yul\":6139:6140   */\n      0x00\n        /* \"#utility.yul\":6136:6137   */\n      dup1\n        /* \"#utility.yul\":6129:6141   */\n      revert\n        /* \"#utility.yul\":6170:6880   */\n    tag_253:\n        /* \"#utility.yul\":6266:6271   */\n      0x00\n        /* \"#utility.yul\":6291:6372   */\n      tag_351\n        /* \"#utility.yul\":6307:6371   */\n      tag_352\n        /* \"#utility.yul\":6364:6370   */\n      dup5\n        /* \"#utility.yul\":6307:6371   */\n      tag_251\n      jump\t// in\n    tag_352:\n        /* \"#utility.yul\":6291:6372   */\n      tag_250\n      jump\t// in\n    tag_351:\n        /* \"#utility.yul\":6282:6372   */\n      swap1\n      pop\n        /* \"#utility.yul\":6392:6397   */\n      dup1\n        /* \"#utility.yul\":6421:6427   */\n      dup4\n        /* \"#utility.yul\":6414:6419   */\n      dup3\n        /* \"#utility.yul\":6407:6428   */\n      mstore\n        /* \"#utility.yul\":6455:6459   */\n      0x20\n        /* \"#utility.yul\":6448:6453   */\n      dup3\n        /* \"#utility.yul\":6444:6460   */\n      add\n        /* \"#utility.yul\":6437:6460   */\n      swap1\n      pop\n        /* \"#utility.yul\":6508:6512   */\n      0x20\n        /* \"#utility.yul\":6500:6506   */\n      dup5\n        /* \"#utility.yul\":6496:6513   */\n      mul\n        /* \"#utility.yul\":6488:6494   */\n      dup4\n        /* \"#utility.yul\":6484:6514   */\n      add\n        /* \"#utility.yul\":6537:6540   */\n      dup6\n        /* \"#utility.yul\":6529:6535   */\n      dup2\n        /* \"#utility.yul\":6526:6541   */\n      gt\n        /* \"#utility.yul\":6523:6645   */\n      iszero\n      tag_353\n      jumpi\n        /* \"#utility.yul\":6556:6635   */\n      tag_354\n      tag_252\n      jump\t// in\n    tag_354:\n        /* \"#utility.yul\":6523:6645   */\n    tag_353:\n        /* \"#utility.yul\":6671:6677   */\n      dup4\n        /* \"#utility.yul\":6654:6874   */\n    tag_355:\n        /* \"#utility.yul\":6688:6694   */\n      dup2\n        /* \"#utility.yul\":6683:6686   */\n      dup2\n        /* \"#utility.yul\":6680:6695   */\n      lt\n        /* \"#utility.yul\":6654:6874   */\n      iszero\n      tag_357\n      jumpi\n        /* \"#utility.yul\":6763:6766   */\n      dup1\n        /* \"#utility.yul\":6792:6829   */\n      tag_358\n        /* \"#utility.yul\":6825:6828   */\n      dup9\n        /* \"#utility.yul\":6813:6823   */\n      dup3\n        /* \"#utility.yul\":6792:6829   */\n      tag_237\n      jump\t// in\n    tag_358:\n        /* \"#utility.yul\":6787:6790   */\n      dup5\n        /* \"#utility.yul\":6780:6830   */\n      mstore\n        /* \"#utility.yul\":6859:6863   */\n      0x20\n        /* \"#utility.yul\":6854:6857   */\n      dup5\n        /* \"#utility.yul\":6850:6864   */\n      add\n        /* \"#utility.yul\":6843:6864   */\n      swap4\n      pop\n        /* \"#utility.yul\":6730:6874   */\n      pop\n        /* \"#utility.yul\":6714:6718   */\n      0x20\n        /* \"#utility.yul\":6709:6712   */\n      dup2\n        /* \"#utility.yul\":6705:6719   */\n      add\n        /* \"#utility.yul\":6698:6719   */\n      swap1\n      pop\n        /* \"#utility.yul\":6654:6874   */\n      jump(tag_355)\n    tag_357:\n        /* \"#utility.yul\":6658:6679   */\n      pop\n        /* \"#utility.yul\":6272:6880   */\n      pop\n      pop\n        /* \"#utility.yul\":6170:6880   */\n      swap4\n      swap3\n      pop\n      pop\n      pop\n      jump\t// out\n        /* \"#utility.yul\":6903:7273   */\n    tag_254:\n        /* \"#utility.yul\":6974:6979   */\n      0x00\n        /* \"#utility.yul\":7023:7026   */\n      dup3\n        /* \"#utility.yul\":7016:7020   */\n      0x1f\n        /* \"#utility.yul\":7008:7014   */\n      dup4\n        /* \"#utility.yul\":7004:7021   */\n      add\n        /* \"#utility.yul\":7000:7027   */\n      slt\n        /* \"#utility.yul\":6990:7112   */\n      tag_360\n      jumpi\n        /* \"#utility.yul\":7031:7110   */\n      tag_361\n      tag_246\n      jump\t// in\n    tag_361:\n        /* \"#utility.yul\":6990:7112   */\n    tag_360:\n        /* \"#utility.yul\":7148:7154   */\n      dup2\n        /* \"#utility.yul\":7135:7155   */\n      calldataload\n        /* \"#utility.yul\":7173:7267   */\n      tag_362\n        /* \"#utility.yul\":7263:7266   */\n      dup5\n        /* \"#utility.yul\":7255:7261   */\n      dup3\n        /* \"#utility.yul\":7248:7252   */\n      0x20\n        /* \"#utility.yul\":7240:7246   */\n      dup7\n        /* \"#utility.yul\":7236:7253   */\n      add\n        /* \"#utility.yul\":7173:7267   */\n      tag_253\n      jump\t// in\n    tag_362:\n        /* \"#utility.yul\":7164:7267   */\n      swap2\n      pop\n        /* \"#utility.yul\":6980:7273   */\n      pop\n        /* \"#utility.yul\":6903:7273   */\n      swap3\n      swap2\n      pop\n      pop\n      jump\t// out\n        /* \"#utility.yul\":7279:7963   */\n    tag_50:\n        /* \"#utility.yul\":7372:7378   */\n      0x00\n        /* \"#utility.yul\":7380:7386   */\n      dup1\n        /* \"#utility.yul\":7429:7431   */\n      0x40\n        /* \"#utility.yul\":7417:7426   */\n      dup4\n        /* \"#utility.yul\":7408:7415   */\n      dup6\n        /* \"#utility.yul\":7404:7427   */\n      sub\n        /* \"#utility.yul\":7400:7432   */\n      slt\n        /* \"#utility.yul\":7397:7516   */\n      iszero\n      tag_364\n      jumpi\n        /* \"#utility.yul\":7435:7514   */\n      tag_365\n      tag_230\n      jump\t// in\n    tag_365:\n        /* \"#utility.yul\":7397:7516   */\n    tag_364:\n        /* \"#utility.yul\":7555:7556   */\n      0x00\n        /* \"#utility.yul\":7580:7633   */\n      tag_366\n        /* \"#utility.yul\":7625:7632   */\n      dup6\n        /* \"#utility.yul\":7616:7622   */\n      dup3\n        /* \"#utility.yul\":7605:7614   */\n      dup7\n        /* \"#utility.yul\":7601:7623   */\n      add\n        /* \"#utility.yul\":7580:7633   */\n      tag_233\n      jump\t// in\n    tag_366:\n        /* \"#utility.yul\":7570:7633   */\n      swap3\n      pop\n        /* \"#utility.yul\":7526:7643   */\n      pop\n        /* \"#utility.yul\":7710:7712   */\n      0x20\n        /* \"#utility.yul\":7699:7708   */\n      dup4\n        /* \"#utility.yul\":7695:7713   */\n      add\n        /* \"#utility.yul\":7682:7714   */\n      calldataload\n        /* \"#utility.yul\":7741:7759   */\n      0xffffffffffffffff\n        /* \"#utility.yul\":7733:7739   */\n      dup2\n        /* \"#utility.yul\":7730:7760   */\n      gt\n        /* \"#utility.yul\":7727:7844   */\n      iszero\n      tag_367\n      jumpi\n        /* \"#utility.yul\":7763:7842   */\n      tag_368\n      tag_231\n      jump\t// in\n    tag_368:\n        /* \"#utility.yul\":7727:7844   */\n    tag_367:\n        /* \"#utility.yul\":7868:7946   */\n      tag_369\n        /* \"#utility.yul\":7938:7945   */\n      dup6\n        /* \"#utility.yul\":7929:7935   */\n      dup3\n        /* \"#utility.yul\":7918:7927   */\n      dup7\n        /* \"#utility.yul\":7914:7936   */\n      add\n        /* \"#utility.yul\":7868:7946   */\n      tag_254\n      jump\t// in\n    tag_369:\n        /* \"#utility.yul\":7858:7946   */\n      swap2\n      pop\n        /* \"#utility.yul\":7653:7956   */\n      pop\n        /* \"#utility.yul\":7279:7963   */\n      swap3\n      pop\n      swap3\n      swap1\n      pop\n      jump\t// out\n        /* \"#utility.yul\":7969:8104   */\n    tag_255:\n        /* \"#utility.yul\":8057:8063   */\n      0x00\n        /* \"#utility.yul\":8091:8096   */\n      dup2\n        /* \"#utility.yul\":8085:8097   */\n      mload\n        /* \"#utility.yul\":8075:8097   */\n      swap1\n      pop\n        /* \"#utility.yul\":7969:8104   */\n      swap2\n      swap1\n      pop\n      jump\t// out\n        /* \"#utility.yul\":8110:8315   */\n    tag_256:\n        /* \"#utility.yul\":8230:8241   */\n      0x00\n        /* \"#utility.yul\":8264:8270   */\n      dup3\n        /* \"#utility.yul\":8259:8262   */\n      dup3\n        /* \"#utility.yul\":8252:8271   */\n      mstore\n        /* \"#utility.yul\":8304:8308   */\n      0x20\n        /* \"#utility.yul\":8299:8302   */\n      dup3\n        /* \"#utility.yul\":8295:8309   */\n      add\n        /* \"#utility.yul\":8280:8309   */\n      swap1\n      pop\n        /* \"#utility.yul\":8110:8315   */\n      swap3\n      swap2\n      pop\n      pop\n      jump\t// out\n        /* \"#utility.yul\":8321:8474   */\n    tag_257:\n        /* \"#utility.yul\":8409:8413   */\n      0x00\n        /* \"#utility.yul\":8432:8435   */\n      dup2\n        /* \"#utility.yul\":8424:8435   */\n      swap1\n      pop\n        /* \"#utility.yul\":8462:8466   */\n      0x20\n        /* \"#utility.yul\":8457:8460   */\n      dup3\n        /* \"#utility.yul\":8453:8467   */\n      add\n        /* \"#utility.yul\":8445:8467   */\n      swap1\n      pop\n        /* \"#utility.yul\":8321:8474   */\n      swap2\n      swap1\n      pop\n      jump\t// out\n        /* \"#utility.yul\":8480:8660   */\n    tag_141:\n        /* \"#utility.yul\":8528:8605   */\n      0x4e487b7100000000000000000000000000000000000000000000000000000000\n        /* \"#utility.yul\":8525:8526   */\n      0x00\n        /* \"#utility.yul\":8518:8606   */\n      mstore\n        /* \"#utility.yul\":8625:8629   */\n      0x21\n        /* \"#utility.yul\":8622:8623   */\n      0x04\n        /* \"#utility.yul\":8615:8630   */\n      mstore\n        /* \"#utility.yul\":8649:8653   */\n      0x24\n        /* \"#utility.yul\":8646:8647   */\n      0x00\n        /* \"#utility.yul\":8639:8654   */\n      revert\n        /* \"#utility.yul\":8666:8784   */\n    tag_258:\n        /* \"#utility.yul\":8752:8753   */\n      0x02\n        /* \"#utility.yul\":8745:8750   */\n      dup2\n        /* \"#utility.yul\":8742:8754   */\n      lt\n        /* \"#utility.yul\":8732:8778   */\n      tag_375\n      jumpi\n        /* \"#utility.yul\":8758:8776   */\n      tag_376\n      tag_141\n      jump\t// in\n    tag_376:\n        /* \"#utility.yul\":8732:8778   */\n    tag_375:\n        /* \"#utility.yul\":8666:8784   */\n      pop\n      jump\t// out\n        /* \"#utility.yul\":8790:8927   */\n    tag_259:\n        /* \"#utility.yul\":8840:8847   */\n      0x00\n        /* \"#utility.yul\":8869:8874   */\n      dup2\n        /* \"#utility.yul\":8858:8874   */\n      swap1\n      pop\n        /* \"#utility.yul\":8875:8921   */\n      tag_378\n        /* \"#utility.yul\":8915:8920   */\n      dup3\n        /* \"#utility.yul\":8875:8921   */\n      tag_258\n      jump\t// in\n    tag_378:\n        /* \"#utility.yul\":8790:8927   */\n      swap2\n      swap1\n      pop\n      jump\t// out\n        /* \"#utility.yul\":8933:9070   */\n    tag_260:\n        /* \"#utility.yul\":8994:9003   */\n      0x00\n        /* \"#utility.yul\":9027:9064   */\n      tag_380\n        /* \"#utility.yul\":9058:9063   */\n      dup3\n        /* \"#utility.yul\":9027:9064   */\n      tag_259\n      jump\t// in\n    tag_380:\n        /* \"#utility.yul\":9014:9064   */\n      swap1\n      pop\n        /* \"#utility.yul\":8933:9070   */\n      swap2\n      swap1\n      pop\n      jump\t// out\n        /* \"#utility.yul\":9076:9219   */\n    tag_261:\n        /* \"#utility.yul\":9164:9212   */\n      tag_382\n        /* \"#utility.yul\":9206:9211   */\n      dup2\n        /* \"#utility.yul\":9164:9212   */\n      tag_260\n      jump\t// in\n    tag_382:\n        /* \"#utility.yul\":9159:9162   */\n      dup3\n        /* \"#utility.yul\":9152:9213   */\n      mstore\n        /* \"#utility.yul\":9076:9219   */\n      pop\n      pop\n      jump\t// out\n        /* \"#utility.yul\":9283:10137   */\n    tag_262:\n        /* \"#utility.yul\":9412:9416   */\n      0x80\n        /* \"#utility.yul\":9407:9410   */\n      dup3\n        /* \"#utility.yul\":9403:9417   */\n      add\n        /* \"#utility.yul\":9500:9504   */\n      0x00\n        /* \"#utility.yul\":9493:9498   */\n      dup3\n        /* \"#utility.yul\":9489:9505   */\n      add\n        /* \"#utility.yul\":9483:9506   */\n      mload\n        /* \"#utility.yul\":9519:9582   */\n      tag_384\n        /* \"#utility.yul\":9576:9580   */\n      0x00\n        /* \"#utility.yul\":9571:9574   */\n      dup6\n        /* \"#utility.yul\":9567:9581   */\n      add\n        /* \"#utility.yul\":9553:9565   */\n      dup3\n        /* \"#utility.yul\":9519:9582   */\n      tag_241\n      jump\t// in\n    tag_384:\n        /* \"#utility.yul\":9427:9592   */\n      pop\n        /* \"#utility.yul\":9675:9679   */\n      0x20\n        /* \"#utility.yul\":9668:9673   */\n      dup3\n        /* \"#utility.yul\":9664:9680   */\n      add\n        /* \"#utility.yul\":9658:9681   */\n      mload\n        /* \"#utility.yul\":9694:9757   */\n      tag_385\n        /* \"#utility.yul\":9751:9755   */\n      0x20\n        /* \"#utility.yul\":9746:9749   */\n      dup6\n        /* \"#utility.yul\":9742:9756   */\n      add\n        /* \"#utility.yul\":9728:9740   */\n      dup3\n        /* \"#utility.yul\":9694:9757   */\n      tag_241\n      jump\t// in\n    tag_385:\n        /* \"#utility.yul\":9602:9767   */\n      pop\n        /* \"#utility.yul\":9851:9855   */\n      0x40\n        /* \"#utility.yul\":9844:9849   */\n      dup3\n        /* \"#utility.yul\":9840:9856   */\n      add\n        /* \"#utility.yul\":9834:9857   */\n      mload\n        /* \"#utility.yul\":9870:9933   */\n      tag_386\n        /* \"#utility.yul\":9927:9931   */\n      0x40\n        /* \"#utility.yul\":9922:9925   */\n      dup6\n        /* \"#utility.yul\":9918:9932   */\n      add\n        /* \"#utility.yul\":9904:9916   */\n      dup3\n        /* \"#utility.yul\":9870:9933   */\n      tag_241\n      jump\t// in\n    tag_386:\n        /* \"#utility.yul\":9777:9943   */\n      pop\n        /* \"#utility.yul\":10027:10031   */\n      0x60\n        /* \"#utility.yul\":10020:10025   */\n      dup3\n        /* \"#utility.yul\":10016:10032   */\n      add\n        /* \"#utility.yul\":10010:10033   */\n      mload\n        /* \"#utility.yul\":10046:10120   */\n      tag_387\n        /* \"#utility.yul\":10114:10118   */\n      0x60\n        /* \"#utility.yul\":10109:10112   */\n      dup6\n        /* \"#utility.yul\":10105:10119   */\n      add\n        /* \"#utility.yul\":10091:10103   */\n      dup3\n        /* \"#utility.yul\":10046:10120   */\n      tag_261\n      jump\t// in\n    tag_387:\n        /* \"#utility.yul\":9953:10130   */\n      pop\n        /* \"#utility.yul\":9381:10137   */\n      pop\n        /* \"#utility.yul\":9283:10137   */\n      pop\n      pop\n      jump\t// out\n        /* \"#utility.yul\":10143:10406   */\n    tag_263:\n        /* \"#utility.yul\":10254:10264   */\n      0x00\n        /* \"#utility.yul\":10275:10363   */\n      tag_389\n        /* \"#utility.yul\":10359:10362   */\n      dup4\n        /* \"#utility.yul\":10351:10357   */\n      dup4\n        /* \"#utility.yul\":10275:10363   */\n      tag_262\n      jump\t// in\n    tag_389:\n        /* \"#utility.yul\":10395:10399   */\n      0x80\n        /* \"#utility.yul\":10390:10393   */\n      dup4\n        /* \"#utility.yul\":10386:10400   */\n      add\n        /* \"#utility.yul\":10372:10400   */\n      swap1\n      pop\n        /* \"#utility.yul\":10143:10406   */\n      swap3\n      swap2\n      pop\n      pop\n      jump\t// out\n        /* \"#utility.yul\":10412:10546   */\n    tag_264:\n        /* \"#utility.yul\":10503:10507   */\n      0x00\n        /* \"#utility.yul\":10535:10539   */\n      0x20\n        /* \"#utility.yul\":10530:10533   */\n      dup3\n        /* \"#utility.yul\":10526:10540   */\n      add\n        /* \"#utility.yul\":10518:10540   */\n      swap1\n      pop\n        /* \"#utility.yul\":10412:10546   */\n      swap2\n      swap1\n      pop\n      jump\t// out\n        /* \"#utility.yul\":10614:11514   */\n    tag_265:\n        /* \"#utility.yul\":10775:10778   */\n      0x00\n        /* \"#utility.yul\":10804:10879   */\n      tag_392\n        /* \"#utility.yul\":10873:10878   */\n      dup3\n        /* \"#utility.yul\":10804:10879   */\n      tag_255\n      jump\t// in\n    tag_392:\n        /* \"#utility.yul\":10895:11002   */\n      tag_393\n        /* \"#utility.yul\":10995:11001   */\n      dup2\n        /* \"#utility.yul\":10990:10993   */\n      dup6\n        /* \"#utility.yul\":10895:11002   */\n      tag_256\n      jump\t// in\n    tag_393:\n        /* \"#utility.yul\":10888:11002   */\n      swap4\n      pop\n        /* \"#utility.yul\":11026:11103   */\n      tag_394\n        /* \"#utility.yul\":11097:11102   */\n      dup4\n        /* \"#utility.yul\":11026:11103   */\n      tag_257\n      jump\t// in\n    tag_394:\n        /* \"#utility.yul\":11126:11133   */\n      dup1\n        /* \"#utility.yul\":11157:11158   */\n      0x00\n        /* \"#utility.yul\":11142:11489   */\n    tag_395:\n        /* \"#utility.yul\":11167:11173   */\n      dup4\n        /* \"#utility.yul\":11164:11165   */\n      dup2\n        /* \"#utility.yul\":11161:11174   */\n      lt\n        /* \"#utility.yul\":11142:11489   */\n      iszero\n      tag_397\n      jumpi\n        /* \"#utility.yul\":11243:11249   */\n      dup2\n        /* \"#utility.yul\":11237:11250   */\n      mload\n        /* \"#utility.yul\":11270:11375   */\n      tag_398\n        /* \"#utility.yul\":11371:11374   */\n      dup9\n        /* \"#utility.yul\":11356:11369   */\n      dup3\n        /* \"#utility.yul\":11270:11375   */\n      tag_263\n      jump\t// in\n    tag_398:\n        /* \"#utility.yul\":11263:11375   */\n      swap8\n      pop\n        /* \"#utility.yul\":11398:11479   */\n      tag_399\n        /* \"#utility.yul\":11472:11478   */\n      dup4\n        /* \"#utility.yul\":11398:11479   */\n      tag_264\n      jump\t// in\n    tag_399:\n        /* \"#utility.yul\":11388:11479   */\n      swap3\n      pop\n        /* \"#utility.yul\":11202:11489   */\n      pop\n        /* \"#utility.yul\":11189:11190   */\n      0x01\n        /* \"#utility.yul\":11186:11187   */\n      dup2\n        /* \"#utility.yul\":11182:11191   */\n      add\n        /* \"#utility.yul\":11177:11191   */\n      swap1\n      pop\n        /* \"#utility.yul\":11142:11489   */\n      jump(tag_395)\n    tag_397:\n        /* \"#utility.yul\":11146:11160   */\n      pop\n        /* \"#utility.yul\":11505:11508   */\n      dup6\n        /* \"#utility.yul\":11498:11508   */\n      swap4\n      pop\n        /* \"#utility.yul\":10780:11514   */\n      pop\n      pop\n      pop\n        /* \"#utility.yul\":10614:11514   */\n      swap3\n      swap2\n      pop\n      pop\n      jump\t// out\n        /* \"#utility.yul\":11520:11977   */\n    tag_59:\n        /* \"#utility.yul\":11705:11709   */\n      0x00\n        /* \"#utility.yul\":11743:11745   */\n      0x20\n        /* \"#utility.yul\":11732:11741   */\n      dup3\n        /* \"#utility.yul\":11728:11746   */\n      add\n        /* \"#utility.yul\":11720:11746   */\n      swap1\n      pop\n        /* \"#utility.yul\":11792:11801   */\n      dup2\n        /* \"#utility.yul\":11786:11790   */\n      dup2\n        /* \"#utility.yul\":11782:11802   */\n      sub\n        /* \"#utility.yul\":11778:11779   */\n      0x00\n        /* \"#utility.yul\":11767:11776   */\n      dup4\n        /* \"#utility.yul\":11763:11780   */\n      add\n        /* \"#utility.yul\":11756:11803   */\n      mstore\n        /* \"#utility.yul\":11820:11970   */\n      tag_401\n        /* \"#utility.yul\":11965:11969   */\n      dup2\n        /* \"#utility.yul\":11956:11962   */\n      dup5\n        /* \"#utility.yul\":11820:11970   */\n      tag_265\n      jump\t// in\n    tag_401:\n        /* \"#utility.yul\":11812:11970   */\n      swap1\n      pop\n        /* \"#utility.yul\":11520:11977   */\n      swap3\n      swap2\n      pop\n      pop\n      jump\t// out\n        /* \"#utility.yul\":11983:12152   */\n    tag_266:\n        /* \"#utility.yul\":12067:12078   */\n      0x00\n        /* \"#utility.yul\":12101:12107   */\n      dup3\n        /* \"#utility.yul\":12096:12099   */\n      dup3\n        /* \"#utility.yul\":12089:12108   */\n      mstore\n        /* \"#utility.yul\":12141:12145   */\n      0x20\n        /* \"#utility.yul\":12136:12139   */\n      dup3\n        /* \"#utility.yul\":12132:12146   */\n      add\n        /* \"#utility.yul\":12117:12146   */\n      swap1\n      pop\n        /* \"#utility.yul\":11983:12152   */\n      swap3\n      swap2\n      pop\n      pop\n      jump\t// out\n        /* \"#utility.yul\":12158:12378   */\n    tag_267:\n        /* \"#utility.yul\":12298:12332   */\n      0x4f6e6c79206f776e65722063616e2063616c6c20746869732066756e6374696f\n        /* \"#utility.yul\":12294:12295   */\n      0x00\n        /* \"#utility.yul\":12286:12292   */\n      dup3\n        /* \"#utility.yul\":12282:12296   */\n      add\n        /* \"#utility.yul\":12275:12333   */\n      mstore\n        /* \"#utility.yul\":12367:12370   */\n      0x6e00000000000000000000000000000000000000000000000000000000000000\n        /* \"#utility.yul\":12362:12364   */\n      0x20\n        /* \"#utility.yul\":12354:12360   */\n      dup3\n        /* \"#utility.yul\":12350:12365   */\n      add\n        /* \"#utility.yul\":12343:12371   */\n      mstore\n        /* \"#utility.yul\":12158:12378   */\n      pop\n      jump\t// out\n        /* \"#utility.yul\":12384:12750   */\n    tag_268:\n        /* \"#utility.yul\":12526:12529   */\n      0x00\n        /* \"#utility.yul\":12547:12614   */\n      tag_405\n        /* \"#utility.yul\":12611:12613   */\n      0x21\n        /* \"#utility.yul\":12606:12609   */\n      dup4\n        /* \"#utility.yul\":12547:12614   */\n      tag_266\n      jump\t// in\n    tag_405:\n        /* \"#utility.yul\":12540:12614   */\n      swap2\n      pop\n        /* \"#utility.yul\":12623:12716   */\n      tag_406\n        /* \"#utility.yul\":12712:12715   */\n      dup3\n        /* \"#utility.yul\":12623:12716   */\n      tag_267\n      jump\t// in\n    tag_406:\n        /* \"#utility.yul\":12741:12743   */\n      0x40\n        /* \"#utility.yul\":12736:12739   */\n      dup3\n        /* \"#utility.yul\":12732:12744   */\n      add\n        /* \"#utility.yul\":12725:12744   */\n      swap1\n      pop\n        /* \"#utility.yul\":12384:12750   */\n      swap2\n      swap1\n      pop\n      jump\t// out\n        /* \"#utility.yul\":12756:13175   */\n    tag_63:\n        /* \"#utility.yul\":12922:12926   */\n      0x00\n        /* \"#utility.yul\":12960:12962   */\n      0x20\n        /* \"#utility.yul\":12949:12958   */\n      dup3\n        /* \"#utility.yul\":12945:12963   */\n      add\n        /* \"#utility.yul\":12937:12963   */\n      swap1\n      pop\n        /* \"#utility.yul\":13009:13018   */\n      dup2\n        /* \"#utility.yul\":13003:13007   */\n      dup2\n        /* \"#utility.yul\":12999:13019   */\n      sub\n        /* \"#utility.yul\":12995:12996   */\n      0x00\n        /* \"#utility.yul\":12984:12993   */\n      dup4\n        /* \"#utility.yul\":12980:12997   */\n      add\n        /* \"#utility.yul\":12973:13020   */\n      mstore\n        /* \"#utility.yul\":13037:13168   */\n      tag_408\n        /* \"#utility.yul\":13163:13167   */\n      dup2\n        /* \"#utility.yul\":13037:13168   */\n      tag_268\n      jump\t// in\n    tag_408:\n        /* \"#utility.yul\":13029:13168   */\n      swap1\n      pop\n        /* \"#utility.yul\":12756:13175   */\n      swap2\n      swap1\n      pop\n      jump\t// out\n        /* \"#utility.yul\":13181:13356   */\n    tag_269:\n        /* \"#utility.yul\":13321:13348   */\n      0x546f75726e616d656e7420646f6573206e6f7420657869737400000000000000\n        /* \"#utility.yul\":13317:13318   */\n      0x00\n        /* \"#utility.yul\":13309:13315   */\n      dup3\n        /* \"#utility.yul\":13305:13319   */\n      add\n        /* \"#utility.yul\":13298:13349   */\n      mstore\n        /* \"#utility.yul\":13181:13356   */\n      pop\n      jump\t// out\n        /* \"#utility.yul\":13362:13728   */\n    tag_270:\n        /* \"#utility.yul\":13504:13507   */\n      0x00\n        /* \"#utility.yul\":13525:13592   */\n      tag_411\n        /* \"#utility.yul\":13589:13591   */\n      0x19\n        /* \"#utility.yul\":13584:13587   */\n      dup4\n        /* \"#utility.yul\":13525:13592   */\n      tag_266\n      jump\t// in\n    tag_411:\n        /* \"#utility.yul\":13518:13592   */\n      swap2\n      pop\n        /* \"#utility.yul\":13601:13694   */\n      tag_412\n        /* \"#utility.yul\":13690:13693   */\n      dup3\n        /* \"#utility.yul\":13601:13694   */\n      tag_269\n      jump\t// in\n    tag_412:\n        /* \"#utility.yul\":13719:13721   */\n      0x20\n        /* \"#utility.yul\":13714:13717   */\n      dup3\n        /* \"#utility.yul\":13710:13722   */\n      add\n        /* \"#utility.yul\":13703:13722   */\n      swap1\n      pop\n        /* \"#utility.yul\":13362:13728   */\n      swap2\n      swap1\n      pop\n      jump\t// out\n        /* \"#utility.yul\":13734:14153   */\n    tag_67:\n        /* \"#utility.yul\":13900:13904   */\n      0x00\n        /* \"#utility.yul\":13938:13940   */\n      0x20\n        /* \"#utility.yul\":13927:13936   */\n      dup3\n        /* \"#utility.yul\":13923:13941   */\n      add\n        /* \"#utility.yul\":13915:13941   */\n      swap1\n      pop\n        /* \"#utility.yul\":13987:13996   */\n      dup2\n        /* \"#utility.yul\":13981:13985   */\n      dup2\n        /* \"#utility.yul\":13977:13997   */\n      sub\n        /* \"#utility.yul\":13973:13974   */\n      0x00\n        /* \"#utility.yul\":13962:13971   */\n      dup4\n        /* \"#utility.yul\":13958:13975   */\n      add\n        /* \"#utility.yul\":13951:13998   */\n      mstore\n        /* \"#utility.yul\":14015:14146   */\n      tag_414\n        /* \"#utility.yul\":14141:14145   */\n      dup2\n        /* \"#utility.yul\":14015:14146   */\n      tag_270\n      jump\t// in\n    tag_414:\n        /* \"#utility.yul\":14007:14146   */\n      swap1\n      pop\n        /* \"#utility.yul\":13734:14153   */\n      swap2\n      swap1\n      pop\n      jump\t// out\n        /* \"#utility.yul\":14159:14339   */\n    tag_271:\n        /* \"#utility.yul\":14207:14284   */\n      0x4e487b7100000000000000000000000000000000000000000000000000000000\n        /* \"#utility.yul\":14204:14205   */\n      0x00\n        /* \"#utility.yul\":14197:14285   */\n      mstore\n        /* \"#utility.yul\":14304:14308   */\n      0x11\n        /* \"#utility.yul\":14301:14302   */\n      0x04\n        /* \"#utility.yul\":14294:14309   */\n      mstore\n        /* \"#utility.yul\":14328:14332   */\n      0x24\n        /* \"#utility.yul\":14325:14326   */\n      0x00\n        /* \"#utility.yul\":14318:14333   */\n      revert\n        /* \"#utility.yul\":14345:14539   */\n    tag_70:\n        /* \"#utility.yul\":14385:14389   */\n      0x00\n        /* \"#utility.yul\":14405:14425   */\n      tag_417\n        /* \"#utility.yul\":14423:14424   */\n      dup3\n        /* \"#utility.yul\":14405:14425   */\n      tag_227\n      jump\t// in\n    tag_417:\n        /* \"#utility.yul\":14400:14425   */\n      swap2\n      pop\n        /* \"#utility.yul\":14439:14459   */\n      tag_418\n        /* \"#utility.yul\":14457:14458   */\n      dup4\n        /* \"#utility.yul\":14439:14459   */\n      tag_227\n      jump\t// in\n    tag_418:\n        /* \"#utility.yul\":14434:14459   */\n      swap3\n      pop\n        /* \"#utility.yul\":14483:14484   */\n      dup3\n        /* \"#utility.yul\":14480:14481   */\n      dup3\n        /* \"#utility.yul\":14476:14485   */\n      sub\n        /* \"#utility.yul\":14468:14485   */\n      swap1\n      pop\n        /* \"#utility.yul\":14507:14508   */\n      dup2\n        /* \"#utility.yul\":14501:14505   */\n      dup2\n        /* \"#utility.yul\":14498:14509   */\n      gt\n        /* \"#utility.yul\":14495:14532   */\n      iszero\n      tag_419\n      jumpi\n        /* \"#utility.yul\":14512:14530   */\n      tag_420\n      tag_271\n      jump\t// in\n    tag_420:\n        /* \"#utility.yul\":14495:14532   */\n    tag_419:\n        /* \"#utility.yul\":14345:14539   */\n      swap3\n      swap2\n      pop\n      pop\n      jump\t// out\n        /* \"#utility.yul\":14545:14718   */\n    tag_272:\n        /* \"#utility.yul\":14685:14710   */\n      0x546f75726e616d656e74206e6f742066696e6973686564000000000000000000\n        /* \"#utility.yul\":14681:14682   */\n      0x00\n        /* \"#utility.yul\":14673:14679   */\n      dup3\n        /* \"#utility.yul\":14669:14683   */\n      add\n        /* \"#utility.yul\":14662:14711   */\n      mstore\n        /* \"#utility.yul\":14545:14718   */\n      pop\n      jump\t// out\n        /* \"#utility.yul\":14724:15090   */\n    tag_273:\n        /* \"#utility.yul\":14866:14869   */\n      0x00\n        /* \"#utility.yul\":14887:14954   */\n      tag_423\n        /* \"#utility.yul\":14951:14953   */\n      0x17\n        /* \"#utility.yul\":14946:14949   */\n      dup4\n        /* \"#utility.yul\":14887:14954   */\n      tag_266\n      jump\t// in\n    tag_423:\n        /* \"#utility.yul\":14880:14954   */\n      swap2\n      pop\n        /* \"#utility.yul\":14963:15056   */\n      tag_424\n        /* \"#utility.yul\":15052:15055   */\n      dup3\n        /* \"#utility.yul\":14963:15056   */\n      tag_272\n      jump\t// in\n    tag_424:\n        /* \"#utility.yul\":15081:15083   */\n      0x20\n        /* \"#utility.yul\":15076:15079   */\n      dup3\n        /* \"#utility.yul\":15072:15084   */\n      add\n        /* \"#utility.yul\":15065:15084   */\n      swap1\n      pop\n        /* \"#utility.yul\":14724:15090   */\n      swap2\n      swap1\n      pop\n      jump\t// out\n        /* \"#utility.yul\":15096:15515   */\n    tag_73:\n        /* \"#utility.yul\":15262:15266   */\n      0x00\n        /* \"#utility.yul\":15300:15302   */\n      0x20\n        /* \"#utility.yul\":15289:15298   */\n      dup3\n        /* \"#utility.yul\":15285:15303   */\n      add\n        /* \"#utility.yul\":15277:15303   */\n      swap1\n      pop\n        /* \"#utility.yul\":15349:15358   */\n      dup2\n        /* \"#utility.yul\":15343:15347   */\n      dup2\n        /* \"#utility.yul\":15339:15359   */\n      sub\n        /* \"#utility.yul\":15335:15336   */\n      0x00\n        /* \"#utility.yul\":15324:15333   */\n      dup4\n        /* \"#utility.yul\":15320:15337   */\n      add\n        /* \"#utility.yul\":15313:15360   */\n      mstore\n        /* \"#utility.yul\":15377:15508   */\n      tag_426\n        /* \"#utility.yul\":15503:15507   */\n      dup2\n        /* \"#utility.yul\":15377:15508   */\n      tag_273\n      jump\t// in\n    tag_426:\n        /* \"#utility.yul\":15369:15508   */\n      swap1\n      pop\n        /* \"#utility.yul\":15096:15515   */\n      swap2\n      swap1\n      pop\n      jump\t// out\n        /* \"#utility.yul\":15521:15931   */\n    tag_75:\n        /* \"#utility.yul\":15561:15568   */\n      0x00\n        /* \"#utility.yul\":15584:15604   */\n      tag_428\n        /* \"#utility.yul\":15602:15603   */\n      dup3\n        /* \"#utility.yul\":15584:15604   */\n      tag_227\n      jump\t// in\n    tag_428:\n        /* \"#utility.yul\":15579:15604   */\n      swap2\n      pop\n        /* \"#utility.yul\":15618:15638   */\n      tag_429\n        /* \"#utility.yul\":15636:15637   */\n      dup4\n        /* \"#utility.yul\":15618:15638   */\n      tag_227\n      jump\t// in\n    tag_429:\n        /* \"#utility.yul\":15613:15638   */\n      swap3\n      pop\n        /* \"#utility.yul\":15673:15674   */\n      dup3\n        /* \"#utility.yul\":15670:15671   */\n      dup3\n        /* \"#utility.yul\":15666:15675   */\n      mul\n        /* \"#utility.yul\":15695:15725   */\n      tag_430\n        /* \"#utility.yul\":15713:15724   */\n      dup2\n        /* \"#utility.yul\":15695:15725   */\n      tag_227\n      jump\t// in\n    tag_430:\n        /* \"#utility.yul\":15684:15725   */\n      swap2\n      pop\n        /* \"#utility.yul\":15874:15875   */\n      dup3\n        /* \"#utility.yul\":15865:15872   */\n      dup3\n        /* \"#utility.yul\":15861:15876   */\n      div\n        /* \"#utility.yul\":15858:15859   */\n      dup5\n        /* \"#utility.yul\":15855:15877   */\n      eq\n        /* \"#utility.yul\":15835:15836   */\n      dup4\n        /* \"#utility.yul\":15828:15837   */\n      iszero\n        /* \"#utility.yul\":15808:15891   */\n      or\n        /* \"#utility.yul\":15785:15924   */\n      tag_431\n      jumpi\n        /* \"#utility.yul\":15904:15922   */\n      tag_432\n      tag_271\n      jump\t// in\n    tag_432:\n        /* \"#utility.yul\":15785:15924   */\n    tag_431:\n        /* \"#utility.yul\":15569:15931   */\n      pop\n        /* \"#utility.yul\":15521:15931   */\n      swap3\n      swap2\n      pop\n      pop\n      jump\t// out\n        /* \"#utility.yul\":15937:16117   */\n    tag_274:\n        /* \"#utility.yul\":15985:16062   */\n      0x4e487b7100000000000000000000000000000000000000000000000000000000\n        /* \"#utility.yul\":15982:15983   */\n      0x00\n        /* \"#utility.yul\":15975:16063   */\n      mstore\n        /* \"#utility.yul\":16082:16086   */\n      0x12\n        /* \"#utility.yul\":16079:16080   */\n      0x04\n        /* \"#utility.yul\":16072:16087   */\n      mstore\n        /* \"#utility.yul\":16106:16110   */\n      0x24\n        /* \"#utility.yul\":16103:16104   */\n      0x00\n        /* \"#utility.yul\":16096:16111   */\n      revert\n        /* \"#utility.yul\":16123:16308   */\n    tag_77:\n        /* \"#utility.yul\":16163:16164   */\n      0x00\n        /* \"#utility.yul\":16180:16200   */\n      tag_435\n        /* \"#utility.yul\":16198:16199   */\n      dup3\n        /* \"#utility.yul\":16180:16200   */\n      tag_227\n      jump\t// in\n    tag_435:\n        /* \"#utility.yul\":16175:16200   */\n      swap2\n      pop\n        /* \"#utility.yul\":16214:16234   */\n      tag_436\n        /* \"#utility.yul\":16232:16233   */\n      dup4\n        /* \"#utility.yul\":16214:16234   */\n      tag_227\n      jump\t// in\n    tag_436:\n        /* \"#utility.yul\":16209:16234   */\n      swap3\n      pop\n        /* \"#utility.yul\":16253:16254   */\n      dup3\n        /* \"#utility.yul\":16243:16278   */\n      tag_437\n      jumpi\n        /* \"#utility.yul\":16258:16276   */\n      tag_438\n      tag_274\n      jump\t// in\n    tag_438:\n        /* \"#utility.yul\":16243:16278   */\n    tag_437:\n        /* \"#utility.yul\":16300:16301   */\n      dup3\n        /* \"#utility.yul\":16297:16298   */\n      dup3\n        /* \"#utility.yul\":16293:16302   */\n      div\n        /* \"#utility.yul\":16288:16302   */\n      swap1\n      pop\n        /* \"#utility.yul\":16123:16308   */\n      swap3\n      swap2\n      pop\n      pop\n      jump\t// out\n        /* \"#utility.yul\":16314:16494   */\n    tag_87:\n        /* \"#utility.yul\":16362:16439   */\n      0x4e487b7100000000000000000000000000000000000000000000000000000000\n        /* \"#utility.yul\":16359:16360   */\n      0x00\n        /* \"#utility.yul\":16352:16440   */\n      mstore\n        /* \"#utility.yul\":16459:16463   */\n      0x32\n        /* \"#utility.yul\":16456:16457   */\n      0x04\n        /* \"#utility.yul\":16449:16464   */\n      mstore\n        /* \"#utility.yul\":16483:16487   */\n      0x24\n        /* \"#utility.yul\":16480:16481   */\n      0x00\n        /* \"#utility.yul\":16473:16488   */\n      revert\n        /* \"#utility.yul\":16500:16676   */\n    tag_117:\n        /* \"#utility.yul\":16532:16533   */\n      0x00\n        /* \"#utility.yul\":16549:16569   */\n      tag_441\n        /* \"#utility.yul\":16567:16568   */\n      dup3\n        /* \"#utility.yul\":16549:16569   */\n      tag_227\n      jump\t// in\n    tag_441:\n        /* \"#utility.yul\":16544:16569   */\n      swap2\n      pop\n        /* \"#utility.yul\":16583:16603   */\n      tag_442\n        /* \"#utility.yul\":16601:16602   */\n      dup4\n        /* \"#utility.yul\":16583:16603   */\n      tag_227\n      jump\t// in\n    tag_442:\n        /* \"#utility.yul\":16578:16603   */\n      swap3\n      pop\n        /* \"#utility.yul\":16622:16623   */\n      dup3\n        /* \"#utility.yul\":16612:16647   */\n      tag_443\n      jumpi\n        /* \"#utility.yul\":16627:16645   */\n      tag_444\n      tag_274\n      jump\t// in\n    tag_444:\n        /* \"#utility.yul\":16612:16647   */\n    tag_443:\n        /* \"#utility.yul\":16668:16669   */\n      dup3\n        /* \"#utility.yul\":16665:16666   */\n      dup3\n        /* \"#utility.yul\":16661:16670   */\n      mod\n        /* \"#utility.yul\":16656:16670   */\n      swap1\n      pop\n        /* \"#utility.yul\":16500:16676   */\n      swap3\n      swap2\n      pop\n      pop\n      jump\t// out\n        /* \"#utility.yul\":16682:16860   */\n    tag_275:\n        /* \"#utility.yul\":16822:16852   */\n      0x4e756d626572206f66207465616d73206d757374206265206576656e00000000\n        /* \"#utility.yul\":16818:16819   */\n      0x00\n        /* \"#utility.yul\":16810:16816   */\n      dup3\n        /* \"#utility.yul\":16806:16820   */\n      add\n        /* \"#utility.yul\":16799:16853   */\n      mstore\n        /* \"#utility.yul\":16682:16860   */\n      pop\n      jump\t// out\n        /* \"#utility.yul\":16866:17232   */\n    tag_276:\n        /* \"#utility.yul\":17008:17011   */\n      0x00\n        /* \"#utility.yul\":17029:17096   */\n      tag_447\n        /* \"#utility.yul\":17093:17095   */\n      0x1c\n        /* \"#utility.yul\":17088:17091   */\n      dup4\n        /* \"#utility.yul\":17029:17096   */\n      tag_266\n      jump\t// in\n    tag_447:\n        /* \"#utility.yul\":17022:17096   */\n      swap2\n      pop\n        /* \"#utility.yul\":17105:17198   */\n      tag_448\n        /* \"#utility.yul\":17194:17197   */\n      dup3\n        /* \"#utility.yul\":17105:17198   */\n      tag_275\n      jump\t// in\n    tag_448:\n        /* \"#utility.yul\":17223:17225   */\n      0x20\n        /* \"#utility.yul\":17218:17221   */\n      dup3\n        /* \"#utility.yul\":17214:17226   */\n      add\n        /* \"#utility.yul\":17207:17226   */\n      swap1\n      pop\n        /* \"#utility.yul\":16866:17232   */\n      swap2\n      swap1\n      pop\n      jump\t// out\n        /* \"#utility.yul\":17238:17657   */\n    tag_120:\n        /* \"#utility.yul\":17404:17408   */\n      0x00\n        /* \"#utility.yul\":17442:17444   */\n      0x20\n        /* \"#utility.yul\":17431:17440   */\n      dup3\n        /* \"#utility.yul\":17427:17445   */\n      add\n        /* \"#utility.yul\":17419:17445   */\n      swap1\n      pop\n        /* \"#utility.yul\":17491:17500   */\n      dup2\n        /* \"#utility.yul\":17485:17489   */\n      dup2\n        /* \"#utility.yul\":17481:17501   */\n      sub\n        /* \"#utility.yul\":17477:17478   */\n      0x00\n        /* \"#utility.yul\":17466:17475   */\n      dup4\n        /* \"#utility.yul\":17462:17479   */\n      add\n        /* \"#utility.yul\":17455:17502   */\n      mstore\n        /* \"#utility.yul\":17519:17650   */\n      tag_450\n        /* \"#utility.yul\":17645:17649   */\n      dup2\n        /* \"#utility.yul\":17519:17650   */\n      tag_276\n      jump\t// in\n    tag_450:\n        /* \"#utility.yul\":17511:17650   */\n      swap1\n      pop\n        /* \"#utility.yul\":17238:17657   */\n      swap2\n      swap1\n      pop\n      jump\t// out\n        /* \"#utility.yul\":17663:17843   */\n    tag_277:\n        /* \"#utility.yul\":17803:17835   */\n      0x546f75726e616d656e742068617320616c726561647920737461727465640000\n        /* \"#utility.yul\":17799:17800   */\n      0x00\n        /* \"#utility.yul\":17791:17797   */\n      dup3\n        /* \"#utility.yul\":17787:17801   */\n      add\n        /* \"#utility.yul\":17780:17836   */\n      mstore\n        /* \"#utility.yul\":17663:17843   */\n      pop\n      jump\t// out\n        /* \"#utility.yul\":17849:18215   */\n    tag_278:\n        /* \"#utility.yul\":17991:17994   */\n      0x00\n        /* \"#utility.yul\":18012:18079   */\n      tag_453\n        /* \"#utility.yul\":18076:18078   */\n      0x1e\n        /* \"#utility.yul\":18071:18074   */\n      dup4\n        /* \"#utility.yul\":18012:18079   */\n      tag_266\n      jump\t// in\n    tag_453:\n        /* \"#utility.yul\":18005:18079   */\n      swap2\n      pop\n        /* \"#utility.yul\":18088:18181   */\n      tag_454\n        /* \"#utility.yul\":18177:18180   */\n      dup3\n        /* \"#utility.yul\":18088:18181   */\n      tag_277\n      jump\t// in\n    tag_454:\n        /* \"#utility.yul\":18206:18208   */\n      0x20\n        /* \"#utility.yul\":18201:18204   */\n      dup3\n        /* \"#utility.yul\":18197:18209   */\n      add\n        /* \"#utility.yul\":18190:18209   */\n      swap1\n      pop\n        /* \"#utility.yul\":17849:18215   */\n      swap2\n      swap1\n      pop\n      jump\t// out\n        /* \"#utility.yul\":18221:18640   */\n    tag_124:\n        /* \"#utility.yul\":18387:18391   */\n      0x00\n        /* \"#utility.yul\":18425:18427   */\n      0x20\n        /* \"#utility.yul\":18414:18423   */\n      dup3\n        /* \"#utility.yul\":18410:18428   */\n      add\n        /* \"#utility.yul\":18402:18428   */\n      swap1\n      pop\n        /* \"#utility.yul\":18474:18483   */\n      dup2\n        /* \"#utility.yul\":18468:18472   */\n      dup2\n        /* \"#utility.yul\":18464:18484   */\n      sub\n        /* \"#utility.yul\":18460:18461   */\n      0x00\n        /* \"#utility.yul\":18449:18458   */\n      dup4\n        /* \"#utility.yul\":18445:18462   */\n      add\n        /* \"#utility.yul\":18438:18485   */\n      mstore\n        /* \"#utility.yul\":18502:18633   */\n      tag_456\n        /* \"#utility.yul\":18628:18632   */\n      dup2\n        /* \"#utility.yul\":18502:18633   */\n      tag_278\n      jump\t// in\n    tag_456:\n        /* \"#utility.yul\":18494:18633   */\n      swap1\n      pop\n        /* \"#utility.yul\":18221:18640   */\n      swap2\n      swap1\n      pop\n      jump\t// out\n        /* \"#utility.yul\":18646:18837   */\n    tag_135:\n        /* \"#utility.yul\":18686:18689   */\n      0x00\n        /* \"#utility.yul\":18705:18725   */\n      tag_458\n        /* \"#utility.yul\":18723:18724   */\n      dup3\n        /* \"#utility.yul\":18705:18725   */\n      tag_227\n      jump\t// in\n    tag_458:\n        /* \"#utility.yul\":18700:18725   */\n      swap2\n      pop\n        /* \"#utility.yul\":18739:18759   */\n      tag_459\n        /* \"#utility.yul\":18757:18758   */\n      dup4\n        /* \"#utility.yul\":18739:18759   */\n      tag_227\n      jump\t// in\n    tag_459:\n        /* \"#utility.yul\":18734:18759   */\n      swap3\n      pop\n        /* \"#utility.yul\":18782:18783   */\n      dup3\n        /* \"#utility.yul\":18779:18780   */\n      dup3\n        /* \"#utility.yul\":18775:18784   */\n      add\n        /* \"#utility.yul\":18768:18784   */\n      swap1\n      pop\n        /* \"#utility.yul\":18803:18806   */\n      dup1\n        /* \"#utility.yul\":18800:18801   */\n      dup3\n        /* \"#utility.yul\":18797:18807   */\n      gt\n        /* \"#utility.yul\":18794:18830   */\n      iszero\n      tag_460\n      jumpi\n        /* \"#utility.yul\":18810:18828   */\n      tag_461\n      tag_271\n      jump\t// in\n    tag_461:\n        /* \"#utility.yul\":18794:18830   */\n    tag_460:\n        /* \"#utility.yul\":18646:18837   */\n      swap3\n      swap2\n      pop\n      pop\n      jump\t// out\n        /* \"#utility.yul\":18843:19076   */\n    tag_146:\n        /* \"#utility.yul\":18882:18885   */\n      0x00\n        /* \"#utility.yul\":18905:18929   */\n      tag_463\n        /* \"#utility.yul\":18923:18928   */\n      dup3\n        /* \"#utility.yul\":18905:18929   */\n      tag_227\n      jump\t// in\n    tag_463:\n        /* \"#utility.yul\":18896:18929   */\n      swap2\n      pop\n        /* \"#utility.yul\":18951:19017   */\n      0xffffffffffffffffffffffffffffffffffffffffffffffffffffffffffffffff\n        /* \"#utility.yul\":18944:18949   */\n      dup3\n        /* \"#utility.yul\":18941:19018   */\n      sub\n        /* \"#utility.yul\":18938:19041   */\n      tag_464\n      jumpi\n        /* \"#utility.yul\":19021:19039   */\n      tag_465\n      tag_271\n      jump\t// in\n    tag_465:\n        /* \"#utility.yul\":18938:19041   */\n    tag_464:\n        /* \"#utility.yul\":19068:19069   */\n      0x01\n        /* \"#utility.yul\":19061:19066   */\n      dup3\n        /* \"#utility.yul\":19057:19070   */\n      add\n        /* \"#utility.yul\":19050:19070   */\n      swap1\n      pop\n        /* \"#utility.yul\":18843:19076   */\n      swap2\n      swap1\n      pop\n      jump\t// out\n        /* \"#utility.yul\":19082:19263   */\n    tag_279:\n        /* \"#utility.yul\":19222:19255   */\n      0x4e756d626572206f66207465616d73206d7573742062652038206f7220313600\n        /* \"#utility.yul\":19218:19219   */\n      0x00\n        /* \"#utility.yul\":19210:19216   */\n      dup3\n        /* \"#utility.yul\":19206:19220   */\n      add\n        /* \"#utility.yul\":19199:19256   */\n      mstore\n        /* \"#utility.yul\":19082:19263   */\n      pop\n      jump\t// out\n        /* \"#utility.yul\":19269:19635   */\n    tag_280:\n        /* \"#utility.yul\":19411:19414   */\n      0x00\n        /* \"#utility.yul\":19432:19499   */\n      tag_468\n        /* \"#utility.yul\":19496:19498   */\n      0x1f\n        /* \"#utility.yul\":19491:19494   */\n      dup4\n        /* \"#utility.yul\":19432:19499   */\n      tag_266\n      jump\t// in\n    tag_468:\n        /* \"#utility.yul\":19425:19499   */\n      swap2\n      pop\n        /* \"#utility.yul\":19508:19601   */\n      tag_469\n        /* \"#utility.yul\":19597:19600   */\n      dup3\n        /* \"#utility.yul\":19508:19601   */\n      tag_279\n      jump\t// in\n    tag_469:\n        /* \"#utility.yul\":19626:19628   */\n      0x20\n        /* \"#utility.yul\":19621:19624   */\n      dup3\n        /* \"#utility.yul\":19617:19629   */\n      add\n        /* \"#utility.yul\":19610:19629   */\n      swap1\n      pop\n        /* \"#utility.yul\":19269:19635   */\n      swap2\n      swap1\n      pop\n      jump\t// out\n        /* \"#utility.yul\":19641:20060   */\n    tag_206:\n        /* \"#utility.yul\":19807:19811   */\n      0x00\n        /* \"#utility.yul\":19845:19847   */\n      0x20\n        /* \"#utility.yul\":19834:19843   */\n      dup3\n        /* \"#utility.yul\":19830:19848   */\n      add\n        /* \"#utility.yul\":19822:19848   */\n      swap1\n      pop\n        /* \"#utility.yul\":19894:19903   */\n      dup2\n        /* \"#utility.yul\":19888:19892   */\n      dup2\n        /* \"#utility.yul\":19884:19904   */\n      sub\n        /* \"#utility.yul\":19880:19881   */\n      0x00\n        /* \"#utility.yul\":19869:19878   */\n      dup4\n        /* \"#utility.yul\":19865:19882   */\n      add\n        /* \"#utility.yul\":19858:19905   */\n      mstore\n        /* \"#utility.yul\":19922:20053   */\n      tag_471\n        /* \"#utility.yul\":20048:20052   */\n      dup2\n        /* \"#utility.yul\":19922:20053   */\n      tag_280\n      jump\t// in\n    tag_471:\n        /* \"#utility.yul\":19914:20053   */\n      swap1\n      pop\n        /* \"#utility.yul\":19641:20060   */\n      swap2\n      swap1\n      pop\n      jump\t// out\n\n    auxdata: 0xa26469706673582212200b85dae6d725bd4f311afecd5af6d6179bdf956691117061e5f136e2e8844c0664736f6c63430008120033\n}\n",
				"bytecode": {
					"linkReferences": {},
					"object": "608060405234801561001057600080fd5b50336000806101000a81548173ffffffffffffffffffffffffffffffffffffffff021916908373ffffffffffffffffffffffffffffffffffffffff160217905550611f50806100606000396000f3fe6080604052600436106100915760003560e01c806387c2825f1161005957806387c2825f146101675780638da5cb5b146101a4578063be5973d6146101cf578063d0e30db0146101f8578063d8c57e851461020257610091565b8063566378cc1461009657806359974e38146100c1578063651ea943146100ea57806366666aa9146101135780636f4cf9721461013e575b600080fd5b3480156100a257600080fd5b506100ab61023f565b6040516100b891906114e5565b60405180910390f35b3480156100cd57600080fd5b506100e860048036038101906100e39190611540565b610245565b005b3480156100f657600080fd5b50610111600480360381019061010c9190611540565b6106ac565b005b34801561011f57600080fd5b50610128610ae6565b60405161013591906114e5565b60405180910390f35b34801561014a57600080fd5b50610165600480360381019061016091906115cb565b610aec565b005b34801561017357600080fd5b5061018e60048036038101906101899190611540565b610fe7565b60405161019b91906116dc565b60405180910390f35b3480156101b057600080fd5b506101b961108b565b6040516101c6919061170d565b60405180910390f35b3480156101db57600080fd5b506101f660048036038101906101f19190611881565b6110af565b005b610200611258565b005b34801561020e57600080fd5b5061022960048036038101906102249190611540565b611273565b6040516102369190611a58565b60405180910390f35b60035481565b60008054906101000a900473ffffffffffffffffffffffffffffffffffffffff1673ffffffffffffffffffffffffffffffffffffffff163373ffffffffffffffffffffffffffffffffffffffff16146102d3576040517f08c379a00000000000000000000000000000000000000000000000000000000081526004016102ca90611afd565b60405180910390fd5b806000600260008381526020019081526020016000206000018054905011610330576040517f08c379a000000000000000000000000000000000000000000000000000000000815260040161032790611b69565b60405180910390fd5b60006002600084815260200190815260200160002090506001816000018054905061035b9190611bb8565b8160010180549050146103a3576040517f08c379a000000000000000000000000000000000000000000000000000000000815260040161039a90611c38565b60405180910390fd5b6000606460326001546103b69190611c58565b6103c09190611cc9565b905060006064601e6001546103d59190611c58565b6103df9190611cc9565b905060006064600a6001546103f49190611c58565b6103fe9190611cc9565b905060006064600a6001546104139190611c58565b61041d9190611cc9565b905084600101600186600101805490506104379190611bb8565b8154811061044857610447611cfa565b5b906000526020600020906003020160020160009054906101000a900473ffffffffffffffffffffffffffffffffffffffff1673ffffffffffffffffffffffffffffffffffffffff166108fc859081150290604051600060405180830381858888f193505050501580156104bf573d6000803e3d6000fd5b5084600101600286600101805490506104d89190611bb8565b815481106104e9576104e8611cfa565b5b906000526020600020906003020160020160009054906101000a900473ffffffffffffffffffffffffffffffffffffffff1673ffffffffffffffffffffffffffffffffffffffff166108fc849081150290604051600060405180830381858888f19350505050158015610560573d6000803e3d6000fd5b5084600101600386600101805490506105799190611bb8565b8154811061058a57610589611cfa565b5b906000526020600020906003020160020160009054906101000a900473ffffffffffffffffffffffffffffffffffffffff1673ffffffffffffffffffffffffffffffffffffffff166108fc839081150290604051600060405180830381858888f19350505050158015610601573d6000803e3d6000fd5b50846001016004866001018054905061061a9190611bb8565b8154811061062b5761062a611cfa565b5b906000526020600020906003020160020160009054906101000a900473ffffffffffffffffffffffffffffffffffffffff1673ffffffffffffffffffffffffffffffffffffffff166108fc829081150290604051600060405180830381858888f193505050501580156106a2573d6000803e3d6000fd5b5050505050505050565b60008054906101000a900473ffffffffffffffffffffffffffffffffffffffff1673ffffffffffffffffffffffffffffffffffffffff163373ffffffffffffffffffffffffffffffffffffffff161461073a576040517f08c379a000000000000000000000000000000000000000000000000000000000815260040161073190611afd565b60405180910390fd5b806000600260008381526020019081526020016000206000018054905011610797576040517f08c379a000000000000000000000000000000000000000000000000000000000815260040161078e90611b69565b60405180910390fd5b600060026000848152602001908152602001600020905060008160000180549050905060006002826107c99190611d29565b14610809576040517f08c379a000000000000000000000000000000000000000000000000000000000815260040161080090611da6565b60405180910390fd5b6001816108169190611bb8565b82600101805490501061085e576040517f08c379a000000000000000000000000000000000000000000000000000000000815260040161085590611e12565b60405180910390fd5b60005b60028261086e9190611cc9565b811015610ad757826001016040518060800160405280856000016002856108959190611c58565b815481106108a6576108a5611cfa565b5b9060005260206000200160009054906101000a900473ffffffffffffffffffffffffffffffffffffffff1673ffffffffffffffffffffffffffffffffffffffff1681526020018560000160016002866108ff9190611c58565b6109099190611e32565b8154811061091a57610919611cfa565b5b9060005260206000200160009054906101000a900473ffffffffffffffffffffffffffffffffffffffff1673ffffffffffffffffffffffffffffffffffffffff168152602001600073ffffffffffffffffffffffffffffffffffffffff1681526020016000600181111561099157610990611909565b5b815250908060018154018082558091505060019003906000526020600020906003020160009091909190915060008201518160000160006101000a81548173ffffffffffffffffffffffffffffffffffffffff021916908373ffffffffffffffffffffffffffffffffffffffff16021790555060208201518160010160006101000a81548173ffffffffffffffffffffffffffffffffffffffff021916908373ffffffffffffffffffffffffffffffffffffffff16021790555060408201518160020160006101000a81548173ffffffffffffffffffffffffffffffffffffffff021916908373ffffffffffffffffffffffffffffffffffffffff16021790555060608201518160020160146101000a81548160ff02191690836001811115610abd57610abc611909565b5b021790555050508080610acf90611e66565b915050610861565b50600060038190555050505050565b60015481565b60006002600085815260200190815260200160002090506000816001018481548110610b1b57610b1a611cfa565b5b90600052602060002090600302019050828160020160006101000a81548173ffffffffffffffffffffffffffffffffffffffff021916908373ffffffffffffffffffffffffffffffffffffffff16021790555060018160020160146101000a81548160ff02191690836001811115610b9657610b95611909565b5b021790555060028260000180549050610baf9190611cc9565b841015610c205781600201839080600181540180825580915050600190039060005260206000200160009091909190916101000a81548173ffffffffffffffffffffffffffffffffffffffff021916908373ffffffffffffffffffffffffffffffffffffffff160217905550610cc0565b60028260020180549050610c349190611cc9565b60028360000180549050610c489190611cc9565b610c529190611e32565b841015610cbf5781600301839080600181540180825580915050600190039060005260206000200160009091909190916101000a81548173ffffffffffffffffffffffffffffffffffffffff021916908373ffffffffffffffffffffffffffffffffffffffff1602179055505b5b600160028360000180549050610cd69190611cc9565b610ce09190611bb8565b841480610d295750600160028360020180549050610cfe9190611cc9565b60028460000180549050610d129190611cc9565b610d1c9190611e32565b610d269190611bb8565b84145b15610fe0576000600160028460000180549050610d469190611cc9565b610d509190611bb8565b8514610d5f5782600301610d64565b826002015b905060005b60028280549050610d7a9190611cc9565b811015610fdd5783600101604051806080016040528084600285610d9e9190611c58565b81548110610daf57610dae611cfa565b5b9060005260206000200160009054906101000a900473ffffffffffffffffffffffffffffffffffffffff1673ffffffffffffffffffffffffffffffffffffffff168152602001846001600286610e059190611c58565b610e0f9190611e32565b81548110610e2057610e1f611cfa565b5b9060005260206000200160009054906101000a900473ffffffffffffffffffffffffffffffffffffffff1673ffffffffffffffffffffffffffffffffffffffff168152602001600073ffffffffffffffffffffffffffffffffffffffff16815260200160006001811115610e9757610e96611909565b5b815250908060018154018082558091505060019003906000526020600020906003020160009091909190915060008201518160000160006101000a81548173ffffffffffffffffffffffffffffffffffffffff021916908373ffffffffffffffffffffffffffffffffffffffff16021790555060208201518160010160006101000a81548173ffffffffffffffffffffffffffffffffffffffff021916908373ffffffffffffffffffffffffffffffffffffffff16021790555060408201518160020160006101000a81548173ffffffffffffffffffffffffffffffffffffffff021916908373ffffffffffffffffffffffffffffffffffffffff16021790555060608201518160020160146101000a81548160ff02191690836001811115610fc357610fc2611909565b5b021790555050508080610fd590611e66565b915050610d69565b50505b5050505050565b60606002600083815260200190815260200160002060000180548060200260200160405190810160405280929190818152602001828054801561107f57602002820191906000526020600020905b8160009054906101000a900473ffffffffffffffffffffffffffffffffffffffff1673ffffffffffffffffffffffffffffffffffffffff1681526020019060010190808311611035575b50505050509050919050565b60008054906101000a900473ffffffffffffffffffffffffffffffffffffffff1681565b60008054906101000a900473ffffffffffffffffffffffffffffffffffffffff1673ffffffffffffffffffffffffffffffffffffffff163373ffffffffffffffffffffffffffffffffffffffff161461113d576040517f08c379a000000000000000000000000000000000000000000000000000000000815260040161113490611afd565b60405180910390fd5b81600060026000838152602001908152602001600020600101805490501461119a576040517f08c379a000000000000000000000000000000000000000000000000000000000815260040161119190611e12565b60405180910390fd5b6008825114806111ab575060108251145b6111ea576040517f08c379a00000000000000000000000000000000000000000000000000000000081526004016111e190611efa565b60405180910390fd5b600060026000858152602001908152602001600020905082816000019080519060200190611219929190611425565b50837fa47122c4660339cf88308783d3c2a9ed10d7809cc28e552e580a7a89722f6da98460405161124a91906116dc565b60405180910390a250505050565b346001600082825461126a9190611e32565b92505081905550565b606060026000838152602001908152602001600020600101805480602002602001604051908101604052809291908181526020016000905b8282101561141a57838290600052602060002090600302016040518060800160405290816000820160009054906101000a900473ffffffffffffffffffffffffffffffffffffffff1673ffffffffffffffffffffffffffffffffffffffff1673ffffffffffffffffffffffffffffffffffffffff1681526020016001820160009054906101000a900473ffffffffffffffffffffffffffffffffffffffff1673ffffffffffffffffffffffffffffffffffffffff1673ffffffffffffffffffffffffffffffffffffffff1681526020016002820160009054906101000a900473ffffffffffffffffffffffffffffffffffffffff1673ffffffffffffffffffffffffffffffffffffffff1673ffffffffffffffffffffffffffffffffffffffff1681526020016002820160149054906101000a900460ff1660018111156113f5576113f4611909565b5b600181111561140757611406611909565b5b81525050815260200190600101906112ab565b505050509050919050565b82805482825590600052602060002090810192821561149e579160200282015b8281111561149d5782518260006101000a81548173ffffffffffffffffffffffffffffffffffffffff021916908373ffffffffffffffffffffffffffffffffffffffff16021790555091602001919060010190611445565b5b5090506114ab91906114af565b5090565b5b808211156114c85760008160009055506001016114b0565b5090565b6000819050919050565b6114df816114cc565b82525050565b60006020820190506114fa60008301846114d6565b92915050565b6000604051905090565b600080fd5b600080fd5b61151d816114cc565b811461152857600080fd5b50565b60008135905061153a81611514565b92915050565b6000602082840312156115565761155561150a565b5b60006115648482850161152b565b91505092915050565b600073ffffffffffffffffffffffffffffffffffffffff82169050919050565b60006115988261156d565b9050919050565b6115a88161158d565b81146115b357600080fd5b50565b6000813590506115c58161159f565b92915050565b6000806000606084860312156115e4576115e361150a565b5b60006115f28682870161152b565b93505060206116038682870161152b565b9250506040611614868287016115b6565b9150509250925092565b600081519050919050565b600082825260208201905092915050565b6000819050602082019050919050565b6116538161158d565b82525050565b6000611665838361164a565b60208301905092915050565b6000602082019050919050565b60006116898261161e565b6116938185611629565b935061169e8361163a565b8060005b838110156116cf5781516116b68882611659565b97506116c183611671565b9250506001810190506116a2565b5085935050505092915050565b600060208201905081810360008301526116f6818461167e565b905092915050565b6117078161158d565b82525050565b600060208201905061172260008301846116fe565b92915050565b600080fd5b6000601f19601f8301169050919050565b7f4e487b7100000000000000000000000000000000000000000000000000000000600052604160045260246000fd5b6117768261172d565b810181811067ffffffffffffffff821117156117955761179461173e565b5b80604052505050565b60006117a8611500565b90506117b4828261176d565b919050565b600067ffffffffffffffff8211156117d4576117d361173e565b5b602082029050602081019050919050565b600080fd5b60006117fd6117f8846117b9565b61179e565b905080838252602082019050602084028301858111156118205761181f6117e5565b5b835b81811015611849578061183588826115b6565b845260208401935050602081019050611822565b5050509392505050565b600082601f83011261186857611867611728565b5b81356118788482602086016117ea565b91505092915050565b600080604083850312156118985761189761150a565b5b60006118a68582860161152b565b925050602083013567ffffffffffffffff8111156118c7576118c661150f565b5b6118d385828601611853565b9150509250929050565b600081519050919050565b600082825260208201905092915050565b6000819050602082019050919050565b7f4e487b7100000000000000000000000000000000000000000000000000000000600052602160045260246000fd5b6002811061194957611948611909565b5b50565b600081905061195a82611938565b919050565b600061196a8261194c565b9050919050565b61197a8161195f565b82525050565b608082016000820151611996600085018261164a565b5060208201516119a9602085018261164a565b5060408201516119bc604085018261164a565b5060608201516119cf6060850182611971565b50505050565b60006119e18383611980565b60808301905092915050565b6000602082019050919050565b6000611a05826118dd565b611a0f81856118e8565b9350611a1a836118f9565b8060005b83811015611a4b578151611a3288826119d5565b9750611a3d836119ed565b925050600181019050611a1e565b5085935050505092915050565b60006020820190508181036000830152611a7281846119fa565b905092915050565b600082825260208201905092915050565b7f4f6e6c79206f776e65722063616e2063616c6c20746869732066756e6374696f60008201527f6e00000000000000000000000000000000000000000000000000000000000000602082015250565b6000611ae7602183611a7a565b9150611af282611a8b565b604082019050919050565b60006020820190508181036000830152611b1681611ada565b9050919050565b7f546f75726e616d656e7420646f6573206e6f7420657869737400000000000000600082015250565b6000611b53601983611a7a565b9150611b5e82611b1d565b602082019050919050565b60006020820190508181036000830152611b8281611b46565b9050919050565b7f4e487b7100000000000000000000000000000000000000000000000000000000600052601160045260246000fd5b6000611bc3826114cc565b9150611bce836114cc565b9250828203905081811115611be657611be5611b89565b5b92915050565b7f546f75726e616d656e74206e6f742066696e6973686564000000000000000000600082015250565b6000611c22601783611a7a565b9150611c2d82611bec565b602082019050919050565b60006020820190508181036000830152611c5181611c15565b9050919050565b6000611c63826114cc565b9150611c6e836114cc565b9250828202611c7c816114cc565b91508282048414831517611c9357611c92611b89565b5b5092915050565b7f4e487b7100000000000000000000000000000000000000000000000000000000600052601260045260246000fd5b6000611cd4826114cc565b9150611cdf836114cc565b925082611cef57611cee611c9a565b5b828204905092915050565b7f4e487b7100000000000000000000000000000000000000000000000000000000600052603260045260246000fd5b6000611d34826114cc565b9150611d3f836114cc565b925082611d4f57611d4e611c9a565b5b828206905092915050565b7f4e756d626572206f66207465616d73206d757374206265206576656e00000000600082015250565b6000611d90601c83611a7a565b9150611d9b82611d5a565b602082019050919050565b60006020820190508181036000830152611dbf81611d83565b9050919050565b7f546f75726e616d656e742068617320616c726561647920737461727465640000600082015250565b6000611dfc601e83611a7a565b9150611e0782611dc6565b602082019050919050565b60006020820190508181036000830152611e2b81611def565b9050919050565b6000611e3d826114cc565b9150611e48836114cc565b9250828201905080821115611e6057611e5f611b89565b5b92915050565b6000611e71826114cc565b91507fffffffffffffffffffffffffffffffffffffffffffffffffffffffffffffffff8203611ea357611ea2611b89565b5b600182019050919050565b7f4e756d626572206f66207465616d73206d7573742062652038206f7220313600600082015250565b6000611ee4601f83611a7a565b9150611eef82611eae565b602082019050919050565b60006020820190508181036000830152611f1381611ed7565b905091905056fea26469706673582212200b85dae6d725bd4f311afecd5af6d6179bdf956691117061e5f136e2e8844c0664736f6c63430008120033",
					"opcodes": "PUSH1 0x80 PUSH1 0x40 MSTORE CALLVALUE DUP1 ISZERO PUSH2 0x10 JUMPI PUSH1 0x0 DUP1 REVERT JUMPDEST POP CALLER PUSH1 0x0 DUP1 PUSH2 0x100 EXP DUP2 SLOAD DUP2 PUSH20 0xFFFFFFFFFFFFFFFFFFFFFFFFFFFFFFFFFFFFFFFF MUL NOT AND SWAP1 DUP4 PUSH20 0xFFFFFFFFFFFFFFFFFFFFFFFFFFFFFFFFFFFFFFFF AND MUL OR SWAP1 SSTORE POP PUSH2 0x1F50 DUP1 PUSH2 0x60 PUSH1 0x0 CODECOPY PUSH1 0x0 RETURN INVALID PUSH1 0x80 PUSH1 0x40 MSTORE PUSH1 0x4 CALLDATASIZE LT PUSH2 0x91 JUMPI PUSH1 0x0 CALLDATALOAD PUSH1 0xE0 SHR DUP1 PUSH4 0x87C2825F GT PUSH2 0x59 JUMPI DUP1 PUSH4 0x87C2825F EQ PUSH2 0x167 JUMPI DUP1 PUSH4 0x8DA5CB5B EQ PUSH2 0x1A4 JUMPI DUP1 PUSH4 0xBE5973D6 EQ PUSH2 0x1CF JUMPI DUP1 PUSH4 0xD0E30DB0 EQ PUSH2 0x1F8 JUMPI DUP1 PUSH4 0xD8C57E85 EQ PUSH2 0x202 JUMPI PUSH2 0x91 JUMP JUMPDEST DUP1 PUSH4 0x566378CC EQ PUSH2 0x96 JUMPI DUP1 PUSH4 0x59974E38 EQ PUSH2 0xC1 JUMPI DUP1 PUSH4 0x651EA943 EQ PUSH2 0xEA JUMPI DUP1 PUSH4 0x66666AA9 EQ PUSH2 0x113 JUMPI DUP1 PUSH4 0x6F4CF972 EQ PUSH2 0x13E JUMPI JUMPDEST PUSH1 0x0 DUP1 REVERT JUMPDEST CALLVALUE DUP1 ISZERO PUSH2 0xA2 JUMPI PUSH1 0x0 DUP1 REVERT JUMPDEST POP PUSH2 0xAB PUSH2 0x23F JUMP JUMPDEST PUSH1 0x40 MLOAD PUSH2 0xB8 SWAP2 SWAP1 PUSH2 0x14E5 JUMP JUMPDEST PUSH1 0x40 MLOAD DUP1 SWAP2 SUB SWAP1 RETURN JUMPDEST CALLVALUE DUP1 ISZERO PUSH2 0xCD JUMPI PUSH1 0x0 DUP1 REVERT JUMPDEST POP PUSH2 0xE8 PUSH1 0x4 DUP1 CALLDATASIZE SUB DUP2 ADD SWAP1 PUSH2 0xE3 SWAP2 SWAP1 PUSH2 0x1540 JUMP JUMPDEST PUSH2 0x245 JUMP JUMPDEST STOP JUMPDEST CALLVALUE DUP1 ISZERO PUSH2 0xF6 JUMPI PUSH1 0x0 DUP1 REVERT JUMPDEST POP PUSH2 0x111 PUSH1 0x4 DUP1 CALLDATASIZE SUB DUP2 ADD SWAP1 PUSH2 0x10C SWAP2 SWAP1 PUSH2 0x1540 JUMP JUMPDEST PUSH2 0x6AC JUMP JUMPDEST STOP JUMPDEST CALLVALUE DUP1 ISZERO PUSH2 0x11F JUMPI PUSH1 0x0 DUP1 REVERT JUMPDEST POP PUSH2 0x128 PUSH2 0xAE6 JUMP JUMPDEST PUSH1 0x40 MLOAD PUSH2 0x135 SWAP2 SWAP1 PUSH2 0x14E5 JUMP JUMPDEST PUSH1 0x40 MLOAD DUP1 SWAP2 SUB SWAP1 RETURN JUMPDEST CALLVALUE DUP1 ISZERO PUSH2 0x14A JUMPI PUSH1 0x0 DUP1 REVERT JUMPDEST POP PUSH2 0x165 PUSH1 0x4 DUP1 CALLDATASIZE SUB DUP2 ADD SWAP1 PUSH2 0x160 SWAP2 SWAP1 PUSH2 0x15CB JUMP JUMPDEST PUSH2 0xAEC JUMP JUMPDEST STOP JUMPDEST CALLVALUE DUP1 ISZERO PUSH2 0x173 JUMPI PUSH1 0x0 DUP1 REVERT JUMPDEST POP PUSH2 0x18E PUSH1 0x4 DUP1 CALLDATASIZE SUB DUP2 ADD SWAP1 PUSH2 0x189 SWAP2 SWAP1 PUSH2 0x1540 JUMP JUMPDEST PUSH2 0xFE7 JUMP JUMPDEST PUSH1 0x40 MLOAD PUSH2 0x19B SWAP2 SWAP1 PUSH2 0x16DC JUMP JUMPDEST PUSH1 0x40 MLOAD DUP1 SWAP2 SUB SWAP1 RETURN JUMPDEST CALLVALUE DUP1 ISZERO PUSH2 0x1B0 JUMPI PUSH1 0x0 DUP1 REVERT JUMPDEST POP PUSH2 0x1B9 PUSH2 0x108B JUMP JUMPDEST PUSH1 0x40 MLOAD PUSH2 0x1C6 SWAP2 SWAP1 PUSH2 0x170D JUMP JUMPDEST PUSH1 0x40 MLOAD DUP1 SWAP2 SUB SWAP1 RETURN JUMPDEST CALLVALUE DUP1 ISZERO PUSH2 0x1DB JUMPI PUSH1 0x0 DUP1 REVERT JUMPDEST POP PUSH2 0x1F6 PUSH1 0x4 DUP1 CALLDATASIZE SUB DUP2 ADD SWAP1 PUSH2 0x1F1 SWAP2 SWAP1 PUSH2 0x1881 JUMP JUMPDEST PUSH2 0x10AF JUMP JUMPDEST STOP JUMPDEST PUSH2 0x200 PUSH2 0x1258 JUMP JUMPDEST STOP JUMPDEST CALLVALUE DUP1 ISZERO PUSH2 0x20E JUMPI PUSH1 0x0 DUP1 REVERT JUMPDEST POP PUSH2 0x229 PUSH1 0x4 DUP1 CALLDATASIZE SUB DUP2 ADD SWAP1 PUSH2 0x224 SWAP2 SWAP1 PUSH2 0x1540 JUMP JUMPDEST PUSH2 0x1273 JUMP JUMPDEST PUSH1 0x40 MLOAD PUSH2 0x236 SWAP2 SWAP1 PUSH2 0x1A58 JUMP JUMPDEST PUSH1 0x40 MLOAD DUP1 SWAP2 SUB SWAP1 RETURN JUMPDEST PUSH1 0x3 SLOAD DUP2 JUMP JUMPDEST PUSH1 0x0 DUP1 SLOAD SWAP1 PUSH2 0x100 EXP SWAP1 DIV PUSH20 0xFFFFFFFFFFFFFFFFFFFFFFFFFFFFFFFFFFFFFFFF AND PUSH20 0xFFFFFFFFFFFFFFFFFFFFFFFFFFFFFFFFFFFFFFFF AND CALLER PUSH20 0xFFFFFFFFFFFFFFFFFFFFFFFFFFFFFFFFFFFFFFFF AND EQ PUSH2 0x2D3 JUMPI PUSH1 0x40 MLOAD PUSH32 0x8C379A000000000000000000000000000000000000000000000000000000000 DUP2 MSTORE PUSH1 0x4 ADD PUSH2 0x2CA SWAP1 PUSH2 0x1AFD JUMP JUMPDEST PUSH1 0x40 MLOAD DUP1 SWAP2 SUB SWAP1 REVERT JUMPDEST DUP1 PUSH1 0x0 PUSH1 0x2 PUSH1 0x0 DUP4 DUP2 MSTORE PUSH1 0x20 ADD SWAP1 DUP2 MSTORE PUSH1 0x20 ADD PUSH1 0x0 KECCAK256 PUSH1 0x0 ADD DUP1 SLOAD SWAP1 POP GT PUSH2 0x330 JUMPI PUSH1 0x40 MLOAD PUSH32 0x8C379A000000000000000000000000000000000000000000000000000000000 DUP2 MSTORE PUSH1 0x4 ADD PUSH2 0x327 SWAP1 PUSH2 0x1B69 JUMP JUMPDEST PUSH1 0x40 MLOAD DUP1 SWAP2 SUB SWAP1 REVERT JUMPDEST PUSH1 0x0 PUSH1 0x2 PUSH1 0x0 DUP5 DUP2 MSTORE PUSH1 0x20 ADD SWAP1 DUP2 MSTORE PUSH1 0x20 ADD PUSH1 0x0 KECCAK256 SWAP1 POP PUSH1 0x1 DUP2 PUSH1 0x0 ADD DUP1 SLOAD SWAP1 POP PUSH2 0x35B SWAP2 SWAP1 PUSH2 0x1BB8 JUMP JUMPDEST DUP2 PUSH1 0x1 ADD DUP1 SLOAD SWAP1 POP EQ PUSH2 0x3A3 JUMPI PUSH1 0x40 MLOAD PUSH32 0x8C379A000000000000000000000000000000000000000000000000000000000 DUP2 MSTORE PUSH1 0x4 ADD PUSH2 0x39A SWAP1 PUSH2 0x1C38 JUMP JUMPDEST PUSH1 0x40 MLOAD DUP1 SWAP2 SUB SWAP1 REVERT JUMPDEST PUSH1 0x0 PUSH1 0x64 PUSH1 0x32 PUSH1 0x1 SLOAD PUSH2 0x3B6 SWAP2 SWAP1 PUSH2 0x1C58 JUMP JUMPDEST PUSH2 0x3C0 SWAP2 SWAP1 PUSH2 0x1CC9 JUMP JUMPDEST SWAP1 POP PUSH1 0x0 PUSH1 0x64 PUSH1 0x1E PUSH1 0x1 SLOAD PUSH2 0x3D5 SWAP2 SWAP1 PUSH2 0x1C58 JUMP JUMPDEST PUSH2 0x3DF SWAP2 SWAP1 PUSH2 0x1CC9 JUMP JUMPDEST SWAP1 POP PUSH1 0x0 PUSH1 0x64 PUSH1 0xA PUSH1 0x1 SLOAD PUSH2 0x3F4 SWAP2 SWAP1 PUSH2 0x1C58 JUMP JUMPDEST PUSH2 0x3FE SWAP2 SWAP1 PUSH2 0x1CC9 JUMP JUMPDEST SWAP1 POP PUSH1 0x0 PUSH1 0x64 PUSH1 0xA PUSH1 0x1 SLOAD PUSH2 0x413 SWAP2 SWAP1 PUSH2 0x1C58 JUMP JUMPDEST PUSH2 0x41D SWAP2 SWAP1 PUSH2 0x1CC9 JUMP JUMPDEST SWAP1 POP DUP5 PUSH1 0x1 ADD PUSH1 0x1 DUP7 PUSH1 0x1 ADD DUP1 SLOAD SWAP1 POP PUSH2 0x437 SWAP2 SWAP1 PUSH2 0x1BB8 JUMP JUMPDEST DUP2 SLOAD DUP2 LT PUSH2 0x448 JUMPI PUSH2 0x447 PUSH2 0x1CFA JUMP JUMPDEST JUMPDEST SWAP1 PUSH1 0x0 MSTORE PUSH1 0x20 PUSH1 0x0 KECCAK256 SWAP1 PUSH1 0x3 MUL ADD PUSH1 0x2 ADD PUSH1 0x0 SWAP1 SLOAD SWAP1 PUSH2 0x100 EXP SWAP1 DIV PUSH20 0xFFFFFFFFFFFFFFFFFFFFFFFFFFFFFFFFFFFFFFFF AND PUSH20 0xFFFFFFFFFFFFFFFFFFFFFFFFFFFFFFFFFFFFFFFF AND PUSH2 0x8FC DUP6 SWAP1 DUP2 ISZERO MUL SWAP1 PUSH1 0x40 MLOAD PUSH1 0x0 PUSH1 0x40 MLOAD DUP1 DUP4 SUB DUP2 DUP6 DUP9 DUP9 CALL SWAP4 POP POP POP POP ISZERO DUP1 ISZERO PUSH2 0x4BF JUMPI RETURNDATASIZE PUSH1 0x0 DUP1 RETURNDATACOPY RETURNDATASIZE PUSH1 0x0 REVERT JUMPDEST POP DUP5 PUSH1 0x1 ADD PUSH1 0x2 DUP7 PUSH1 0x1 ADD DUP1 SLOAD SWAP1 POP PUSH2 0x4D8 SWAP2 SWAP1 PUSH2 0x1BB8 JUMP JUMPDEST DUP2 SLOAD DUP2 LT PUSH2 0x4E9 JUMPI PUSH2 0x4E8 PUSH2 0x1CFA JUMP JUMPDEST JUMPDEST SWAP1 PUSH1 0x0 MSTORE PUSH1 0x20 PUSH1 0x0 KECCAK256 SWAP1 PUSH1 0x3 MUL ADD PUSH1 0x2 ADD PUSH1 0x0 SWAP1 SLOAD SWAP1 PUSH2 0x100 EXP SWAP1 DIV PUSH20 0xFFFFFFFFFFFFFFFFFFFFFFFFFFFFFFFFFFFFFFFF AND PUSH20 0xFFFFFFFFFFFFFFFFFFFFFFFFFFFFFFFFFFFFFFFF AND PUSH2 0x8FC DUP5 SWAP1 DUP2 ISZERO MUL SWAP1 PUSH1 0x40 MLOAD PUSH1 0x0 PUSH1 0x40 MLOAD DUP1 DUP4 SUB DUP2 DUP6 DUP9 DUP9 CALL SWAP4 POP POP POP POP ISZERO DUP1 ISZERO PUSH2 0x560 JUMPI RETURNDATASIZE PUSH1 0x0 DUP1 RETURNDATACOPY RETURNDATASIZE PUSH1 0x0 REVERT JUMPDEST POP DUP5 PUSH1 0x1 ADD PUSH1 0x3 DUP7 PUSH1 0x1 ADD DUP1 SLOAD SWAP1 POP PUSH2 0x579 SWAP2 SWAP1 PUSH2 0x1BB8 JUMP JUMPDEST DUP2 SLOAD DUP2 LT PUSH2 0x58A JUMPI PUSH2 0x589 PUSH2 0x1CFA JUMP JUMPDEST JUMPDEST SWAP1 PUSH1 0x0 MSTORE PUSH1 0x20 PUSH1 0x0 KECCAK256 SWAP1 PUSH1 0x3 MUL ADD PUSH1 0x2 ADD PUSH1 0x0 SWAP1 SLOAD SWAP1 PUSH2 0x100 EXP SWAP1 DIV PUSH20 0xFFFFFFFFFFFFFFFFFFFFFFFFFFFFFFFFFFFFFFFF AND PUSH20 0xFFFFFFFFFFFFFFFFFFFFFFFFFFFFFFFFFFFFFFFF AND PUSH2 0x8FC DUP4 SWAP1 DUP2 ISZERO MUL SWAP1 PUSH1 0x40 MLOAD PUSH1 0x0 PUSH1 0x40 MLOAD DUP1 DUP4 SUB DUP2 DUP6 DUP9 DUP9 CALL SWAP4 POP POP POP POP ISZERO DUP1 ISZERO PUSH2 0x601 JUMPI RETURNDATASIZE PUSH1 0x0 DUP1 RETURNDATACOPY RETURNDATASIZE PUSH1 0x0 REVERT JUMPDEST POP DUP5 PUSH1 0x1 ADD PUSH1 0x4 DUP7 PUSH1 0x1 ADD DUP1 SLOAD SWAP1 POP PUSH2 0x61A SWAP2 SWAP1 PUSH2 0x1BB8 JUMP JUMPDEST DUP2 SLOAD DUP2 LT PUSH2 0x62B JUMPI PUSH2 0x62A PUSH2 0x1CFA JUMP JUMPDEST JUMPDEST SWAP1 PUSH1 0x0 MSTORE PUSH1 0x20 PUSH1 0x0 KECCAK256 SWAP1 PUSH1 0x3 MUL ADD PUSH1 0x2 ADD PUSH1 0x0 SWAP1 SLOAD SWAP1 PUSH2 0x100 EXP SWAP1 DIV PUSH20 0xFFFFFFFFFFFFFFFFFFFFFFFFFFFFFFFFFFFFFFFF AND PUSH20 0xFFFFFFFFFFFFFFFFFFFFFFFFFFFFFFFFFFFFFFFF AND PUSH2 0x8FC DUP3 SWAP1 DUP2 ISZERO MUL SWAP1 PUSH1 0x40 MLOAD PUSH1 0x0 PUSH1 0x40 MLOAD DUP1 DUP4 SUB DUP2 DUP6 DUP9 DUP9 CALL SWAP4 POP POP POP POP ISZERO DUP1 ISZERO PUSH2 0x6A2 JUMPI RETURNDATASIZE PUSH1 0x0 DUP1 RETURNDATACOPY RETURNDATASIZE PUSH1 0x0 REVERT JUMPDEST POP POP POP POP POP POP POP POP JUMP JUMPDEST PUSH1 0x0 DUP1 SLOAD SWAP1 PUSH2 0x100 EXP SWAP1 DIV PUSH20 0xFFFFFFFFFFFFFFFFFFFFFFFFFFFFFFFFFFFFFFFF AND PUSH20 0xFFFFFFFFFFFFFFFFFFFFFFFFFFFFFFFFFFFFFFFF AND CALLER PUSH20 0xFFFFFFFFFFFFFFFFFFFFFFFFFFFFFFFFFFFFFFFF AND EQ PUSH2 0x73A JUMPI PUSH1 0x40 MLOAD PUSH32 0x8C379A000000000000000000000000000000000000000000000000000000000 DUP2 MSTORE PUSH1 0x4 ADD PUSH2 0x731 SWAP1 PUSH2 0x1AFD JUMP JUMPDEST PUSH1 0x40 MLOAD DUP1 SWAP2 SUB SWAP1 REVERT JUMPDEST DUP1 PUSH1 0x0 PUSH1 0x2 PUSH1 0x0 DUP4 DUP2 MSTORE PUSH1 0x20 ADD SWAP1 DUP2 MSTORE PUSH1 0x20 ADD PUSH1 0x0 KECCAK256 PUSH1 0x0 ADD DUP1 SLOAD SWAP1 POP GT PUSH2 0x797 JUMPI PUSH1 0x40 MLOAD PUSH32 0x8C379A000000000000000000000000000000000000000000000000000000000 DUP2 MSTORE PUSH1 0x4 ADD PUSH2 0x78E SWAP1 PUSH2 0x1B69 JUMP JUMPDEST PUSH1 0x40 MLOAD DUP1 SWAP2 SUB SWAP1 REVERT JUMPDEST PUSH1 0x0 PUSH1 0x2 PUSH1 0x0 DUP5 DUP2 MSTORE PUSH1 0x20 ADD SWAP1 DUP2 MSTORE PUSH1 0x20 ADD PUSH1 0x0 KECCAK256 SWAP1 POP PUSH1 0x0 DUP2 PUSH1 0x0 ADD DUP1 SLOAD SWAP1 POP SWAP1 POP PUSH1 0x0 PUSH1 0x2 DUP3 PUSH2 0x7C9 SWAP2 SWAP1 PUSH2 0x1D29 JUMP JUMPDEST EQ PUSH2 0x809 JUMPI PUSH1 0x40 MLOAD PUSH32 0x8C379A000000000000000000000000000000000000000000000000000000000 DUP2 MSTORE PUSH1 0x4 ADD PUSH2 0x800 SWAP1 PUSH2 0x1DA6 JUMP JUMPDEST PUSH1 0x40 MLOAD DUP1 SWAP2 SUB SWAP1 REVERT JUMPDEST PUSH1 0x1 DUP2 PUSH2 0x816 SWAP2 SWAP1 PUSH2 0x1BB8 JUMP JUMPDEST DUP3 PUSH1 0x1 ADD DUP1 SLOAD SWAP1 POP LT PUSH2 0x85E JUMPI PUSH1 0x40 MLOAD PUSH32 0x8C379A000000000000000000000000000000000000000000000000000000000 DUP2 MSTORE PUSH1 0x4 ADD PUSH2 0x855 SWAP1 PUSH2 0x1E12 JUMP JUMPDEST PUSH1 0x40 MLOAD DUP1 SWAP2 SUB SWAP1 REVERT JUMPDEST PUSH1 0x0 JUMPDEST PUSH1 0x2 DUP3 PUSH2 0x86E SWAP2 SWAP1 PUSH2 0x1CC9 JUMP JUMPDEST DUP2 LT ISZERO PUSH2 0xAD7 JUMPI DUP3 PUSH1 0x1 ADD PUSH1 0x40 MLOAD DUP1 PUSH1 0x80 ADD PUSH1 0x40 MSTORE DUP1 DUP6 PUSH1 0x0 ADD PUSH1 0x2 DUP6 PUSH2 0x895 SWAP2 SWAP1 PUSH2 0x1C58 JUMP JUMPDEST DUP2 SLOAD DUP2 LT PUSH2 0x8A6 JUMPI PUSH2 0x8A5 PUSH2 0x1CFA JUMP JUMPDEST JUMPDEST SWAP1 PUSH1 0x0 MSTORE PUSH1 0x20 PUSH1 0x0 KECCAK256 ADD PUSH1 0x0 SWAP1 SLOAD SWAP1 PUSH2 0x100 EXP SWAP1 DIV PUSH20 0xFFFFFFFFFFFFFFFFFFFFFFFFFFFFFFFFFFFFFFFF AND PUSH20 0xFFFFFFFFFFFFFFFFFFFFFFFFFFFFFFFFFFFFFFFF AND DUP2 MSTORE PUSH1 0x20 ADD DUP6 PUSH1 0x0 ADD PUSH1 0x1 PUSH1 0x2 DUP7 PUSH2 0x8FF SWAP2 SWAP1 PUSH2 0x1C58 JUMP JUMPDEST PUSH2 0x909 SWAP2 SWAP1 PUSH2 0x1E32 JUMP JUMPDEST DUP2 SLOAD DUP2 LT PUSH2 0x91A JUMPI PUSH2 0x919 PUSH2 0x1CFA JUMP JUMPDEST JUMPDEST SWAP1 PUSH1 0x0 MSTORE PUSH1 0x20 PUSH1 0x0 KECCAK256 ADD PUSH1 0x0 SWAP1 SLOAD SWAP1 PUSH2 0x100 EXP SWAP1 DIV PUSH20 0xFFFFFFFFFFFFFFFFFFFFFFFFFFFFFFFFFFFFFFFF AND PUSH20 0xFFFFFFFFFFFFFFFFFFFFFFFFFFFFFFFFFFFFFFFF AND DUP2 MSTORE PUSH1 0x20 ADD PUSH1 0x0 PUSH20 0xFFFFFFFFFFFFFFFFFFFFFFFFFFFFFFFFFFFFFFFF AND DUP2 MSTORE PUSH1 0x20 ADD PUSH1 0x0 PUSH1 0x1 DUP2 GT ISZERO PUSH2 0x991 JUMPI PUSH2 0x990 PUSH2 0x1909 JUMP JUMPDEST JUMPDEST DUP2 MSTORE POP SWAP1 DUP1 PUSH1 0x1 DUP2 SLOAD ADD DUP1 DUP3 SSTORE DUP1 SWAP2 POP POP PUSH1 0x1 SWAP1 SUB SWAP1 PUSH1 0x0 MSTORE PUSH1 0x20 PUSH1 0x0 KECCAK256 SWAP1 PUSH1 0x3 MUL ADD PUSH1 0x0 SWAP1 SWAP2 SWAP1 SWAP2 SWAP1 SWAP2 POP PUSH1 0x0 DUP3 ADD MLOAD DUP2 PUSH1 0x0 ADD PUSH1 0x0 PUSH2 0x100 EXP DUP2 SLOAD DUP2 PUSH20 0xFFFFFFFFFFFFFFFFFFFFFFFFFFFFFFFFFFFFFFFF MUL NOT AND SWAP1 DUP4 PUSH20 0xFFFFFFFFFFFFFFFFFFFFFFFFFFFFFFFFFFFFFFFF AND MUL OR SWAP1 SSTORE POP PUSH1 0x20 DUP3 ADD MLOAD DUP2 PUSH1 0x1 ADD PUSH1 0x0 PUSH2 0x100 EXP DUP2 SLOAD DUP2 PUSH20 0xFFFFFFFFFFFFFFFFFFFFFFFFFFFFFFFFFFFFFFFF MUL NOT AND SWAP1 DUP4 PUSH20 0xFFFFFFFFFFFFFFFFFFFFFFFFFFFFFFFFFFFFFFFF AND MUL OR SWAP1 SSTORE POP PUSH1 0x40 DUP3 ADD MLOAD DUP2 PUSH1 0x2 ADD PUSH1 0x0 PUSH2 0x100 EXP DUP2 SLOAD DUP2 PUSH20 0xFFFFFFFFFFFFFFFFFFFFFFFFFFFFFFFFFFFFFFFF MUL NOT AND SWAP1 DUP4 PUSH20 0xFFFFFFFFFFFFFFFFFFFFFFFFFFFFFFFFFFFFFFFF AND MUL OR SWAP1 SSTORE POP PUSH1 0x60 DUP3 ADD MLOAD DUP2 PUSH1 0x2 ADD PUSH1 0x14 PUSH2 0x100 EXP DUP2 SLOAD DUP2 PUSH1 0xFF MUL NOT AND SWAP1 DUP4 PUSH1 0x1 DUP2 GT ISZERO PUSH2 0xABD JUMPI PUSH2 0xABC PUSH2 0x1909 JUMP JUMPDEST JUMPDEST MUL OR SWAP1 SSTORE POP POP POP DUP1 DUP1 PUSH2 0xACF SWAP1 PUSH2 0x1E66 JUMP JUMPDEST SWAP2 POP POP PUSH2 0x861 JUMP JUMPDEST POP PUSH1 0x0 PUSH1 0x3 DUP2 SWAP1 SSTORE POP POP POP POP POP JUMP JUMPDEST PUSH1 0x1 SLOAD DUP2 JUMP JUMPDEST PUSH1 0x0 PUSH1 0x2 PUSH1 0x0 DUP6 DUP2 MSTORE PUSH1 0x20 ADD SWAP1 DUP2 MSTORE PUSH1 0x20 ADD PUSH1 0x0 KECCAK256 SWAP1 POP PUSH1 0x0 DUP2 PUSH1 0x1 ADD DUP5 DUP2 SLOAD DUP2 LT PUSH2 0xB1B JUMPI PUSH2 0xB1A PUSH2 0x1CFA JUMP JUMPDEST JUMPDEST SWAP1 PUSH1 0x0 MSTORE PUSH1 0x20 PUSH1 0x0 KECCAK256 SWAP1 PUSH1 0x3 MUL ADD SWAP1 POP DUP3 DUP2 PUSH1 0x2 ADD PUSH1 0x0 PUSH2 0x100 EXP DUP2 SLOAD DUP2 PUSH20 0xFFFFFFFFFFFFFFFFFFFFFFFFFFFFFFFFFFFFFFFF MUL NOT AND SWAP1 DUP4 PUSH20 0xFFFFFFFFFFFFFFFFFFFFFFFFFFFFFFFFFFFFFFFF AND MUL OR SWAP1 SSTORE POP PUSH1 0x1 DUP2 PUSH1 0x2 ADD PUSH1 0x14 PUSH2 0x100 EXP DUP2 SLOAD DUP2 PUSH1 0xFF MUL NOT AND SWAP1 DUP4 PUSH1 0x1 DUP2 GT ISZERO PUSH2 0xB96 JUMPI PUSH2 0xB95 PUSH2 0x1909 JUMP JUMPDEST JUMPDEST MUL OR SWAP1 SSTORE POP PUSH1 0x2 DUP3 PUSH1 0x0 ADD DUP1 SLOAD SWAP1 POP PUSH2 0xBAF SWAP2 SWAP1 PUSH2 0x1CC9 JUMP JUMPDEST DUP5 LT ISZERO PUSH2 0xC20 JUMPI DUP2 PUSH1 0x2 ADD DUP4 SWAP1 DUP1 PUSH1 0x1 DUP2 SLOAD ADD DUP1 DUP3 SSTORE DUP1 SWAP2 POP POP PUSH1 0x1 SWAP1 SUB SWAP1 PUSH1 0x0 MSTORE PUSH1 0x20 PUSH1 0x0 KECCAK256 ADD PUSH1 0x0 SWAP1 SWAP2 SWAP1 SWAP2 SWAP1 SWAP2 PUSH2 0x100 EXP DUP2 SLOAD DUP2 PUSH20 0xFFFFFFFFFFFFFFFFFFFFFFFFFFFFFFFFFFFFFFFF MUL NOT AND SWAP1 DUP4 PUSH20 0xFFFFFFFFFFFFFFFFFFFFFFFFFFFFFFFFFFFFFFFF AND MUL OR SWAP1 SSTORE POP PUSH2 0xCC0 JUMP JUMPDEST PUSH1 0x2 DUP3 PUSH1 0x2 ADD DUP1 SLOAD SWAP1 POP PUSH2 0xC34 SWAP2 SWAP1 PUSH2 0x1CC9 JUMP JUMPDEST PUSH1 0x2 DUP4 PUSH1 0x0 ADD DUP1 SLOAD SWAP1 POP PUSH2 0xC48 SWAP2 SWAP1 PUSH2 0x1CC9 JUMP JUMPDEST PUSH2 0xC52 SWAP2 SWAP1 PUSH2 0x1E32 JUMP JUMPDEST DUP5 LT ISZERO PUSH2 0xCBF JUMPI DUP2 PUSH1 0x3 ADD DUP4 SWAP1 DUP1 PUSH1 0x1 DUP2 SLOAD ADD DUP1 DUP3 SSTORE DUP1 SWAP2 POP POP PUSH1 0x1 SWAP1 SUB SWAP1 PUSH1 0x0 MSTORE PUSH1 0x20 PUSH1 0x0 KECCAK256 ADD PUSH1 0x0 SWAP1 SWAP2 SWAP1 SWAP2 SWAP1 SWAP2 PUSH2 0x100 EXP DUP2 SLOAD DUP2 PUSH20 0xFFFFFFFFFFFFFFFFFFFFFFFFFFFFFFFFFFFFFFFF MUL NOT AND SWAP1 DUP4 PUSH20 0xFFFFFFFFFFFFFFFFFFFFFFFFFFFFFFFFFFFFFFFF AND MUL OR SWAP1 SSTORE POP JUMPDEST JUMPDEST PUSH1 0x1 PUSH1 0x2 DUP4 PUSH1 0x0 ADD DUP1 SLOAD SWAP1 POP PUSH2 0xCD6 SWAP2 SWAP1 PUSH2 0x1CC9 JUMP JUMPDEST PUSH2 0xCE0 SWAP2 SWAP1 PUSH2 0x1BB8 JUMP JUMPDEST DUP5 EQ DUP1 PUSH2 0xD29 JUMPI POP PUSH1 0x1 PUSH1 0x2 DUP4 PUSH1 0x2 ADD DUP1 SLOAD SWAP1 POP PUSH2 0xCFE SWAP2 SWAP1 PUSH2 0x1CC9 JUMP JUMPDEST PUSH1 0x2 DUP5 PUSH1 0x0 ADD DUP1 SLOAD SWAP1 POP PUSH2 0xD12 SWAP2 SWAP1 PUSH2 0x1CC9 JUMP JUMPDEST PUSH2 0xD1C SWAP2 SWAP1 PUSH2 0x1E32 JUMP JUMPDEST PUSH2 0xD26 SWAP2 SWAP1 PUSH2 0x1BB8 JUMP JUMPDEST DUP5 EQ JUMPDEST ISZERO PUSH2 0xFE0 JUMPI PUSH1 0x0 PUSH1 0x1 PUSH1 0x2 DUP5 PUSH1 0x0 ADD DUP1 SLOAD SWAP1 POP PUSH2 0xD46 SWAP2 SWAP1 PUSH2 0x1CC9 JUMP JUMPDEST PUSH2 0xD50 SWAP2 SWAP1 PUSH2 0x1BB8 JUMP JUMPDEST DUP6 EQ PUSH2 0xD5F JUMPI DUP3 PUSH1 0x3 ADD PUSH2 0xD64 JUMP JUMPDEST DUP3 PUSH1 0x2 ADD JUMPDEST SWAP1 POP PUSH1 0x0 JUMPDEST PUSH1 0x2 DUP3 DUP1 SLOAD SWAP1 POP PUSH2 0xD7A SWAP2 SWAP1 PUSH2 0x1CC9 JUMP JUMPDEST DUP2 LT ISZERO PUSH2 0xFDD JUMPI DUP4 PUSH1 0x1 ADD PUSH1 0x40 MLOAD DUP1 PUSH1 0x80 ADD PUSH1 0x40 MSTORE DUP1 DUP5 PUSH1 0x2 DUP6 PUSH2 0xD9E SWAP2 SWAP1 PUSH2 0x1C58 JUMP JUMPDEST DUP2 SLOAD DUP2 LT PUSH2 0xDAF JUMPI PUSH2 0xDAE PUSH2 0x1CFA JUMP JUMPDEST JUMPDEST SWAP1 PUSH1 0x0 MSTORE PUSH1 0x20 PUSH1 0x0 KECCAK256 ADD PUSH1 0x0 SWAP1 SLOAD SWAP1 PUSH2 0x100 EXP SWAP1 DIV PUSH20 0xFFFFFFFFFFFFFFFFFFFFFFFFFFFFFFFFFFFFFFFF AND PUSH20 0xFFFFFFFFFFFFFFFFFFFFFFFFFFFFFFFFFFFFFFFF AND DUP2 MSTORE PUSH1 0x20 ADD DUP5 PUSH1 0x1 PUSH1 0x2 DUP7 PUSH2 0xE05 SWAP2 SWAP1 PUSH2 0x1C58 JUMP JUMPDEST PUSH2 0xE0F SWAP2 SWAP1 PUSH2 0x1E32 JUMP JUMPDEST DUP2 SLOAD DUP2 LT PUSH2 0xE20 JUMPI PUSH2 0xE1F PUSH2 0x1CFA JUMP JUMPDEST JUMPDEST SWAP1 PUSH1 0x0 MSTORE PUSH1 0x20 PUSH1 0x0 KECCAK256 ADD PUSH1 0x0 SWAP1 SLOAD SWAP1 PUSH2 0x100 EXP SWAP1 DIV PUSH20 0xFFFFFFFFFFFFFFFFFFFFFFFFFFFFFFFFFFFFFFFF AND PUSH20 0xFFFFFFFFFFFFFFFFFFFFFFFFFFFFFFFFFFFFFFFF AND DUP2 MSTORE PUSH1 0x20 ADD PUSH1 0x0 PUSH20 0xFFFFFFFFFFFFFFFFFFFFFFFFFFFFFFFFFFFFFFFF AND DUP2 MSTORE PUSH1 0x20 ADD PUSH1 0x0 PUSH1 0x1 DUP2 GT ISZERO PUSH2 0xE97 JUMPI PUSH2 0xE96 PUSH2 0x1909 JUMP JUMPDEST JUMPDEST DUP2 MSTORE POP SWAP1 DUP1 PUSH1 0x1 DUP2 SLOAD ADD DUP1 DUP3 SSTORE DUP1 SWAP2 POP POP PUSH1 0x1 SWAP1 SUB SWAP1 PUSH1 0x0 MSTORE PUSH1 0x20 PUSH1 0x0 KECCAK256 SWAP1 PUSH1 0x3 MUL ADD PUSH1 0x0 SWAP1 SWAP2 SWAP1 SWAP2 SWAP1 SWAP2 POP PUSH1 0x0 DUP3 ADD MLOAD DUP2 PUSH1 0x0 ADD PUSH1 0x0 PUSH2 0x100 EXP DUP2 SLOAD DUP2 PUSH20 0xFFFFFFFFFFFFFFFFFFFFFFFFFFFFFFFFFFFFFFFF MUL NOT AND SWAP1 DUP4 PUSH20 0xFFFFFFFFFFFFFFFFFFFFFFFFFFFFFFFFFFFFFFFF AND MUL OR SWAP1 SSTORE POP PUSH1 0x20 DUP3 ADD MLOAD DUP2 PUSH1 0x1 ADD PUSH1 0x0 PUSH2 0x100 EXP DUP2 SLOAD DUP2 PUSH20 0xFFFFFFFFFFFFFFFFFFFFFFFFFFFFFFFFFFFFFFFF MUL NOT AND SWAP1 DUP4 PUSH20 0xFFFFFFFFFFFFFFFFFFFFFFFFFFFFFFFFFFFFFFFF AND MUL OR SWAP1 SSTORE POP PUSH1 0x40 DUP3 ADD MLOAD DUP2 PUSH1 0x2 ADD PUSH1 0x0 PUSH2 0x100 EXP DUP2 SLOAD DUP2 PUSH20 0xFFFFFFFFFFFFFFFFFFFFFFFFFFFFFFFFFFFFFFFF MUL NOT AND SWAP1 DUP4 PUSH20 0xFFFFFFFFFFFFFFFFFFFFFFFFFFFFFFFFFFFFFFFF AND MUL OR SWAP1 SSTORE POP PUSH1 0x60 DUP3 ADD MLOAD DUP2 PUSH1 0x2 ADD PUSH1 0x14 PUSH2 0x100 EXP DUP2 SLOAD DUP2 PUSH1 0xFF MUL NOT AND SWAP1 DUP4 PUSH1 0x1 DUP2 GT ISZERO PUSH2 0xFC3 JUMPI PUSH2 0xFC2 PUSH2 0x1909 JUMP JUMPDEST JUMPDEST MUL OR SWAP1 SSTORE POP POP POP DUP1 DUP1 PUSH2 0xFD5 SWAP1 PUSH2 0x1E66 JUMP JUMPDEST SWAP2 POP POP PUSH2 0xD69 JUMP JUMPDEST POP POP JUMPDEST POP POP POP POP POP JUMP JUMPDEST PUSH1 0x60 PUSH1 0x2 PUSH1 0x0 DUP4 DUP2 MSTORE PUSH1 0x20 ADD SWAP1 DUP2 MSTORE PUSH1 0x20 ADD PUSH1 0x0 KECCAK256 PUSH1 0x0 ADD DUP1 SLOAD DUP1 PUSH1 0x20 MUL PUSH1 0x20 ADD PUSH1 0x40 MLOAD SWAP1 DUP2 ADD PUSH1 0x40 MSTORE DUP1 SWAP3 SWAP2 SWAP1 DUP2 DUP2 MSTORE PUSH1 0x20 ADD DUP3 DUP1 SLOAD DUP1 ISZERO PUSH2 0x107F JUMPI PUSH1 0x20 MUL DUP3 ADD SWAP2 SWAP1 PUSH1 0x0 MSTORE PUSH1 0x20 PUSH1 0x0 KECCAK256 SWAP1 JUMPDEST DUP2 PUSH1 0x0 SWAP1 SLOAD SWAP1 PUSH2 0x100 EXP SWAP1 DIV PUSH20 0xFFFFFFFFFFFFFFFFFFFFFFFFFFFFFFFFFFFFFFFF AND PUSH20 0xFFFFFFFFFFFFFFFFFFFFFFFFFFFFFFFFFFFFFFFF AND DUP2 MSTORE PUSH1 0x20 ADD SWAP1 PUSH1 0x1 ADD SWAP1 DUP1 DUP4 GT PUSH2 0x1035 JUMPI JUMPDEST POP POP POP POP POP SWAP1 POP SWAP2 SWAP1 POP JUMP JUMPDEST PUSH1 0x0 DUP1 SLOAD SWAP1 PUSH2 0x100 EXP SWAP1 DIV PUSH20 0xFFFFFFFFFFFFFFFFFFFFFFFFFFFFFFFFFFFFFFFF AND DUP2 JUMP JUMPDEST PUSH1 0x0 DUP1 SLOAD SWAP1 PUSH2 0x100 EXP SWAP1 DIV PUSH20 0xFFFFFFFFFFFFFFFFFFFFFFFFFFFFFFFFFFFFFFFF AND PUSH20 0xFFFFFFFFFFFFFFFFFFFFFFFFFFFFFFFFFFFFFFFF AND CALLER PUSH20 0xFFFFFFFFFFFFFFFFFFFFFFFFFFFFFFFFFFFFFFFF AND EQ PUSH2 0x113D JUMPI PUSH1 0x40 MLOAD PUSH32 0x8C379A000000000000000000000000000000000000000000000000000000000 DUP2 MSTORE PUSH1 0x4 ADD PUSH2 0x1134 SWAP1 PUSH2 0x1AFD JUMP JUMPDEST PUSH1 0x40 MLOAD DUP1 SWAP2 SUB SWAP1 REVERT JUMPDEST DUP2 PUSH1 0x0 PUSH1 0x2 PUSH1 0x0 DUP4 DUP2 MSTORE PUSH1 0x20 ADD SWAP1 DUP2 MSTORE PUSH1 0x20 ADD PUSH1 0x0 KECCAK256 PUSH1 0x1 ADD DUP1 SLOAD SWAP1 POP EQ PUSH2 0x119A JUMPI PUSH1 0x40 MLOAD PUSH32 0x8C379A000000000000000000000000000000000000000000000000000000000 DUP2 MSTORE PUSH1 0x4 ADD PUSH2 0x1191 SWAP1 PUSH2 0x1E12 JUMP JUMPDEST PUSH1 0x40 MLOAD DUP1 SWAP2 SUB SWAP1 REVERT JUMPDEST PUSH1 0x8 DUP3 MLOAD EQ DUP1 PUSH2 0x11AB JUMPI POP PUSH1 0x10 DUP3 MLOAD EQ JUMPDEST PUSH2 0x11EA JUMPI PUSH1 0x40 MLOAD PUSH32 0x8C379A000000000000000000000000000000000000000000000000000000000 DUP2 MSTORE PUSH1 0x4 ADD PUSH2 0x11E1 SWAP1 PUSH2 0x1EFA JUMP JUMPDEST PUSH1 0x40 MLOAD DUP1 SWAP2 SUB SWAP1 REVERT JUMPDEST PUSH1 0x0 PUSH1 0x2 PUSH1 0x0 DUP6 DUP2 MSTORE PUSH1 0x20 ADD SWAP1 DUP2 MSTORE PUSH1 0x20 ADD PUSH1 0x0 KECCAK256 SWAP1 POP DUP3 DUP2 PUSH1 0x0 ADD SWAP1 DUP1 MLOAD SWAP1 PUSH1 0x20 ADD SWAP1 PUSH2 0x1219 SWAP3 SWAP2 SWAP1 PUSH2 0x1425 JUMP JUMPDEST POP DUP4 PUSH32 0xA47122C4660339CF88308783D3C2A9ED10D7809CC28E552E580A7A89722F6DA9 DUP5 PUSH1 0x40 MLOAD PUSH2 0x124A SWAP2 SWAP1 PUSH2 0x16DC JUMP JUMPDEST PUSH1 0x40 MLOAD DUP1 SWAP2 SUB SWAP1 LOG2 POP POP POP POP JUMP JUMPDEST CALLVALUE PUSH1 0x1 PUSH1 0x0 DUP3 DUP3 SLOAD PUSH2 0x126A SWAP2 SWAP1 PUSH2 0x1E32 JUMP JUMPDEST SWAP3 POP POP DUP2 SWAP1 SSTORE POP JUMP JUMPDEST PUSH1 0x60 PUSH1 0x2 PUSH1 0x0 DUP4 DUP2 MSTORE PUSH1 0x20 ADD SWAP1 DUP2 MSTORE PUSH1 0x20 ADD PUSH1 0x0 KECCAK256 PUSH1 0x1 ADD DUP1 SLOAD DUP1 PUSH1 0x20 MUL PUSH1 0x20 ADD PUSH1 0x40 MLOAD SWAP1 DUP2 ADD PUSH1 0x40 MSTORE DUP1 SWAP3 SWAP2 SWAP1 DUP2 DUP2 MSTORE PUSH1 0x20 ADD PUSH1 0x0 SWAP1 JUMPDEST DUP3 DUP3 LT ISZERO PUSH2 0x141A JUMPI DUP4 DUP3 SWAP1 PUSH1 0x0 MSTORE PUSH1 0x20 PUSH1 0x0 KECCAK256 SWAP1 PUSH1 0x3 MUL ADD PUSH1 0x40 MLOAD DUP1 PUSH1 0x80 ADD PUSH1 0x40 MSTORE SWAP1 DUP2 PUSH1 0x0 DUP3 ADD PUSH1 0x0 SWAP1 SLOAD SWAP1 PUSH2 0x100 EXP SWAP1 DIV PUSH20 0xFFFFFFFFFFFFFFFFFFFFFFFFFFFFFFFFFFFFFFFF AND PUSH20 0xFFFFFFFFFFFFFFFFFFFFFFFFFFFFFFFFFFFFFFFF AND PUSH20 0xFFFFFFFFFFFFFFFFFFFFFFFFFFFFFFFFFFFFFFFF AND DUP2 MSTORE PUSH1 0x20 ADD PUSH1 0x1 DUP3 ADD PUSH1 0x0 SWAP1 SLOAD SWAP1 PUSH2 0x100 EXP SWAP1 DIV PUSH20 0xFFFFFFFFFFFFFFFFFFFFFFFFFFFFFFFFFFFFFFFF AND PUSH20 0xFFFFFFFFFFFFFFFFFFFFFFFFFFFFFFFFFFFFFFFF AND PUSH20 0xFFFFFFFFFFFFFFFFFFFFFFFFFFFFFFFFFFFFFFFF AND DUP2 MSTORE PUSH1 0x20 ADD PUSH1 0x2 DUP3 ADD PUSH1 0x0 SWAP1 SLOAD SWAP1 PUSH2 0x100 EXP SWAP1 DIV PUSH20 0xFFFFFFFFFFFFFFFFFFFFFFFFFFFFFFFFFFFFFFFF AND PUSH20 0xFFFFFFFFFFFFFFFFFFFFFFFFFFFFFFFFFFFFFFFF AND PUSH20 0xFFFFFFFFFFFFFFFFFFFFFFFFFFFFFFFFFFFFFFFF AND DUP2 MSTORE PUSH1 0x20 ADD PUSH1 0x2 DUP3 ADD PUSH1 0x14 SWAP1 SLOAD SWAP1 PUSH2 0x100 EXP SWAP1 DIV PUSH1 0xFF AND PUSH1 0x1 DUP2 GT ISZERO PUSH2 0x13F5 JUMPI PUSH2 0x13F4 PUSH2 0x1909 JUMP JUMPDEST JUMPDEST PUSH1 0x1 DUP2 GT ISZERO PUSH2 0x1407 JUMPI PUSH2 0x1406 PUSH2 0x1909 JUMP JUMPDEST JUMPDEST DUP2 MSTORE POP POP DUP2 MSTORE PUSH1 0x20 ADD SWAP1 PUSH1 0x1 ADD SWAP1 PUSH2 0x12AB JUMP JUMPDEST POP POP POP POP SWAP1 POP SWAP2 SWAP1 POP JUMP JUMPDEST DUP3 DUP1 SLOAD DUP3 DUP3 SSTORE SWAP1 PUSH1 0x0 MSTORE PUSH1 0x20 PUSH1 0x0 KECCAK256 SWAP1 DUP2 ADD SWAP3 DUP3 ISZERO PUSH2 0x149E JUMPI SWAP2 PUSH1 0x20 MUL DUP3 ADD JUMPDEST DUP3 DUP2 GT ISZERO PUSH2 0x149D JUMPI DUP3 MLOAD DUP3 PUSH1 0x0 PUSH2 0x100 EXP DUP2 SLOAD DUP2 PUSH20 0xFFFFFFFFFFFFFFFFFFFFFFFFFFFFFFFFFFFFFFFF MUL NOT AND SWAP1 DUP4 PUSH20 0xFFFFFFFFFFFFFFFFFFFFFFFFFFFFFFFFFFFFFFFF AND MUL OR SWAP1 SSTORE POP SWAP2 PUSH1 0x20 ADD SWAP2 SWAP1 PUSH1 0x1 ADD SWAP1 PUSH2 0x1445 JUMP JUMPDEST JUMPDEST POP SWAP1 POP PUSH2 0x14AB SWAP2 SWAP1 PUSH2 0x14AF JUMP JUMPDEST POP SWAP1 JUMP JUMPDEST JUMPDEST DUP1 DUP3 GT ISZERO PUSH2 0x14C8 JUMPI PUSH1 0x0 DUP2 PUSH1 0x0 SWAP1 SSTORE POP PUSH1 0x1 ADD PUSH2 0x14B0 JUMP JUMPDEST POP SWAP1 JUMP JUMPDEST PUSH1 0x0 DUP2 SWAP1 POP SWAP2 SWAP1 POP JUMP JUMPDEST PUSH2 0x14DF DUP2 PUSH2 0x14CC JUMP JUMPDEST DUP3 MSTORE POP POP JUMP JUMPDEST PUSH1 0x0 PUSH1 0x20 DUP3 ADD SWAP1 POP PUSH2 0x14FA PUSH1 0x0 DUP4 ADD DUP5 PUSH2 0x14D6 JUMP JUMPDEST SWAP3 SWAP2 POP POP JUMP JUMPDEST PUSH1 0x0 PUSH1 0x40 MLOAD SWAP1 POP SWAP1 JUMP JUMPDEST PUSH1 0x0 DUP1 REVERT JUMPDEST PUSH1 0x0 DUP1 REVERT JUMPDEST PUSH2 0x151D DUP2 PUSH2 0x14CC JUMP JUMPDEST DUP2 EQ PUSH2 0x1528 JUMPI PUSH1 0x0 DUP1 REVERT JUMPDEST POP JUMP JUMPDEST PUSH1 0x0 DUP2 CALLDATALOAD SWAP1 POP PUSH2 0x153A DUP2 PUSH2 0x1514 JUMP JUMPDEST SWAP3 SWAP2 POP POP JUMP JUMPDEST PUSH1 0x0 PUSH1 0x20 DUP3 DUP5 SUB SLT ISZERO PUSH2 0x1556 JUMPI PUSH2 0x1555 PUSH2 0x150A JUMP JUMPDEST JUMPDEST PUSH1 0x0 PUSH2 0x1564 DUP5 DUP3 DUP6 ADD PUSH2 0x152B JUMP JUMPDEST SWAP2 POP POP SWAP3 SWAP2 POP POP JUMP JUMPDEST PUSH1 0x0 PUSH20 0xFFFFFFFFFFFFFFFFFFFFFFFFFFFFFFFFFFFFFFFF DUP3 AND SWAP1 POP SWAP2 SWAP1 POP JUMP JUMPDEST PUSH1 0x0 PUSH2 0x1598 DUP3 PUSH2 0x156D JUMP JUMPDEST SWAP1 POP SWAP2 SWAP1 POP JUMP JUMPDEST PUSH2 0x15A8 DUP2 PUSH2 0x158D JUMP JUMPDEST DUP2 EQ PUSH2 0x15B3 JUMPI PUSH1 0x0 DUP1 REVERT JUMPDEST POP JUMP JUMPDEST PUSH1 0x0 DUP2 CALLDATALOAD SWAP1 POP PUSH2 0x15C5 DUP2 PUSH2 0x159F JUMP JUMPDEST SWAP3 SWAP2 POP POP JUMP JUMPDEST PUSH1 0x0 DUP1 PUSH1 0x0 PUSH1 0x60 DUP5 DUP7 SUB SLT ISZERO PUSH2 0x15E4 JUMPI PUSH2 0x15E3 PUSH2 0x150A JUMP JUMPDEST JUMPDEST PUSH1 0x0 PUSH2 0x15F2 DUP7 DUP3 DUP8 ADD PUSH2 0x152B JUMP JUMPDEST SWAP4 POP POP PUSH1 0x20 PUSH2 0x1603 DUP7 DUP3 DUP8 ADD PUSH2 0x152B JUMP JUMPDEST SWAP3 POP POP PUSH1 0x40 PUSH2 0x1614 DUP7 DUP3 DUP8 ADD PUSH2 0x15B6 JUMP JUMPDEST SWAP2 POP POP SWAP3 POP SWAP3 POP SWAP3 JUMP JUMPDEST PUSH1 0x0 DUP2 MLOAD SWAP1 POP SWAP2 SWAP1 POP JUMP JUMPDEST PUSH1 0x0 DUP3 DUP3 MSTORE PUSH1 0x20 DUP3 ADD SWAP1 POP SWAP3 SWAP2 POP POP JUMP JUMPDEST PUSH1 0x0 DUP2 SWAP1 POP PUSH1 0x20 DUP3 ADD SWAP1 POP SWAP2 SWAP1 POP JUMP JUMPDEST PUSH2 0x1653 DUP2 PUSH2 0x158D JUMP JUMPDEST DUP3 MSTORE POP POP JUMP JUMPDEST PUSH1 0x0 PUSH2 0x1665 DUP4 DUP4 PUSH2 0x164A JUMP JUMPDEST PUSH1 0x20 DUP4 ADD SWAP1 POP SWAP3 SWAP2 POP POP JUMP JUMPDEST PUSH1 0x0 PUSH1 0x20 DUP3 ADD SWAP1 POP SWAP2 SWAP1 POP JUMP JUMPDEST PUSH1 0x0 PUSH2 0x1689 DUP3 PUSH2 0x161E JUMP JUMPDEST PUSH2 0x1693 DUP2 DUP6 PUSH2 0x1629 JUMP JUMPDEST SWAP4 POP PUSH2 0x169E DUP4 PUSH2 0x163A JUMP JUMPDEST DUP1 PUSH1 0x0 JUMPDEST DUP4 DUP2 LT ISZERO PUSH2 0x16CF JUMPI DUP2 MLOAD PUSH2 0x16B6 DUP9 DUP3 PUSH2 0x1659 JUMP JUMPDEST SWAP8 POP PUSH2 0x16C1 DUP4 PUSH2 0x1671 JUMP JUMPDEST SWAP3 POP POP PUSH1 0x1 DUP2 ADD SWAP1 POP PUSH2 0x16A2 JUMP JUMPDEST POP DUP6 SWAP4 POP POP POP POP SWAP3 SWAP2 POP POP JUMP JUMPDEST PUSH1 0x0 PUSH1 0x20 DUP3 ADD SWAP1 POP DUP2 DUP2 SUB PUSH1 0x0 DUP4 ADD MSTORE PUSH2 0x16F6 DUP2 DUP5 PUSH2 0x167E JUMP JUMPDEST SWAP1 POP SWAP3 SWAP2 POP POP JUMP JUMPDEST PUSH2 0x1707 DUP2 PUSH2 0x158D JUMP JUMPDEST DUP3 MSTORE POP POP JUMP JUMPDEST PUSH1 0x0 PUSH1 0x20 DUP3 ADD SWAP1 POP PUSH2 0x1722 PUSH1 0x0 DUP4 ADD DUP5 PUSH2 0x16FE JUMP JUMPDEST SWAP3 SWAP2 POP POP JUMP JUMPDEST PUSH1 0x0 DUP1 REVERT JUMPDEST PUSH1 0x0 PUSH1 0x1F NOT PUSH1 0x1F DUP4 ADD AND SWAP1 POP SWAP2 SWAP1 POP JUMP JUMPDEST PUSH32 0x4E487B7100000000000000000000000000000000000000000000000000000000 PUSH1 0x0 MSTORE PUSH1 0x41 PUSH1 0x4 MSTORE PUSH1 0x24 PUSH1 0x0 REVERT JUMPDEST PUSH2 0x1776 DUP3 PUSH2 0x172D JUMP JUMPDEST DUP2 ADD DUP2 DUP2 LT PUSH8 0xFFFFFFFFFFFFFFFF DUP3 GT OR ISZERO PUSH2 0x1795 JUMPI PUSH2 0x1794 PUSH2 0x173E JUMP JUMPDEST JUMPDEST DUP1 PUSH1 0x40 MSTORE POP POP POP JUMP JUMPDEST PUSH1 0x0 PUSH2 0x17A8 PUSH2 0x1500 JUMP JUMPDEST SWAP1 POP PUSH2 0x17B4 DUP3 DUP3 PUSH2 0x176D JUMP JUMPDEST SWAP2 SWAP1 POP JUMP JUMPDEST PUSH1 0x0 PUSH8 0xFFFFFFFFFFFFFFFF DUP3 GT ISZERO PUSH2 0x17D4 JUMPI PUSH2 0x17D3 PUSH2 0x173E JUMP JUMPDEST JUMPDEST PUSH1 0x20 DUP3 MUL SWAP1 POP PUSH1 0x20 DUP2 ADD SWAP1 POP SWAP2 SWAP1 POP JUMP JUMPDEST PUSH1 0x0 DUP1 REVERT JUMPDEST PUSH1 0x0 PUSH2 0x17FD PUSH2 0x17F8 DUP5 PUSH2 0x17B9 JUMP JUMPDEST PUSH2 0x179E JUMP JUMPDEST SWAP1 POP DUP1 DUP4 DUP3 MSTORE PUSH1 0x20 DUP3 ADD SWAP1 POP PUSH1 0x20 DUP5 MUL DUP4 ADD DUP6 DUP2 GT ISZERO PUSH2 0x1820 JUMPI PUSH2 0x181F PUSH2 0x17E5 JUMP JUMPDEST JUMPDEST DUP4 JUMPDEST DUP2 DUP2 LT ISZERO PUSH2 0x1849 JUMPI DUP1 PUSH2 0x1835 DUP9 DUP3 PUSH2 0x15B6 JUMP JUMPDEST DUP5 MSTORE PUSH1 0x20 DUP5 ADD SWAP4 POP POP PUSH1 0x20 DUP2 ADD SWAP1 POP PUSH2 0x1822 JUMP JUMPDEST POP POP POP SWAP4 SWAP3 POP POP POP JUMP JUMPDEST PUSH1 0x0 DUP3 PUSH1 0x1F DUP4 ADD SLT PUSH2 0x1868 JUMPI PUSH2 0x1867 PUSH2 0x1728 JUMP JUMPDEST JUMPDEST DUP2 CALLDATALOAD PUSH2 0x1878 DUP5 DUP3 PUSH1 0x20 DUP7 ADD PUSH2 0x17EA JUMP JUMPDEST SWAP2 POP POP SWAP3 SWAP2 POP POP JUMP JUMPDEST PUSH1 0x0 DUP1 PUSH1 0x40 DUP4 DUP6 SUB SLT ISZERO PUSH2 0x1898 JUMPI PUSH2 0x1897 PUSH2 0x150A JUMP JUMPDEST JUMPDEST PUSH1 0x0 PUSH2 0x18A6 DUP6 DUP3 DUP7 ADD PUSH2 0x152B JUMP JUMPDEST SWAP3 POP POP PUSH1 0x20 DUP4 ADD CALLDATALOAD PUSH8 0xFFFFFFFFFFFFFFFF DUP2 GT ISZERO PUSH2 0x18C7 JUMPI PUSH2 0x18C6 PUSH2 0x150F JUMP JUMPDEST JUMPDEST PUSH2 0x18D3 DUP6 DUP3 DUP7 ADD PUSH2 0x1853 JUMP JUMPDEST SWAP2 POP POP SWAP3 POP SWAP3 SWAP1 POP JUMP JUMPDEST PUSH1 0x0 DUP2 MLOAD SWAP1 POP SWAP2 SWAP1 POP JUMP JUMPDEST PUSH1 0x0 DUP3 DUP3 MSTORE PUSH1 0x20 DUP3 ADD SWAP1 POP SWAP3 SWAP2 POP POP JUMP JUMPDEST PUSH1 0x0 DUP2 SWAP1 POP PUSH1 0x20 DUP3 ADD SWAP1 POP SWAP2 SWAP1 POP JUMP JUMPDEST PUSH32 0x4E487B7100000000000000000000000000000000000000000000000000000000 PUSH1 0x0 MSTORE PUSH1 0x21 PUSH1 0x4 MSTORE PUSH1 0x24 PUSH1 0x0 REVERT JUMPDEST PUSH1 0x2 DUP2 LT PUSH2 0x1949 JUMPI PUSH2 0x1948 PUSH2 0x1909 JUMP JUMPDEST JUMPDEST POP JUMP JUMPDEST PUSH1 0x0 DUP2 SWAP1 POP PUSH2 0x195A DUP3 PUSH2 0x1938 JUMP JUMPDEST SWAP2 SWAP1 POP JUMP JUMPDEST PUSH1 0x0 PUSH2 0x196A DUP3 PUSH2 0x194C JUMP JUMPDEST SWAP1 POP SWAP2 SWAP1 POP JUMP JUMPDEST PUSH2 0x197A DUP2 PUSH2 0x195F JUMP JUMPDEST DUP3 MSTORE POP POP JUMP JUMPDEST PUSH1 0x80 DUP3 ADD PUSH1 0x0 DUP3 ADD MLOAD PUSH2 0x1996 PUSH1 0x0 DUP6 ADD DUP3 PUSH2 0x164A JUMP JUMPDEST POP PUSH1 0x20 DUP3 ADD MLOAD PUSH2 0x19A9 PUSH1 0x20 DUP6 ADD DUP3 PUSH2 0x164A JUMP JUMPDEST POP PUSH1 0x40 DUP3 ADD MLOAD PUSH2 0x19BC PUSH1 0x40 DUP6 ADD DUP3 PUSH2 0x164A JUMP JUMPDEST POP PUSH1 0x60 DUP3 ADD MLOAD PUSH2 0x19CF PUSH1 0x60 DUP6 ADD DUP3 PUSH2 0x1971 JUMP JUMPDEST POP POP POP POP JUMP JUMPDEST PUSH1 0x0 PUSH2 0x19E1 DUP4 DUP4 PUSH2 0x1980 JUMP JUMPDEST PUSH1 0x80 DUP4 ADD SWAP1 POP SWAP3 SWAP2 POP POP JUMP JUMPDEST PUSH1 0x0 PUSH1 0x20 DUP3 ADD SWAP1 POP SWAP2 SWAP1 POP JUMP JUMPDEST PUSH1 0x0 PUSH2 0x1A05 DUP3 PUSH2 0x18DD JUMP JUMPDEST PUSH2 0x1A0F DUP2 DUP6 PUSH2 0x18E8 JUMP JUMPDEST SWAP4 POP PUSH2 0x1A1A DUP4 PUSH2 0x18F9 JUMP JUMPDEST DUP1 PUSH1 0x0 JUMPDEST DUP4 DUP2 LT ISZERO PUSH2 0x1A4B JUMPI DUP2 MLOAD PUSH2 0x1A32 DUP9 DUP3 PUSH2 0x19D5 JUMP JUMPDEST SWAP8 POP PUSH2 0x1A3D DUP4 PUSH2 0x19ED JUMP JUMPDEST SWAP3 POP POP PUSH1 0x1 DUP2 ADD SWAP1 POP PUSH2 0x1A1E JUMP JUMPDEST POP DUP6 SWAP4 POP POP POP POP SWAP3 SWAP2 POP POP JUMP JUMPDEST PUSH1 0x0 PUSH1 0x20 DUP3 ADD SWAP1 POP DUP2 DUP2 SUB PUSH1 0x0 DUP4 ADD MSTORE PUSH2 0x1A72 DUP2 DUP5 PUSH2 0x19FA JUMP JUMPDEST SWAP1 POP SWAP3 SWAP2 POP POP JUMP JUMPDEST PUSH1 0x0 DUP3 DUP3 MSTORE PUSH1 0x20 DUP3 ADD SWAP1 POP SWAP3 SWAP2 POP POP JUMP JUMPDEST PUSH32 0x4F6E6C79206F776E65722063616E2063616C6C20746869732066756E6374696F PUSH1 0x0 DUP3 ADD MSTORE PUSH32 0x6E00000000000000000000000000000000000000000000000000000000000000 PUSH1 0x20 DUP3 ADD MSTORE POP JUMP JUMPDEST PUSH1 0x0 PUSH2 0x1AE7 PUSH1 0x21 DUP4 PUSH2 0x1A7A JUMP JUMPDEST SWAP2 POP PUSH2 0x1AF2 DUP3 PUSH2 0x1A8B JUMP JUMPDEST PUSH1 0x40 DUP3 ADD SWAP1 POP SWAP2 SWAP1 POP JUMP JUMPDEST PUSH1 0x0 PUSH1 0x20 DUP3 ADD SWAP1 POP DUP2 DUP2 SUB PUSH1 0x0 DUP4 ADD MSTORE PUSH2 0x1B16 DUP2 PUSH2 0x1ADA JUMP JUMPDEST SWAP1 POP SWAP2 SWAP1 POP JUMP JUMPDEST PUSH32 0x546F75726E616D656E7420646F6573206E6F7420657869737400000000000000 PUSH1 0x0 DUP3 ADD MSTORE POP JUMP JUMPDEST PUSH1 0x0 PUSH2 0x1B53 PUSH1 0x19 DUP4 PUSH2 0x1A7A JUMP JUMPDEST SWAP2 POP PUSH2 0x1B5E DUP3 PUSH2 0x1B1D JUMP JUMPDEST PUSH1 0x20 DUP3 ADD SWAP1 POP SWAP2 SWAP1 POP JUMP JUMPDEST PUSH1 0x0 PUSH1 0x20 DUP3 ADD SWAP1 POP DUP2 DUP2 SUB PUSH1 0x0 DUP4 ADD MSTORE PUSH2 0x1B82 DUP2 PUSH2 0x1B46 JUMP JUMPDEST SWAP1 POP SWAP2 SWAP1 POP JUMP JUMPDEST PUSH32 0x4E487B7100000000000000000000000000000000000000000000000000000000 PUSH1 0x0 MSTORE PUSH1 0x11 PUSH1 0x4 MSTORE PUSH1 0x24 PUSH1 0x0 REVERT JUMPDEST PUSH1 0x0 PUSH2 0x1BC3 DUP3 PUSH2 0x14CC JUMP JUMPDEST SWAP2 POP PUSH2 0x1BCE DUP4 PUSH2 0x14CC JUMP JUMPDEST SWAP3 POP DUP3 DUP3 SUB SWAP1 POP DUP2 DUP2 GT ISZERO PUSH2 0x1BE6 JUMPI PUSH2 0x1BE5 PUSH2 0x1B89 JUMP JUMPDEST JUMPDEST SWAP3 SWAP2 POP POP JUMP JUMPDEST PUSH32 0x546F75726E616D656E74206E6F742066696E6973686564000000000000000000 PUSH1 0x0 DUP3 ADD MSTORE POP JUMP JUMPDEST PUSH1 0x0 PUSH2 0x1C22 PUSH1 0x17 DUP4 PUSH2 0x1A7A JUMP JUMPDEST SWAP2 POP PUSH2 0x1C2D DUP3 PUSH2 0x1BEC JUMP JUMPDEST PUSH1 0x20 DUP3 ADD SWAP1 POP SWAP2 SWAP1 POP JUMP JUMPDEST PUSH1 0x0 PUSH1 0x20 DUP3 ADD SWAP1 POP DUP2 DUP2 SUB PUSH1 0x0 DUP4 ADD MSTORE PUSH2 0x1C51 DUP2 PUSH2 0x1C15 JUMP JUMPDEST SWAP1 POP SWAP2 SWAP1 POP JUMP JUMPDEST PUSH1 0x0 PUSH2 0x1C63 DUP3 PUSH2 0x14CC JUMP JUMPDEST SWAP2 POP PUSH2 0x1C6E DUP4 PUSH2 0x14CC JUMP JUMPDEST SWAP3 POP DUP3 DUP3 MUL PUSH2 0x1C7C DUP2 PUSH2 0x14CC JUMP JUMPDEST SWAP2 POP DUP3 DUP3 DIV DUP5 EQ DUP4 ISZERO OR PUSH2 0x1C93 JUMPI PUSH2 0x1C92 PUSH2 0x1B89 JUMP JUMPDEST JUMPDEST POP SWAP3 SWAP2 POP POP JUMP JUMPDEST PUSH32 0x4E487B7100000000000000000000000000000000000000000000000000000000 PUSH1 0x0 MSTORE PUSH1 0x12 PUSH1 0x4 MSTORE PUSH1 0x24 PUSH1 0x0 REVERT JUMPDEST PUSH1 0x0 PUSH2 0x1CD4 DUP3 PUSH2 0x14CC JUMP JUMPDEST SWAP2 POP PUSH2 0x1CDF DUP4 PUSH2 0x14CC JUMP JUMPDEST SWAP3 POP DUP3 PUSH2 0x1CEF JUMPI PUSH2 0x1CEE PUSH2 0x1C9A JUMP JUMPDEST JUMPDEST DUP3 DUP3 DIV SWAP1 POP SWAP3 SWAP2 POP POP JUMP JUMPDEST PUSH32 0x4E487B7100000000000000000000000000000000000000000000000000000000 PUSH1 0x0 MSTORE PUSH1 0x32 PUSH1 0x4 MSTORE PUSH1 0x24 PUSH1 0x0 REVERT JUMPDEST PUSH1 0x0 PUSH2 0x1D34 DUP3 PUSH2 0x14CC JUMP JUMPDEST SWAP2 POP PUSH2 0x1D3F DUP4 PUSH2 0x14CC JUMP JUMPDEST SWAP3 POP DUP3 PUSH2 0x1D4F JUMPI PUSH2 0x1D4E PUSH2 0x1C9A JUMP JUMPDEST JUMPDEST DUP3 DUP3 MOD SWAP1 POP SWAP3 SWAP2 POP POP JUMP JUMPDEST PUSH32 0x4E756D626572206F66207465616D73206D757374206265206576656E00000000 PUSH1 0x0 DUP3 ADD MSTORE POP JUMP JUMPDEST PUSH1 0x0 PUSH2 0x1D90 PUSH1 0x1C DUP4 PUSH2 0x1A7A JUMP JUMPDEST SWAP2 POP PUSH2 0x1D9B DUP3 PUSH2 0x1D5A JUMP JUMPDEST PUSH1 0x20 DUP3 ADD SWAP1 POP SWAP2 SWAP1 POP JUMP JUMPDEST PUSH1 0x0 PUSH1 0x20 DUP3 ADD SWAP1 POP DUP2 DUP2 SUB PUSH1 0x0 DUP4 ADD MSTORE PUSH2 0x1DBF DUP2 PUSH2 0x1D83 JUMP JUMPDEST SWAP1 POP SWAP2 SWAP1 POP JUMP JUMPDEST PUSH32 0x546F75726E616D656E742068617320616C726561647920737461727465640000 PUSH1 0x0 DUP3 ADD MSTORE POP JUMP JUMPDEST PUSH1 0x0 PUSH2 0x1DFC PUSH1 0x1E DUP4 PUSH2 0x1A7A JUMP JUMPDEST SWAP2 POP PUSH2 0x1E07 DUP3 PUSH2 0x1DC6 JUMP JUMPDEST PUSH1 0x20 DUP3 ADD SWAP1 POP SWAP2 SWAP1 POP JUMP JUMPDEST PUSH1 0x0 PUSH1 0x20 DUP3 ADD SWAP1 POP DUP2 DUP2 SUB PUSH1 0x0 DUP4 ADD MSTORE PUSH2 0x1E2B DUP2 PUSH2 0x1DEF JUMP JUMPDEST SWAP1 POP SWAP2 SWAP1 POP JUMP JUMPDEST PUSH1 0x0 PUSH2 0x1E3D DUP3 PUSH2 0x14CC JUMP JUMPDEST SWAP2 POP PUSH2 0x1E48 DUP4 PUSH2 0x14CC JUMP JUMPDEST SWAP3 POP DUP3 DUP3 ADD SWAP1 POP DUP1 DUP3 GT ISZERO PUSH2 0x1E60 JUMPI PUSH2 0x1E5F PUSH2 0x1B89 JUMP JUMPDEST JUMPDEST SWAP3 SWAP2 POP POP JUMP JUMPDEST PUSH1 0x0 PUSH2 0x1E71 DUP3 PUSH2 0x14CC JUMP JUMPDEST SWAP2 POP PUSH32 0xFFFFFFFFFFFFFFFFFFFFFFFFFFFFFFFFFFFFFFFFFFFFFFFFFFFFFFFFFFFFFFFF DUP3 SUB PUSH2 0x1EA3 JUMPI PUSH2 0x1EA2 PUSH2 0x1B89 JUMP JUMPDEST JUMPDEST PUSH1 0x1 DUP3 ADD SWAP1 POP SWAP2 SWAP1 POP JUMP JUMPDEST PUSH32 0x4E756D626572206F66207465616D73206D7573742062652038206F7220313600 PUSH1 0x0 DUP3 ADD MSTORE POP JUMP JUMPDEST PUSH1 0x0 PUSH2 0x1EE4 PUSH1 0x1F DUP4 PUSH2 0x1A7A JUMP JUMPDEST SWAP2 POP PUSH2 0x1EEF DUP3 PUSH2 0x1EAE JUMP JUMPDEST PUSH1 0x20 DUP3 ADD SWAP1 POP SWAP2 SWAP1 POP JUMP JUMPDEST PUSH1 0x0 PUSH1 0x20 DUP3 ADD SWAP1 POP DUP2 DUP2 SUB PUSH1 0x0 DUP4 ADD MSTORE PUSH2 0x1F13 DUP2 PUSH2 0x1ED7 JUMP JUMPDEST SWAP1 POP SWAP2 SWAP1 POP JUMP INVALID LOG2 PUSH5 0x6970667358 0x22 SLT KECCAK256 SIGNEXTEND DUP6 0xDA 0xE6 0xD7 0x25 0xBD 0x4F BALANCE BYTE INVALID 0xCD GAS 0xF6 0xD6 OR SWAP12 0xDF SWAP6 PUSH7 0x91117061E5F136 0xE2 0xE8 DUP5 0x4C MOD PUSH5 0x736F6C6343 STOP ADDMOD SLT STOP CALLER "
				},
				"gasEstimates": {
					"creation": {
						"codeDepositCost": "1603200",
						"executionCost": "25946",
						"totalCost": "1629146"
					},
					"external": {
						"completeMatch(uint256,uint256,address)": "infinite",
						"createTournament(uint256,address[])": "infinite",
						"currentMatchIndex()": "2430",
						"deposit()": "infinite",
						"distributeRewards(uint256)": "infinite",
						"getTournamentMatches(uint256)": "infinite",
						"getTournamentTeams(uint256)": "infinite",
						"owner()": "2533",
						"rewardPool()": "2496",
						"startTournament(uint256)": "infinite"
					}
				},
				"methodIdentifiers": {
					"completeMatch(uint256,uint256,address)": "6f4cf972",
					"createTournament(uint256,address[])": "be5973d6",
					"currentMatchIndex()": "566378cc",
					"deposit()": "d0e30db0",
					"distributeRewards(uint256)": "59974e38",
					"getTournamentMatches(uint256)": "d8c57e85",
					"getTournamentTeams(uint256)": "87c2825f",
					"owner()": "8da5cb5b",
					"rewardPool()": "66666aa9",
					"startTournament(uint256)": "651ea943"
				}
			},
			"storageLayout": {
				"storage": [
					{
						"astId": 3,
						"contract": "contracts/Tournament.sol:Tournament",
						"label": "owner",
						"offset": 0,
						"slot": "0",
						"type": "t_address"
					},
					{
						"astId": 5,
						"contract": "contracts/Tournament.sol:Tournament",
						"label": "rewardPool",
						"offset": 0,
						"slot": "1",
						"type": "t_uint256"
					},
					{
						"astId": 37,
						"contract": "contracts/Tournament.sol:Tournament",
						"label": "tournaments",
						"offset": 0,
						"slot": "2",
						"type": "t_mapping(t_uint256,t_struct(TournamentInfo)32_storage)"
					},
					{
						"astId": 100,
						"contract": "contracts/Tournament.sol:Tournament",
						"label": "currentMatchIndex",
						"offset": 0,
						"slot": "3",
						"type": "t_uint256"
					}
				],
				"types": {
					"t_address": {
						"encoding": "inplace",
						"label": "address",
						"numberOfBytes": "20"
					},
					"t_array(t_address)dyn_storage": {
						"base": "t_address",
						"encoding": "dynamic_array",
						"label": "address[]",
						"numberOfBytes": "32"
					},
					"t_array(t_struct(Match)18_storage)dyn_storage": {
						"base": "t_struct(Match)18_storage",
						"encoding": "dynamic_array",
						"label": "struct Tournament.Match[]",
						"numberOfBytes": "32"
					},
					"t_enum(MatchStatus)8": {
						"encoding": "inplace",
						"label": "enum Tournament.MatchStatus",
						"numberOfBytes": "1"
					},
					"t_mapping(t_uint256,t_struct(TournamentInfo)32_storage)": {
						"encoding": "mapping",
						"key": "t_uint256",
						"label": "mapping(uint256 => struct Tournament.TournamentInfo)",
						"numberOfBytes": "32",
						"value": "t_struct(TournamentInfo)32_storage"
					},
					"t_struct(Match)18_storage": {
						"encoding": "inplace",
						"label": "struct Tournament.Match",
						"members": [
							{
								"astId": 10,
								"contract": "contracts/Tournament.sol:Tournament",
								"label": "team1",
								"offset": 0,
								"slot": "0",
								"type": "t_address"
							},
							{
								"astId": 12,
								"contract": "contracts/Tournament.sol:Tournament",
								"label": "team2",
								"offset": 0,
								"slot": "1",
								"type": "t_address"
							},
							{
								"astId": 14,
								"contract": "contracts/Tournament.sol:Tournament",
								"label": "winner",
								"offset": 0,
								"slot": "2",
								"type": "t_address"
							},
							{
								"astId": 17,
								"contract": "contracts/Tournament.sol:Tournament",
								"label": "status",
								"offset": 20,
								"slot": "2",
								"type": "t_enum(MatchStatus)8"
							}
						],
						"numberOfBytes": "96"
					},
					"t_struct(TournamentInfo)32_storage": {
						"encoding": "inplace",
						"label": "struct Tournament.TournamentInfo",
						"members": [
							{
								"astId": 21,
								"contract": "contracts/Tournament.sol:Tournament",
								"label": "teams",
								"offset": 0,
								"slot": "0",
								"type": "t_array(t_address)dyn_storage"
							},
							{
								"astId": 25,
								"contract": "contracts/Tournament.sol:Tournament",
								"label": "matches",
								"offset": 0,
								"slot": "1",
								"type": "t_array(t_struct(Match)18_storage)dyn_storage"
							},
							{
								"astId": 28,
								"contract": "contracts/Tournament.sol:Tournament",
								"label": "secondRoundTeams",
								"offset": 0,
								"slot": "2",
								"type": "t_array(t_address)dyn_storage"
							},
							{
								"astId": 31,
								"contract": "contracts/Tournament.sol:Tournament",
								"label": "finalRoundTeams",
								"offset": 0,
								"slot": "3",
								"type": "t_array(t_address)dyn_storage"
							}
						],
						"numberOfBytes": "128"
					},
					"t_uint256": {
						"encoding": "inplace",
						"label": "uint256",
						"numberOfBytes": "32"
					}
				}
			},
			"userdoc": {
				"kind": "user",
				"methods": {},
				"version": 1
			}
		}
	}
}