{
	"contracts/Tournament.sol": {
		"Tournament": {
			"abi": [
				{
					"inputs": [],
					"stateMutability": "nonpayable",
					"type": "constructor"
				},
				{
					"anonymous": false,
					"inputs": [
						{
							"indexed": true,
							"internalType": "uint256",
							"name": "tournamentId",
							"type": "uint256"
						},
						{
							"indexed": false,
							"internalType": "uint256",
							"name": "numMatches",
							"type": "uint256"
						},
						{
							"indexed": false,
							"internalType": "uint256",
							"name": "numTeams",
							"type": "uint256"
						}
					],
					"name": "DebugRewardDistribution",
					"type": "event"
				},
				{
					"anonymous": false,
					"inputs": [
						{
							"indexed": true,
							"internalType": "uint256",
							"name": "tournamentId",
							"type": "uint256"
						},
						{
							"indexed": false,
							"internalType": "uint256",
							"name": "matchIndex",
							"type": "uint256"
						},
						{
							"indexed": false,
							"internalType": "address",
							"name": "winner",
							"type": "address"
						}
					],
					"name": "MatchCompleted",
					"type": "event"
				},
				{
					"anonymous": false,
					"inputs": [
						{
							"indexed": true,
							"internalType": "uint256",
							"name": "tournamentId",
							"type": "uint256"
						},
						{
							"indexed": false,
							"internalType": "address[]",
							"name": "teams",
							"type": "address[]"
						}
					],
					"name": "TournamentCreated",
					"type": "event"
				},
				{
					"inputs": [
						{
							"internalType": "uint256",
							"name": "_tournamentId",
							"type": "uint256"
						},
						{
							"internalType": "uint256",
							"name": "_matchIndex",
							"type": "uint256"
						},
						{
							"internalType": "address",
							"name": "_winner",
							"type": "address"
						}
					],
					"name": "completeMatch",
					"outputs": [],
					"stateMutability": "nonpayable",
					"type": "function"
				},
				{
					"inputs": [
						{
							"internalType": "uint256",
							"name": "_tournamentId",
							"type": "uint256"
						},
						{
							"internalType": "address[]",
							"name": "_teams",
							"type": "address[]"
						}
					],
					"name": "createTournament",
					"outputs": [],
					"stateMutability": "nonpayable",
					"type": "function"
				},
				{
					"inputs": [
						{
							"internalType": "uint256",
							"name": "_tournamentId",
							"type": "uint256"
						}
					],
					"name": "distributeRewards",
					"outputs": [],
					"stateMutability": "nonpayable",
					"type": "function"
				},
				{
					"inputs": [
						{
							"internalType": "uint256",
							"name": "_tournamentId",
							"type": "uint256"
						}
					],
					"name": "getTournamentMatches",
					"outputs": [
						{
							"components": [
								{
									"internalType": "address",
									"name": "team1",
									"type": "address"
								},
								{
									"internalType": "address",
									"name": "team2",
									"type": "address"
								},
								{
									"internalType": "address",
									"name": "winner",
									"type": "address"
								},
								{
									"internalType": "enum Tournament.MatchStatus",
									"name": "status",
									"type": "uint8"
								}
							],
							"internalType": "struct Tournament.Match[]",
							"name": "",
							"type": "tuple[]"
						}
					],
					"stateMutability": "view",
					"type": "function"
				},
				{
					"inputs": [
						{
							"internalType": "uint256",
							"name": "_tournamentId",
							"type": "uint256"
						}
					],
					"name": "getTournamentTeams",
					"outputs": [
						{
							"internalType": "address[]",
							"name": "",
							"type": "address[]"
						}
					],
					"stateMutability": "view",
					"type": "function"
				},
				{
					"inputs": [],
					"name": "owner",
					"outputs": [
						{
							"internalType": "address",
							"name": "",
							"type": "address"
						}
					],
					"stateMutability": "view",
					"type": "function"
				},
				{
					"inputs": [],
					"name": "rewardPool",
					"outputs": [
						{
							"internalType": "uint256",
							"name": "",
							"type": "uint256"
						}
					],
					"stateMutability": "view",
					"type": "function"
				},
				{
					"inputs": [
						{
							"internalType": "uint256",
							"name": "_tournamentId",
							"type": "uint256"
						}
					],
					"name": "startTournament",
					"outputs": [],
					"stateMutability": "nonpayable",
					"type": "function"
				}
			],
			"devdoc": {
				"kind": "dev",
				"methods": {},
				"version": 1
			},
			"evm": {
				"assembly": "    /* \"contracts/Tournament.sol\":60:5592  contract Tournament {... */\n  mstore(0x40, 0x80)\n    /* \"contracts/Tournament.sol\":1761:1812  constructor() {... */\n  callvalue\n  dup1\n  iszero\n  tag_1\n  jumpi\n  0x00\n  dup1\n  revert\ntag_1:\n  pop\n    /* \"contracts/Tournament.sol\":1794:1804  msg.sender */\n  caller\n    /* \"contracts/Tournament.sol\":1786:1791  owner */\n  0x00\n  dup1\n    /* \"contracts/Tournament.sol\":1786:1804  owner = msg.sender */\n  0x0100\n  exp\n  dup2\n  sload\n  dup2\n  0xffffffffffffffffffffffffffffffffffffffff\n  mul\n  not\n  and\n  swap1\n  dup4\n  0xffffffffffffffffffffffffffffffffffffffff\n  and\n  mul\n  or\n  swap1\n  sstore\n  pop\n    /* \"contracts/Tournament.sol\":60:5592  contract Tournament {... */\n  dataSize(sub_0)\n  dup1\n  dataOffset(sub_0)\n  0x00\n  codecopy\n  0x00\n  return\nstop\n\nsub_0: assembly {\n        /* \"contracts/Tournament.sol\":60:5592  contract Tournament {... */\n      mstore(0x40, 0x80)\n      callvalue\n      dup1\n      iszero\n      tag_1\n      jumpi\n      0x00\n      dup1\n      revert\n    tag_1:\n      pop\n      jumpi(tag_2, lt(calldatasize, 0x04))\n      shr(0xe0, calldataload(0x00))\n      dup1\n      0x87c2825f\n      gt\n      tag_11\n      jumpi\n      dup1\n      0x87c2825f\n      eq\n      tag_7\n      jumpi\n      dup1\n      0x8da5cb5b\n      eq\n      tag_8\n      jumpi\n      dup1\n      0xbe5973d6\n      eq\n      tag_9\n      jumpi\n      dup1\n      0xd8c57e85\n      eq\n      tag_10\n      jumpi\n      jump(tag_2)\n    tag_11:\n      dup1\n      0x59974e38\n      eq\n      tag_3\n      jumpi\n      dup1\n      0x651ea943\n      eq\n      tag_4\n      jumpi\n      dup1\n      0x66666aa9\n      eq\n      tag_5\n      jumpi\n      dup1\n      0x6f4cf972\n      eq\n      tag_6\n      jumpi\n    tag_2:\n      0x00\n      dup1\n      revert\n        /* \"contracts/Tournament.sol\":4441:5587  function distributeRewards(uint256 _tournamentId) external onlyOwner tournamentExists(_tournamentId) {... */\n    tag_3:\n      tag_12\n      0x04\n      dup1\n      calldatasize\n      sub\n      dup2\n      add\n      swap1\n      tag_13\n      swap2\n      swap1\n      tag_14\n      jump\t// in\n    tag_13:\n      tag_15\n      jump\t// in\n    tag_12:\n      stop\n        /* \"contracts/Tournament.sol\":2821:3368  function startTournament(uint256 _tournamentId) external onlyOwner tournamentExists(_tournamentId) {... */\n    tag_4:\n      tag_16\n      0x04\n      dup1\n      calldatasize\n      sub\n      dup2\n      add\n      swap1\n      tag_17\n      swap2\n      swap1\n      tag_14\n      jump\t// in\n    tag_17:\n      tag_18\n      jump\t// in\n    tag_16:\n      stop\n        /* \"contracts/Tournament.sol\":165:190  uint256 public rewardPool */\n    tag_5:\n      tag_19\n      tag_20\n      jump\t// in\n    tag_19:\n      mload(0x40)\n      tag_21\n      swap2\n      swap1\n      tag_22\n      jump\t// in\n    tag_21:\n      mload(0x40)\n      dup1\n      swap2\n      sub\n      swap1\n      return\n        /* \"contracts/Tournament.sol\":3450:4250  function completeMatch(uint256 _tournamentId, uint256 _matchIndex, address _winner) external onlyOwner tournamentExists(_tournamentId) {... */\n    tag_6:\n      tag_23\n      0x04\n      dup1\n      calldatasize\n      sub\n      dup2\n      add\n      swap1\n      tag_24\n      swap2\n      swap1\n      tag_25\n      jump\t// in\n    tag_24:\n      tag_26\n      jump\t// in\n    tag_23:\n      stop\n        /* \"contracts/Tournament.sol\":1889:2039  function getTournamentTeams(uint256 _tournamentId) external view returns (address[] memory) {... */\n    tag_7:\n      tag_27\n      0x04\n      dup1\n      calldatasize\n      sub\n      dup2\n      add\n      swap1\n      tag_28\n      swap2\n      swap1\n      tag_14\n      jump\t// in\n    tag_28:\n      tag_29\n      jump\t// in\n    tag_27:\n      mload(0x40)\n      tag_30\n      swap2\n      swap1\n      tag_31\n      jump\t// in\n    tag_30:\n      mload(0x40)\n      dup1\n      swap2\n      sub\n      swap1\n      return\n        /* \"contracts/Tournament.sol\":110:130  address public owner */\n    tag_8:\n      tag_32\n      tag_33\n      jump\t// in\n    tag_32:\n      mload(0x40)\n      tag_34\n      swap2\n      swap1\n      tag_35\n      jump\t// in\n    tag_34:\n      mload(0x40)\n      dup1\n      swap2\n      sub\n      swap1\n      return\n        /* \"contracts/Tournament.sol\":2336:2744  function createTournament(uint256 _tournamentId, address[] memory _teams) external onlyOwner tournamentNotStarted(_tournamentId) {... */\n    tag_9:\n      tag_36\n      0x04\n      dup1\n      calldatasize\n      sub\n      dup2\n      add\n      swap1\n      tag_37\n      swap2\n      swap1\n      tag_38\n      jump\t// in\n    tag_37:\n      tag_39\n      jump\t// in\n    tag_36:\n      stop\n        /* \"contracts/Tournament.sol\":2104:2256  function getTournamentMatches(uint256 _tournamentId) external view returns (Match[] memory) {... */\n    tag_10:\n      tag_40\n      0x04\n      dup1\n      calldatasize\n      sub\n      dup2\n      add\n      swap1\n      tag_41\n      swap2\n      swap1\n      tag_14\n      jump\t// in\n    tag_41:\n      tag_42\n      jump\t// in\n    tag_40:\n      mload(0x40)\n      tag_43\n      swap2\n      swap1\n      tag_44\n      jump\t// in\n    tag_43:\n      mload(0x40)\n      dup1\n      swap2\n      sub\n      swap1\n      return\n        /* \"contracts/Tournament.sol\":4441:5587  function distributeRewards(uint256 _tournamentId) external onlyOwner tournamentExists(_tournamentId) {... */\n    tag_15:\n        /* \"contracts/Tournament.sol\":1141:1146  owner */\n      0x00\n      dup1\n      sload\n      swap1\n      0x0100\n      exp\n      swap1\n      div\n      0xffffffffffffffffffffffffffffffffffffffff\n      and\n        /* \"contracts/Tournament.sol\":1127:1146  msg.sender == owner */\n      0xffffffffffffffffffffffffffffffffffffffff\n      and\n        /* \"contracts/Tournament.sol\":1127:1137  msg.sender */\n      caller\n        /* \"contracts/Tournament.sol\":1127:1146  msg.sender == owner */\n      0xffffffffffffffffffffffffffffffffffffffff\n      and\n      eq\n        /* \"contracts/Tournament.sol\":1119:1184  require(msg.sender == owner, \"Only owner can call this function\") */\n      tag_46\n      jumpi\n      mload(0x40)\n      0x08c379a000000000000000000000000000000000000000000000000000000000\n      dup2\n      mstore\n      0x04\n      add\n      tag_47\n      swap1\n      tag_48\n      jump\t// in\n    tag_47:\n      mload(0x40)\n      dup1\n      swap2\n      sub\n      swap1\n      revert\n    tag_46:\n        /* \"contracts/Tournament.sol\":4527:4540  _tournamentId */\n      dup1\n        /* \"contracts/Tournament.sol\":1392:1393  0 */\n      0x00\n        /* \"contracts/Tournament.sol\":1350:1361  tournaments */\n      0x02\n        /* \"contracts/Tournament.sol\":1350:1376  tournaments[_tournamentId] */\n      0x00\n        /* \"contracts/Tournament.sol\":1362:1375  _tournamentId */\n      dup4\n        /* \"contracts/Tournament.sol\":1350:1376  tournaments[_tournamentId] */\n      dup2\n      mstore\n      0x20\n      add\n      swap1\n      dup2\n      mstore\n      0x20\n      add\n      0x00\n      keccak256\n        /* \"contracts/Tournament.sol\":1350:1382  tournaments[_tournamentId].teams */\n      0x01\n      add\n        /* \"contracts/Tournament.sol\":1350:1389  tournaments[_tournamentId].teams.length */\n      dup1\n      sload\n      swap1\n      pop\n        /* \"contracts/Tournament.sol\":1350:1393  tournaments[_tournamentId].teams.length > 0 */\n      gt\n        /* \"contracts/Tournament.sol\":1342:1423  require(tournaments[_tournamentId].teams.length > 0, \"Tournament does not exist\") */\n      tag_50\n      jumpi\n      mload(0x40)\n      0x08c379a000000000000000000000000000000000000000000000000000000000\n      dup2\n      mstore\n      0x04\n      add\n      tag_51\n      swap1\n      tag_52\n      jump\t// in\n    tag_51:\n      mload(0x40)\n      dup1\n      swap2\n      sub\n      swap1\n      revert\n    tag_50:\n        /* \"contracts/Tournament.sol\":4553:4586  TournamentInfo storage tournament */\n      0x00\n        /* \"contracts/Tournament.sol\":4589:4600  tournaments */\n      0x02\n        /* \"contracts/Tournament.sol\":4589:4615  tournaments[_tournamentId] */\n      0x00\n        /* \"contracts/Tournament.sol\":4601:4614  _tournamentId */\n      dup5\n        /* \"contracts/Tournament.sol\":4589:4615  tournaments[_tournamentId] */\n      dup2\n      mstore\n      0x20\n      add\n      swap1\n      dup2\n      mstore\n      0x20\n      add\n      0x00\n      keccak256\n        /* \"contracts/Tournament.sol\":4553:4615  TournamentInfo storage tournament = tournaments[_tournamentId] */\n      swap1\n      pop\n        /* \"contracts/Tournament.sol\":4655:4668  _tournamentId */\n      dup3\n        /* \"contracts/Tournament.sol\":4631:4721  DebugRewardDistribution(_tournamentId, tournament.matches.length, tournament.teams.length) */\n      0xe1b02a13cf0779a7ce4face0fcf1491613f47493cb19aa975eef9eb88acc3732\n        /* \"contracts/Tournament.sol\":4670:4680  tournament */\n      dup3\n        /* \"contracts/Tournament.sol\":4670:4688  tournament.matches */\n      0x00\n      add\n        /* \"contracts/Tournament.sol\":4670:4695  tournament.matches.length */\n      dup1\n      sload\n      swap1\n      pop\n        /* \"contracts/Tournament.sol\":4697:4707  tournament */\n      dup4\n        /* \"contracts/Tournament.sol\":4697:4713  tournament.teams */\n      0x01\n      add\n        /* \"contracts/Tournament.sol\":4697:4720  tournament.teams.length */\n      dup1\n      sload\n      swap1\n      pop\n        /* \"contracts/Tournament.sol\":4631:4721  DebugRewardDistribution(_tournamentId, tournament.matches.length, tournament.teams.length) */\n      mload(0x40)\n      tag_54\n      swap3\n      swap2\n      swap1\n      tag_55\n      jump\t// in\n    tag_54:\n      mload(0x40)\n      dup1\n      swap2\n      sub\n      swap1\n      log2\n        /* \"contracts/Tournament.sol\":4795:4796  1 */\n      0x01\n        /* \"contracts/Tournament.sol\":4769:4779  tournament */\n      dup2\n        /* \"contracts/Tournament.sol\":4769:4785  tournament.teams */\n      0x01\n      add\n        /* \"contracts/Tournament.sol\":4769:4792  tournament.teams.length */\n      dup1\n      sload\n      swap1\n      pop\n        /* \"contracts/Tournament.sol\":4769:4796  tournament.teams.length - 1 */\n      tag_56\n      swap2\n      swap1\n      tag_57\n      jump\t// in\n    tag_56:\n        /* \"contracts/Tournament.sol\":4740:4750  tournament */\n      dup2\n        /* \"contracts/Tournament.sol\":4740:4758  tournament.matches */\n      0x00\n      add\n        /* \"contracts/Tournament.sol\":4740:4765  tournament.matches.length */\n      dup1\n      sload\n      swap1\n      pop\n        /* \"contracts/Tournament.sol\":4740:4796  tournament.matches.length == tournament.teams.length - 1 */\n      eq\n        /* \"contracts/Tournament.sol\":4732:4824  require(tournament.matches.length == tournament.teams.length - 1, \"Tournament not finished\") */\n      tag_58\n      jumpi\n      mload(0x40)\n      0x08c379a000000000000000000000000000000000000000000000000000000000\n      dup2\n      mstore\n      0x04\n      add\n      tag_59\n      swap1\n      tag_60\n      jump\t// in\n    tag_59:\n      mload(0x40)\n      dup1\n      swap2\n      sub\n      swap1\n      revert\n    tag_58:\n        /* \"contracts/Tournament.sol\":4888:4912  uint256 firstPlaceReward */\n      0x00\n        /* \"contracts/Tournament.sol\":4935:4938  100 */\n      0x64\n        /* \"contracts/Tournament.sol\":4929:4931  50 */\n      0x32\n        /* \"contracts/Tournament.sol\":4916:4926  rewardPool */\n      sload(0x01)\n        /* \"contracts/Tournament.sol\":4916:4931  rewardPool * 50 */\n      tag_61\n      swap2\n      swap1\n      tag_62\n      jump\t// in\n    tag_61:\n        /* \"contracts/Tournament.sol\":4915:4938  (rewardPool * 50) / 100 */\n      tag_63\n      swap2\n      swap1\n      tag_64\n      jump\t// in\n    tag_63:\n        /* \"contracts/Tournament.sol\":4888:4938  uint256 firstPlaceReward = (rewardPool * 50) / 100 */\n      swap1\n      pop\n        /* \"contracts/Tournament.sol\":4949:4974  uint256 secondPlaceReward */\n      0x00\n        /* \"contracts/Tournament.sol\":4997:5000  100 */\n      0x64\n        /* \"contracts/Tournament.sol\":4991:4993  30 */\n      0x1e\n        /* \"contracts/Tournament.sol\":4978:4988  rewardPool */\n      sload(0x01)\n        /* \"contracts/Tournament.sol\":4978:4993  rewardPool * 30 */\n      tag_65\n      swap2\n      swap1\n      tag_62\n      jump\t// in\n    tag_65:\n        /* \"contracts/Tournament.sol\":4977:5000  (rewardPool * 30) / 100 */\n      tag_66\n      swap2\n      swap1\n      tag_64\n      jump\t// in\n    tag_66:\n        /* \"contracts/Tournament.sol\":4949:5000  uint256 secondPlaceReward = (rewardPool * 30) / 100 */\n      swap1\n      pop\n        /* \"contracts/Tournament.sol\":5011:5035  uint256 thirdPlaceReward */\n      0x00\n        /* \"contracts/Tournament.sol\":5058:5061  100 */\n      0x64\n        /* \"contracts/Tournament.sol\":5052:5054  10 */\n      0x0a\n        /* \"contracts/Tournament.sol\":5039:5049  rewardPool */\n      sload(0x01)\n        /* \"contracts/Tournament.sol\":5039:5054  rewardPool * 10 */\n      tag_67\n      swap2\n      swap1\n      tag_62\n      jump\t// in\n    tag_67:\n        /* \"contracts/Tournament.sol\":5038:5061  (rewardPool * 10) / 100 */\n      tag_68\n      swap2\n      swap1\n      tag_64\n      jump\t// in\n    tag_68:\n        /* \"contracts/Tournament.sol\":5011:5061  uint256 thirdPlaceReward = (rewardPool * 10) / 100 */\n      swap1\n      pop\n        /* \"contracts/Tournament.sol\":5072:5097  uint256 fourthPlaceReward */\n      0x00\n        /* \"contracts/Tournament.sol\":5120:5123  100 */\n      0x64\n        /* \"contracts/Tournament.sol\":5114:5116  10 */\n      0x0a\n        /* \"contracts/Tournament.sol\":5101:5111  rewardPool */\n      sload(0x01)\n        /* \"contracts/Tournament.sol\":5101:5116  rewardPool * 10 */\n      tag_69\n      swap2\n      swap1\n      tag_62\n      jump\t// in\n    tag_69:\n        /* \"contracts/Tournament.sol\":5100:5123  (rewardPool * 10) / 100 */\n      tag_70\n      swap2\n      swap1\n      tag_64\n      jump\t// in\n    tag_70:\n        /* \"contracts/Tournament.sol\":5072:5123  uint256 fourthPlaceReward = (rewardPool * 10) / 100 */\n      swap1\n      pop\n        /* \"contracts/Tournament.sol\":5184:5194  tournament */\n      dup5\n        /* \"contracts/Tournament.sol\":5184:5202  tournament.matches */\n      0x00\n      add\n        /* \"contracts/Tournament.sol\":5231:5232  1 */\n      0x01\n        /* \"contracts/Tournament.sol\":5203:5213  tournament */\n      dup7\n        /* \"contracts/Tournament.sol\":5203:5221  tournament.matches */\n      0x00\n      add\n        /* \"contracts/Tournament.sol\":5203:5228  tournament.matches.length */\n      dup1\n      sload\n      swap1\n      pop\n        /* \"contracts/Tournament.sol\":5203:5232  tournament.matches.length - 1 */\n      tag_71\n      swap2\n      swap1\n      tag_57\n      jump\t// in\n    tag_71:\n        /* \"contracts/Tournament.sol\":5184:5233  tournament.matches[tournament.matches.length - 1] */\n      dup2\n      sload\n      dup2\n      lt\n      tag_72\n      jumpi\n      tag_73\n      tag_74\n      jump\t// in\n    tag_73:\n    tag_72:\n      swap1\n      0x00\n      mstore\n      keccak256(0x00, 0x20)\n      swap1\n      0x03\n      mul\n      add\n        /* \"contracts/Tournament.sol\":5184:5240  tournament.matches[tournament.matches.length - 1].winner */\n      0x02\n      add\n      0x00\n      swap1\n      sload\n      swap1\n      0x0100\n      exp\n      swap1\n      div\n      0xffffffffffffffffffffffffffffffffffffffff\n      and\n        /* \"contracts/Tournament.sol\":5176:5250  payable(tournament.matches[tournament.matches.length - 1].winner).transfer */\n      0xffffffffffffffffffffffffffffffffffffffff\n      and\n        /* \"contracts/Tournament.sol\":5176:5268  payable(tournament.matches[tournament.matches.length - 1].winner).transfer(firstPlaceReward) */\n      0x08fc\n        /* \"contracts/Tournament.sol\":5251:5267  firstPlaceReward */\n      dup6\n        /* \"contracts/Tournament.sol\":5176:5268  payable(tournament.matches[tournament.matches.length - 1].winner).transfer(firstPlaceReward) */\n      swap1\n      dup2\n      iszero\n      mul\n      swap1\n      mload(0x40)\n      0x00\n      mload(0x40)\n      dup1\n      dup4\n      sub\n      dup2\n      dup6\n      dup9\n      dup9\n      call\n      swap4\n      pop\n      pop\n      pop\n      pop\n      iszero\n      dup1\n      iszero\n      tag_77\n      jumpi\n      returndatasize\n      0x00\n      dup1\n      returndatacopy\n      revert(0x00, returndatasize)\n    tag_77:\n      pop\n        /* \"contracts/Tournament.sol\":5287:5297  tournament */\n      dup5\n        /* \"contracts/Tournament.sol\":5287:5305  tournament.matches */\n      0x00\n      add\n        /* \"contracts/Tournament.sol\":5334:5335  2 */\n      0x02\n        /* \"contracts/Tournament.sol\":5306:5316  tournament */\n      dup7\n        /* \"contracts/Tournament.sol\":5306:5324  tournament.matches */\n      0x00\n      add\n        /* \"contracts/Tournament.sol\":5306:5331  tournament.matches.length */\n      dup1\n      sload\n      swap1\n      pop\n        /* \"contracts/Tournament.sol\":5306:5335  tournament.matches.length - 2 */\n      tag_78\n      swap2\n      swap1\n      tag_57\n      jump\t// in\n    tag_78:\n        /* \"contracts/Tournament.sol\":5287:5336  tournament.matches[tournament.matches.length - 2] */\n      dup2\n      sload\n      dup2\n      lt\n      tag_79\n      jumpi\n      tag_80\n      tag_74\n      jump\t// in\n    tag_80:\n    tag_79:\n      swap1\n      0x00\n      mstore\n      keccak256(0x00, 0x20)\n      swap1\n      0x03\n      mul\n      add\n        /* \"contracts/Tournament.sol\":5287:5343  tournament.matches[tournament.matches.length - 2].winner */\n      0x02\n      add\n      0x00\n      swap1\n      sload\n      swap1\n      0x0100\n      exp\n      swap1\n      div\n      0xffffffffffffffffffffffffffffffffffffffff\n      and\n        /* \"contracts/Tournament.sol\":5279:5353  payable(tournament.matches[tournament.matches.length - 2].winner).transfer */\n      0xffffffffffffffffffffffffffffffffffffffff\n      and\n        /* \"contracts/Tournament.sol\":5279:5372  payable(tournament.matches[tournament.matches.length - 2].winner).transfer(secondPlaceReward) */\n      0x08fc\n        /* \"contracts/Tournament.sol\":5354:5371  secondPlaceReward */\n      dup5\n        /* \"contracts/Tournament.sol\":5279:5372  payable(tournament.matches[tournament.matches.length - 2].winner).transfer(secondPlaceReward) */\n      swap1\n      dup2\n      iszero\n      mul\n      swap1\n      mload(0x40)\n      0x00\n      mload(0x40)\n      dup1\n      dup4\n      sub\n      dup2\n      dup6\n      dup9\n      dup9\n      call\n      swap4\n      pop\n      pop\n      pop\n      pop\n      iszero\n      dup1\n      iszero\n      tag_83\n      jumpi\n      returndatasize\n      0x00\n      dup1\n      returndatacopy\n      revert(0x00, returndatasize)\n    tag_83:\n      pop\n        /* \"contracts/Tournament.sol\":5391:5401  tournament */\n      dup5\n        /* \"contracts/Tournament.sol\":5391:5409  tournament.matches */\n      0x00\n      add\n        /* \"contracts/Tournament.sol\":5438:5439  3 */\n      0x03\n        /* \"contracts/Tournament.sol\":5410:5420  tournament */\n      dup7\n        /* \"contracts/Tournament.sol\":5410:5428  tournament.matches */\n      0x00\n      add\n        /* \"contracts/Tournament.sol\":5410:5435  tournament.matches.length */\n      dup1\n      sload\n      swap1\n      pop\n        /* \"contracts/Tournament.sol\":5410:5439  tournament.matches.length - 3 */\n      tag_84\n      swap2\n      swap1\n      tag_57\n      jump\t// in\n    tag_84:\n        /* \"contracts/Tournament.sol\":5391:5440  tournament.matches[tournament.matches.length - 3] */\n      dup2\n      sload\n      dup2\n      lt\n      tag_85\n      jumpi\n      tag_86\n      tag_74\n      jump\t// in\n    tag_86:\n    tag_85:\n      swap1\n      0x00\n      mstore\n      keccak256(0x00, 0x20)\n      swap1\n      0x03\n      mul\n      add\n        /* \"contracts/Tournament.sol\":5391:5447  tournament.matches[tournament.matches.length - 3].winner */\n      0x02\n      add\n      0x00\n      swap1\n      sload\n      swap1\n      0x0100\n      exp\n      swap1\n      div\n      0xffffffffffffffffffffffffffffffffffffffff\n      and\n        /* \"contracts/Tournament.sol\":5383:5457  payable(tournament.matches[tournament.matches.length - 3].winner).transfer */\n      0xffffffffffffffffffffffffffffffffffffffff\n      and\n        /* \"contracts/Tournament.sol\":5383:5475  payable(tournament.matches[tournament.matches.length - 3].winner).transfer(thirdPlaceReward) */\n      0x08fc\n        /* \"contracts/Tournament.sol\":5458:5474  thirdPlaceReward */\n      dup4\n        /* \"contracts/Tournament.sol\":5383:5475  payable(tournament.matches[tournament.matches.length - 3].winner).transfer(thirdPlaceReward) */\n      swap1\n      dup2\n      iszero\n      mul\n      swap1\n      mload(0x40)\n      0x00\n      mload(0x40)\n      dup1\n      dup4\n      sub\n      dup2\n      dup6\n      dup9\n      dup9\n      call\n      swap4\n      pop\n      pop\n      pop\n      pop\n      iszero\n      dup1\n      iszero\n      tag_89\n      jumpi\n      returndatasize\n      0x00\n      dup1\n      returndatacopy\n      revert(0x00, returndatasize)\n    tag_89:\n      pop\n        /* \"contracts/Tournament.sol\":5494:5504  tournament */\n      dup5\n        /* \"contracts/Tournament.sol\":5494:5512  tournament.matches */\n      0x00\n      add\n        /* \"contracts/Tournament.sol\":5541:5542  4 */\n      0x04\n        /* \"contracts/Tournament.sol\":5513:5523  tournament */\n      dup7\n        /* \"contracts/Tournament.sol\":5513:5531  tournament.matches */\n      0x00\n      add\n        /* \"contracts/Tournament.sol\":5513:5538  tournament.matches.length */\n      dup1\n      sload\n      swap1\n      pop\n        /* \"contracts/Tournament.sol\":5513:5542  tournament.matches.length - 4 */\n      tag_90\n      swap2\n      swap1\n      tag_57\n      jump\t// in\n    tag_90:\n        /* \"contracts/Tournament.sol\":5494:5543  tournament.matches[tournament.matches.length - 4] */\n      dup2\n      sload\n      dup2\n      lt\n      tag_91\n      jumpi\n      tag_92\n      tag_74\n      jump\t// in\n    tag_92:\n    tag_91:\n      swap1\n      0x00\n      mstore\n      keccak256(0x00, 0x20)\n      swap1\n      0x03\n      mul\n      add\n        /* \"contracts/Tournament.sol\":5494:5550  tournament.matches[tournament.matches.length - 4].winner */\n      0x02\n      add\n      0x00\n      swap1\n      sload\n      swap1\n      0x0100\n      exp\n      swap1\n      div\n      0xffffffffffffffffffffffffffffffffffffffff\n      and\n        /* \"contracts/Tournament.sol\":5486:5560  payable(tournament.matches[tournament.matches.length - 4].winner).transfer */\n      0xffffffffffffffffffffffffffffffffffffffff\n      and\n        /* \"contracts/Tournament.sol\":5486:5579  payable(tournament.matches[tournament.matches.length - 4].winner).transfer(fourthPlaceReward) */\n      0x08fc\n        /* \"contracts/Tournament.sol\":5561:5578  fourthPlaceReward */\n      dup3\n        /* \"contracts/Tournament.sol\":5486:5579  payable(tournament.matches[tournament.matches.length - 4].winner).transfer(fourthPlaceReward) */\n      swap1\n      dup2\n      iszero\n      mul\n      swap1\n      mload(0x40)\n      0x00\n      mload(0x40)\n      dup1\n      dup4\n      sub\n      dup2\n      dup6\n      dup9\n      dup9\n      call\n      swap4\n      pop\n      pop\n      pop\n      pop\n      iszero\n      dup1\n      iszero\n      tag_95\n      jumpi\n      returndatasize\n      0x00\n      dup1\n      returndatacopy\n      revert(0x00, returndatasize)\n    tag_95:\n      pop\n        /* \"contracts/Tournament.sol\":4542:5587  {... */\n      pop\n      pop\n      pop\n      pop\n      pop\n        /* \"contracts/Tournament.sol\":1195:1196  _ */\n      pop\n        /* \"contracts/Tournament.sol\":4441:5587  function distributeRewards(uint256 _tournamentId) external onlyOwner tournamentExists(_tournamentId) {... */\n      pop\n      jump\t// out\n        /* \"contracts/Tournament.sol\":2821:3368  function startTournament(uint256 _tournamentId) external onlyOwner tournamentExists(_tournamentId) {... */\n    tag_18:\n        /* \"contracts/Tournament.sol\":1141:1146  owner */\n      0x00\n      dup1\n      sload\n      swap1\n      0x0100\n      exp\n      swap1\n      div\n      0xffffffffffffffffffffffffffffffffffffffff\n      and\n        /* \"contracts/Tournament.sol\":1127:1146  msg.sender == owner */\n      0xffffffffffffffffffffffffffffffffffffffff\n      and\n        /* \"contracts/Tournament.sol\":1127:1137  msg.sender */\n      caller\n        /* \"contracts/Tournament.sol\":1127:1146  msg.sender == owner */\n      0xffffffffffffffffffffffffffffffffffffffff\n      and\n      eq\n        /* \"contracts/Tournament.sol\":1119:1184  require(msg.sender == owner, \"Only owner can call this function\") */\n      tag_97\n      jumpi\n      mload(0x40)\n      0x08c379a000000000000000000000000000000000000000000000000000000000\n      dup2\n      mstore\n      0x04\n      add\n      tag_98\n      swap1\n      tag_48\n      jump\t// in\n    tag_98:\n      mload(0x40)\n      dup1\n      swap2\n      sub\n      swap1\n      revert\n    tag_97:\n        /* \"contracts/Tournament.sol\":2905:2918  _tournamentId */\n      dup1\n        /* \"contracts/Tournament.sol\":1392:1393  0 */\n      0x00\n        /* \"contracts/Tournament.sol\":1350:1361  tournaments */\n      0x02\n        /* \"contracts/Tournament.sol\":1350:1376  tournaments[_tournamentId] */\n      0x00\n        /* \"contracts/Tournament.sol\":1362:1375  _tournamentId */\n      dup4\n        /* \"contracts/Tournament.sol\":1350:1376  tournaments[_tournamentId] */\n      dup2\n      mstore\n      0x20\n      add\n      swap1\n      dup2\n      mstore\n      0x20\n      add\n      0x00\n      keccak256\n        /* \"contracts/Tournament.sol\":1350:1382  tournaments[_tournamentId].teams */\n      0x01\n      add\n        /* \"contracts/Tournament.sol\":1350:1389  tournaments[_tournamentId].teams.length */\n      dup1\n      sload\n      swap1\n      pop\n        /* \"contracts/Tournament.sol\":1350:1393  tournaments[_tournamentId].teams.length > 0 */\n      gt\n        /* \"contracts/Tournament.sol\":1342:1423  require(tournaments[_tournamentId].teams.length > 0, \"Tournament does not exist\") */\n      tag_100\n      jumpi\n      mload(0x40)\n      0x08c379a000000000000000000000000000000000000000000000000000000000\n      dup2\n      mstore\n      0x04\n      add\n      tag_101\n      swap1\n      tag_52\n      jump\t// in\n    tag_101:\n      mload(0x40)\n      dup1\n      swap2\n      sub\n      swap1\n      revert\n    tag_100:\n        /* \"contracts/Tournament.sol\":2931:2964  TournamentInfo storage tournament */\n      0x00\n        /* \"contracts/Tournament.sol\":2967:2978  tournaments */\n      0x02\n        /* \"contracts/Tournament.sol\":2967:2993  tournaments[_tournamentId] */\n      0x00\n        /* \"contracts/Tournament.sol\":2979:2992  _tournamentId */\n      dup5\n        /* \"contracts/Tournament.sol\":2967:2993  tournaments[_tournamentId] */\n      dup2\n      mstore\n      0x20\n      add\n      swap1\n      dup2\n      mstore\n      0x20\n      add\n      0x00\n      keccak256\n        /* \"contracts/Tournament.sol\":2931:2993  TournamentInfo storage tournament = tournaments[_tournamentId] */\n      swap1\n      pop\n        /* \"contracts/Tournament.sol\":3004:3020  uint256 numTeams */\n      0x00\n        /* \"contracts/Tournament.sol\":3023:3033  tournament */\n      dup2\n        /* \"contracts/Tournament.sol\":3023:3039  tournament.teams */\n      0x01\n      add\n        /* \"contracts/Tournament.sol\":3023:3046  tournament.teams.length */\n      dup1\n      sload\n      swap1\n      pop\n        /* \"contracts/Tournament.sol\":3004:3046  uint256 numTeams = tournament.teams.length */\n      swap1\n      pop\n        /* \"contracts/Tournament.sol\":3064:3073  uint256 i */\n      0x00\n        /* \"contracts/Tournament.sol\":3059:3361  for (uint256 i = 0; i < numTeams / 2; i++) {... */\n    tag_103:\n        /* \"contracts/Tournament.sol\":3094:3095  2 */\n      0x02\n        /* \"contracts/Tournament.sol\":3083:3091  numTeams */\n      dup3\n        /* \"contracts/Tournament.sol\":3083:3095  numTeams / 2 */\n      tag_106\n      swap2\n      swap1\n      tag_64\n      jump\t// in\n    tag_106:\n        /* \"contracts/Tournament.sol\":3079:3080  i */\n      dup2\n        /* \"contracts/Tournament.sol\":3079:3095  i < numTeams / 2 */\n      lt\n        /* \"contracts/Tournament.sol\":3059:3361  for (uint256 i = 0; i < numTeams / 2; i++) {... */\n      iszero\n      tag_104\n      jumpi\n        /* \"contracts/Tournament.sol\":3117:3127  tournament */\n      dup3\n        /* \"contracts/Tournament.sol\":3117:3135  tournament.matches */\n      0x00\n      add\n        /* \"contracts/Tournament.sol\":3141:3348  Match({... */\n      mload(0x40)\n      dup1\n      0x80\n      add\n      0x40\n      mstore\n      dup1\n        /* \"contracts/Tournament.sol\":3173:3183  tournament */\n      dup6\n        /* \"contracts/Tournament.sol\":3173:3189  tournament.teams */\n      0x01\n      add\n        /* \"contracts/Tournament.sol\":3194:3195  2 */\n      0x02\n        /* \"contracts/Tournament.sol\":3190:3191  i */\n      dup6\n        /* \"contracts/Tournament.sol\":3190:3195  i * 2 */\n      tag_107\n      swap2\n      swap1\n      tag_62\n      jump\t// in\n    tag_107:\n        /* \"contracts/Tournament.sol\":3173:3196  tournament.teams[i * 2] */\n      dup2\n      sload\n      dup2\n      lt\n      tag_108\n      jumpi\n      tag_109\n      tag_74\n      jump\t// in\n    tag_109:\n    tag_108:\n      swap1\n      0x00\n      mstore\n      keccak256(0x00, 0x20)\n      add\n      0x00\n      swap1\n      sload\n      swap1\n      0x0100\n      exp\n      swap1\n      div\n      0xffffffffffffffffffffffffffffffffffffffff\n      and\n        /* \"contracts/Tournament.sol\":3141:3348  Match({... */\n      0xffffffffffffffffffffffffffffffffffffffff\n      and\n      dup2\n      mstore\n      0x20\n      add\n        /* \"contracts/Tournament.sol\":3222:3232  tournament */\n      dup6\n        /* \"contracts/Tournament.sol\":3222:3238  tournament.teams */\n      0x01\n      add\n        /* \"contracts/Tournament.sol\":3247:3248  1 */\n      0x01\n        /* \"contracts/Tournament.sol\":3243:3244  2 */\n      0x02\n        /* \"contracts/Tournament.sol\":3239:3240  i */\n      dup7\n        /* \"contracts/Tournament.sol\":3239:3244  i * 2 */\n      tag_111\n      swap2\n      swap1\n      tag_62\n      jump\t// in\n    tag_111:\n        /* \"contracts/Tournament.sol\":3239:3248  i * 2 + 1 */\n      tag_112\n      swap2\n      swap1\n      tag_113\n      jump\t// in\n    tag_112:\n        /* \"contracts/Tournament.sol\":3222:3249  tournament.teams[i * 2 + 1] */\n      dup2\n      sload\n      dup2\n      lt\n      tag_114\n      jumpi\n      tag_115\n      tag_74\n      jump\t// in\n    tag_115:\n    tag_114:\n      swap1\n      0x00\n      mstore\n      keccak256(0x00, 0x20)\n      add\n      0x00\n      swap1\n      sload\n      swap1\n      0x0100\n      exp\n      swap1\n      div\n      0xffffffffffffffffffffffffffffffffffffffff\n      and\n        /* \"contracts/Tournament.sol\":3141:3348  Match({... */\n      0xffffffffffffffffffffffffffffffffffffffff\n      and\n      dup2\n      mstore\n      0x20\n      add\n        /* \"contracts/Tournament.sol\":3284:3285  0 */\n      0x00\n        /* \"contracts/Tournament.sol\":3141:3348  Match({... */\n      0xffffffffffffffffffffffffffffffffffffffff\n      and\n      dup2\n      mstore\n      0x20\n      add\n        /* \"contracts/Tournament.sol\":3313:3332  MatchStatus.Pending */\n      0x00\n        /* \"contracts/Tournament.sol\":3141:3348  Match({... */\n      0x01\n      dup2\n      gt\n      iszero\n      tag_117\n      jumpi\n      tag_118\n      tag_119\n      jump\t// in\n    tag_118:\n    tag_117:\n      dup2\n      mstore\n      pop\n        /* \"contracts/Tournament.sol\":3117:3349  tournament.matches.push(Match({... */\n      swap1\n      dup1\n      0x01\n      dup2\n      sload\n      add\n      dup1\n      dup3\n      sstore\n      dup1\n      swap2\n      pop\n      pop\n      0x01\n      swap1\n      sub\n      swap1\n      0x00\n      mstore\n      keccak256(0x00, 0x20)\n      swap1\n      0x03\n      mul\n      add\n      0x00\n      swap1\n      swap2\n      swap1\n      swap2\n      swap1\n      swap2\n      pop\n      0x00\n      dup3\n      add\n      mload\n      dup2\n      0x00\n      add\n      exp(0x0100, 0x00)\n      dup2\n      sload\n      dup2\n      0xffffffffffffffffffffffffffffffffffffffff\n      mul\n      not\n      and\n      swap1\n      dup4\n      0xffffffffffffffffffffffffffffffffffffffff\n      and\n      mul\n      or\n      swap1\n      sstore\n      pop\n      0x20\n      dup3\n      add\n      mload\n      dup2\n      0x01\n      add\n      exp(0x0100, 0x00)\n      dup2\n      sload\n      dup2\n      0xffffffffffffffffffffffffffffffffffffffff\n      mul\n      not\n      and\n      swap1\n      dup4\n      0xffffffffffffffffffffffffffffffffffffffff\n      and\n      mul\n      or\n      swap1\n      sstore\n      pop\n      0x40\n      dup3\n      add\n      mload\n      dup2\n      0x02\n      add\n      exp(0x0100, 0x00)\n      dup2\n      sload\n      dup2\n      0xffffffffffffffffffffffffffffffffffffffff\n      mul\n      not\n      and\n      swap1\n      dup4\n      0xffffffffffffffffffffffffffffffffffffffff\n      and\n      mul\n      or\n      swap1\n      sstore\n      pop\n      0x60\n      dup3\n      add\n      mload\n      dup2\n      0x02\n      add\n      exp(0x0100, 0x14)\n      dup2\n      sload\n      dup2\n      0xff\n      mul\n      not\n      and\n      swap1\n      dup4\n      0x01\n      dup2\n      gt\n      iszero\n      tag_121\n      jumpi\n      tag_122\n      tag_119\n      jump\t// in\n    tag_122:\n    tag_121:\n      mul\n      or\n      swap1\n      sstore\n      pop\n      pop\n      pop\n        /* \"contracts/Tournament.sol\":3097:3100  i++ */\n      dup1\n      dup1\n      tag_123\n      swap1\n      tag_124\n      jump\t// in\n    tag_123:\n      swap2\n      pop\n      pop\n        /* \"contracts/Tournament.sol\":3059:3361  for (uint256 i = 0; i < numTeams / 2; i++) {... */\n      jump(tag_103)\n    tag_104:\n      pop\n        /* \"contracts/Tournament.sol\":2920:3368  {... */\n      pop\n      pop\n        /* \"contracts/Tournament.sol\":1195:1196  _ */\n      pop\n        /* \"contracts/Tournament.sol\":2821:3368  function startTournament(uint256 _tournamentId) external onlyOwner tournamentExists(_tournamentId) {... */\n      pop\n      jump\t// out\n        /* \"contracts/Tournament.sol\":165:190  uint256 public rewardPool */\n    tag_20:\n      sload(0x01)\n      dup2\n      jump\t// out\n        /* \"contracts/Tournament.sol\":3450:4250  function completeMatch(uint256 _tournamentId, uint256 _matchIndex, address _winner) external onlyOwner tournamentExists(_tournamentId) {... */\n    tag_26:\n        /* \"contracts/Tournament.sol\":1141:1146  owner */\n      0x00\n      dup1\n      sload\n      swap1\n      0x0100\n      exp\n      swap1\n      div\n      0xffffffffffffffffffffffffffffffffffffffff\n      and\n        /* \"contracts/Tournament.sol\":1127:1146  msg.sender == owner */\n      0xffffffffffffffffffffffffffffffffffffffff\n      and\n        /* \"contracts/Tournament.sol\":1127:1137  msg.sender */\n      caller\n        /* \"contracts/Tournament.sol\":1127:1146  msg.sender == owner */\n      0xffffffffffffffffffffffffffffffffffffffff\n      and\n      eq\n        /* \"contracts/Tournament.sol\":1119:1184  require(msg.sender == owner, \"Only owner can call this function\") */\n      tag_126\n      jumpi\n      mload(0x40)\n      0x08c379a000000000000000000000000000000000000000000000000000000000\n      dup2\n      mstore\n      0x04\n      add\n      tag_127\n      swap1\n      tag_48\n      jump\t// in\n    tag_127:\n      mload(0x40)\n      dup1\n      swap2\n      sub\n      swap1\n      revert\n    tag_126:\n        /* \"contracts/Tournament.sol\":3570:3583  _tournamentId */\n      dup3\n        /* \"contracts/Tournament.sol\":1392:1393  0 */\n      0x00\n        /* \"contracts/Tournament.sol\":1350:1361  tournaments */\n      0x02\n        /* \"contracts/Tournament.sol\":1350:1376  tournaments[_tournamentId] */\n      0x00\n        /* \"contracts/Tournament.sol\":1362:1375  _tournamentId */\n      dup4\n        /* \"contracts/Tournament.sol\":1350:1376  tournaments[_tournamentId] */\n      dup2\n      mstore\n      0x20\n      add\n      swap1\n      dup2\n      mstore\n      0x20\n      add\n      0x00\n      keccak256\n        /* \"contracts/Tournament.sol\":1350:1382  tournaments[_tournamentId].teams */\n      0x01\n      add\n        /* \"contracts/Tournament.sol\":1350:1389  tournaments[_tournamentId].teams.length */\n      dup1\n      sload\n      swap1\n      pop\n        /* \"contracts/Tournament.sol\":1350:1393  tournaments[_tournamentId].teams.length > 0 */\n      gt\n        /* \"contracts/Tournament.sol\":1342:1423  require(tournaments[_tournamentId].teams.length > 0, \"Tournament does not exist\") */\n      tag_129\n      jumpi\n      mload(0x40)\n      0x08c379a000000000000000000000000000000000000000000000000000000000\n      dup2\n      mstore\n      0x04\n      add\n      tag_130\n      swap1\n      tag_52\n      jump\t// in\n    tag_130:\n      mload(0x40)\n      dup1\n      swap2\n      sub\n      swap1\n      revert\n    tag_129:\n        /* \"contracts/Tournament.sol\":3596:3629  TournamentInfo storage tournament */\n      0x00\n        /* \"contracts/Tournament.sol\":3632:3643  tournaments */\n      0x02\n        /* \"contracts/Tournament.sol\":3632:3658  tournaments[_tournamentId] */\n      0x00\n        /* \"contracts/Tournament.sol\":3644:3657  _tournamentId */\n      dup7\n        /* \"contracts/Tournament.sol\":3632:3658  tournaments[_tournamentId] */\n      dup2\n      mstore\n      0x20\n      add\n      swap1\n      dup2\n      mstore\n      0x20\n      add\n      0x00\n      keccak256\n        /* \"contracts/Tournament.sol\":3596:3658  TournamentInfo storage tournament = tournaments[_tournamentId] */\n      swap1\n      pop\n        /* \"contracts/Tournament.sol\":3691:3701  tournament */\n      dup1\n        /* \"contracts/Tournament.sol\":3691:3709  tournament.matches */\n      0x00\n      add\n        /* \"contracts/Tournament.sol\":3691:3716  tournament.matches.length */\n      dup1\n      sload\n      swap1\n      pop\n        /* \"contracts/Tournament.sol\":3677:3688  _matchIndex */\n      dup5\n        /* \"contracts/Tournament.sol\":3677:3716  _matchIndex < tournament.matches.length */\n      lt\n        /* \"contracts/Tournament.sol\":3669:3740  require(_matchIndex < tournament.matches.length, \"Invalid match index\") */\n      tag_132\n      jumpi\n      mload(0x40)\n      0x08c379a000000000000000000000000000000000000000000000000000000000\n      dup2\n      mstore\n      0x04\n      add\n      tag_133\n      swap1\n      tag_134\n      jump\t// in\n    tag_133:\n      mload(0x40)\n      dup1\n      swap2\n      sub\n      swap1\n      revert\n    tag_132:\n        /* \"contracts/Tournament.sol\":3801:3820  MatchStatus.Pending */\n      0x00\n        /* \"contracts/Tournament.sol\":3759:3820  tournament.matches[_matchIndex].status == MatchStatus.Pending */\n      0x01\n      dup2\n      gt\n      iszero\n      tag_135\n      jumpi\n      tag_136\n      tag_119\n      jump\t// in\n    tag_136:\n    tag_135:\n        /* \"contracts/Tournament.sol\":3759:3769  tournament */\n      dup2\n        /* \"contracts/Tournament.sol\":3759:3777  tournament.matches */\n      0x00\n      add\n        /* \"contracts/Tournament.sol\":3778:3789  _matchIndex */\n      dup6\n        /* \"contracts/Tournament.sol\":3759:3790  tournament.matches[_matchIndex] */\n      dup2\n      sload\n      dup2\n      lt\n      tag_137\n      jumpi\n      tag_138\n      tag_74\n      jump\t// in\n    tag_138:\n    tag_137:\n      swap1\n      0x00\n      mstore\n      keccak256(0x00, 0x20)\n      swap1\n      0x03\n      mul\n      add\n        /* \"contracts/Tournament.sol\":3759:3797  tournament.matches[_matchIndex].status */\n      0x02\n      add\n      0x14\n      swap1\n      sload\n      swap1\n      0x0100\n      exp\n      swap1\n      div\n      0xff\n      and\n        /* \"contracts/Tournament.sol\":3759:3820  tournament.matches[_matchIndex].status == MatchStatus.Pending */\n      0x01\n      dup2\n      gt\n      iszero\n      tag_140\n      jumpi\n      tag_141\n      tag_119\n      jump\t// in\n    tag_141:\n    tag_140:\n      eq\n        /* \"contracts/Tournament.sol\":3751:3848  require(tournament.matches[_matchIndex].status == MatchStatus.Pending, \"Match already completed\") */\n      tag_142\n      jumpi\n      mload(0x40)\n      0x08c379a000000000000000000000000000000000000000000000000000000000\n      dup2\n      mstore\n      0x04\n      add\n      tag_143\n      swap1\n      tag_144\n      jump\t// in\n    tag_143:\n      mload(0x40)\n      dup1\n      swap2\n      sub\n      swap1\n      revert\n    tag_142:\n        /* \"contracts/Tournament.sol\":4097:4104  _winner */\n      dup3\n        /* \"contracts/Tournament.sol\":4056:4066  tournament */\n      dup2\n        /* \"contracts/Tournament.sol\":4056:4074  tournament.matches */\n      0x00\n      add\n        /* \"contracts/Tournament.sol\":4075:4086  _matchIndex */\n      dup6\n        /* \"contracts/Tournament.sol\":4056:4087  tournament.matches[_matchIndex] */\n      dup2\n      sload\n      dup2\n      lt\n      tag_145\n      jumpi\n      tag_146\n      tag_74\n      jump\t// in\n    tag_146:\n    tag_145:\n      swap1\n      0x00\n      mstore\n      keccak256(0x00, 0x20)\n      swap1\n      0x03\n      mul\n      add\n        /* \"contracts/Tournament.sol\":4056:4094  tournament.matches[_matchIndex].winner */\n      0x02\n      add\n      0x00\n        /* \"contracts/Tournament.sol\":4056:4104  tournament.matches[_matchIndex].winner = _winner */\n      0x0100\n      exp\n      dup2\n      sload\n      dup2\n      0xffffffffffffffffffffffffffffffffffffffff\n      mul\n      not\n      and\n      swap1\n      dup4\n      0xffffffffffffffffffffffffffffffffffffffff\n      and\n      mul\n      or\n      swap1\n      sstore\n      pop\n        /* \"contracts/Tournament.sol\":4156:4177  MatchStatus.Completed */\n      0x01\n        /* \"contracts/Tournament.sol\":4115:4125  tournament */\n      dup2\n        /* \"contracts/Tournament.sol\":4115:4133  tournament.matches */\n      0x00\n      add\n        /* \"contracts/Tournament.sol\":4134:4145  _matchIndex */\n      dup6\n        /* \"contracts/Tournament.sol\":4115:4146  tournament.matches[_matchIndex] */\n      dup2\n      sload\n      dup2\n      lt\n      tag_148\n      jumpi\n      tag_149\n      tag_74\n      jump\t// in\n    tag_149:\n    tag_148:\n      swap1\n      0x00\n      mstore\n      keccak256(0x00, 0x20)\n      swap1\n      0x03\n      mul\n      add\n        /* \"contracts/Tournament.sol\":4115:4153  tournament.matches[_matchIndex].status */\n      0x02\n      add\n      0x14\n        /* \"contracts/Tournament.sol\":4115:4177  tournament.matches[_matchIndex].status = MatchStatus.Completed */\n      0x0100\n      exp\n      dup2\n      sload\n      dup2\n      0xff\n      mul\n      not\n      and\n      swap1\n      dup4\n      0x01\n      dup2\n      gt\n      iszero\n      tag_151\n      jumpi\n      tag_152\n      tag_119\n      jump\t// in\n    tag_152:\n    tag_151:\n      mul\n      or\n      swap1\n      sstore\n      pop\n        /* \"contracts/Tournament.sol\":4210:4223  _tournamentId */\n      dup5\n        /* \"contracts/Tournament.sol\":4195:4246  MatchCompleted(_tournamentId, _matchIndex, _winner) */\n      0x8d60b015965672d4594cbe60ae278e009bdef53b71cccf704014a4860ccf8a57\n        /* \"contracts/Tournament.sol\":4225:4236  _matchIndex */\n      dup6\n        /* \"contracts/Tournament.sol\":4238:4245  _winner */\n      dup6\n        /* \"contracts/Tournament.sol\":4195:4246  MatchCompleted(_tournamentId, _matchIndex, _winner) */\n      mload(0x40)\n      tag_153\n      swap3\n      swap2\n      swap1\n      tag_154\n      jump\t// in\n    tag_153:\n      mload(0x40)\n      dup1\n      swap2\n      sub\n      swap1\n      log2\n        /* \"contracts/Tournament.sol\":3585:4250  {... */\n      pop\n        /* \"contracts/Tournament.sol\":1195:1196  _ */\n      pop\n        /* \"contracts/Tournament.sol\":3450:4250  function completeMatch(uint256 _tournamentId, uint256 _matchIndex, address _winner) external onlyOwner tournamentExists(_tournamentId) {... */\n      pop\n      pop\n      pop\n      jump\t// out\n        /* \"contracts/Tournament.sol\":1889:2039  function getTournamentTeams(uint256 _tournamentId) external view returns (address[] memory) {... */\n    tag_29:\n        /* \"contracts/Tournament.sol\":1963:1979  address[] memory */\n      0x60\n        /* \"contracts/Tournament.sol\":1999:2010  tournaments */\n      0x02\n        /* \"contracts/Tournament.sol\":1999:2025  tournaments[_tournamentId] */\n      0x00\n        /* \"contracts/Tournament.sol\":2011:2024  _tournamentId */\n      dup4\n        /* \"contracts/Tournament.sol\":1999:2025  tournaments[_tournamentId] */\n      dup2\n      mstore\n      0x20\n      add\n      swap1\n      dup2\n      mstore\n      0x20\n      add\n      0x00\n      keccak256\n        /* \"contracts/Tournament.sol\":1999:2031  tournaments[_tournamentId].teams */\n      0x01\n      add\n        /* \"contracts/Tournament.sol\":1992:2031  return tournaments[_tournamentId].teams */\n      dup1\n      sload\n      dup1\n      0x20\n      mul\n      0x20\n      add\n      mload(0x40)\n      swap1\n      dup2\n      add\n      0x40\n      mstore\n      dup1\n      swap3\n      swap2\n      swap1\n      dup2\n      dup2\n      mstore\n      0x20\n      add\n      dup3\n      dup1\n      sload\n      dup1\n      iszero\n      tag_156\n      jumpi\n      0x20\n      mul\n      dup3\n      add\n      swap2\n      swap1\n      0x00\n      mstore\n      keccak256(0x00, 0x20)\n      swap1\n    tag_157:\n      dup2\n      0x00\n      swap1\n      sload\n      swap1\n      0x0100\n      exp\n      swap1\n      div\n      0xffffffffffffffffffffffffffffffffffffffff\n      and\n      0xffffffffffffffffffffffffffffffffffffffff\n      and\n      dup2\n      mstore\n      0x20\n      add\n      swap1\n      0x01\n      add\n      swap1\n      dup1\n      dup4\n      gt\n      tag_157\n      jumpi\n    tag_156:\n      pop\n      pop\n      pop\n      pop\n      pop\n      swap1\n      pop\n        /* \"contracts/Tournament.sol\":1889:2039  function getTournamentTeams(uint256 _tournamentId) external view returns (address[] memory) {... */\n      swap2\n      swap1\n      pop\n      jump\t// out\n        /* \"contracts/Tournament.sol\":110:130  address public owner */\n    tag_33:\n      0x00\n      dup1\n      sload\n      swap1\n      0x0100\n      exp\n      swap1\n      div\n      0xffffffffffffffffffffffffffffffffffffffff\n      and\n      dup2\n      jump\t// out\n        /* \"contracts/Tournament.sol\":2336:2744  function createTournament(uint256 _tournamentId, address[] memory _teams) external onlyOwner tournamentNotStarted(_tournamentId) {... */\n    tag_39:\n        /* \"contracts/Tournament.sol\":1141:1146  owner */\n      0x00\n      dup1\n      sload\n      swap1\n      0x0100\n      exp\n      swap1\n      div\n      0xffffffffffffffffffffffffffffffffffffffff\n      and\n        /* \"contracts/Tournament.sol\":1127:1146  msg.sender == owner */\n      0xffffffffffffffffffffffffffffffffffffffff\n      and\n        /* \"contracts/Tournament.sol\":1127:1137  msg.sender */\n      caller\n        /* \"contracts/Tournament.sol\":1127:1146  msg.sender == owner */\n      0xffffffffffffffffffffffffffffffffffffffff\n      and\n      eq\n        /* \"contracts/Tournament.sol\":1119:1184  require(msg.sender == owner, \"Only owner can call this function\") */\n      tag_159\n      jumpi\n      mload(0x40)\n      0x08c379a000000000000000000000000000000000000000000000000000000000\n      dup2\n      mstore\n      0x04\n      add\n      tag_160\n      swap1\n      tag_48\n      jump\t// in\n    tag_160:\n      mload(0x40)\n      dup1\n      swap2\n      sub\n      swap1\n      revert\n    tag_159:\n        /* \"contracts/Tournament.sol\":2450:2463  _tournamentId */\n      dup2\n        /* \"contracts/Tournament.sol\":1651:1652  0 */\n      0x00\n        /* \"contracts/Tournament.sol\":1606:1617  tournaments */\n      0x02\n        /* \"contracts/Tournament.sol\":1606:1632  tournaments[_tournamentId] */\n      0x00\n        /* \"contracts/Tournament.sol\":1618:1631  _tournamentId */\n      dup4\n        /* \"contracts/Tournament.sol\":1606:1632  tournaments[_tournamentId] */\n      dup2\n      mstore\n      0x20\n      add\n      swap1\n      dup2\n      mstore\n      0x20\n      add\n      0x00\n      keccak256\n        /* \"contracts/Tournament.sol\":1606:1640  tournaments[_tournamentId].matches */\n      0x00\n      add\n        /* \"contracts/Tournament.sol\":1606:1647  tournaments[_tournamentId].matches.length */\n      dup1\n      sload\n      swap1\n      pop\n        /* \"contracts/Tournament.sol\":1606:1652  tournaments[_tournamentId].matches.length == 0 */\n      eq\n        /* \"contracts/Tournament.sol\":1598:1687  require(tournaments[_tournamentId].matches.length == 0, \"Tournament has already started\") */\n      tag_162\n      jumpi\n      mload(0x40)\n      0x08c379a000000000000000000000000000000000000000000000000000000000\n      dup2\n      mstore\n      0x04\n      add\n      tag_163\n      swap1\n      tag_164\n      jump\t// in\n    tag_163:\n      mload(0x40)\n      dup1\n      swap2\n      sub\n      swap1\n      revert\n    tag_162:\n        /* \"contracts/Tournament.sol\":2501:2502  8 */\n      0x08\n        /* \"contracts/Tournament.sol\":2484:2490  _teams */\n      dup3\n        /* \"contracts/Tournament.sol\":2484:2497  _teams.length */\n      mload\n        /* \"contracts/Tournament.sol\":2484:2502  _teams.length == 8 */\n      eq\n        /* \"contracts/Tournament.sol\":2484:2525  _teams.length == 8 || _teams.length == 16 */\n      dup1\n      tag_166\n      jumpi\n      pop\n        /* \"contracts/Tournament.sol\":2523:2525  16 */\n      0x10\n        /* \"contracts/Tournament.sol\":2506:2512  _teams */\n      dup3\n        /* \"contracts/Tournament.sol\":2506:2519  _teams.length */\n      mload\n        /* \"contracts/Tournament.sol\":2506:2525  _teams.length == 16 */\n      eq\n        /* \"contracts/Tournament.sol\":2484:2525  _teams.length == 8 || _teams.length == 16 */\n    tag_166:\n        /* \"contracts/Tournament.sol\":2476:2561  require(_teams.length == 8 || _teams.length == 16, \"Number of teams must be 8 or 16\") */\n      tag_167\n      jumpi\n      mload(0x40)\n      0x08c379a000000000000000000000000000000000000000000000000000000000\n      dup2\n      mstore\n      0x04\n      add\n      tag_168\n      swap1\n      tag_169\n      jump\t// in\n    tag_168:\n      mload(0x40)\n      dup1\n      swap2\n      sub\n      swap1\n      revert\n    tag_167:\n        /* \"contracts/Tournament.sol\":2574:2610  TournamentInfo storage newTournament */\n      0x00\n        /* \"contracts/Tournament.sol\":2613:2624  tournaments */\n      0x02\n        /* \"contracts/Tournament.sol\":2613:2639  tournaments[_tournamentId] */\n      0x00\n        /* \"contracts/Tournament.sol\":2625:2638  _tournamentId */\n      dup6\n        /* \"contracts/Tournament.sol\":2613:2639  tournaments[_tournamentId] */\n      dup2\n      mstore\n      0x20\n      add\n      swap1\n      dup2\n      mstore\n      0x20\n      add\n      0x00\n      keccak256\n        /* \"contracts/Tournament.sol\":2574:2639  TournamentInfo storage newTournament = tournaments[_tournamentId] */\n      swap1\n      pop\n        /* \"contracts/Tournament.sol\":2672:2678  _teams */\n      dup3\n        /* \"contracts/Tournament.sol\":2650:2663  newTournament */\n      dup2\n        /* \"contracts/Tournament.sol\":2650:2669  newTournament.teams */\n      0x01\n      add\n        /* \"contracts/Tournament.sol\":2650:2678  newTournament.teams = _teams */\n      swap1\n      dup1\n      mload\n      swap1\n      0x20\n      add\n      swap1\n      tag_170\n      swap3\n      swap2\n      swap1\n      tag_171\n      jump\t// in\n    tag_170:\n      pop\n        /* \"contracts/Tournament.sol\":2714:2727  _tournamentId */\n      dup4\n        /* \"contracts/Tournament.sol\":2696:2736  TournamentCreated(_tournamentId, _teams) */\n      0xa47122c4660339cf88308783d3c2a9ed10d7809cc28e552e580a7a89722f6da9\n        /* \"contracts/Tournament.sol\":2729:2735  _teams */\n      dup5\n        /* \"contracts/Tournament.sol\":2696:2736  TournamentCreated(_tournamentId, _teams) */\n      mload(0x40)\n      tag_172\n      swap2\n      swap1\n      tag_31\n      jump\t// in\n    tag_172:\n      mload(0x40)\n      dup1\n      swap2\n      sub\n      swap1\n      log2\n        /* \"contracts/Tournament.sol\":2465:2744  {... */\n      pop\n        /* \"contracts/Tournament.sol\":1195:1196  _ */\n      pop\n        /* \"contracts/Tournament.sol\":2336:2744  function createTournament(uint256 _tournamentId, address[] memory _teams) external onlyOwner tournamentNotStarted(_tournamentId) {... */\n      pop\n      pop\n      jump\t// out\n        /* \"contracts/Tournament.sol\":2104:2256  function getTournamentMatches(uint256 _tournamentId) external view returns (Match[] memory) {... */\n    tag_42:\n        /* \"contracts/Tournament.sol\":2180:2194  Match[] memory */\n      0x60\n        /* \"contracts/Tournament.sol\":2214:2225  tournaments */\n      0x02\n        /* \"contracts/Tournament.sol\":2214:2240  tournaments[_tournamentId] */\n      0x00\n        /* \"contracts/Tournament.sol\":2226:2239  _tournamentId */\n      dup4\n        /* \"contracts/Tournament.sol\":2214:2240  tournaments[_tournamentId] */\n      dup2\n      mstore\n      0x20\n      add\n      swap1\n      dup2\n      mstore\n      0x20\n      add\n      0x00\n      keccak256\n        /* \"contracts/Tournament.sol\":2214:2248  tournaments[_tournamentId].matches */\n      0x00\n      add\n        /* \"contracts/Tournament.sol\":2207:2248  return tournaments[_tournamentId].matches */\n      dup1\n      sload\n      dup1\n      0x20\n      mul\n      0x20\n      add\n      mload(0x40)\n      swap1\n      dup2\n      add\n      0x40\n      mstore\n      dup1\n      swap3\n      swap2\n      swap1\n      dup2\n      dup2\n      mstore\n      0x20\n      add\n      0x00\n      swap1\n    tag_174:\n      dup3\n      dup3\n      lt\n      iszero\n      tag_175\n      jumpi\n      dup4\n      dup3\n      swap1\n      0x00\n      mstore\n      keccak256(0x00, 0x20)\n      swap1\n      0x03\n      mul\n      add\n      mload(0x40)\n      dup1\n      0x80\n      add\n      0x40\n      mstore\n      swap1\n      dup2\n      0x00\n      dup3\n      add\n      0x00\n      swap1\n      sload\n      swap1\n      0x0100\n      exp\n      swap1\n      div\n      0xffffffffffffffffffffffffffffffffffffffff\n      and\n      0xffffffffffffffffffffffffffffffffffffffff\n      and\n      0xffffffffffffffffffffffffffffffffffffffff\n      and\n      dup2\n      mstore\n      0x20\n      add\n      0x01\n      dup3\n      add\n      0x00\n      swap1\n      sload\n      swap1\n      0x0100\n      exp\n      swap1\n      div\n      0xffffffffffffffffffffffffffffffffffffffff\n      and\n      0xffffffffffffffffffffffffffffffffffffffff\n      and\n      0xffffffffffffffffffffffffffffffffffffffff\n      and\n      dup2\n      mstore\n      0x20\n      add\n      0x02\n      dup3\n      add\n      0x00\n      swap1\n      sload\n      swap1\n      0x0100\n      exp\n      swap1\n      div\n      0xffffffffffffffffffffffffffffffffffffffff\n      and\n      0xffffffffffffffffffffffffffffffffffffffff\n      and\n      0xffffffffffffffffffffffffffffffffffffffff\n      and\n      dup2\n      mstore\n      0x20\n      add\n      0x02\n      dup3\n      add\n      0x14\n      swap1\n      sload\n      swap1\n      0x0100\n      exp\n      swap1\n      div\n      0xff\n      and\n      0x01\n      dup2\n      gt\n      iszero\n      tag_177\n      jumpi\n      tag_178\n      tag_119\n      jump\t// in\n    tag_178:\n    tag_177:\n      0x01\n      dup2\n      gt\n      iszero\n      tag_179\n      jumpi\n      tag_180\n      tag_119\n      jump\t// in\n    tag_180:\n    tag_179:\n      dup2\n      mstore\n      pop\n      pop\n      dup2\n      mstore\n      0x20\n      add\n      swap1\n      0x01\n      add\n      swap1\n      jump(tag_174)\n    tag_175:\n      pop\n      pop\n      pop\n      pop\n      swap1\n      pop\n        /* \"contracts/Tournament.sol\":2104:2256  function getTournamentMatches(uint256 _tournamentId) external view returns (Match[] memory) {... */\n      swap2\n      swap1\n      pop\n      jump\t// out\n    tag_171:\n      dup3\n      dup1\n      sload\n      dup3\n      dup3\n      sstore\n      swap1\n      0x00\n      mstore\n      keccak256(0x00, 0x20)\n      swap1\n      dup2\n      add\n      swap3\n      dup3\n      iszero\n      tag_181\n      jumpi\n      swap2\n      0x20\n      mul\n      dup3\n      add\n    tag_182:\n      dup3\n      dup2\n      gt\n      iszero\n      tag_183\n      jumpi\n      dup3\n      mload\n      dup3\n      exp(0x0100, 0x00)\n      dup2\n      sload\n      dup2\n      0xffffffffffffffffffffffffffffffffffffffff\n      mul\n      not\n      and\n      swap1\n      dup4\n      0xffffffffffffffffffffffffffffffffffffffff\n      and\n      mul\n      or\n      swap1\n      sstore\n      pop\n      swap2\n      0x20\n      add\n      swap2\n      swap1\n      0x01\n      add\n      swap1\n      jump(tag_182)\n    tag_183:\n    tag_181:\n      pop\n      swap1\n      pop\n      tag_184\n      swap2\n      swap1\n      tag_185\n      jump\t// in\n    tag_184:\n      pop\n      swap1\n      jump\t// out\n    tag_185:\n    tag_186:\n      dup1\n      dup3\n      gt\n      iszero\n      tag_187\n      jumpi\n      0x00\n      dup2\n      0x00\n      swap1\n      sstore\n      pop\n      0x01\n      add\n      jump(tag_186)\n    tag_187:\n      pop\n      swap1\n      jump\t// out\n        /* \"#utility.yul\":7:82   */\n    tag_188:\n        /* \"#utility.yul\":40:46   */\n      0x00\n        /* \"#utility.yul\":73:75   */\n      0x40\n        /* \"#utility.yul\":67:76   */\n      mload\n        /* \"#utility.yul\":57:76   */\n      swap1\n      pop\n        /* \"#utility.yul\":7:82   */\n      swap1\n      jump\t// out\n        /* \"#utility.yul\":88:205   */\n    tag_189:\n        /* \"#utility.yul\":197:198   */\n      0x00\n        /* \"#utility.yul\":194:195   */\n      dup1\n        /* \"#utility.yul\":187:199   */\n      revert\n        /* \"#utility.yul\":211:328   */\n    tag_190:\n        /* \"#utility.yul\":320:321   */\n      0x00\n        /* \"#utility.yul\":317:318   */\n      dup1\n        /* \"#utility.yul\":310:322   */\n      revert\n        /* \"#utility.yul\":334:411   */\n    tag_191:\n        /* \"#utility.yul\":371:378   */\n      0x00\n        /* \"#utility.yul\":400:405   */\n      dup2\n        /* \"#utility.yul\":389:405   */\n      swap1\n      pop\n        /* \"#utility.yul\":334:411   */\n      swap2\n      swap1\n      pop\n      jump\t// out\n        /* \"#utility.yul\":417:539   */\n    tag_192:\n        /* \"#utility.yul\":490:514   */\n      tag_250\n        /* \"#utility.yul\":508:513   */\n      dup2\n        /* \"#utility.yul\":490:514   */\n      tag_191\n      jump\t// in\n    tag_250:\n        /* \"#utility.yul\":483:488   */\n      dup2\n        /* \"#utility.yul\":480:515   */\n      eq\n        /* \"#utility.yul\":470:533   */\n      tag_251\n      jumpi\n        /* \"#utility.yul\":529:530   */\n      0x00\n        /* \"#utility.yul\":526:527   */\n      dup1\n        /* \"#utility.yul\":519:531   */\n      revert\n        /* \"#utility.yul\":470:533   */\n    tag_251:\n        /* \"#utility.yul\":417:539   */\n      pop\n      jump\t// out\n        /* \"#utility.yul\":545:684   */\n    tag_193:\n        /* \"#utility.yul\":591:596   */\n      0x00\n        /* \"#utility.yul\":629:635   */\n      dup2\n        /* \"#utility.yul\":616:636   */\n      calldataload\n        /* \"#utility.yul\":607:636   */\n      swap1\n      pop\n        /* \"#utility.yul\":645:678   */\n      tag_253\n        /* \"#utility.yul\":672:677   */\n      dup2\n        /* \"#utility.yul\":645:678   */\n      tag_192\n      jump\t// in\n    tag_253:\n        /* \"#utility.yul\":545:684   */\n      swap3\n      swap2\n      pop\n      pop\n      jump\t// out\n        /* \"#utility.yul\":690:1019   */\n    tag_14:\n        /* \"#utility.yul\":749:755   */\n      0x00\n        /* \"#utility.yul\":798:800   */\n      0x20\n        /* \"#utility.yul\":786:795   */\n      dup3\n        /* \"#utility.yul\":777:784   */\n      dup5\n        /* \"#utility.yul\":773:796   */\n      sub\n        /* \"#utility.yul\":769:801   */\n      slt\n        /* \"#utility.yul\":766:885   */\n      iszero\n      tag_255\n      jumpi\n        /* \"#utility.yul\":804:883   */\n      tag_256\n      tag_189\n      jump\t// in\n    tag_256:\n        /* \"#utility.yul\":766:885   */\n    tag_255:\n        /* \"#utility.yul\":924:925   */\n      0x00\n        /* \"#utility.yul\":949:1002   */\n      tag_257\n        /* \"#utility.yul\":994:1001   */\n      dup5\n        /* \"#utility.yul\":985:991   */\n      dup3\n        /* \"#utility.yul\":974:983   */\n      dup6\n        /* \"#utility.yul\":970:992   */\n      add\n        /* \"#utility.yul\":949:1002   */\n      tag_193\n      jump\t// in\n    tag_257:\n        /* \"#utility.yul\":939:1002   */\n      swap2\n      pop\n        /* \"#utility.yul\":895:1012   */\n      pop\n        /* \"#utility.yul\":690:1019   */\n      swap3\n      swap2\n      pop\n      pop\n      jump\t// out\n        /* \"#utility.yul\":1025:1143   */\n    tag_194:\n        /* \"#utility.yul\":1112:1136   */\n      tag_259\n        /* \"#utility.yul\":1130:1135   */\n      dup2\n        /* \"#utility.yul\":1112:1136   */\n      tag_191\n      jump\t// in\n    tag_259:\n        /* \"#utility.yul\":1107:1110   */\n      dup3\n        /* \"#utility.yul\":1100:1137   */\n      mstore\n        /* \"#utility.yul\":1025:1143   */\n      pop\n      pop\n      jump\t// out\n        /* \"#utility.yul\":1149:1371   */\n    tag_22:\n        /* \"#utility.yul\":1242:1246   */\n      0x00\n        /* \"#utility.yul\":1280:1282   */\n      0x20\n        /* \"#utility.yul\":1269:1278   */\n      dup3\n        /* \"#utility.yul\":1265:1283   */\n      add\n        /* \"#utility.yul\":1257:1283   */\n      swap1\n      pop\n        /* \"#utility.yul\":1293:1364   */\n      tag_261\n        /* \"#utility.yul\":1361:1362   */\n      0x00\n        /* \"#utility.yul\":1350:1359   */\n      dup4\n        /* \"#utility.yul\":1346:1363   */\n      add\n        /* \"#utility.yul\":1337:1343   */\n      dup5\n        /* \"#utility.yul\":1293:1364   */\n      tag_194\n      jump\t// in\n    tag_261:\n        /* \"#utility.yul\":1149:1371   */\n      swap3\n      swap2\n      pop\n      pop\n      jump\t// out\n        /* \"#utility.yul\":1377:1503   */\n    tag_195:\n        /* \"#utility.yul\":1414:1421   */\n      0x00\n        /* \"#utility.yul\":1454:1496   */\n      0xffffffffffffffffffffffffffffffffffffffff\n        /* \"#utility.yul\":1447:1452   */\n      dup3\n        /* \"#utility.yul\":1443:1497   */\n      and\n        /* \"#utility.yul\":1432:1497   */\n      swap1\n      pop\n        /* \"#utility.yul\":1377:1503   */\n      swap2\n      swap1\n      pop\n      jump\t// out\n        /* \"#utility.yul\":1509:1605   */\n    tag_196:\n        /* \"#utility.yul\":1546:1553   */\n      0x00\n        /* \"#utility.yul\":1575:1599   */\n      tag_264\n        /* \"#utility.yul\":1593:1598   */\n      dup3\n        /* \"#utility.yul\":1575:1599   */\n      tag_195\n      jump\t// in\n    tag_264:\n        /* \"#utility.yul\":1564:1599   */\n      swap1\n      pop\n        /* \"#utility.yul\":1509:1605   */\n      swap2\n      swap1\n      pop\n      jump\t// out\n        /* \"#utility.yul\":1611:1733   */\n    tag_197:\n        /* \"#utility.yul\":1684:1708   */\n      tag_266\n        /* \"#utility.yul\":1702:1707   */\n      dup2\n        /* \"#utility.yul\":1684:1708   */\n      tag_196\n      jump\t// in\n    tag_266:\n        /* \"#utility.yul\":1677:1682   */\n      dup2\n        /* \"#utility.yul\":1674:1709   */\n      eq\n        /* \"#utility.yul\":1664:1727   */\n      tag_267\n      jumpi\n        /* \"#utility.yul\":1723:1724   */\n      0x00\n        /* \"#utility.yul\":1720:1721   */\n      dup1\n        /* \"#utility.yul\":1713:1725   */\n      revert\n        /* \"#utility.yul\":1664:1727   */\n    tag_267:\n        /* \"#utility.yul\":1611:1733   */\n      pop\n      jump\t// out\n        /* \"#utility.yul\":1739:1878   */\n    tag_198:\n        /* \"#utility.yul\":1785:1790   */\n      0x00\n        /* \"#utility.yul\":1823:1829   */\n      dup2\n        /* \"#utility.yul\":1810:1830   */\n      calldataload\n        /* \"#utility.yul\":1801:1830   */\n      swap1\n      pop\n        /* \"#utility.yul\":1839:1872   */\n      tag_269\n        /* \"#utility.yul\":1866:1871   */\n      dup2\n        /* \"#utility.yul\":1839:1872   */\n      tag_197\n      jump\t// in\n    tag_269:\n        /* \"#utility.yul\":1739:1878   */\n      swap3\n      swap2\n      pop\n      pop\n      jump\t// out\n        /* \"#utility.yul\":1884:2503   */\n    tag_25:\n        /* \"#utility.yul\":1961:1967   */\n      0x00\n        /* \"#utility.yul\":1969:1975   */\n      dup1\n        /* \"#utility.yul\":1977:1983   */\n      0x00\n        /* \"#utility.yul\":2026:2028   */\n      0x60\n        /* \"#utility.yul\":2014:2023   */\n      dup5\n        /* \"#utility.yul\":2005:2012   */\n      dup7\n        /* \"#utility.yul\":2001:2024   */\n      sub\n        /* \"#utility.yul\":1997:2029   */\n      slt\n        /* \"#utility.yul\":1994:2113   */\n      iszero\n      tag_271\n      jumpi\n        /* \"#utility.yul\":2032:2111   */\n      tag_272\n      tag_189\n      jump\t// in\n    tag_272:\n        /* \"#utility.yul\":1994:2113   */\n    tag_271:\n        /* \"#utility.yul\":2152:2153   */\n      0x00\n        /* \"#utility.yul\":2177:2230   */\n      tag_273\n        /* \"#utility.yul\":2222:2229   */\n      dup7\n        /* \"#utility.yul\":2213:2219   */\n      dup3\n        /* \"#utility.yul\":2202:2211   */\n      dup8\n        /* \"#utility.yul\":2198:2220   */\n      add\n        /* \"#utility.yul\":2177:2230   */\n      tag_193\n      jump\t// in\n    tag_273:\n        /* \"#utility.yul\":2167:2230   */\n      swap4\n      pop\n        /* \"#utility.yul\":2123:2240   */\n      pop\n        /* \"#utility.yul\":2279:2281   */\n      0x20\n        /* \"#utility.yul\":2305:2358   */\n      tag_274\n        /* \"#utility.yul\":2350:2357   */\n      dup7\n        /* \"#utility.yul\":2341:2347   */\n      dup3\n        /* \"#utility.yul\":2330:2339   */\n      dup8\n        /* \"#utility.yul\":2326:2348   */\n      add\n        /* \"#utility.yul\":2305:2358   */\n      tag_193\n      jump\t// in\n    tag_274:\n        /* \"#utility.yul\":2295:2358   */\n      swap3\n      pop\n        /* \"#utility.yul\":2250:2368   */\n      pop\n        /* \"#utility.yul\":2407:2409   */\n      0x40\n        /* \"#utility.yul\":2433:2486   */\n      tag_275\n        /* \"#utility.yul\":2478:2485   */\n      dup7\n        /* \"#utility.yul\":2469:2475   */\n      dup3\n        /* \"#utility.yul\":2458:2467   */\n      dup8\n        /* \"#utility.yul\":2454:2476   */\n      add\n        /* \"#utility.yul\":2433:2486   */\n      tag_198\n      jump\t// in\n    tag_275:\n        /* \"#utility.yul\":2423:2486   */\n      swap2\n      pop\n        /* \"#utility.yul\":2378:2496   */\n      pop\n        /* \"#utility.yul\":1884:2503   */\n      swap3\n      pop\n      swap3\n      pop\n      swap3\n      jump\t// out\n        /* \"#utility.yul\":2509:2623   */\n    tag_199:\n        /* \"#utility.yul\":2576:2582   */\n      0x00\n        /* \"#utility.yul\":2610:2615   */\n      dup2\n        /* \"#utility.yul\":2604:2616   */\n      mload\n        /* \"#utility.yul\":2594:2616   */\n      swap1\n      pop\n        /* \"#utility.yul\":2509:2623   */\n      swap2\n      swap1\n      pop\n      jump\t// out\n        /* \"#utility.yul\":2629:2813   */\n    tag_200:\n        /* \"#utility.yul\":2728:2739   */\n      0x00\n        /* \"#utility.yul\":2762:2768   */\n      dup3\n        /* \"#utility.yul\":2757:2760   */\n      dup3\n        /* \"#utility.yul\":2750:2769   */\n      mstore\n        /* \"#utility.yul\":2802:2806   */\n      0x20\n        /* \"#utility.yul\":2797:2800   */\n      dup3\n        /* \"#utility.yul\":2793:2807   */\n      add\n        /* \"#utility.yul\":2778:2807   */\n      swap1\n      pop\n        /* \"#utility.yul\":2629:2813   */\n      swap3\n      swap2\n      pop\n      pop\n      jump\t// out\n        /* \"#utility.yul\":2819:2951   */\n    tag_201:\n        /* \"#utility.yul\":2886:2890   */\n      0x00\n        /* \"#utility.yul\":2909:2912   */\n      dup2\n        /* \"#utility.yul\":2901:2912   */\n      swap1\n      pop\n        /* \"#utility.yul\":2939:2943   */\n      0x20\n        /* \"#utility.yul\":2934:2937   */\n      dup3\n        /* \"#utility.yul\":2930:2944   */\n      add\n        /* \"#utility.yul\":2922:2944   */\n      swap1\n      pop\n        /* \"#utility.yul\":2819:2951   */\n      swap2\n      swap1\n      pop\n      jump\t// out\n        /* \"#utility.yul\":2957:3065   */\n    tag_202:\n        /* \"#utility.yul\":3034:3058   */\n      tag_280\n        /* \"#utility.yul\":3052:3057   */\n      dup2\n        /* \"#utility.yul\":3034:3058   */\n      tag_196\n      jump\t// in\n    tag_280:\n        /* \"#utility.yul\":3029:3032   */\n      dup3\n        /* \"#utility.yul\":3022:3059   */\n      mstore\n        /* \"#utility.yul\":2957:3065   */\n      pop\n      pop\n      jump\t// out\n        /* \"#utility.yul\":3071:3250   */\n    tag_203:\n        /* \"#utility.yul\":3140:3150   */\n      0x00\n        /* \"#utility.yul\":3161:3207   */\n      tag_282\n        /* \"#utility.yul\":3203:3206   */\n      dup4\n        /* \"#utility.yul\":3195:3201   */\n      dup4\n        /* \"#utility.yul\":3161:3207   */\n      tag_202\n      jump\t// in\n    tag_282:\n        /* \"#utility.yul\":3239:3243   */\n      0x20\n        /* \"#utility.yul\":3234:3237   */\n      dup4\n        /* \"#utility.yul\":3230:3244   */\n      add\n        /* \"#utility.yul\":3216:3244   */\n      swap1\n      pop\n        /* \"#utility.yul\":3071:3250   */\n      swap3\n      swap2\n      pop\n      pop\n      jump\t// out\n        /* \"#utility.yul\":3256:3369   */\n    tag_204:\n        /* \"#utility.yul\":3326:3330   */\n      0x00\n        /* \"#utility.yul\":3358:3362   */\n      0x20\n        /* \"#utility.yul\":3353:3356   */\n      dup3\n        /* \"#utility.yul\":3349:3363   */\n      add\n        /* \"#utility.yul\":3341:3363   */\n      swap1\n      pop\n        /* \"#utility.yul\":3256:3369   */\n      swap2\n      swap1\n      pop\n      jump\t// out\n        /* \"#utility.yul\":3405:4137   */\n    tag_205:\n        /* \"#utility.yul\":3524:3527   */\n      0x00\n        /* \"#utility.yul\":3553:3607   */\n      tag_285\n        /* \"#utility.yul\":3601:3606   */\n      dup3\n        /* \"#utility.yul\":3553:3607   */\n      tag_199\n      jump\t// in\n    tag_285:\n        /* \"#utility.yul\":3623:3709   */\n      tag_286\n        /* \"#utility.yul\":3702:3708   */\n      dup2\n        /* \"#utility.yul\":3697:3700   */\n      dup6\n        /* \"#utility.yul\":3623:3709   */\n      tag_200\n      jump\t// in\n    tag_286:\n        /* \"#utility.yul\":3616:3709   */\n      swap4\n      pop\n        /* \"#utility.yul\":3733:3789   */\n      tag_287\n        /* \"#utility.yul\":3783:3788   */\n      dup4\n        /* \"#utility.yul\":3733:3789   */\n      tag_201\n      jump\t// in\n    tag_287:\n        /* \"#utility.yul\":3812:3819   */\n      dup1\n        /* \"#utility.yul\":3843:3844   */\n      0x00\n        /* \"#utility.yul\":3828:4112   */\n    tag_288:\n        /* \"#utility.yul\":3853:3859   */\n      dup4\n        /* \"#utility.yul\":3850:3851   */\n      dup2\n        /* \"#utility.yul\":3847:3860   */\n      lt\n        /* \"#utility.yul\":3828:4112   */\n      iszero\n      tag_290\n      jumpi\n        /* \"#utility.yul\":3929:3935   */\n      dup2\n        /* \"#utility.yul\":3923:3936   */\n      mload\n        /* \"#utility.yul\":3956:4019   */\n      tag_291\n        /* \"#utility.yul\":4015:4018   */\n      dup9\n        /* \"#utility.yul\":4000:4013   */\n      dup3\n        /* \"#utility.yul\":3956:4019   */\n      tag_203\n      jump\t// in\n    tag_291:\n        /* \"#utility.yul\":3949:4019   */\n      swap8\n      pop\n        /* \"#utility.yul\":4042:4102   */\n      tag_292\n        /* \"#utility.yul\":4095:4101   */\n      dup4\n        /* \"#utility.yul\":4042:4102   */\n      tag_204\n      jump\t// in\n    tag_292:\n        /* \"#utility.yul\":4032:4102   */\n      swap3\n      pop\n        /* \"#utility.yul\":3888:4112   */\n      pop\n        /* \"#utility.yul\":3875:3876   */\n      0x01\n        /* \"#utility.yul\":3872:3873   */\n      dup2\n        /* \"#utility.yul\":3868:3877   */\n      add\n        /* \"#utility.yul\":3863:3877   */\n      swap1\n      pop\n        /* \"#utility.yul\":3828:4112   */\n      jump(tag_288)\n    tag_290:\n        /* \"#utility.yul\":3832:3846   */\n      pop\n        /* \"#utility.yul\":4128:4131   */\n      dup6\n        /* \"#utility.yul\":4121:4131   */\n      swap4\n      pop\n        /* \"#utility.yul\":3529:4137   */\n      pop\n      pop\n      pop\n        /* \"#utility.yul\":3405:4137   */\n      swap3\n      swap2\n      pop\n      pop\n      jump\t// out\n        /* \"#utility.yul\":4143:4516   */\n    tag_31:\n        /* \"#utility.yul\":4286:4290   */\n      0x00\n        /* \"#utility.yul\":4324:4326   */\n      0x20\n        /* \"#utility.yul\":4313:4322   */\n      dup3\n        /* \"#utility.yul\":4309:4327   */\n      add\n        /* \"#utility.yul\":4301:4327   */\n      swap1\n      pop\n        /* \"#utility.yul\":4373:4382   */\n      dup2\n        /* \"#utility.yul\":4367:4371   */\n      dup2\n        /* \"#utility.yul\":4363:4383   */\n      sub\n        /* \"#utility.yul\":4359:4360   */\n      0x00\n        /* \"#utility.yul\":4348:4357   */\n      dup4\n        /* \"#utility.yul\":4344:4361   */\n      add\n        /* \"#utility.yul\":4337:4384   */\n      mstore\n        /* \"#utility.yul\":4401:4509   */\n      tag_294\n        /* \"#utility.yul\":4504:4508   */\n      dup2\n        /* \"#utility.yul\":4495:4501   */\n      dup5\n        /* \"#utility.yul\":4401:4509   */\n      tag_205\n      jump\t// in\n    tag_294:\n        /* \"#utility.yul\":4393:4509   */\n      swap1\n      pop\n        /* \"#utility.yul\":4143:4516   */\n      swap3\n      swap2\n      pop\n      pop\n      jump\t// out\n        /* \"#utility.yul\":4522:4640   */\n    tag_206:\n        /* \"#utility.yul\":4609:4633   */\n      tag_296\n        /* \"#utility.yul\":4627:4632   */\n      dup2\n        /* \"#utility.yul\":4609:4633   */\n      tag_196\n      jump\t// in\n    tag_296:\n        /* \"#utility.yul\":4604:4607   */\n      dup3\n        /* \"#utility.yul\":4597:4634   */\n      mstore\n        /* \"#utility.yul\":4522:4640   */\n      pop\n      pop\n      jump\t// out\n        /* \"#utility.yul\":4646:4868   */\n    tag_35:\n        /* \"#utility.yul\":4739:4743   */\n      0x00\n        /* \"#utility.yul\":4777:4779   */\n      0x20\n        /* \"#utility.yul\":4766:4775   */\n      dup3\n        /* \"#utility.yul\":4762:4780   */\n      add\n        /* \"#utility.yul\":4754:4780   */\n      swap1\n      pop\n        /* \"#utility.yul\":4790:4861   */\n      tag_298\n        /* \"#utility.yul\":4858:4859   */\n      0x00\n        /* \"#utility.yul\":4847:4856   */\n      dup4\n        /* \"#utility.yul\":4843:4860   */\n      add\n        /* \"#utility.yul\":4834:4840   */\n      dup5\n        /* \"#utility.yul\":4790:4861   */\n      tag_206\n      jump\t// in\n    tag_298:\n        /* \"#utility.yul\":4646:4868   */\n      swap3\n      swap2\n      pop\n      pop\n      jump\t// out\n        /* \"#utility.yul\":4874:4991   */\n    tag_207:\n        /* \"#utility.yul\":4983:4984   */\n      0x00\n        /* \"#utility.yul\":4980:4981   */\n      dup1\n        /* \"#utility.yul\":4973:4985   */\n      revert\n        /* \"#utility.yul\":4997:5099   */\n    tag_208:\n        /* \"#utility.yul\":5038:5044   */\n      0x00\n        /* \"#utility.yul\":5089:5091   */\n      0x1f\n        /* \"#utility.yul\":5085:5092   */\n      not\n        /* \"#utility.yul\":5080:5082   */\n      0x1f\n        /* \"#utility.yul\":5073:5078   */\n      dup4\n        /* \"#utility.yul\":5069:5083   */\n      add\n        /* \"#utility.yul\":5065:5093   */\n      and\n        /* \"#utility.yul\":5055:5093   */\n      swap1\n      pop\n        /* \"#utility.yul\":4997:5099   */\n      swap2\n      swap1\n      pop\n      jump\t// out\n        /* \"#utility.yul\":5105:5285   */\n    tag_209:\n        /* \"#utility.yul\":5153:5230   */\n      0x4e487b7100000000000000000000000000000000000000000000000000000000\n        /* \"#utility.yul\":5150:5151   */\n      0x00\n        /* \"#utility.yul\":5143:5231   */\n      mstore\n        /* \"#utility.yul\":5250:5254   */\n      0x41\n        /* \"#utility.yul\":5247:5248   */\n      0x04\n        /* \"#utility.yul\":5240:5255   */\n      mstore\n        /* \"#utility.yul\":5274:5278   */\n      0x24\n        /* \"#utility.yul\":5271:5272   */\n      0x00\n        /* \"#utility.yul\":5264:5279   */\n      revert\n        /* \"#utility.yul\":5291:5572   */\n    tag_210:\n        /* \"#utility.yul\":5374:5401   */\n      tag_303\n        /* \"#utility.yul\":5396:5400   */\n      dup3\n        /* \"#utility.yul\":5374:5401   */\n      tag_208\n      jump\t// in\n    tag_303:\n        /* \"#utility.yul\":5366:5372   */\n      dup2\n        /* \"#utility.yul\":5362:5402   */\n      add\n        /* \"#utility.yul\":5504:5510   */\n      dup2\n        /* \"#utility.yul\":5492:5502   */\n      dup2\n        /* \"#utility.yul\":5489:5511   */\n      lt\n        /* \"#utility.yul\":5468:5486   */\n      0xffffffffffffffff\n        /* \"#utility.yul\":5456:5466   */\n      dup3\n        /* \"#utility.yul\":5453:5487   */\n      gt\n        /* \"#utility.yul\":5450:5512   */\n      or\n        /* \"#utility.yul\":5447:5535   */\n      iszero\n      tag_304\n      jumpi\n        /* \"#utility.yul\":5515:5533   */\n      tag_305\n      tag_209\n      jump\t// in\n    tag_305:\n        /* \"#utility.yul\":5447:5535   */\n    tag_304:\n        /* \"#utility.yul\":5555:5565   */\n      dup1\n        /* \"#utility.yul\":5551:5553   */\n      0x40\n        /* \"#utility.yul\":5544:5566   */\n      mstore\n        /* \"#utility.yul\":5334:5572   */\n      pop\n        /* \"#utility.yul\":5291:5572   */\n      pop\n      pop\n      jump\t// out\n        /* \"#utility.yul\":5578:5707   */\n    tag_211:\n        /* \"#utility.yul\":5612:5618   */\n      0x00\n        /* \"#utility.yul\":5639:5659   */\n      tag_307\n      tag_188\n      jump\t// in\n    tag_307:\n        /* \"#utility.yul\":5629:5659   */\n      swap1\n      pop\n        /* \"#utility.yul\":5668:5701   */\n      tag_308\n        /* \"#utility.yul\":5696:5700   */\n      dup3\n        /* \"#utility.yul\":5688:5694   */\n      dup3\n        /* \"#utility.yul\":5668:5701   */\n      tag_210\n      jump\t// in\n    tag_308:\n        /* \"#utility.yul\":5578:5707   */\n      swap2\n      swap1\n      pop\n      jump\t// out\n        /* \"#utility.yul\":5713:6024   */\n    tag_212:\n        /* \"#utility.yul\":5790:5794   */\n      0x00\n        /* \"#utility.yul\":5880:5898   */\n      0xffffffffffffffff\n        /* \"#utility.yul\":5872:5878   */\n      dup3\n        /* \"#utility.yul\":5869:5899   */\n      gt\n        /* \"#utility.yul\":5866:5922   */\n      iszero\n      tag_310\n      jumpi\n        /* \"#utility.yul\":5902:5920   */\n      tag_311\n      tag_209\n      jump\t// in\n    tag_311:\n        /* \"#utility.yul\":5866:5922   */\n    tag_310:\n        /* \"#utility.yul\":5952:5956   */\n      0x20\n        /* \"#utility.yul\":5944:5950   */\n      dup3\n        /* \"#utility.yul\":5940:5957   */\n      mul\n        /* \"#utility.yul\":5932:5957   */\n      swap1\n      pop\n        /* \"#utility.yul\":6012:6016   */\n      0x20\n        /* \"#utility.yul\":6006:6010   */\n      dup2\n        /* \"#utility.yul\":6002:6017   */\n      add\n        /* \"#utility.yul\":5994:6017   */\n      swap1\n      pop\n        /* \"#utility.yul\":5713:6024   */\n      swap2\n      swap1\n      pop\n      jump\t// out\n        /* \"#utility.yul\":6030:6147   */\n    tag_213:\n        /* \"#utility.yul\":6139:6140   */\n      0x00\n        /* \"#utility.yul\":6136:6137   */\n      dup1\n        /* \"#utility.yul\":6129:6141   */\n      revert\n        /* \"#utility.yul\":6170:6880   */\n    tag_214:\n        /* \"#utility.yul\":6266:6271   */\n      0x00\n        /* \"#utility.yul\":6291:6372   */\n      tag_314\n        /* \"#utility.yul\":6307:6371   */\n      tag_315\n        /* \"#utility.yul\":6364:6370   */\n      dup5\n        /* \"#utility.yul\":6307:6371   */\n      tag_212\n      jump\t// in\n    tag_315:\n        /* \"#utility.yul\":6291:6372   */\n      tag_211\n      jump\t// in\n    tag_314:\n        /* \"#utility.yul\":6282:6372   */\n      swap1\n      pop\n        /* \"#utility.yul\":6392:6397   */\n      dup1\n        /* \"#utility.yul\":6421:6427   */\n      dup4\n        /* \"#utility.yul\":6414:6419   */\n      dup3\n        /* \"#utility.yul\":6407:6428   */\n      mstore\n        /* \"#utility.yul\":6455:6459   */\n      0x20\n        /* \"#utility.yul\":6448:6453   */\n      dup3\n        /* \"#utility.yul\":6444:6460   */\n      add\n        /* \"#utility.yul\":6437:6460   */\n      swap1\n      pop\n        /* \"#utility.yul\":6508:6512   */\n      0x20\n        /* \"#utility.yul\":6500:6506   */\n      dup5\n        /* \"#utility.yul\":6496:6513   */\n      mul\n        /* \"#utility.yul\":6488:6494   */\n      dup4\n        /* \"#utility.yul\":6484:6514   */\n      add\n        /* \"#utility.yul\":6537:6540   */\n      dup6\n        /* \"#utility.yul\":6529:6535   */\n      dup2\n        /* \"#utility.yul\":6526:6541   */\n      gt\n        /* \"#utility.yul\":6523:6645   */\n      iszero\n      tag_316\n      jumpi\n        /* \"#utility.yul\":6556:6635   */\n      tag_317\n      tag_213\n      jump\t// in\n    tag_317:\n        /* \"#utility.yul\":6523:6645   */\n    tag_316:\n        /* \"#utility.yul\":6671:6677   */\n      dup4\n        /* \"#utility.yul\":6654:6874   */\n    tag_318:\n        /* \"#utility.yul\":6688:6694   */\n      dup2\n        /* \"#utility.yul\":6683:6686   */\n      dup2\n        /* \"#utility.yul\":6680:6695   */\n      lt\n        /* \"#utility.yul\":6654:6874   */\n      iszero\n      tag_320\n      jumpi\n        /* \"#utility.yul\":6763:6766   */\n      dup1\n        /* \"#utility.yul\":6792:6829   */\n      tag_321\n        /* \"#utility.yul\":6825:6828   */\n      dup9\n        /* \"#utility.yul\":6813:6823   */\n      dup3\n        /* \"#utility.yul\":6792:6829   */\n      tag_198\n      jump\t// in\n    tag_321:\n        /* \"#utility.yul\":6787:6790   */\n      dup5\n        /* \"#utility.yul\":6780:6830   */\n      mstore\n        /* \"#utility.yul\":6859:6863   */\n      0x20\n        /* \"#utility.yul\":6854:6857   */\n      dup5\n        /* \"#utility.yul\":6850:6864   */\n      add\n        /* \"#utility.yul\":6843:6864   */\n      swap4\n      pop\n        /* \"#utility.yul\":6730:6874   */\n      pop\n        /* \"#utility.yul\":6714:6718   */\n      0x20\n        /* \"#utility.yul\":6709:6712   */\n      dup2\n        /* \"#utility.yul\":6705:6719   */\n      add\n        /* \"#utility.yul\":6698:6719   */\n      swap1\n      pop\n        /* \"#utility.yul\":6654:6874   */\n      jump(tag_318)\n    tag_320:\n        /* \"#utility.yul\":6658:6679   */\n      pop\n        /* \"#utility.yul\":6272:6880   */\n      pop\n      pop\n        /* \"#utility.yul\":6170:6880   */\n      swap4\n      swap3\n      pop\n      pop\n      pop\n      jump\t// out\n        /* \"#utility.yul\":6903:7273   */\n    tag_215:\n        /* \"#utility.yul\":6974:6979   */\n      0x00\n        /* \"#utility.yul\":7023:7026   */\n      dup3\n        /* \"#utility.yul\":7016:7020   */\n      0x1f\n        /* \"#utility.yul\":7008:7014   */\n      dup4\n        /* \"#utility.yul\":7004:7021   */\n      add\n        /* \"#utility.yul\":7000:7027   */\n      slt\n        /* \"#utility.yul\":6990:7112   */\n      tag_323\n      jumpi\n        /* \"#utility.yul\":7031:7110   */\n      tag_324\n      tag_207\n      jump\t// in\n    tag_324:\n        /* \"#utility.yul\":6990:7112   */\n    tag_323:\n        /* \"#utility.yul\":7148:7154   */\n      dup2\n        /* \"#utility.yul\":7135:7155   */\n      calldataload\n        /* \"#utility.yul\":7173:7267   */\n      tag_325\n        /* \"#utility.yul\":7263:7266   */\n      dup5\n        /* \"#utility.yul\":7255:7261   */\n      dup3\n        /* \"#utility.yul\":7248:7252   */\n      0x20\n        /* \"#utility.yul\":7240:7246   */\n      dup7\n        /* \"#utility.yul\":7236:7253   */\n      add\n        /* \"#utility.yul\":7173:7267   */\n      tag_214\n      jump\t// in\n    tag_325:\n        /* \"#utility.yul\":7164:7267   */\n      swap2\n      pop\n        /* \"#utility.yul\":6980:7273   */\n      pop\n        /* \"#utility.yul\":6903:7273   */\n      swap3\n      swap2\n      pop\n      pop\n      jump\t// out\n        /* \"#utility.yul\":7279:7963   */\n    tag_38:\n        /* \"#utility.yul\":7372:7378   */\n      0x00\n        /* \"#utility.yul\":7380:7386   */\n      dup1\n        /* \"#utility.yul\":7429:7431   */\n      0x40\n        /* \"#utility.yul\":7417:7426   */\n      dup4\n        /* \"#utility.yul\":7408:7415   */\n      dup6\n        /* \"#utility.yul\":7404:7427   */\n      sub\n        /* \"#utility.yul\":7400:7432   */\n      slt\n        /* \"#utility.yul\":7397:7516   */\n      iszero\n      tag_327\n      jumpi\n        /* \"#utility.yul\":7435:7514   */\n      tag_328\n      tag_189\n      jump\t// in\n    tag_328:\n        /* \"#utility.yul\":7397:7516   */\n    tag_327:\n        /* \"#utility.yul\":7555:7556   */\n      0x00\n        /* \"#utility.yul\":7580:7633   */\n      tag_329\n        /* \"#utility.yul\":7625:7632   */\n      dup6\n        /* \"#utility.yul\":7616:7622   */\n      dup3\n        /* \"#utility.yul\":7605:7614   */\n      dup7\n        /* \"#utility.yul\":7601:7623   */\n      add\n        /* \"#utility.yul\":7580:7633   */\n      tag_193\n      jump\t// in\n    tag_329:\n        /* \"#utility.yul\":7570:7633   */\n      swap3\n      pop\n        /* \"#utility.yul\":7526:7643   */\n      pop\n        /* \"#utility.yul\":7710:7712   */\n      0x20\n        /* \"#utility.yul\":7699:7708   */\n      dup4\n        /* \"#utility.yul\":7695:7713   */\n      add\n        /* \"#utility.yul\":7682:7714   */\n      calldataload\n        /* \"#utility.yul\":7741:7759   */\n      0xffffffffffffffff\n        /* \"#utility.yul\":7733:7739   */\n      dup2\n        /* \"#utility.yul\":7730:7760   */\n      gt\n        /* \"#utility.yul\":7727:7844   */\n      iszero\n      tag_330\n      jumpi\n        /* \"#utility.yul\":7763:7842   */\n      tag_331\n      tag_190\n      jump\t// in\n    tag_331:\n        /* \"#utility.yul\":7727:7844   */\n    tag_330:\n        /* \"#utility.yul\":7868:7946   */\n      tag_332\n        /* \"#utility.yul\":7938:7945   */\n      dup6\n        /* \"#utility.yul\":7929:7935   */\n      dup3\n        /* \"#utility.yul\":7918:7927   */\n      dup7\n        /* \"#utility.yul\":7914:7936   */\n      add\n        /* \"#utility.yul\":7868:7946   */\n      tag_215\n      jump\t// in\n    tag_332:\n        /* \"#utility.yul\":7858:7946   */\n      swap2\n      pop\n        /* \"#utility.yul\":7653:7956   */\n      pop\n        /* \"#utility.yul\":7279:7963   */\n      swap3\n      pop\n      swap3\n      swap1\n      pop\n      jump\t// out\n        /* \"#utility.yul\":7969:8104   */\n    tag_216:\n        /* \"#utility.yul\":8057:8063   */\n      0x00\n        /* \"#utility.yul\":8091:8096   */\n      dup2\n        /* \"#utility.yul\":8085:8097   */\n      mload\n        /* \"#utility.yul\":8075:8097   */\n      swap1\n      pop\n        /* \"#utility.yul\":7969:8104   */\n      swap2\n      swap1\n      pop\n      jump\t// out\n        /* \"#utility.yul\":8110:8315   */\n    tag_217:\n        /* \"#utility.yul\":8230:8241   */\n      0x00\n        /* \"#utility.yul\":8264:8270   */\n      dup3\n        /* \"#utility.yul\":8259:8262   */\n      dup3\n        /* \"#utility.yul\":8252:8271   */\n      mstore\n        /* \"#utility.yul\":8304:8308   */\n      0x20\n        /* \"#utility.yul\":8299:8302   */\n      dup3\n        /* \"#utility.yul\":8295:8309   */\n      add\n        /* \"#utility.yul\":8280:8309   */\n      swap1\n      pop\n        /* \"#utility.yul\":8110:8315   */\n      swap3\n      swap2\n      pop\n      pop\n      jump\t// out\n        /* \"#utility.yul\":8321:8474   */\n    tag_218:\n        /* \"#utility.yul\":8409:8413   */\n      0x00\n        /* \"#utility.yul\":8432:8435   */\n      dup2\n        /* \"#utility.yul\":8424:8435   */\n      swap1\n      pop\n        /* \"#utility.yul\":8462:8466   */\n      0x20\n        /* \"#utility.yul\":8457:8460   */\n      dup3\n        /* \"#utility.yul\":8453:8467   */\n      add\n        /* \"#utility.yul\":8445:8467   */\n      swap1\n      pop\n        /* \"#utility.yul\":8321:8474   */\n      swap2\n      swap1\n      pop\n      jump\t// out\n        /* \"#utility.yul\":8480:8660   */\n    tag_119:\n        /* \"#utility.yul\":8528:8605   */\n      0x4e487b7100000000000000000000000000000000000000000000000000000000\n        /* \"#utility.yul\":8525:8526   */\n      0x00\n        /* \"#utility.yul\":8518:8606   */\n      mstore\n        /* \"#utility.yul\":8625:8629   */\n      0x21\n        /* \"#utility.yul\":8622:8623   */\n      0x04\n        /* \"#utility.yul\":8615:8630   */\n      mstore\n        /* \"#utility.yul\":8649:8653   */\n      0x24\n        /* \"#utility.yul\":8646:8647   */\n      0x00\n        /* \"#utility.yul\":8639:8654   */\n      revert\n        /* \"#utility.yul\":8666:8784   */\n    tag_219:\n        /* \"#utility.yul\":8752:8753   */\n      0x02\n        /* \"#utility.yul\":8745:8750   */\n      dup2\n        /* \"#utility.yul\":8742:8754   */\n      lt\n        /* \"#utility.yul\":8732:8778   */\n      tag_338\n      jumpi\n        /* \"#utility.yul\":8758:8776   */\n      tag_339\n      tag_119\n      jump\t// in\n    tag_339:\n        /* \"#utility.yul\":8732:8778   */\n    tag_338:\n        /* \"#utility.yul\":8666:8784   */\n      pop\n      jump\t// out\n        /* \"#utility.yul\":8790:8927   */\n    tag_220:\n        /* \"#utility.yul\":8840:8847   */\n      0x00\n        /* \"#utility.yul\":8869:8874   */\n      dup2\n        /* \"#utility.yul\":8858:8874   */\n      swap1\n      pop\n        /* \"#utility.yul\":8875:8921   */\n      tag_341\n        /* \"#utility.yul\":8915:8920   */\n      dup3\n        /* \"#utility.yul\":8875:8921   */\n      tag_219\n      jump\t// in\n    tag_341:\n        /* \"#utility.yul\":8790:8927   */\n      swap2\n      swap1\n      pop\n      jump\t// out\n        /* \"#utility.yul\":8933:9070   */\n    tag_221:\n        /* \"#utility.yul\":8994:9003   */\n      0x00\n        /* \"#utility.yul\":9027:9064   */\n      tag_343\n        /* \"#utility.yul\":9058:9063   */\n      dup3\n        /* \"#utility.yul\":9027:9064   */\n      tag_220\n      jump\t// in\n    tag_343:\n        /* \"#utility.yul\":9014:9064   */\n      swap1\n      pop\n        /* \"#utility.yul\":8933:9070   */\n      swap2\n      swap1\n      pop\n      jump\t// out\n        /* \"#utility.yul\":9076:9219   */\n    tag_222:\n        /* \"#utility.yul\":9164:9212   */\n      tag_345\n        /* \"#utility.yul\":9206:9211   */\n      dup2\n        /* \"#utility.yul\":9164:9212   */\n      tag_221\n      jump\t// in\n    tag_345:\n        /* \"#utility.yul\":9159:9162   */\n      dup3\n        /* \"#utility.yul\":9152:9213   */\n      mstore\n        /* \"#utility.yul\":9076:9219   */\n      pop\n      pop\n      jump\t// out\n        /* \"#utility.yul\":9283:10137   */\n    tag_223:\n        /* \"#utility.yul\":9412:9416   */\n      0x80\n        /* \"#utility.yul\":9407:9410   */\n      dup3\n        /* \"#utility.yul\":9403:9417   */\n      add\n        /* \"#utility.yul\":9500:9504   */\n      0x00\n        /* \"#utility.yul\":9493:9498   */\n      dup3\n        /* \"#utility.yul\":9489:9505   */\n      add\n        /* \"#utility.yul\":9483:9506   */\n      mload\n        /* \"#utility.yul\":9519:9582   */\n      tag_347\n        /* \"#utility.yul\":9576:9580   */\n      0x00\n        /* \"#utility.yul\":9571:9574   */\n      dup6\n        /* \"#utility.yul\":9567:9581   */\n      add\n        /* \"#utility.yul\":9553:9565   */\n      dup3\n        /* \"#utility.yul\":9519:9582   */\n      tag_202\n      jump\t// in\n    tag_347:\n        /* \"#utility.yul\":9427:9592   */\n      pop\n        /* \"#utility.yul\":9675:9679   */\n      0x20\n        /* \"#utility.yul\":9668:9673   */\n      dup3\n        /* \"#utility.yul\":9664:9680   */\n      add\n        /* \"#utility.yul\":9658:9681   */\n      mload\n        /* \"#utility.yul\":9694:9757   */\n      tag_348\n        /* \"#utility.yul\":9751:9755   */\n      0x20\n        /* \"#utility.yul\":9746:9749   */\n      dup6\n        /* \"#utility.yul\":9742:9756   */\n      add\n        /* \"#utility.yul\":9728:9740   */\n      dup3\n        /* \"#utility.yul\":9694:9757   */\n      tag_202\n      jump\t// in\n    tag_348:\n        /* \"#utility.yul\":9602:9767   */\n      pop\n        /* \"#utility.yul\":9851:9855   */\n      0x40\n        /* \"#utility.yul\":9844:9849   */\n      dup3\n        /* \"#utility.yul\":9840:9856   */\n      add\n        /* \"#utility.yul\":9834:9857   */\n      mload\n        /* \"#utility.yul\":9870:9933   */\n      tag_349\n        /* \"#utility.yul\":9927:9931   */\n      0x40\n        /* \"#utility.yul\":9922:9925   */\n      dup6\n        /* \"#utility.yul\":9918:9932   */\n      add\n        /* \"#utility.yul\":9904:9916   */\n      dup3\n        /* \"#utility.yul\":9870:9933   */\n      tag_202\n      jump\t// in\n    tag_349:\n        /* \"#utility.yul\":9777:9943   */\n      pop\n        /* \"#utility.yul\":10027:10031   */\n      0x60\n        /* \"#utility.yul\":10020:10025   */\n      dup3\n        /* \"#utility.yul\":10016:10032   */\n      add\n        /* \"#utility.yul\":10010:10033   */\n      mload\n        /* \"#utility.yul\":10046:10120   */\n      tag_350\n        /* \"#utility.yul\":10114:10118   */\n      0x60\n        /* \"#utility.yul\":10109:10112   */\n      dup6\n        /* \"#utility.yul\":10105:10119   */\n      add\n        /* \"#utility.yul\":10091:10103   */\n      dup3\n        /* \"#utility.yul\":10046:10120   */\n      tag_222\n      jump\t// in\n    tag_350:\n        /* \"#utility.yul\":9953:10130   */\n      pop\n        /* \"#utility.yul\":9381:10137   */\n      pop\n        /* \"#utility.yul\":9283:10137   */\n      pop\n      pop\n      jump\t// out\n        /* \"#utility.yul\":10143:10406   */\n    tag_224:\n        /* \"#utility.yul\":10254:10264   */\n      0x00\n        /* \"#utility.yul\":10275:10363   */\n      tag_352\n        /* \"#utility.yul\":10359:10362   */\n      dup4\n        /* \"#utility.yul\":10351:10357   */\n      dup4\n        /* \"#utility.yul\":10275:10363   */\n      tag_223\n      jump\t// in\n    tag_352:\n        /* \"#utility.yul\":10395:10399   */\n      0x80\n        /* \"#utility.yul\":10390:10393   */\n      dup4\n        /* \"#utility.yul\":10386:10400   */\n      add\n        /* \"#utility.yul\":10372:10400   */\n      swap1\n      pop\n        /* \"#utility.yul\":10143:10406   */\n      swap3\n      swap2\n      pop\n      pop\n      jump\t// out\n        /* \"#utility.yul\":10412:10546   */\n    tag_225:\n        /* \"#utility.yul\":10503:10507   */\n      0x00\n        /* \"#utility.yul\":10535:10539   */\n      0x20\n        /* \"#utility.yul\":10530:10533   */\n      dup3\n        /* \"#utility.yul\":10526:10540   */\n      add\n        /* \"#utility.yul\":10518:10540   */\n      swap1\n      pop\n        /* \"#utility.yul\":10412:10546   */\n      swap2\n      swap1\n      pop\n      jump\t// out\n        /* \"#utility.yul\":10614:11514   */\n    tag_226:\n        /* \"#utility.yul\":10775:10778   */\n      0x00\n        /* \"#utility.yul\":10804:10879   */\n      tag_355\n        /* \"#utility.yul\":10873:10878   */\n      dup3\n        /* \"#utility.yul\":10804:10879   */\n      tag_216\n      jump\t// in\n    tag_355:\n        /* \"#utility.yul\":10895:11002   */\n      tag_356\n        /* \"#utility.yul\":10995:11001   */\n      dup2\n        /* \"#utility.yul\":10990:10993   */\n      dup6\n        /* \"#utility.yul\":10895:11002   */\n      tag_217\n      jump\t// in\n    tag_356:\n        /* \"#utility.yul\":10888:11002   */\n      swap4\n      pop\n        /* \"#utility.yul\":11026:11103   */\n      tag_357\n        /* \"#utility.yul\":11097:11102   */\n      dup4\n        /* \"#utility.yul\":11026:11103   */\n      tag_218\n      jump\t// in\n    tag_357:\n        /* \"#utility.yul\":11126:11133   */\n      dup1\n        /* \"#utility.yul\":11157:11158   */\n      0x00\n        /* \"#utility.yul\":11142:11489   */\n    tag_358:\n        /* \"#utility.yul\":11167:11173   */\n      dup4\n        /* \"#utility.yul\":11164:11165   */\n      dup2\n        /* \"#utility.yul\":11161:11174   */\n      lt\n        /* \"#utility.yul\":11142:11489   */\n      iszero\n      tag_360\n      jumpi\n        /* \"#utility.yul\":11243:11249   */\n      dup2\n        /* \"#utility.yul\":11237:11250   */\n      mload\n        /* \"#utility.yul\":11270:11375   */\n      tag_361\n        /* \"#utility.yul\":11371:11374   */\n      dup9\n        /* \"#utility.yul\":11356:11369   */\n      dup3\n        /* \"#utility.yul\":11270:11375   */\n      tag_224\n      jump\t// in\n    tag_361:\n        /* \"#utility.yul\":11263:11375   */\n      swap8\n      pop\n        /* \"#utility.yul\":11398:11479   */\n      tag_362\n        /* \"#utility.yul\":11472:11478   */\n      dup4\n        /* \"#utility.yul\":11398:11479   */\n      tag_225\n      jump\t// in\n    tag_362:\n        /* \"#utility.yul\":11388:11479   */\n      swap3\n      pop\n        /* \"#utility.yul\":11202:11489   */\n      pop\n        /* \"#utility.yul\":11189:11190   */\n      0x01\n        /* \"#utility.yul\":11186:11187   */\n      dup2\n        /* \"#utility.yul\":11182:11191   */\n      add\n        /* \"#utility.yul\":11177:11191   */\n      swap1\n      pop\n        /* \"#utility.yul\":11142:11489   */\n      jump(tag_358)\n    tag_360:\n        /* \"#utility.yul\":11146:11160   */\n      pop\n        /* \"#utility.yul\":11505:11508   */\n      dup6\n        /* \"#utility.yul\":11498:11508   */\n      swap4\n      pop\n        /* \"#utility.yul\":10780:11514   */\n      pop\n      pop\n      pop\n        /* \"#utility.yul\":10614:11514   */\n      swap3\n      swap2\n      pop\n      pop\n      jump\t// out\n        /* \"#utility.yul\":11520:11977   */\n    tag_44:\n        /* \"#utility.yul\":11705:11709   */\n      0x00\n        /* \"#utility.yul\":11743:11745   */\n      0x20\n        /* \"#utility.yul\":11732:11741   */\n      dup3\n        /* \"#utility.yul\":11728:11746   */\n      add\n        /* \"#utility.yul\":11720:11746   */\n      swap1\n      pop\n        /* \"#utility.yul\":11792:11801   */\n      dup2\n        /* \"#utility.yul\":11786:11790   */\n      dup2\n        /* \"#utility.yul\":11782:11802   */\n      sub\n        /* \"#utility.yul\":11778:11779   */\n      0x00\n        /* \"#utility.yul\":11767:11776   */\n      dup4\n        /* \"#utility.yul\":11763:11780   */\n      add\n        /* \"#utility.yul\":11756:11803   */\n      mstore\n        /* \"#utility.yul\":11820:11970   */\n      tag_364\n        /* \"#utility.yul\":11965:11969   */\n      dup2\n        /* \"#utility.yul\":11956:11962   */\n      dup5\n        /* \"#utility.yul\":11820:11970   */\n      tag_226\n      jump\t// in\n    tag_364:\n        /* \"#utility.yul\":11812:11970   */\n      swap1\n      pop\n        /* \"#utility.yul\":11520:11977   */\n      swap3\n      swap2\n      pop\n      pop\n      jump\t// out\n        /* \"#utility.yul\":11983:12152   */\n    tag_227:\n        /* \"#utility.yul\":12067:12078   */\n      0x00\n        /* \"#utility.yul\":12101:12107   */\n      dup3\n        /* \"#utility.yul\":12096:12099   */\n      dup3\n        /* \"#utility.yul\":12089:12108   */\n      mstore\n        /* \"#utility.yul\":12141:12145   */\n      0x20\n        /* \"#utility.yul\":12136:12139   */\n      dup3\n        /* \"#utility.yul\":12132:12146   */\n      add\n        /* \"#utility.yul\":12117:12146   */\n      swap1\n      pop\n        /* \"#utility.yul\":11983:12152   */\n      swap3\n      swap2\n      pop\n      pop\n      jump\t// out\n        /* \"#utility.yul\":12158:12378   */\n    tag_228:\n        /* \"#utility.yul\":12298:12332   */\n      0x4f6e6c79206f776e65722063616e2063616c6c20746869732066756e6374696f\n        /* \"#utility.yul\":12294:12295   */\n      0x00\n        /* \"#utility.yul\":12286:12292   */\n      dup3\n        /* \"#utility.yul\":12282:12296   */\n      add\n        /* \"#utility.yul\":12275:12333   */\n      mstore\n        /* \"#utility.yul\":12367:12370   */\n      0x6e00000000000000000000000000000000000000000000000000000000000000\n        /* \"#utility.yul\":12362:12364   */\n      0x20\n        /* \"#utility.yul\":12354:12360   */\n      dup3\n        /* \"#utility.yul\":12350:12365   */\n      add\n        /* \"#utility.yul\":12343:12371   */\n      mstore\n        /* \"#utility.yul\":12158:12378   */\n      pop\n      jump\t// out\n        /* \"#utility.yul\":12384:12750   */\n    tag_229:\n        /* \"#utility.yul\":12526:12529   */\n      0x00\n        /* \"#utility.yul\":12547:12614   */\n      tag_368\n        /* \"#utility.yul\":12611:12613   */\n      0x21\n        /* \"#utility.yul\":12606:12609   */\n      dup4\n        /* \"#utility.yul\":12547:12614   */\n      tag_227\n      jump\t// in\n    tag_368:\n        /* \"#utility.yul\":12540:12614   */\n      swap2\n      pop\n        /* \"#utility.yul\":12623:12716   */\n      tag_369\n        /* \"#utility.yul\":12712:12715   */\n      dup3\n        /* \"#utility.yul\":12623:12716   */\n      tag_228\n      jump\t// in\n    tag_369:\n        /* \"#utility.yul\":12741:12743   */\n      0x40\n        /* \"#utility.yul\":12736:12739   */\n      dup3\n        /* \"#utility.yul\":12732:12744   */\n      add\n        /* \"#utility.yul\":12725:12744   */\n      swap1\n      pop\n        /* \"#utility.yul\":12384:12750   */\n      swap2\n      swap1\n      pop\n      jump\t// out\n        /* \"#utility.yul\":12756:13175   */\n    tag_48:\n        /* \"#utility.yul\":12922:12926   */\n      0x00\n        /* \"#utility.yul\":12960:12962   */\n      0x20\n        /* \"#utility.yul\":12949:12958   */\n      dup3\n        /* \"#utility.yul\":12945:12963   */\n      add\n        /* \"#utility.yul\":12937:12963   */\n      swap1\n      pop\n        /* \"#utility.yul\":13009:13018   */\n      dup2\n        /* \"#utility.yul\":13003:13007   */\n      dup2\n        /* \"#utility.yul\":12999:13019   */\n      sub\n        /* \"#utility.yul\":12995:12996   */\n      0x00\n        /* \"#utility.yul\":12984:12993   */\n      dup4\n        /* \"#utility.yul\":12980:12997   */\n      add\n        /* \"#utility.yul\":12973:13020   */\n      mstore\n        /* \"#utility.yul\":13037:13168   */\n      tag_371\n        /* \"#utility.yul\":13163:13167   */\n      dup2\n        /* \"#utility.yul\":13037:13168   */\n      tag_229\n      jump\t// in\n    tag_371:\n        /* \"#utility.yul\":13029:13168   */\n      swap1\n      pop\n        /* \"#utility.yul\":12756:13175   */\n      swap2\n      swap1\n      pop\n      jump\t// out\n        /* \"#utility.yul\":13181:13356   */\n    tag_230:\n        /* \"#utility.yul\":13321:13348   */\n      0x546f75726e616d656e7420646f6573206e6f7420657869737400000000000000\n        /* \"#utility.yul\":13317:13318   */\n      0x00\n        /* \"#utility.yul\":13309:13315   */\n      dup3\n        /* \"#utility.yul\":13305:13319   */\n      add\n        /* \"#utility.yul\":13298:13349   */\n      mstore\n        /* \"#utility.yul\":13181:13356   */\n      pop\n      jump\t// out\n        /* \"#utility.yul\":13362:13728   */\n    tag_231:\n        /* \"#utility.yul\":13504:13507   */\n      0x00\n        /* \"#utility.yul\":13525:13592   */\n      tag_374\n        /* \"#utility.yul\":13589:13591   */\n      0x19\n        /* \"#utility.yul\":13584:13587   */\n      dup4\n        /* \"#utility.yul\":13525:13592   */\n      tag_227\n      jump\t// in\n    tag_374:\n        /* \"#utility.yul\":13518:13592   */\n      swap2\n      pop\n        /* \"#utility.yul\":13601:13694   */\n      tag_375\n        /* \"#utility.yul\":13690:13693   */\n      dup3\n        /* \"#utility.yul\":13601:13694   */\n      tag_230\n      jump\t// in\n    tag_375:\n        /* \"#utility.yul\":13719:13721   */\n      0x20\n        /* \"#utility.yul\":13714:13717   */\n      dup3\n        /* \"#utility.yul\":13710:13722   */\n      add\n        /* \"#utility.yul\":13703:13722   */\n      swap1\n      pop\n        /* \"#utility.yul\":13362:13728   */\n      swap2\n      swap1\n      pop\n      jump\t// out\n        /* \"#utility.yul\":13734:14153   */\n    tag_52:\n        /* \"#utility.yul\":13900:13904   */\n      0x00\n        /* \"#utility.yul\":13938:13940   */\n      0x20\n        /* \"#utility.yul\":13927:13936   */\n      dup3\n        /* \"#utility.yul\":13923:13941   */\n      add\n        /* \"#utility.yul\":13915:13941   */\n      swap1\n      pop\n        /* \"#utility.yul\":13987:13996   */\n      dup2\n        /* \"#utility.yul\":13981:13985   */\n      dup2\n        /* \"#utility.yul\":13977:13997   */\n      sub\n        /* \"#utility.yul\":13973:13974   */\n      0x00\n        /* \"#utility.yul\":13962:13971   */\n      dup4\n        /* \"#utility.yul\":13958:13975   */\n      add\n        /* \"#utility.yul\":13951:13998   */\n      mstore\n        /* \"#utility.yul\":14015:14146   */\n      tag_377\n        /* \"#utility.yul\":14141:14145   */\n      dup2\n        /* \"#utility.yul\":14015:14146   */\n      tag_231\n      jump\t// in\n    tag_377:\n        /* \"#utility.yul\":14007:14146   */\n      swap1\n      pop\n        /* \"#utility.yul\":13734:14153   */\n      swap2\n      swap1\n      pop\n      jump\t// out\n        /* \"#utility.yul\":14159:14491   */\n    tag_55:\n        /* \"#utility.yul\":14280:14284   */\n      0x00\n        /* \"#utility.yul\":14318:14320   */\n      0x40\n        /* \"#utility.yul\":14307:14316   */\n      dup3\n        /* \"#utility.yul\":14303:14321   */\n      add\n        /* \"#utility.yul\":14295:14321   */\n      swap1\n      pop\n        /* \"#utility.yul\":14331:14402   */\n      tag_379\n        /* \"#utility.yul\":14399:14400   */\n      0x00\n        /* \"#utility.yul\":14388:14397   */\n      dup4\n        /* \"#utility.yul\":14384:14401   */\n      add\n        /* \"#utility.yul\":14375:14381   */\n      dup6\n        /* \"#utility.yul\":14331:14402   */\n      tag_194\n      jump\t// in\n    tag_379:\n        /* \"#utility.yul\":14412:14484   */\n      tag_380\n        /* \"#utility.yul\":14480:14482   */\n      0x20\n        /* \"#utility.yul\":14469:14478   */\n      dup4\n        /* \"#utility.yul\":14465:14483   */\n      add\n        /* \"#utility.yul\":14456:14462   */\n      dup5\n        /* \"#utility.yul\":14412:14484   */\n      tag_194\n      jump\t// in\n    tag_380:\n        /* \"#utility.yul\":14159:14491   */\n      swap4\n      swap3\n      pop\n      pop\n      pop\n      jump\t// out\n        /* \"#utility.yul\":14497:14677   */\n    tag_232:\n        /* \"#utility.yul\":14545:14622   */\n      0x4e487b7100000000000000000000000000000000000000000000000000000000\n        /* \"#utility.yul\":14542:14543   */\n      0x00\n        /* \"#utility.yul\":14535:14623   */\n      mstore\n        /* \"#utility.yul\":14642:14646   */\n      0x11\n        /* \"#utility.yul\":14639:14640   */\n      0x04\n        /* \"#utility.yul\":14632:14647   */\n      mstore\n        /* \"#utility.yul\":14666:14670   */\n      0x24\n        /* \"#utility.yul\":14663:14664   */\n      0x00\n        /* \"#utility.yul\":14656:14671   */\n      revert\n        /* \"#utility.yul\":14683:14877   */\n    tag_57:\n        /* \"#utility.yul\":14723:14727   */\n      0x00\n        /* \"#utility.yul\":14743:14763   */\n      tag_383\n        /* \"#utility.yul\":14761:14762   */\n      dup3\n        /* \"#utility.yul\":14743:14763   */\n      tag_191\n      jump\t// in\n    tag_383:\n        /* \"#utility.yul\":14738:14763   */\n      swap2\n      pop\n        /* \"#utility.yul\":14777:14797   */\n      tag_384\n        /* \"#utility.yul\":14795:14796   */\n      dup4\n        /* \"#utility.yul\":14777:14797   */\n      tag_191\n      jump\t// in\n    tag_384:\n        /* \"#utility.yul\":14772:14797   */\n      swap3\n      pop\n        /* \"#utility.yul\":14821:14822   */\n      dup3\n        /* \"#utility.yul\":14818:14819   */\n      dup3\n        /* \"#utility.yul\":14814:14823   */\n      sub\n        /* \"#utility.yul\":14806:14823   */\n      swap1\n      pop\n        /* \"#utility.yul\":14845:14846   */\n      dup2\n        /* \"#utility.yul\":14839:14843   */\n      dup2\n        /* \"#utility.yul\":14836:14847   */\n      gt\n        /* \"#utility.yul\":14833:14870   */\n      iszero\n      tag_385\n      jumpi\n        /* \"#utility.yul\":14850:14868   */\n      tag_386\n      tag_232\n      jump\t// in\n    tag_386:\n        /* \"#utility.yul\":14833:14870   */\n    tag_385:\n        /* \"#utility.yul\":14683:14877   */\n      swap3\n      swap2\n      pop\n      pop\n      jump\t// out\n        /* \"#utility.yul\":14883:15056   */\n    tag_233:\n        /* \"#utility.yul\":15023:15048   */\n      0x546f75726e616d656e74206e6f742066696e6973686564000000000000000000\n        /* \"#utility.yul\":15019:15020   */\n      0x00\n        /* \"#utility.yul\":15011:15017   */\n      dup3\n        /* \"#utility.yul\":15007:15021   */\n      add\n        /* \"#utility.yul\":15000:15049   */\n      mstore\n        /* \"#utility.yul\":14883:15056   */\n      pop\n      jump\t// out\n        /* \"#utility.yul\":15062:15428   */\n    tag_234:\n        /* \"#utility.yul\":15204:15207   */\n      0x00\n        /* \"#utility.yul\":15225:15292   */\n      tag_389\n        /* \"#utility.yul\":15289:15291   */\n      0x17\n        /* \"#utility.yul\":15284:15287   */\n      dup4\n        /* \"#utility.yul\":15225:15292   */\n      tag_227\n      jump\t// in\n    tag_389:\n        /* \"#utility.yul\":15218:15292   */\n      swap2\n      pop\n        /* \"#utility.yul\":15301:15394   */\n      tag_390\n        /* \"#utility.yul\":15390:15393   */\n      dup3\n        /* \"#utility.yul\":15301:15394   */\n      tag_233\n      jump\t// in\n    tag_390:\n        /* \"#utility.yul\":15419:15421   */\n      0x20\n        /* \"#utility.yul\":15414:15417   */\n      dup3\n        /* \"#utility.yul\":15410:15422   */\n      add\n        /* \"#utility.yul\":15403:15422   */\n      swap1\n      pop\n        /* \"#utility.yul\":15062:15428   */\n      swap2\n      swap1\n      pop\n      jump\t// out\n        /* \"#utility.yul\":15434:15853   */\n    tag_60:\n        /* \"#utility.yul\":15600:15604   */\n      0x00\n        /* \"#utility.yul\":15638:15640   */\n      0x20\n        /* \"#utility.yul\":15627:15636   */\n      dup3\n        /* \"#utility.yul\":15623:15641   */\n      add\n        /* \"#utility.yul\":15615:15641   */\n      swap1\n      pop\n        /* \"#utility.yul\":15687:15696   */\n      dup2\n        /* \"#utility.yul\":15681:15685   */\n      dup2\n        /* \"#utility.yul\":15677:15697   */\n      sub\n        /* \"#utility.yul\":15673:15674   */\n      0x00\n        /* \"#utility.yul\":15662:15671   */\n      dup4\n        /* \"#utility.yul\":15658:15675   */\n      add\n        /* \"#utility.yul\":15651:15698   */\n      mstore\n        /* \"#utility.yul\":15715:15846   */\n      tag_392\n        /* \"#utility.yul\":15841:15845   */\n      dup2\n        /* \"#utility.yul\":15715:15846   */\n      tag_234\n      jump\t// in\n    tag_392:\n        /* \"#utility.yul\":15707:15846   */\n      swap1\n      pop\n        /* \"#utility.yul\":15434:15853   */\n      swap2\n      swap1\n      pop\n      jump\t// out\n        /* \"#utility.yul\":15859:16269   */\n    tag_62:\n        /* \"#utility.yul\":15899:15906   */\n      0x00\n        /* \"#utility.yul\":15922:15942   */\n      tag_394\n        /* \"#utility.yul\":15940:15941   */\n      dup3\n        /* \"#utility.yul\":15922:15942   */\n      tag_191\n      jump\t// in\n    tag_394:\n        /* \"#utility.yul\":15917:15942   */\n      swap2\n      pop\n        /* \"#utility.yul\":15956:15976   */\n      tag_395\n        /* \"#utility.yul\":15974:15975   */\n      dup4\n        /* \"#utility.yul\":15956:15976   */\n      tag_191\n      jump\t// in\n    tag_395:\n        /* \"#utility.yul\":15951:15976   */\n      swap3\n      pop\n        /* \"#utility.yul\":16011:16012   */\n      dup3\n        /* \"#utility.yul\":16008:16009   */\n      dup3\n        /* \"#utility.yul\":16004:16013   */\n      mul\n        /* \"#utility.yul\":16033:16063   */\n      tag_396\n        /* \"#utility.yul\":16051:16062   */\n      dup2\n        /* \"#utility.yul\":16033:16063   */\n      tag_191\n      jump\t// in\n    tag_396:\n        /* \"#utility.yul\":16022:16063   */\n      swap2\n      pop\n        /* \"#utility.yul\":16212:16213   */\n      dup3\n        /* \"#utility.yul\":16203:16210   */\n      dup3\n        /* \"#utility.yul\":16199:16214   */\n      div\n        /* \"#utility.yul\":16196:16197   */\n      dup5\n        /* \"#utility.yul\":16193:16215   */\n      eq\n        /* \"#utility.yul\":16173:16174   */\n      dup4\n        /* \"#utility.yul\":16166:16175   */\n      iszero\n        /* \"#utility.yul\":16146:16229   */\n      or\n        /* \"#utility.yul\":16123:16262   */\n      tag_397\n      jumpi\n        /* \"#utility.yul\":16242:16260   */\n      tag_398\n      tag_232\n      jump\t// in\n    tag_398:\n        /* \"#utility.yul\":16123:16262   */\n    tag_397:\n        /* \"#utility.yul\":15907:16269   */\n      pop\n        /* \"#utility.yul\":15859:16269   */\n      swap3\n      swap2\n      pop\n      pop\n      jump\t// out\n        /* \"#utility.yul\":16275:16455   */\n    tag_235:\n        /* \"#utility.yul\":16323:16400   */\n      0x4e487b7100000000000000000000000000000000000000000000000000000000\n        /* \"#utility.yul\":16320:16321   */\n      0x00\n        /* \"#utility.yul\":16313:16401   */\n      mstore\n        /* \"#utility.yul\":16420:16424   */\n      0x12\n        /* \"#utility.yul\":16417:16418   */\n      0x04\n        /* \"#utility.yul\":16410:16425   */\n      mstore\n        /* \"#utility.yul\":16444:16448   */\n      0x24\n        /* \"#utility.yul\":16441:16442   */\n      0x00\n        /* \"#utility.yul\":16434:16449   */\n      revert\n        /* \"#utility.yul\":16461:16646   */\n    tag_64:\n        /* \"#utility.yul\":16501:16502   */\n      0x00\n        /* \"#utility.yul\":16518:16538   */\n      tag_401\n        /* \"#utility.yul\":16536:16537   */\n      dup3\n        /* \"#utility.yul\":16518:16538   */\n      tag_191\n      jump\t// in\n    tag_401:\n        /* \"#utility.yul\":16513:16538   */\n      swap2\n      pop\n        /* \"#utility.yul\":16552:16572   */\n      tag_402\n        /* \"#utility.yul\":16570:16571   */\n      dup4\n        /* \"#utility.yul\":16552:16572   */\n      tag_191\n      jump\t// in\n    tag_402:\n        /* \"#utility.yul\":16547:16572   */\n      swap3\n      pop\n        /* \"#utility.yul\":16591:16592   */\n      dup3\n        /* \"#utility.yul\":16581:16616   */\n      tag_403\n      jumpi\n        /* \"#utility.yul\":16596:16614   */\n      tag_404\n      tag_235\n      jump\t// in\n    tag_404:\n        /* \"#utility.yul\":16581:16616   */\n    tag_403:\n        /* \"#utility.yul\":16638:16639   */\n      dup3\n        /* \"#utility.yul\":16635:16636   */\n      dup3\n        /* \"#utility.yul\":16631:16640   */\n      div\n        /* \"#utility.yul\":16626:16640   */\n      swap1\n      pop\n        /* \"#utility.yul\":16461:16646   */\n      swap3\n      swap2\n      pop\n      pop\n      jump\t// out\n        /* \"#utility.yul\":16652:16832   */\n    tag_74:\n        /* \"#utility.yul\":16700:16777   */\n      0x4e487b7100000000000000000000000000000000000000000000000000000000\n        /* \"#utility.yul\":16697:16698   */\n      0x00\n        /* \"#utility.yul\":16690:16778   */\n      mstore\n        /* \"#utility.yul\":16797:16801   */\n      0x32\n        /* \"#utility.yul\":16794:16795   */\n      0x04\n        /* \"#utility.yul\":16787:16802   */\n      mstore\n        /* \"#utility.yul\":16821:16825   */\n      0x24\n        /* \"#utility.yul\":16818:16819   */\n      0x00\n        /* \"#utility.yul\":16811:16826   */\n      revert\n        /* \"#utility.yul\":16838:17029   */\n    tag_113:\n        /* \"#utility.yul\":16878:16881   */\n      0x00\n        /* \"#utility.yul\":16897:16917   */\n      tag_407\n        /* \"#utility.yul\":16915:16916   */\n      dup3\n        /* \"#utility.yul\":16897:16917   */\n      tag_191\n      jump\t// in\n    tag_407:\n        /* \"#utility.yul\":16892:16917   */\n      swap2\n      pop\n        /* \"#utility.yul\":16931:16951   */\n      tag_408\n        /* \"#utility.yul\":16949:16950   */\n      dup4\n        /* \"#utility.yul\":16931:16951   */\n      tag_191\n      jump\t// in\n    tag_408:\n        /* \"#utility.yul\":16926:16951   */\n      swap3\n      pop\n        /* \"#utility.yul\":16974:16975   */\n      dup3\n        /* \"#utility.yul\":16971:16972   */\n      dup3\n        /* \"#utility.yul\":16967:16976   */\n      add\n        /* \"#utility.yul\":16960:16976   */\n      swap1\n      pop\n        /* \"#utility.yul\":16995:16998   */\n      dup1\n        /* \"#utility.yul\":16992:16993   */\n      dup3\n        /* \"#utility.yul\":16989:16999   */\n      gt\n        /* \"#utility.yul\":16986:17022   */\n      iszero\n      tag_409\n      jumpi\n        /* \"#utility.yul\":17002:17020   */\n      tag_410\n      tag_232\n      jump\t// in\n    tag_410:\n        /* \"#utility.yul\":16986:17022   */\n    tag_409:\n        /* \"#utility.yul\":16838:17029   */\n      swap3\n      swap2\n      pop\n      pop\n      jump\t// out\n        /* \"#utility.yul\":17035:17268   */\n    tag_124:\n        /* \"#utility.yul\":17074:17077   */\n      0x00\n        /* \"#utility.yul\":17097:17121   */\n      tag_412\n        /* \"#utility.yul\":17115:17120   */\n      dup3\n        /* \"#utility.yul\":17097:17121   */\n      tag_191\n      jump\t// in\n    tag_412:\n        /* \"#utility.yul\":17088:17121   */\n      swap2\n      pop\n        /* \"#utility.yul\":17143:17209   */\n      0xffffffffffffffffffffffffffffffffffffffffffffffffffffffffffffffff\n        /* \"#utility.yul\":17136:17141   */\n      dup3\n        /* \"#utility.yul\":17133:17210   */\n      sub\n        /* \"#utility.yul\":17130:17233   */\n      tag_413\n      jumpi\n        /* \"#utility.yul\":17213:17231   */\n      tag_414\n      tag_232\n      jump\t// in\n    tag_414:\n        /* \"#utility.yul\":17130:17233   */\n    tag_413:\n        /* \"#utility.yul\":17260:17261   */\n      0x01\n        /* \"#utility.yul\":17253:17258   */\n      dup3\n        /* \"#utility.yul\":17249:17262   */\n      add\n        /* \"#utility.yul\":17242:17262   */\n      swap1\n      pop\n        /* \"#utility.yul\":17035:17268   */\n      swap2\n      swap1\n      pop\n      jump\t// out\n        /* \"#utility.yul\":17274:17443   */\n    tag_236:\n        /* \"#utility.yul\":17414:17435   */\n      0x496e76616c6964206d6174636820696e64657800000000000000000000000000\n        /* \"#utility.yul\":17410:17411   */\n      0x00\n        /* \"#utility.yul\":17402:17408   */\n      dup3\n        /* \"#utility.yul\":17398:17412   */\n      add\n        /* \"#utility.yul\":17391:17436   */\n      mstore\n        /* \"#utility.yul\":17274:17443   */\n      pop\n      jump\t// out\n        /* \"#utility.yul\":17449:17815   */\n    tag_237:\n        /* \"#utility.yul\":17591:17594   */\n      0x00\n        /* \"#utility.yul\":17612:17679   */\n      tag_417\n        /* \"#utility.yul\":17676:17678   */\n      0x13\n        /* \"#utility.yul\":17671:17674   */\n      dup4\n        /* \"#utility.yul\":17612:17679   */\n      tag_227\n      jump\t// in\n    tag_417:\n        /* \"#utility.yul\":17605:17679   */\n      swap2\n      pop\n        /* \"#utility.yul\":17688:17781   */\n      tag_418\n        /* \"#utility.yul\":17777:17780   */\n      dup3\n        /* \"#utility.yul\":17688:17781   */\n      tag_236\n      jump\t// in\n    tag_418:\n        /* \"#utility.yul\":17806:17808   */\n      0x20\n        /* \"#utility.yul\":17801:17804   */\n      dup3\n        /* \"#utility.yul\":17797:17809   */\n      add\n        /* \"#utility.yul\":17790:17809   */\n      swap1\n      pop\n        /* \"#utility.yul\":17449:17815   */\n      swap2\n      swap1\n      pop\n      jump\t// out\n        /* \"#utility.yul\":17821:18240   */\n    tag_134:\n        /* \"#utility.yul\":17987:17991   */\n      0x00\n        /* \"#utility.yul\":18025:18027   */\n      0x20\n        /* \"#utility.yul\":18014:18023   */\n      dup3\n        /* \"#utility.yul\":18010:18028   */\n      add\n        /* \"#utility.yul\":18002:18028   */\n      swap1\n      pop\n        /* \"#utility.yul\":18074:18083   */\n      dup2\n        /* \"#utility.yul\":18068:18072   */\n      dup2\n        /* \"#utility.yul\":18064:18084   */\n      sub\n        /* \"#utility.yul\":18060:18061   */\n      0x00\n        /* \"#utility.yul\":18049:18058   */\n      dup4\n        /* \"#utility.yul\":18045:18062   */\n      add\n        /* \"#utility.yul\":18038:18085   */\n      mstore\n        /* \"#utility.yul\":18102:18233   */\n      tag_420\n        /* \"#utility.yul\":18228:18232   */\n      dup2\n        /* \"#utility.yul\":18102:18233   */\n      tag_237\n      jump\t// in\n    tag_420:\n        /* \"#utility.yul\":18094:18233   */\n      swap1\n      pop\n        /* \"#utility.yul\":17821:18240   */\n      swap2\n      swap1\n      pop\n      jump\t// out\n        /* \"#utility.yul\":18246:18419   */\n    tag_238:\n        /* \"#utility.yul\":18386:18411   */\n      0x4d6174636820616c726561647920636f6d706c65746564000000000000000000\n        /* \"#utility.yul\":18382:18383   */\n      0x00\n        /* \"#utility.yul\":18374:18380   */\n      dup3\n        /* \"#utility.yul\":18370:18384   */\n      add\n        /* \"#utility.yul\":18363:18412   */\n      mstore\n        /* \"#utility.yul\":18246:18419   */\n      pop\n      jump\t// out\n        /* \"#utility.yul\":18425:18791   */\n    tag_239:\n        /* \"#utility.yul\":18567:18570   */\n      0x00\n        /* \"#utility.yul\":18588:18655   */\n      tag_423\n        /* \"#utility.yul\":18652:18654   */\n      0x17\n        /* \"#utility.yul\":18647:18650   */\n      dup4\n        /* \"#utility.yul\":18588:18655   */\n      tag_227\n      jump\t// in\n    tag_423:\n        /* \"#utility.yul\":18581:18655   */\n      swap2\n      pop\n        /* \"#utility.yul\":18664:18757   */\n      tag_424\n        /* \"#utility.yul\":18753:18756   */\n      dup3\n        /* \"#utility.yul\":18664:18757   */\n      tag_238\n      jump\t// in\n    tag_424:\n        /* \"#utility.yul\":18782:18784   */\n      0x20\n        /* \"#utility.yul\":18777:18780   */\n      dup3\n        /* \"#utility.yul\":18773:18785   */\n      add\n        /* \"#utility.yul\":18766:18785   */\n      swap1\n      pop\n        /* \"#utility.yul\":18425:18791   */\n      swap2\n      swap1\n      pop\n      jump\t// out\n        /* \"#utility.yul\":18797:19216   */\n    tag_144:\n        /* \"#utility.yul\":18963:18967   */\n      0x00\n        /* \"#utility.yul\":19001:19003   */\n      0x20\n        /* \"#utility.yul\":18990:18999   */\n      dup3\n        /* \"#utility.yul\":18986:19004   */\n      add\n        /* \"#utility.yul\":18978:19004   */\n      swap1\n      pop\n        /* \"#utility.yul\":19050:19059   */\n      dup2\n        /* \"#utility.yul\":19044:19048   */\n      dup2\n        /* \"#utility.yul\":19040:19060   */\n      sub\n        /* \"#utility.yul\":19036:19037   */\n      0x00\n        /* \"#utility.yul\":19025:19034   */\n      dup4\n        /* \"#utility.yul\":19021:19038   */\n      add\n        /* \"#utility.yul\":19014:19061   */\n      mstore\n        /* \"#utility.yul\":19078:19209   */\n      tag_426\n        /* \"#utility.yul\":19204:19208   */\n      dup2\n        /* \"#utility.yul\":19078:19209   */\n      tag_239\n      jump\t// in\n    tag_426:\n        /* \"#utility.yul\":19070:19209   */\n      swap1\n      pop\n        /* \"#utility.yul\":18797:19216   */\n      swap2\n      swap1\n      pop\n      jump\t// out\n        /* \"#utility.yul\":19222:19554   */\n    tag_154:\n        /* \"#utility.yul\":19343:19347   */\n      0x00\n        /* \"#utility.yul\":19381:19383   */\n      0x40\n        /* \"#utility.yul\":19370:19379   */\n      dup3\n        /* \"#utility.yul\":19366:19384   */\n      add\n        /* \"#utility.yul\":19358:19384   */\n      swap1\n      pop\n        /* \"#utility.yul\":19394:19465   */\n      tag_428\n        /* \"#utility.yul\":19462:19463   */\n      0x00\n        /* \"#utility.yul\":19451:19460   */\n      dup4\n        /* \"#utility.yul\":19447:19464   */\n      add\n        /* \"#utility.yul\":19438:19444   */\n      dup6\n        /* \"#utility.yul\":19394:19465   */\n      tag_194\n      jump\t// in\n    tag_428:\n        /* \"#utility.yul\":19475:19547   */\n      tag_429\n        /* \"#utility.yul\":19543:19545   */\n      0x20\n        /* \"#utility.yul\":19532:19541   */\n      dup4\n        /* \"#utility.yul\":19528:19546   */\n      add\n        /* \"#utility.yul\":19519:19525   */\n      dup5\n        /* \"#utility.yul\":19475:19547   */\n      tag_206\n      jump\t// in\n    tag_429:\n        /* \"#utility.yul\":19222:19554   */\n      swap4\n      swap3\n      pop\n      pop\n      pop\n      jump\t// out\n        /* \"#utility.yul\":19560:19740   */\n    tag_240:\n        /* \"#utility.yul\":19700:19732   */\n      0x546f75726e616d656e742068617320616c726561647920737461727465640000\n        /* \"#utility.yul\":19696:19697   */\n      0x00\n        /* \"#utility.yul\":19688:19694   */\n      dup3\n        /* \"#utility.yul\":19684:19698   */\n      add\n        /* \"#utility.yul\":19677:19733   */\n      mstore\n        /* \"#utility.yul\":19560:19740   */\n      pop\n      jump\t// out\n        /* \"#utility.yul\":19746:20112   */\n    tag_241:\n        /* \"#utility.yul\":19888:19891   */\n      0x00\n        /* \"#utility.yul\":19909:19976   */\n      tag_432\n        /* \"#utility.yul\":19973:19975   */\n      0x1e\n        /* \"#utility.yul\":19968:19971   */\n      dup4\n        /* \"#utility.yul\":19909:19976   */\n      tag_227\n      jump\t// in\n    tag_432:\n        /* \"#utility.yul\":19902:19976   */\n      swap2\n      pop\n        /* \"#utility.yul\":19985:20078   */\n      tag_433\n        /* \"#utility.yul\":20074:20077   */\n      dup3\n        /* \"#utility.yul\":19985:20078   */\n      tag_240\n      jump\t// in\n    tag_433:\n        /* \"#utility.yul\":20103:20105   */\n      0x20\n        /* \"#utility.yul\":20098:20101   */\n      dup3\n        /* \"#utility.yul\":20094:20106   */\n      add\n        /* \"#utility.yul\":20087:20106   */\n      swap1\n      pop\n        /* \"#utility.yul\":19746:20112   */\n      swap2\n      swap1\n      pop\n      jump\t// out\n        /* \"#utility.yul\":20118:20537   */\n    tag_164:\n        /* \"#utility.yul\":20284:20288   */\n      0x00\n        /* \"#utility.yul\":20322:20324   */\n      0x20\n        /* \"#utility.yul\":20311:20320   */\n      dup3\n        /* \"#utility.yul\":20307:20325   */\n      add\n        /* \"#utility.yul\":20299:20325   */\n      swap1\n      pop\n        /* \"#utility.yul\":20371:20380   */\n      dup2\n        /* \"#utility.yul\":20365:20369   */\n      dup2\n        /* \"#utility.yul\":20361:20381   */\n      sub\n        /* \"#utility.yul\":20357:20358   */\n      0x00\n        /* \"#utility.yul\":20346:20355   */\n      dup4\n        /* \"#utility.yul\":20342:20359   */\n      add\n        /* \"#utility.yul\":20335:20382   */\n      mstore\n        /* \"#utility.yul\":20399:20530   */\n      tag_435\n        /* \"#utility.yul\":20525:20529   */\n      dup2\n        /* \"#utility.yul\":20399:20530   */\n      tag_241\n      jump\t// in\n    tag_435:\n        /* \"#utility.yul\":20391:20530   */\n      swap1\n      pop\n        /* \"#utility.yul\":20118:20537   */\n      swap2\n      swap1\n      pop\n      jump\t// out\n        /* \"#utility.yul\":20543:20724   */\n    tag_242:\n        /* \"#utility.yul\":20683:20716   */\n      0x4e756d626572206f66207465616d73206d7573742062652038206f7220313600\n        /* \"#utility.yul\":20679:20680   */\n      0x00\n        /* \"#utility.yul\":20671:20677   */\n      dup3\n        /* \"#utility.yul\":20667:20681   */\n      add\n        /* \"#utility.yul\":20660:20717   */\n      mstore\n        /* \"#utility.yul\":20543:20724   */\n      pop\n      jump\t// out\n        /* \"#utility.yul\":20730:21096   */\n    tag_243:\n        /* \"#utility.yul\":20872:20875   */\n      0x00\n        /* \"#utility.yul\":20893:20960   */\n      tag_438\n        /* \"#utility.yul\":20957:20959   */\n      0x1f\n        /* \"#utility.yul\":20952:20955   */\n      dup4\n        /* \"#utility.yul\":20893:20960   */\n      tag_227\n      jump\t// in\n    tag_438:\n        /* \"#utility.yul\":20886:20960   */\n      swap2\n      pop\n        /* \"#utility.yul\":20969:21062   */\n      tag_439\n        /* \"#utility.yul\":21058:21061   */\n      dup3\n        /* \"#utility.yul\":20969:21062   */\n      tag_242\n      jump\t// in\n    tag_439:\n        /* \"#utility.yul\":21087:21089   */\n      0x20\n        /* \"#utility.yul\":21082:21085   */\n      dup3\n        /* \"#utility.yul\":21078:21090   */\n      add\n        /* \"#utility.yul\":21071:21090   */\n      swap1\n      pop\n        /* \"#utility.yul\":20730:21096   */\n      swap2\n      swap1\n      pop\n      jump\t// out\n        /* \"#utility.yul\":21102:21521   */\n    tag_169:\n        /* \"#utility.yul\":21268:21272   */\n      0x00\n        /* \"#utility.yul\":21306:21308   */\n      0x20\n        /* \"#utility.yul\":21295:21304   */\n      dup3\n        /* \"#utility.yul\":21291:21309   */\n      add\n        /* \"#utility.yul\":21283:21309   */\n      swap1\n      pop\n        /* \"#utility.yul\":21355:21364   */\n      dup2\n        /* \"#utility.yul\":21349:21353   */\n      dup2\n        /* \"#utility.yul\":21345:21365   */\n      sub\n        /* \"#utility.yul\":21341:21342   */\n      0x00\n        /* \"#utility.yul\":21330:21339   */\n      dup4\n        /* \"#utility.yul\":21326:21343   */\n      add\n        /* \"#utility.yul\":21319:21366   */\n      mstore\n        /* \"#utility.yul\":21383:21514   */\n      tag_441\n        /* \"#utility.yul\":21509:21513   */\n      dup2\n        /* \"#utility.yul\":21383:21514   */\n      tag_243\n      jump\t// in\n    tag_441:\n        /* \"#utility.yul\":21375:21514   */\n      swap1\n      pop\n        /* \"#utility.yul\":21102:21521   */\n      swap2\n      swap1\n      pop\n      jump\t// out\n\n    auxdata: 0xa2646970667358221220e4fbf0561f730ed7fc3176d9e923a6d10abba7295138e54be59a1ebc3b67e15264736f6c63430008120033\n}\n",
				"bytecode": {
					"linkReferences": {},
					"object": "608060405234801561001057600080fd5b50336000806101000a81548173ffffffffffffffffffffffffffffffffffffffff021916908373ffffffffffffffffffffffffffffffffffffffff160217905550611c94806100606000396000f3fe608060405234801561001057600080fd5b50600436106100885760003560e01c806387c2825f1161005b57806387c2825f146100ff5780638da5cb5b1461012f578063be5973d61461014d578063d8c57e851461016957610088565b806359974e381461008d578063651ea943146100a957806366666aa9146100c55780636f4cf972146100e3575b600080fd5b6100a760048036038101906100a291906111cd565b610199565b005b6100c360048036038101906100be91906111cd565b610648565b005b6100cd6109d6565b6040516100da9190611209565b60405180910390f35b6100fd60048036038101906100f89190611282565b6109dc565b005b610119600480360381019061011491906111cd565b610cb9565b6040516101269190611393565b60405180910390f35b610137610d5d565b60405161014491906113c4565b60405180910390f35b61016760048036038101906101629190611538565b610d81565b005b610183600480360381019061017e91906111cd565b610f2a565b604051610190919061170f565b60405180910390f35b60008054906101000a900473ffffffffffffffffffffffffffffffffffffffff1673ffffffffffffffffffffffffffffffffffffffff163373ffffffffffffffffffffffffffffffffffffffff1614610227576040517f08c379a000000000000000000000000000000000000000000000000000000000815260040161021e906117b4565b60405180910390fd5b806000600260008381526020019081526020016000206001018054905011610284576040517f08c379a000000000000000000000000000000000000000000000000000000000815260040161027b90611820565b60405180910390fd5b6000600260008481526020019081526020016000209050827fe1b02a13cf0779a7ce4face0fcf1491613f47493cb19aa975eef9eb88acc3732826000018054905083600101805490506040516102db929190611840565b60405180910390a2600181600101805490506102f79190611898565b81600001805490501461033f576040517f08c379a000000000000000000000000000000000000000000000000000000000815260040161033690611918565b60405180910390fd5b6000606460326001546103529190611938565b61035c91906119a9565b905060006064601e6001546103719190611938565b61037b91906119a9565b905060006064600a6001546103909190611938565b61039a91906119a9565b905060006064600a6001546103af9190611938565b6103b991906119a9565b905084600001600186600001805490506103d39190611898565b815481106103e4576103e36119da565b5b906000526020600020906003020160020160009054906101000a900473ffffffffffffffffffffffffffffffffffffffff1673ffffffffffffffffffffffffffffffffffffffff166108fc859081150290604051600060405180830381858888f1935050505015801561045b573d6000803e3d6000fd5b5084600001600286600001805490506104749190611898565b81548110610485576104846119da565b5b906000526020600020906003020160020160009054906101000a900473ffffffffffffffffffffffffffffffffffffffff1673ffffffffffffffffffffffffffffffffffffffff166108fc849081150290604051600060405180830381858888f193505050501580156104fc573d6000803e3d6000fd5b5084600001600386600001805490506105159190611898565b81548110610526576105256119da565b5b906000526020600020906003020160020160009054906101000a900473ffffffffffffffffffffffffffffffffffffffff1673ffffffffffffffffffffffffffffffffffffffff166108fc839081150290604051600060405180830381858888f1935050505015801561059d573d6000803e3d6000fd5b5084600001600486600001805490506105b69190611898565b815481106105c7576105c66119da565b5b906000526020600020906003020160020160009054906101000a900473ffffffffffffffffffffffffffffffffffffffff1673ffffffffffffffffffffffffffffffffffffffff166108fc829081150290604051600060405180830381858888f1935050505015801561063e573d6000803e3d6000fd5b5050505050505050565b60008054906101000a900473ffffffffffffffffffffffffffffffffffffffff1673ffffffffffffffffffffffffffffffffffffffff163373ffffffffffffffffffffffffffffffffffffffff16146106d6576040517f08c379a00000000000000000000000000000000000000000000000000000000081526004016106cd906117b4565b60405180910390fd5b806000600260008381526020019081526020016000206001018054905011610733576040517f08c379a000000000000000000000000000000000000000000000000000000000815260040161072a90611820565b60405180910390fd5b600060026000848152602001908152602001600020905060008160010180549050905060005b60028261076691906119a9565b8110156109cf578260000160405180608001604052808560010160028561078d9190611938565b8154811061079e5761079d6119da565b5b9060005260206000200160009054906101000a900473ffffffffffffffffffffffffffffffffffffffff1673ffffffffffffffffffffffffffffffffffffffff1681526020018560010160016002866107f79190611938565b6108019190611a09565b81548110610812576108116119da565b5b9060005260206000200160009054906101000a900473ffffffffffffffffffffffffffffffffffffffff1673ffffffffffffffffffffffffffffffffffffffff168152602001600073ffffffffffffffffffffffffffffffffffffffff16815260200160006001811115610889576108886115c0565b5b815250908060018154018082558091505060019003906000526020600020906003020160009091909190915060008201518160000160006101000a81548173ffffffffffffffffffffffffffffffffffffffff021916908373ffffffffffffffffffffffffffffffffffffffff16021790555060208201518160010160006101000a81548173ffffffffffffffffffffffffffffffffffffffff021916908373ffffffffffffffffffffffffffffffffffffffff16021790555060408201518160020160006101000a81548173ffffffffffffffffffffffffffffffffffffffff021916908373ffffffffffffffffffffffffffffffffffffffff16021790555060608201518160020160146101000a81548160ff021916908360018111156109b5576109b46115c0565b5b0217905550505080806109c790611a3d565b915050610759565b5050505050565b60015481565b60008054906101000a900473ffffffffffffffffffffffffffffffffffffffff1673ffffffffffffffffffffffffffffffffffffffff163373ffffffffffffffffffffffffffffffffffffffff1614610a6a576040517f08c379a0000000000000000000000000000000000000000000000000000000008152600401610a61906117b4565b60405180910390fd5b826000600260008381526020019081526020016000206001018054905011610ac7576040517f08c379a0000000000000000000000000000000000000000000000000000000008152600401610abe90611820565b60405180910390fd5b600060026000868152602001908152602001600020905080600001805490508410610b27576040517f08c379a0000000000000000000000000000000000000000000000000000000008152600401610b1e90611ad1565b60405180910390fd5b60006001811115610b3b57610b3a6115c0565b5b816000018581548110610b5157610b506119da565b5b906000526020600020906003020160020160149054906101000a900460ff166001811115610b8257610b816115c0565b5b14610bc2576040517f08c379a0000000000000000000000000000000000000000000000000000000008152600401610bb990611b3d565b60405180910390fd5b82816000018581548110610bd957610bd86119da565b5b906000526020600020906003020160020160006101000a81548173ffffffffffffffffffffffffffffffffffffffff021916908373ffffffffffffffffffffffffffffffffffffffff1602179055506001816000018581548110610c4057610c3f6119da565b5b906000526020600020906003020160020160146101000a81548160ff02191690836001811115610c7357610c726115c0565b5b0217905550847f8d60b015965672d4594cbe60ae278e009bdef53b71cccf704014a4860ccf8a578585604051610caa929190611b5d565b60405180910390a25050505050565b606060026000838152602001908152602001600020600101805480602002602001604051908101604052809291908181526020018280548015610d5157602002820191906000526020600020905b8160009054906101000a900473ffffffffffffffffffffffffffffffffffffffff1673ffffffffffffffffffffffffffffffffffffffff1681526020019060010190808311610d07575b50505050509050919050565b60008054906101000a900473ffffffffffffffffffffffffffffffffffffffff1681565b60008054906101000a900473ffffffffffffffffffffffffffffffffffffffff1673ffffffffffffffffffffffffffffffffffffffff163373ffffffffffffffffffffffffffffffffffffffff1614610e0f576040517f08c379a0000000000000000000000000000000000000000000000000000000008152600401610e06906117b4565b60405180910390fd5b816000600260008381526020019081526020016000206000018054905014610e6c576040517f08c379a0000000000000000000000000000000000000000000000000000000008152600401610e6390611bd2565b60405180910390fd5b600882511480610e7d575060108251145b610ebc576040517f08c379a0000000000000000000000000000000000000000000000000000000008152600401610eb390611c3e565b60405180910390fd5b600060026000858152602001908152602001600020905082816001019080519060200190610eeb9291906110dc565b50837fa47122c4660339cf88308783d3c2a9ed10d7809cc28e552e580a7a89722f6da984604051610f1c9190611393565b60405180910390a250505050565b606060026000838152602001908152602001600020600001805480602002602001604051908101604052809291908181526020016000905b828210156110d157838290600052602060002090600302016040518060800160405290816000820160009054906101000a900473ffffffffffffffffffffffffffffffffffffffff1673ffffffffffffffffffffffffffffffffffffffff1673ffffffffffffffffffffffffffffffffffffffff1681526020016001820160009054906101000a900473ffffffffffffffffffffffffffffffffffffffff1673ffffffffffffffffffffffffffffffffffffffff1673ffffffffffffffffffffffffffffffffffffffff1681526020016002820160009054906101000a900473ffffffffffffffffffffffffffffffffffffffff1673ffffffffffffffffffffffffffffffffffffffff1673ffffffffffffffffffffffffffffffffffffffff1681526020016002820160149054906101000a900460ff1660018111156110ac576110ab6115c0565b5b60018111156110be576110bd6115c0565b5b8152505081526020019060010190610f62565b505050509050919050565b828054828255906000526020600020908101928215611155579160200282015b828111156111545782518260006101000a81548173ffffffffffffffffffffffffffffffffffffffff021916908373ffffffffffffffffffffffffffffffffffffffff160217905550916020019190600101906110fc565b5b5090506111629190611166565b5090565b5b8082111561117f576000816000905550600101611167565b5090565b6000604051905090565b600080fd5b600080fd5b6000819050919050565b6111aa81611197565b81146111b557600080fd5b50565b6000813590506111c7816111a1565b92915050565b6000602082840312156111e3576111e261118d565b5b60006111f1848285016111b8565b91505092915050565b61120381611197565b82525050565b600060208201905061121e60008301846111fa565b92915050565b600073ffffffffffffffffffffffffffffffffffffffff82169050919050565b600061124f82611224565b9050919050565b61125f81611244565b811461126a57600080fd5b50565b60008135905061127c81611256565b92915050565b60008060006060848603121561129b5761129a61118d565b5b60006112a9868287016111b8565b93505060206112ba868287016111b8565b92505060406112cb8682870161126d565b9150509250925092565b600081519050919050565b600082825260208201905092915050565b6000819050602082019050919050565b61130a81611244565b82525050565b600061131c8383611301565b60208301905092915050565b6000602082019050919050565b6000611340826112d5565b61134a81856112e0565b9350611355836112f1565b8060005b8381101561138657815161136d8882611310565b975061137883611328565b925050600181019050611359565b5085935050505092915050565b600060208201905081810360008301526113ad8184611335565b905092915050565b6113be81611244565b82525050565b60006020820190506113d960008301846113b5565b92915050565b600080fd5b6000601f19601f8301169050919050565b7f4e487b7100000000000000000000000000000000000000000000000000000000600052604160045260246000fd5b61142d826113e4565b810181811067ffffffffffffffff8211171561144c5761144b6113f5565b5b80604052505050565b600061145f611183565b905061146b8282611424565b919050565b600067ffffffffffffffff82111561148b5761148a6113f5565b5b602082029050602081019050919050565b600080fd5b60006114b46114af84611470565b611455565b905080838252602082019050602084028301858111156114d7576114d661149c565b5b835b8181101561150057806114ec888261126d565b8452602084019350506020810190506114d9565b5050509392505050565b600082601f83011261151f5761151e6113df565b5b813561152f8482602086016114a1565b91505092915050565b6000806040838503121561154f5761154e61118d565b5b600061155d858286016111b8565b925050602083013567ffffffffffffffff81111561157e5761157d611192565b5b61158a8582860161150a565b9150509250929050565b600081519050919050565b600082825260208201905092915050565b6000819050602082019050919050565b7f4e487b7100000000000000000000000000000000000000000000000000000000600052602160045260246000fd5b60028110611600576115ff6115c0565b5b50565b6000819050611611826115ef565b919050565b600061162182611603565b9050919050565b61163181611616565b82525050565b60808201600082015161164d6000850182611301565b5060208201516116606020850182611301565b5060408201516116736040850182611301565b5060608201516116866060850182611628565b50505050565b60006116988383611637565b60808301905092915050565b6000602082019050919050565b60006116bc82611594565b6116c6818561159f565b93506116d1836115b0565b8060005b838110156117025781516116e9888261168c565b97506116f4836116a4565b9250506001810190506116d5565b5085935050505092915050565b6000602082019050818103600083015261172981846116b1565b905092915050565b600082825260208201905092915050565b7f4f6e6c79206f776e65722063616e2063616c6c20746869732066756e6374696f60008201527f6e00000000000000000000000000000000000000000000000000000000000000602082015250565b600061179e602183611731565b91506117a982611742565b604082019050919050565b600060208201905081810360008301526117cd81611791565b9050919050565b7f546f75726e616d656e7420646f6573206e6f7420657869737400000000000000600082015250565b600061180a601983611731565b9150611815826117d4565b602082019050919050565b60006020820190508181036000830152611839816117fd565b9050919050565b600060408201905061185560008301856111fa565b61186260208301846111fa565b9392505050565b7f4e487b7100000000000000000000000000000000000000000000000000000000600052601160045260246000fd5b60006118a382611197565b91506118ae83611197565b92508282039050818111156118c6576118c5611869565b5b92915050565b7f546f75726e616d656e74206e6f742066696e6973686564000000000000000000600082015250565b6000611902601783611731565b915061190d826118cc565b602082019050919050565b60006020820190508181036000830152611931816118f5565b9050919050565b600061194382611197565b915061194e83611197565b925082820261195c81611197565b9150828204841483151761197357611972611869565b5b5092915050565b7f4e487b7100000000000000000000000000000000000000000000000000000000600052601260045260246000fd5b60006119b482611197565b91506119bf83611197565b9250826119cf576119ce61197a565b5b828204905092915050565b7f4e487b7100000000000000000000000000000000000000000000000000000000600052603260045260246000fd5b6000611a1482611197565b9150611a1f83611197565b9250828201905080821115611a3757611a36611869565b5b92915050565b6000611a4882611197565b91507fffffffffffffffffffffffffffffffffffffffffffffffffffffffffffffffff8203611a7a57611a79611869565b5b600182019050919050565b7f496e76616c6964206d6174636820696e64657800000000000000000000000000600082015250565b6000611abb601383611731565b9150611ac682611a85565b602082019050919050565b60006020820190508181036000830152611aea81611aae565b9050919050565b7f4d6174636820616c726561647920636f6d706c65746564000000000000000000600082015250565b6000611b27601783611731565b9150611b3282611af1565b602082019050919050565b60006020820190508181036000830152611b5681611b1a565b9050919050565b6000604082019050611b7260008301856111fa565b611b7f60208301846113b5565b9392505050565b7f546f75726e616d656e742068617320616c726561647920737461727465640000600082015250565b6000611bbc601e83611731565b9150611bc782611b86565b602082019050919050565b60006020820190508181036000830152611beb81611baf565b9050919050565b7f4e756d626572206f66207465616d73206d7573742062652038206f7220313600600082015250565b6000611c28601f83611731565b9150611c3382611bf2565b602082019050919050565b60006020820190508181036000830152611c5781611c1b565b905091905056fea2646970667358221220e4fbf0561f730ed7fc3176d9e923a6d10abba7295138e54be59a1ebc3b67e15264736f6c63430008120033",
					"opcodes": "PUSH1 0x80 PUSH1 0x40 MSTORE CALLVALUE DUP1 ISZERO PUSH2 0x10 JUMPI PUSH1 0x0 DUP1 REVERT JUMPDEST POP CALLER PUSH1 0x0 DUP1 PUSH2 0x100 EXP DUP2 SLOAD DUP2 PUSH20 0xFFFFFFFFFFFFFFFFFFFFFFFFFFFFFFFFFFFFFFFF MUL NOT AND SWAP1 DUP4 PUSH20 0xFFFFFFFFFFFFFFFFFFFFFFFFFFFFFFFFFFFFFFFF AND MUL OR SWAP1 SSTORE POP PUSH2 0x1C94 DUP1 PUSH2 0x60 PUSH1 0x0 CODECOPY PUSH1 0x0 RETURN INVALID PUSH1 0x80 PUSH1 0x40 MSTORE CALLVALUE DUP1 ISZERO PUSH2 0x10 JUMPI PUSH1 0x0 DUP1 REVERT JUMPDEST POP PUSH1 0x4 CALLDATASIZE LT PUSH2 0x88 JUMPI PUSH1 0x0 CALLDATALOAD PUSH1 0xE0 SHR DUP1 PUSH4 0x87C2825F GT PUSH2 0x5B JUMPI DUP1 PUSH4 0x87C2825F EQ PUSH2 0xFF JUMPI DUP1 PUSH4 0x8DA5CB5B EQ PUSH2 0x12F JUMPI DUP1 PUSH4 0xBE5973D6 EQ PUSH2 0x14D JUMPI DUP1 PUSH4 0xD8C57E85 EQ PUSH2 0x169 JUMPI PUSH2 0x88 JUMP JUMPDEST DUP1 PUSH4 0x59974E38 EQ PUSH2 0x8D JUMPI DUP1 PUSH4 0x651EA943 EQ PUSH2 0xA9 JUMPI DUP1 PUSH4 0x66666AA9 EQ PUSH2 0xC5 JUMPI DUP1 PUSH4 0x6F4CF972 EQ PUSH2 0xE3 JUMPI JUMPDEST PUSH1 0x0 DUP1 REVERT JUMPDEST PUSH2 0xA7 PUSH1 0x4 DUP1 CALLDATASIZE SUB DUP2 ADD SWAP1 PUSH2 0xA2 SWAP2 SWAP1 PUSH2 0x11CD JUMP JUMPDEST PUSH2 0x199 JUMP JUMPDEST STOP JUMPDEST PUSH2 0xC3 PUSH1 0x4 DUP1 CALLDATASIZE SUB DUP2 ADD SWAP1 PUSH2 0xBE SWAP2 SWAP1 PUSH2 0x11CD JUMP JUMPDEST PUSH2 0x648 JUMP JUMPDEST STOP JUMPDEST PUSH2 0xCD PUSH2 0x9D6 JUMP JUMPDEST PUSH1 0x40 MLOAD PUSH2 0xDA SWAP2 SWAP1 PUSH2 0x1209 JUMP JUMPDEST PUSH1 0x40 MLOAD DUP1 SWAP2 SUB SWAP1 RETURN JUMPDEST PUSH2 0xFD PUSH1 0x4 DUP1 CALLDATASIZE SUB DUP2 ADD SWAP1 PUSH2 0xF8 SWAP2 SWAP1 PUSH2 0x1282 JUMP JUMPDEST PUSH2 0x9DC JUMP JUMPDEST STOP JUMPDEST PUSH2 0x119 PUSH1 0x4 DUP1 CALLDATASIZE SUB DUP2 ADD SWAP1 PUSH2 0x114 SWAP2 SWAP1 PUSH2 0x11CD JUMP JUMPDEST PUSH2 0xCB9 JUMP JUMPDEST PUSH1 0x40 MLOAD PUSH2 0x126 SWAP2 SWAP1 PUSH2 0x1393 JUMP JUMPDEST PUSH1 0x40 MLOAD DUP1 SWAP2 SUB SWAP1 RETURN JUMPDEST PUSH2 0x137 PUSH2 0xD5D JUMP JUMPDEST PUSH1 0x40 MLOAD PUSH2 0x144 SWAP2 SWAP1 PUSH2 0x13C4 JUMP JUMPDEST PUSH1 0x40 MLOAD DUP1 SWAP2 SUB SWAP1 RETURN JUMPDEST PUSH2 0x167 PUSH1 0x4 DUP1 CALLDATASIZE SUB DUP2 ADD SWAP1 PUSH2 0x162 SWAP2 SWAP1 PUSH2 0x1538 JUMP JUMPDEST PUSH2 0xD81 JUMP JUMPDEST STOP JUMPDEST PUSH2 0x183 PUSH1 0x4 DUP1 CALLDATASIZE SUB DUP2 ADD SWAP1 PUSH2 0x17E SWAP2 SWAP1 PUSH2 0x11CD JUMP JUMPDEST PUSH2 0xF2A JUMP JUMPDEST PUSH1 0x40 MLOAD PUSH2 0x190 SWAP2 SWAP1 PUSH2 0x170F JUMP JUMPDEST PUSH1 0x40 MLOAD DUP1 SWAP2 SUB SWAP1 RETURN JUMPDEST PUSH1 0x0 DUP1 SLOAD SWAP1 PUSH2 0x100 EXP SWAP1 DIV PUSH20 0xFFFFFFFFFFFFFFFFFFFFFFFFFFFFFFFFFFFFFFFF AND PUSH20 0xFFFFFFFFFFFFFFFFFFFFFFFFFFFFFFFFFFFFFFFF AND CALLER PUSH20 0xFFFFFFFFFFFFFFFFFFFFFFFFFFFFFFFFFFFFFFFF AND EQ PUSH2 0x227 JUMPI PUSH1 0x40 MLOAD PUSH32 0x8C379A000000000000000000000000000000000000000000000000000000000 DUP2 MSTORE PUSH1 0x4 ADD PUSH2 0x21E SWAP1 PUSH2 0x17B4 JUMP JUMPDEST PUSH1 0x40 MLOAD DUP1 SWAP2 SUB SWAP1 REVERT JUMPDEST DUP1 PUSH1 0x0 PUSH1 0x2 PUSH1 0x0 DUP4 DUP2 MSTORE PUSH1 0x20 ADD SWAP1 DUP2 MSTORE PUSH1 0x20 ADD PUSH1 0x0 KECCAK256 PUSH1 0x1 ADD DUP1 SLOAD SWAP1 POP GT PUSH2 0x284 JUMPI PUSH1 0x40 MLOAD PUSH32 0x8C379A000000000000000000000000000000000000000000000000000000000 DUP2 MSTORE PUSH1 0x4 ADD PUSH2 0x27B SWAP1 PUSH2 0x1820 JUMP JUMPDEST PUSH1 0x40 MLOAD DUP1 SWAP2 SUB SWAP1 REVERT JUMPDEST PUSH1 0x0 PUSH1 0x2 PUSH1 0x0 DUP5 DUP2 MSTORE PUSH1 0x20 ADD SWAP1 DUP2 MSTORE PUSH1 0x20 ADD PUSH1 0x0 KECCAK256 SWAP1 POP DUP3 PUSH32 0xE1B02A13CF0779A7CE4FACE0FCF1491613F47493CB19AA975EEF9EB88ACC3732 DUP3 PUSH1 0x0 ADD DUP1 SLOAD SWAP1 POP DUP4 PUSH1 0x1 ADD DUP1 SLOAD SWAP1 POP PUSH1 0x40 MLOAD PUSH2 0x2DB SWAP3 SWAP2 SWAP1 PUSH2 0x1840 JUMP JUMPDEST PUSH1 0x40 MLOAD DUP1 SWAP2 SUB SWAP1 LOG2 PUSH1 0x1 DUP2 PUSH1 0x1 ADD DUP1 SLOAD SWAP1 POP PUSH2 0x2F7 SWAP2 SWAP1 PUSH2 0x1898 JUMP JUMPDEST DUP2 PUSH1 0x0 ADD DUP1 SLOAD SWAP1 POP EQ PUSH2 0x33F JUMPI PUSH1 0x40 MLOAD PUSH32 0x8C379A000000000000000000000000000000000000000000000000000000000 DUP2 MSTORE PUSH1 0x4 ADD PUSH2 0x336 SWAP1 PUSH2 0x1918 JUMP JUMPDEST PUSH1 0x40 MLOAD DUP1 SWAP2 SUB SWAP1 REVERT JUMPDEST PUSH1 0x0 PUSH1 0x64 PUSH1 0x32 PUSH1 0x1 SLOAD PUSH2 0x352 SWAP2 SWAP1 PUSH2 0x1938 JUMP JUMPDEST PUSH2 0x35C SWAP2 SWAP1 PUSH2 0x19A9 JUMP JUMPDEST SWAP1 POP PUSH1 0x0 PUSH1 0x64 PUSH1 0x1E PUSH1 0x1 SLOAD PUSH2 0x371 SWAP2 SWAP1 PUSH2 0x1938 JUMP JUMPDEST PUSH2 0x37B SWAP2 SWAP1 PUSH2 0x19A9 JUMP JUMPDEST SWAP1 POP PUSH1 0x0 PUSH1 0x64 PUSH1 0xA PUSH1 0x1 SLOAD PUSH2 0x390 SWAP2 SWAP1 PUSH2 0x1938 JUMP JUMPDEST PUSH2 0x39A SWAP2 SWAP1 PUSH2 0x19A9 JUMP JUMPDEST SWAP1 POP PUSH1 0x0 PUSH1 0x64 PUSH1 0xA PUSH1 0x1 SLOAD PUSH2 0x3AF SWAP2 SWAP1 PUSH2 0x1938 JUMP JUMPDEST PUSH2 0x3B9 SWAP2 SWAP1 PUSH2 0x19A9 JUMP JUMPDEST SWAP1 POP DUP5 PUSH1 0x0 ADD PUSH1 0x1 DUP7 PUSH1 0x0 ADD DUP1 SLOAD SWAP1 POP PUSH2 0x3D3 SWAP2 SWAP1 PUSH2 0x1898 JUMP JUMPDEST DUP2 SLOAD DUP2 LT PUSH2 0x3E4 JUMPI PUSH2 0x3E3 PUSH2 0x19DA JUMP JUMPDEST JUMPDEST SWAP1 PUSH1 0x0 MSTORE PUSH1 0x20 PUSH1 0x0 KECCAK256 SWAP1 PUSH1 0x3 MUL ADD PUSH1 0x2 ADD PUSH1 0x0 SWAP1 SLOAD SWAP1 PUSH2 0x100 EXP SWAP1 DIV PUSH20 0xFFFFFFFFFFFFFFFFFFFFFFFFFFFFFFFFFFFFFFFF AND PUSH20 0xFFFFFFFFFFFFFFFFFFFFFFFFFFFFFFFFFFFFFFFF AND PUSH2 0x8FC DUP6 SWAP1 DUP2 ISZERO MUL SWAP1 PUSH1 0x40 MLOAD PUSH1 0x0 PUSH1 0x40 MLOAD DUP1 DUP4 SUB DUP2 DUP6 DUP9 DUP9 CALL SWAP4 POP POP POP POP ISZERO DUP1 ISZERO PUSH2 0x45B JUMPI RETURNDATASIZE PUSH1 0x0 DUP1 RETURNDATACOPY RETURNDATASIZE PUSH1 0x0 REVERT JUMPDEST POP DUP5 PUSH1 0x0 ADD PUSH1 0x2 DUP7 PUSH1 0x0 ADD DUP1 SLOAD SWAP1 POP PUSH2 0x474 SWAP2 SWAP1 PUSH2 0x1898 JUMP JUMPDEST DUP2 SLOAD DUP2 LT PUSH2 0x485 JUMPI PUSH2 0x484 PUSH2 0x19DA JUMP JUMPDEST JUMPDEST SWAP1 PUSH1 0x0 MSTORE PUSH1 0x20 PUSH1 0x0 KECCAK256 SWAP1 PUSH1 0x3 MUL ADD PUSH1 0x2 ADD PUSH1 0x0 SWAP1 SLOAD SWAP1 PUSH2 0x100 EXP SWAP1 DIV PUSH20 0xFFFFFFFFFFFFFFFFFFFFFFFFFFFFFFFFFFFFFFFF AND PUSH20 0xFFFFFFFFFFFFFFFFFFFFFFFFFFFFFFFFFFFFFFFF AND PUSH2 0x8FC DUP5 SWAP1 DUP2 ISZERO MUL SWAP1 PUSH1 0x40 MLOAD PUSH1 0x0 PUSH1 0x40 MLOAD DUP1 DUP4 SUB DUP2 DUP6 DUP9 DUP9 CALL SWAP4 POP POP POP POP ISZERO DUP1 ISZERO PUSH2 0x4FC JUMPI RETURNDATASIZE PUSH1 0x0 DUP1 RETURNDATACOPY RETURNDATASIZE PUSH1 0x0 REVERT JUMPDEST POP DUP5 PUSH1 0x0 ADD PUSH1 0x3 DUP7 PUSH1 0x0 ADD DUP1 SLOAD SWAP1 POP PUSH2 0x515 SWAP2 SWAP1 PUSH2 0x1898 JUMP JUMPDEST DUP2 SLOAD DUP2 LT PUSH2 0x526 JUMPI PUSH2 0x525 PUSH2 0x19DA JUMP JUMPDEST JUMPDEST SWAP1 PUSH1 0x0 MSTORE PUSH1 0x20 PUSH1 0x0 KECCAK256 SWAP1 PUSH1 0x3 MUL ADD PUSH1 0x2 ADD PUSH1 0x0 SWAP1 SLOAD SWAP1 PUSH2 0x100 EXP SWAP1 DIV PUSH20 0xFFFFFFFFFFFFFFFFFFFFFFFFFFFFFFFFFFFFFFFF AND PUSH20 0xFFFFFFFFFFFFFFFFFFFFFFFFFFFFFFFFFFFFFFFF AND PUSH2 0x8FC DUP4 SWAP1 DUP2 ISZERO MUL SWAP1 PUSH1 0x40 MLOAD PUSH1 0x0 PUSH1 0x40 MLOAD DUP1 DUP4 SUB DUP2 DUP6 DUP9 DUP9 CALL SWAP4 POP POP POP POP ISZERO DUP1 ISZERO PUSH2 0x59D JUMPI RETURNDATASIZE PUSH1 0x0 DUP1 RETURNDATACOPY RETURNDATASIZE PUSH1 0x0 REVERT JUMPDEST POP DUP5 PUSH1 0x0 ADD PUSH1 0x4 DUP7 PUSH1 0x0 ADD DUP1 SLOAD SWAP1 POP PUSH2 0x5B6 SWAP2 SWAP1 PUSH2 0x1898 JUMP JUMPDEST DUP2 SLOAD DUP2 LT PUSH2 0x5C7 JUMPI PUSH2 0x5C6 PUSH2 0x19DA JUMP JUMPDEST JUMPDEST SWAP1 PUSH1 0x0 MSTORE PUSH1 0x20 PUSH1 0x0 KECCAK256 SWAP1 PUSH1 0x3 MUL ADD PUSH1 0x2 ADD PUSH1 0x0 SWAP1 SLOAD SWAP1 PUSH2 0x100 EXP SWAP1 DIV PUSH20 0xFFFFFFFFFFFFFFFFFFFFFFFFFFFFFFFFFFFFFFFF AND PUSH20 0xFFFFFFFFFFFFFFFFFFFFFFFFFFFFFFFFFFFFFFFF AND PUSH2 0x8FC DUP3 SWAP1 DUP2 ISZERO MUL SWAP1 PUSH1 0x40 MLOAD PUSH1 0x0 PUSH1 0x40 MLOAD DUP1 DUP4 SUB DUP2 DUP6 DUP9 DUP9 CALL SWAP4 POP POP POP POP ISZERO DUP1 ISZERO PUSH2 0x63E JUMPI RETURNDATASIZE PUSH1 0x0 DUP1 RETURNDATACOPY RETURNDATASIZE PUSH1 0x0 REVERT JUMPDEST POP POP POP POP POP POP POP POP JUMP JUMPDEST PUSH1 0x0 DUP1 SLOAD SWAP1 PUSH2 0x100 EXP SWAP1 DIV PUSH20 0xFFFFFFFFFFFFFFFFFFFFFFFFFFFFFFFFFFFFFFFF AND PUSH20 0xFFFFFFFFFFFFFFFFFFFFFFFFFFFFFFFFFFFFFFFF AND CALLER PUSH20 0xFFFFFFFFFFFFFFFFFFFFFFFFFFFFFFFFFFFFFFFF AND EQ PUSH2 0x6D6 JUMPI PUSH1 0x40 MLOAD PUSH32 0x8C379A000000000000000000000000000000000000000000000000000000000 DUP2 MSTORE PUSH1 0x4 ADD PUSH2 0x6CD SWAP1 PUSH2 0x17B4 JUMP JUMPDEST PUSH1 0x40 MLOAD DUP1 SWAP2 SUB SWAP1 REVERT JUMPDEST DUP1 PUSH1 0x0 PUSH1 0x2 PUSH1 0x0 DUP4 DUP2 MSTORE PUSH1 0x20 ADD SWAP1 DUP2 MSTORE PUSH1 0x20 ADD PUSH1 0x0 KECCAK256 PUSH1 0x1 ADD DUP1 SLOAD SWAP1 POP GT PUSH2 0x733 JUMPI PUSH1 0x40 MLOAD PUSH32 0x8C379A000000000000000000000000000000000000000000000000000000000 DUP2 MSTORE PUSH1 0x4 ADD PUSH2 0x72A SWAP1 PUSH2 0x1820 JUMP JUMPDEST PUSH1 0x40 MLOAD DUP1 SWAP2 SUB SWAP1 REVERT JUMPDEST PUSH1 0x0 PUSH1 0x2 PUSH1 0x0 DUP5 DUP2 MSTORE PUSH1 0x20 ADD SWAP1 DUP2 MSTORE PUSH1 0x20 ADD PUSH1 0x0 KECCAK256 SWAP1 POP PUSH1 0x0 DUP2 PUSH1 0x1 ADD DUP1 SLOAD SWAP1 POP SWAP1 POP PUSH1 0x0 JUMPDEST PUSH1 0x2 DUP3 PUSH2 0x766 SWAP2 SWAP1 PUSH2 0x19A9 JUMP JUMPDEST DUP2 LT ISZERO PUSH2 0x9CF JUMPI DUP3 PUSH1 0x0 ADD PUSH1 0x40 MLOAD DUP1 PUSH1 0x80 ADD PUSH1 0x40 MSTORE DUP1 DUP6 PUSH1 0x1 ADD PUSH1 0x2 DUP6 PUSH2 0x78D SWAP2 SWAP1 PUSH2 0x1938 JUMP JUMPDEST DUP2 SLOAD DUP2 LT PUSH2 0x79E JUMPI PUSH2 0x79D PUSH2 0x19DA JUMP JUMPDEST JUMPDEST SWAP1 PUSH1 0x0 MSTORE PUSH1 0x20 PUSH1 0x0 KECCAK256 ADD PUSH1 0x0 SWAP1 SLOAD SWAP1 PUSH2 0x100 EXP SWAP1 DIV PUSH20 0xFFFFFFFFFFFFFFFFFFFFFFFFFFFFFFFFFFFFFFFF AND PUSH20 0xFFFFFFFFFFFFFFFFFFFFFFFFFFFFFFFFFFFFFFFF AND DUP2 MSTORE PUSH1 0x20 ADD DUP6 PUSH1 0x1 ADD PUSH1 0x1 PUSH1 0x2 DUP7 PUSH2 0x7F7 SWAP2 SWAP1 PUSH2 0x1938 JUMP JUMPDEST PUSH2 0x801 SWAP2 SWAP1 PUSH2 0x1A09 JUMP JUMPDEST DUP2 SLOAD DUP2 LT PUSH2 0x812 JUMPI PUSH2 0x811 PUSH2 0x19DA JUMP JUMPDEST JUMPDEST SWAP1 PUSH1 0x0 MSTORE PUSH1 0x20 PUSH1 0x0 KECCAK256 ADD PUSH1 0x0 SWAP1 SLOAD SWAP1 PUSH2 0x100 EXP SWAP1 DIV PUSH20 0xFFFFFFFFFFFFFFFFFFFFFFFFFFFFFFFFFFFFFFFF AND PUSH20 0xFFFFFFFFFFFFFFFFFFFFFFFFFFFFFFFFFFFFFFFF AND DUP2 MSTORE PUSH1 0x20 ADD PUSH1 0x0 PUSH20 0xFFFFFFFFFFFFFFFFFFFFFFFFFFFFFFFFFFFFFFFF AND DUP2 MSTORE PUSH1 0x20 ADD PUSH1 0x0 PUSH1 0x1 DUP2 GT ISZERO PUSH2 0x889 JUMPI PUSH2 0x888 PUSH2 0x15C0 JUMP JUMPDEST JUMPDEST DUP2 MSTORE POP SWAP1 DUP1 PUSH1 0x1 DUP2 SLOAD ADD DUP1 DUP3 SSTORE DUP1 SWAP2 POP POP PUSH1 0x1 SWAP1 SUB SWAP1 PUSH1 0x0 MSTORE PUSH1 0x20 PUSH1 0x0 KECCAK256 SWAP1 PUSH1 0x3 MUL ADD PUSH1 0x0 SWAP1 SWAP2 SWAP1 SWAP2 SWAP1 SWAP2 POP PUSH1 0x0 DUP3 ADD MLOAD DUP2 PUSH1 0x0 ADD PUSH1 0x0 PUSH2 0x100 EXP DUP2 SLOAD DUP2 PUSH20 0xFFFFFFFFFFFFFFFFFFFFFFFFFFFFFFFFFFFFFFFF MUL NOT AND SWAP1 DUP4 PUSH20 0xFFFFFFFFFFFFFFFFFFFFFFFFFFFFFFFFFFFFFFFF AND MUL OR SWAP1 SSTORE POP PUSH1 0x20 DUP3 ADD MLOAD DUP2 PUSH1 0x1 ADD PUSH1 0x0 PUSH2 0x100 EXP DUP2 SLOAD DUP2 PUSH20 0xFFFFFFFFFFFFFFFFFFFFFFFFFFFFFFFFFFFFFFFF MUL NOT AND SWAP1 DUP4 PUSH20 0xFFFFFFFFFFFFFFFFFFFFFFFFFFFFFFFFFFFFFFFF AND MUL OR SWAP1 SSTORE POP PUSH1 0x40 DUP3 ADD MLOAD DUP2 PUSH1 0x2 ADD PUSH1 0x0 PUSH2 0x100 EXP DUP2 SLOAD DUP2 PUSH20 0xFFFFFFFFFFFFFFFFFFFFFFFFFFFFFFFFFFFFFFFF MUL NOT AND SWAP1 DUP4 PUSH20 0xFFFFFFFFFFFFFFFFFFFFFFFFFFFFFFFFFFFFFFFF AND MUL OR SWAP1 SSTORE POP PUSH1 0x60 DUP3 ADD MLOAD DUP2 PUSH1 0x2 ADD PUSH1 0x14 PUSH2 0x100 EXP DUP2 SLOAD DUP2 PUSH1 0xFF MUL NOT AND SWAP1 DUP4 PUSH1 0x1 DUP2 GT ISZERO PUSH2 0x9B5 JUMPI PUSH2 0x9B4 PUSH2 0x15C0 JUMP JUMPDEST JUMPDEST MUL OR SWAP1 SSTORE POP POP POP DUP1 DUP1 PUSH2 0x9C7 SWAP1 PUSH2 0x1A3D JUMP JUMPDEST SWAP2 POP POP PUSH2 0x759 JUMP JUMPDEST POP POP POP POP POP JUMP JUMPDEST PUSH1 0x1 SLOAD DUP2 JUMP JUMPDEST PUSH1 0x0 DUP1 SLOAD SWAP1 PUSH2 0x100 EXP SWAP1 DIV PUSH20 0xFFFFFFFFFFFFFFFFFFFFFFFFFFFFFFFFFFFFFFFF AND PUSH20 0xFFFFFFFFFFFFFFFFFFFFFFFFFFFFFFFFFFFFFFFF AND CALLER PUSH20 0xFFFFFFFFFFFFFFFFFFFFFFFFFFFFFFFFFFFFFFFF AND EQ PUSH2 0xA6A JUMPI PUSH1 0x40 MLOAD PUSH32 0x8C379A000000000000000000000000000000000000000000000000000000000 DUP2 MSTORE PUSH1 0x4 ADD PUSH2 0xA61 SWAP1 PUSH2 0x17B4 JUMP JUMPDEST PUSH1 0x40 MLOAD DUP1 SWAP2 SUB SWAP1 REVERT JUMPDEST DUP3 PUSH1 0x0 PUSH1 0x2 PUSH1 0x0 DUP4 DUP2 MSTORE PUSH1 0x20 ADD SWAP1 DUP2 MSTORE PUSH1 0x20 ADD PUSH1 0x0 KECCAK256 PUSH1 0x1 ADD DUP1 SLOAD SWAP1 POP GT PUSH2 0xAC7 JUMPI PUSH1 0x40 MLOAD PUSH32 0x8C379A000000000000000000000000000000000000000000000000000000000 DUP2 MSTORE PUSH1 0x4 ADD PUSH2 0xABE SWAP1 PUSH2 0x1820 JUMP JUMPDEST PUSH1 0x40 MLOAD DUP1 SWAP2 SUB SWAP1 REVERT JUMPDEST PUSH1 0x0 PUSH1 0x2 PUSH1 0x0 DUP7 DUP2 MSTORE PUSH1 0x20 ADD SWAP1 DUP2 MSTORE PUSH1 0x20 ADD PUSH1 0x0 KECCAK256 SWAP1 POP DUP1 PUSH1 0x0 ADD DUP1 SLOAD SWAP1 POP DUP5 LT PUSH2 0xB27 JUMPI PUSH1 0x40 MLOAD PUSH32 0x8C379A000000000000000000000000000000000000000000000000000000000 DUP2 MSTORE PUSH1 0x4 ADD PUSH2 0xB1E SWAP1 PUSH2 0x1AD1 JUMP JUMPDEST PUSH1 0x40 MLOAD DUP1 SWAP2 SUB SWAP1 REVERT JUMPDEST PUSH1 0x0 PUSH1 0x1 DUP2 GT ISZERO PUSH2 0xB3B JUMPI PUSH2 0xB3A PUSH2 0x15C0 JUMP JUMPDEST JUMPDEST DUP2 PUSH1 0x0 ADD DUP6 DUP2 SLOAD DUP2 LT PUSH2 0xB51 JUMPI PUSH2 0xB50 PUSH2 0x19DA JUMP JUMPDEST JUMPDEST SWAP1 PUSH1 0x0 MSTORE PUSH1 0x20 PUSH1 0x0 KECCAK256 SWAP1 PUSH1 0x3 MUL ADD PUSH1 0x2 ADD PUSH1 0x14 SWAP1 SLOAD SWAP1 PUSH2 0x100 EXP SWAP1 DIV PUSH1 0xFF AND PUSH1 0x1 DUP2 GT ISZERO PUSH2 0xB82 JUMPI PUSH2 0xB81 PUSH2 0x15C0 JUMP JUMPDEST JUMPDEST EQ PUSH2 0xBC2 JUMPI PUSH1 0x40 MLOAD PUSH32 0x8C379A000000000000000000000000000000000000000000000000000000000 DUP2 MSTORE PUSH1 0x4 ADD PUSH2 0xBB9 SWAP1 PUSH2 0x1B3D JUMP JUMPDEST PUSH1 0x40 MLOAD DUP1 SWAP2 SUB SWAP1 REVERT JUMPDEST DUP3 DUP2 PUSH1 0x0 ADD DUP6 DUP2 SLOAD DUP2 LT PUSH2 0xBD9 JUMPI PUSH2 0xBD8 PUSH2 0x19DA JUMP JUMPDEST JUMPDEST SWAP1 PUSH1 0x0 MSTORE PUSH1 0x20 PUSH1 0x0 KECCAK256 SWAP1 PUSH1 0x3 MUL ADD PUSH1 0x2 ADD PUSH1 0x0 PUSH2 0x100 EXP DUP2 SLOAD DUP2 PUSH20 0xFFFFFFFFFFFFFFFFFFFFFFFFFFFFFFFFFFFFFFFF MUL NOT AND SWAP1 DUP4 PUSH20 0xFFFFFFFFFFFFFFFFFFFFFFFFFFFFFFFFFFFFFFFF AND MUL OR SWAP1 SSTORE POP PUSH1 0x1 DUP2 PUSH1 0x0 ADD DUP6 DUP2 SLOAD DUP2 LT PUSH2 0xC40 JUMPI PUSH2 0xC3F PUSH2 0x19DA JUMP JUMPDEST JUMPDEST SWAP1 PUSH1 0x0 MSTORE PUSH1 0x20 PUSH1 0x0 KECCAK256 SWAP1 PUSH1 0x3 MUL ADD PUSH1 0x2 ADD PUSH1 0x14 PUSH2 0x100 EXP DUP2 SLOAD DUP2 PUSH1 0xFF MUL NOT AND SWAP1 DUP4 PUSH1 0x1 DUP2 GT ISZERO PUSH2 0xC73 JUMPI PUSH2 0xC72 PUSH2 0x15C0 JUMP JUMPDEST JUMPDEST MUL OR SWAP1 SSTORE POP DUP5 PUSH32 0x8D60B015965672D4594CBE60AE278E009BDEF53B71CCCF704014A4860CCF8A57 DUP6 DUP6 PUSH1 0x40 MLOAD PUSH2 0xCAA SWAP3 SWAP2 SWAP1 PUSH2 0x1B5D JUMP JUMPDEST PUSH1 0x40 MLOAD DUP1 SWAP2 SUB SWAP1 LOG2 POP POP POP POP POP JUMP JUMPDEST PUSH1 0x60 PUSH1 0x2 PUSH1 0x0 DUP4 DUP2 MSTORE PUSH1 0x20 ADD SWAP1 DUP2 MSTORE PUSH1 0x20 ADD PUSH1 0x0 KECCAK256 PUSH1 0x1 ADD DUP1 SLOAD DUP1 PUSH1 0x20 MUL PUSH1 0x20 ADD PUSH1 0x40 MLOAD SWAP1 DUP2 ADD PUSH1 0x40 MSTORE DUP1 SWAP3 SWAP2 SWAP1 DUP2 DUP2 MSTORE PUSH1 0x20 ADD DUP3 DUP1 SLOAD DUP1 ISZERO PUSH2 0xD51 JUMPI PUSH1 0x20 MUL DUP3 ADD SWAP2 SWAP1 PUSH1 0x0 MSTORE PUSH1 0x20 PUSH1 0x0 KECCAK256 SWAP1 JUMPDEST DUP2 PUSH1 0x0 SWAP1 SLOAD SWAP1 PUSH2 0x100 EXP SWAP1 DIV PUSH20 0xFFFFFFFFFFFFFFFFFFFFFFFFFFFFFFFFFFFFFFFF AND PUSH20 0xFFFFFFFFFFFFFFFFFFFFFFFFFFFFFFFFFFFFFFFF AND DUP2 MSTORE PUSH1 0x20 ADD SWAP1 PUSH1 0x1 ADD SWAP1 DUP1 DUP4 GT PUSH2 0xD07 JUMPI JUMPDEST POP POP POP POP POP SWAP1 POP SWAP2 SWAP1 POP JUMP JUMPDEST PUSH1 0x0 DUP1 SLOAD SWAP1 PUSH2 0x100 EXP SWAP1 DIV PUSH20 0xFFFFFFFFFFFFFFFFFFFFFFFFFFFFFFFFFFFFFFFF AND DUP2 JUMP JUMPDEST PUSH1 0x0 DUP1 SLOAD SWAP1 PUSH2 0x100 EXP SWAP1 DIV PUSH20 0xFFFFFFFFFFFFFFFFFFFFFFFFFFFFFFFFFFFFFFFF AND PUSH20 0xFFFFFFFFFFFFFFFFFFFFFFFFFFFFFFFFFFFFFFFF AND CALLER PUSH20 0xFFFFFFFFFFFFFFFFFFFFFFFFFFFFFFFFFFFFFFFF AND EQ PUSH2 0xE0F JUMPI PUSH1 0x40 MLOAD PUSH32 0x8C379A000000000000000000000000000000000000000000000000000000000 DUP2 MSTORE PUSH1 0x4 ADD PUSH2 0xE06 SWAP1 PUSH2 0x17B4 JUMP JUMPDEST PUSH1 0x40 MLOAD DUP1 SWAP2 SUB SWAP1 REVERT JUMPDEST DUP2 PUSH1 0x0 PUSH1 0x2 PUSH1 0x0 DUP4 DUP2 MSTORE PUSH1 0x20 ADD SWAP1 DUP2 MSTORE PUSH1 0x20 ADD PUSH1 0x0 KECCAK256 PUSH1 0x0 ADD DUP1 SLOAD SWAP1 POP EQ PUSH2 0xE6C JUMPI PUSH1 0x40 MLOAD PUSH32 0x8C379A000000000000000000000000000000000000000000000000000000000 DUP2 MSTORE PUSH1 0x4 ADD PUSH2 0xE63 SWAP1 PUSH2 0x1BD2 JUMP JUMPDEST PUSH1 0x40 MLOAD DUP1 SWAP2 SUB SWAP1 REVERT JUMPDEST PUSH1 0x8 DUP3 MLOAD EQ DUP1 PUSH2 0xE7D JUMPI POP PUSH1 0x10 DUP3 MLOAD EQ JUMPDEST PUSH2 0xEBC JUMPI PUSH1 0x40 MLOAD PUSH32 0x8C379A000000000000000000000000000000000000000000000000000000000 DUP2 MSTORE PUSH1 0x4 ADD PUSH2 0xEB3 SWAP1 PUSH2 0x1C3E JUMP JUMPDEST PUSH1 0x40 MLOAD DUP1 SWAP2 SUB SWAP1 REVERT JUMPDEST PUSH1 0x0 PUSH1 0x2 PUSH1 0x0 DUP6 DUP2 MSTORE PUSH1 0x20 ADD SWAP1 DUP2 MSTORE PUSH1 0x20 ADD PUSH1 0x0 KECCAK256 SWAP1 POP DUP3 DUP2 PUSH1 0x1 ADD SWAP1 DUP1 MLOAD SWAP1 PUSH1 0x20 ADD SWAP1 PUSH2 0xEEB SWAP3 SWAP2 SWAP1 PUSH2 0x10DC JUMP JUMPDEST POP DUP4 PUSH32 0xA47122C4660339CF88308783D3C2A9ED10D7809CC28E552E580A7A89722F6DA9 DUP5 PUSH1 0x40 MLOAD PUSH2 0xF1C SWAP2 SWAP1 PUSH2 0x1393 JUMP JUMPDEST PUSH1 0x40 MLOAD DUP1 SWAP2 SUB SWAP1 LOG2 POP POP POP POP JUMP JUMPDEST PUSH1 0x60 PUSH1 0x2 PUSH1 0x0 DUP4 DUP2 MSTORE PUSH1 0x20 ADD SWAP1 DUP2 MSTORE PUSH1 0x20 ADD PUSH1 0x0 KECCAK256 PUSH1 0x0 ADD DUP1 SLOAD DUP1 PUSH1 0x20 MUL PUSH1 0x20 ADD PUSH1 0x40 MLOAD SWAP1 DUP2 ADD PUSH1 0x40 MSTORE DUP1 SWAP3 SWAP2 SWAP1 DUP2 DUP2 MSTORE PUSH1 0x20 ADD PUSH1 0x0 SWAP1 JUMPDEST DUP3 DUP3 LT ISZERO PUSH2 0x10D1 JUMPI DUP4 DUP3 SWAP1 PUSH1 0x0 MSTORE PUSH1 0x20 PUSH1 0x0 KECCAK256 SWAP1 PUSH1 0x3 MUL ADD PUSH1 0x40 MLOAD DUP1 PUSH1 0x80 ADD PUSH1 0x40 MSTORE SWAP1 DUP2 PUSH1 0x0 DUP3 ADD PUSH1 0x0 SWAP1 SLOAD SWAP1 PUSH2 0x100 EXP SWAP1 DIV PUSH20 0xFFFFFFFFFFFFFFFFFFFFFFFFFFFFFFFFFFFFFFFF AND PUSH20 0xFFFFFFFFFFFFFFFFFFFFFFFFFFFFFFFFFFFFFFFF AND PUSH20 0xFFFFFFFFFFFFFFFFFFFFFFFFFFFFFFFFFFFFFFFF AND DUP2 MSTORE PUSH1 0x20 ADD PUSH1 0x1 DUP3 ADD PUSH1 0x0 SWAP1 SLOAD SWAP1 PUSH2 0x100 EXP SWAP1 DIV PUSH20 0xFFFFFFFFFFFFFFFFFFFFFFFFFFFFFFFFFFFFFFFF AND PUSH20 0xFFFFFFFFFFFFFFFFFFFFFFFFFFFFFFFFFFFFFFFF AND PUSH20 0xFFFFFFFFFFFFFFFFFFFFFFFFFFFFFFFFFFFFFFFF AND DUP2 MSTORE PUSH1 0x20 ADD PUSH1 0x2 DUP3 ADD PUSH1 0x0 SWAP1 SLOAD SWAP1 PUSH2 0x100 EXP SWAP1 DIV PUSH20 0xFFFFFFFFFFFFFFFFFFFFFFFFFFFFFFFFFFFFFFFF AND PUSH20 0xFFFFFFFFFFFFFFFFFFFFFFFFFFFFFFFFFFFFFFFF AND PUSH20 0xFFFFFFFFFFFFFFFFFFFFFFFFFFFFFFFFFFFFFFFF AND DUP2 MSTORE PUSH1 0x20 ADD PUSH1 0x2 DUP3 ADD PUSH1 0x14 SWAP1 SLOAD SWAP1 PUSH2 0x100 EXP SWAP1 DIV PUSH1 0xFF AND PUSH1 0x1 DUP2 GT ISZERO PUSH2 0x10AC JUMPI PUSH2 0x10AB PUSH2 0x15C0 JUMP JUMPDEST JUMPDEST PUSH1 0x1 DUP2 GT ISZERO PUSH2 0x10BE JUMPI PUSH2 0x10BD PUSH2 0x15C0 JUMP JUMPDEST JUMPDEST DUP2 MSTORE POP POP DUP2 MSTORE PUSH1 0x20 ADD SWAP1 PUSH1 0x1 ADD SWAP1 PUSH2 0xF62 JUMP JUMPDEST POP POP POP POP SWAP1 POP SWAP2 SWAP1 POP JUMP JUMPDEST DUP3 DUP1 SLOAD DUP3 DUP3 SSTORE SWAP1 PUSH1 0x0 MSTORE PUSH1 0x20 PUSH1 0x0 KECCAK256 SWAP1 DUP2 ADD SWAP3 DUP3 ISZERO PUSH2 0x1155 JUMPI SWAP2 PUSH1 0x20 MUL DUP3 ADD JUMPDEST DUP3 DUP2 GT ISZERO PUSH2 0x1154 JUMPI DUP3 MLOAD DUP3 PUSH1 0x0 PUSH2 0x100 EXP DUP2 SLOAD DUP2 PUSH20 0xFFFFFFFFFFFFFFFFFFFFFFFFFFFFFFFFFFFFFFFF MUL NOT AND SWAP1 DUP4 PUSH20 0xFFFFFFFFFFFFFFFFFFFFFFFFFFFFFFFFFFFFFFFF AND MUL OR SWAP1 SSTORE POP SWAP2 PUSH1 0x20 ADD SWAP2 SWAP1 PUSH1 0x1 ADD SWAP1 PUSH2 0x10FC JUMP JUMPDEST JUMPDEST POP SWAP1 POP PUSH2 0x1162 SWAP2 SWAP1 PUSH2 0x1166 JUMP JUMPDEST POP SWAP1 JUMP JUMPDEST JUMPDEST DUP1 DUP3 GT ISZERO PUSH2 0x117F JUMPI PUSH1 0x0 DUP2 PUSH1 0x0 SWAP1 SSTORE POP PUSH1 0x1 ADD PUSH2 0x1167 JUMP JUMPDEST POP SWAP1 JUMP JUMPDEST PUSH1 0x0 PUSH1 0x40 MLOAD SWAP1 POP SWAP1 JUMP JUMPDEST PUSH1 0x0 DUP1 REVERT JUMPDEST PUSH1 0x0 DUP1 REVERT JUMPDEST PUSH1 0x0 DUP2 SWAP1 POP SWAP2 SWAP1 POP JUMP JUMPDEST PUSH2 0x11AA DUP2 PUSH2 0x1197 JUMP JUMPDEST DUP2 EQ PUSH2 0x11B5 JUMPI PUSH1 0x0 DUP1 REVERT JUMPDEST POP JUMP JUMPDEST PUSH1 0x0 DUP2 CALLDATALOAD SWAP1 POP PUSH2 0x11C7 DUP2 PUSH2 0x11A1 JUMP JUMPDEST SWAP3 SWAP2 POP POP JUMP JUMPDEST PUSH1 0x0 PUSH1 0x20 DUP3 DUP5 SUB SLT ISZERO PUSH2 0x11E3 JUMPI PUSH2 0x11E2 PUSH2 0x118D JUMP JUMPDEST JUMPDEST PUSH1 0x0 PUSH2 0x11F1 DUP5 DUP3 DUP6 ADD PUSH2 0x11B8 JUMP JUMPDEST SWAP2 POP POP SWAP3 SWAP2 POP POP JUMP JUMPDEST PUSH2 0x1203 DUP2 PUSH2 0x1197 JUMP JUMPDEST DUP3 MSTORE POP POP JUMP JUMPDEST PUSH1 0x0 PUSH1 0x20 DUP3 ADD SWAP1 POP PUSH2 0x121E PUSH1 0x0 DUP4 ADD DUP5 PUSH2 0x11FA JUMP JUMPDEST SWAP3 SWAP2 POP POP JUMP JUMPDEST PUSH1 0x0 PUSH20 0xFFFFFFFFFFFFFFFFFFFFFFFFFFFFFFFFFFFFFFFF DUP3 AND SWAP1 POP SWAP2 SWAP1 POP JUMP JUMPDEST PUSH1 0x0 PUSH2 0x124F DUP3 PUSH2 0x1224 JUMP JUMPDEST SWAP1 POP SWAP2 SWAP1 POP JUMP JUMPDEST PUSH2 0x125F DUP2 PUSH2 0x1244 JUMP JUMPDEST DUP2 EQ PUSH2 0x126A JUMPI PUSH1 0x0 DUP1 REVERT JUMPDEST POP JUMP JUMPDEST PUSH1 0x0 DUP2 CALLDATALOAD SWAP1 POP PUSH2 0x127C DUP2 PUSH2 0x1256 JUMP JUMPDEST SWAP3 SWAP2 POP POP JUMP JUMPDEST PUSH1 0x0 DUP1 PUSH1 0x0 PUSH1 0x60 DUP5 DUP7 SUB SLT ISZERO PUSH2 0x129B JUMPI PUSH2 0x129A PUSH2 0x118D JUMP JUMPDEST JUMPDEST PUSH1 0x0 PUSH2 0x12A9 DUP7 DUP3 DUP8 ADD PUSH2 0x11B8 JUMP JUMPDEST SWAP4 POP POP PUSH1 0x20 PUSH2 0x12BA DUP7 DUP3 DUP8 ADD PUSH2 0x11B8 JUMP JUMPDEST SWAP3 POP POP PUSH1 0x40 PUSH2 0x12CB DUP7 DUP3 DUP8 ADD PUSH2 0x126D JUMP JUMPDEST SWAP2 POP POP SWAP3 POP SWAP3 POP SWAP3 JUMP JUMPDEST PUSH1 0x0 DUP2 MLOAD SWAP1 POP SWAP2 SWAP1 POP JUMP JUMPDEST PUSH1 0x0 DUP3 DUP3 MSTORE PUSH1 0x20 DUP3 ADD SWAP1 POP SWAP3 SWAP2 POP POP JUMP JUMPDEST PUSH1 0x0 DUP2 SWAP1 POP PUSH1 0x20 DUP3 ADD SWAP1 POP SWAP2 SWAP1 POP JUMP JUMPDEST PUSH2 0x130A DUP2 PUSH2 0x1244 JUMP JUMPDEST DUP3 MSTORE POP POP JUMP JUMPDEST PUSH1 0x0 PUSH2 0x131C DUP4 DUP4 PUSH2 0x1301 JUMP JUMPDEST PUSH1 0x20 DUP4 ADD SWAP1 POP SWAP3 SWAP2 POP POP JUMP JUMPDEST PUSH1 0x0 PUSH1 0x20 DUP3 ADD SWAP1 POP SWAP2 SWAP1 POP JUMP JUMPDEST PUSH1 0x0 PUSH2 0x1340 DUP3 PUSH2 0x12D5 JUMP JUMPDEST PUSH2 0x134A DUP2 DUP6 PUSH2 0x12E0 JUMP JUMPDEST SWAP4 POP PUSH2 0x1355 DUP4 PUSH2 0x12F1 JUMP JUMPDEST DUP1 PUSH1 0x0 JUMPDEST DUP4 DUP2 LT ISZERO PUSH2 0x1386 JUMPI DUP2 MLOAD PUSH2 0x136D DUP9 DUP3 PUSH2 0x1310 JUMP JUMPDEST SWAP8 POP PUSH2 0x1378 DUP4 PUSH2 0x1328 JUMP JUMPDEST SWAP3 POP POP PUSH1 0x1 DUP2 ADD SWAP1 POP PUSH2 0x1359 JUMP JUMPDEST POP DUP6 SWAP4 POP POP POP POP SWAP3 SWAP2 POP POP JUMP JUMPDEST PUSH1 0x0 PUSH1 0x20 DUP3 ADD SWAP1 POP DUP2 DUP2 SUB PUSH1 0x0 DUP4 ADD MSTORE PUSH2 0x13AD DUP2 DUP5 PUSH2 0x1335 JUMP JUMPDEST SWAP1 POP SWAP3 SWAP2 POP POP JUMP JUMPDEST PUSH2 0x13BE DUP2 PUSH2 0x1244 JUMP JUMPDEST DUP3 MSTORE POP POP JUMP JUMPDEST PUSH1 0x0 PUSH1 0x20 DUP3 ADD SWAP1 POP PUSH2 0x13D9 PUSH1 0x0 DUP4 ADD DUP5 PUSH2 0x13B5 JUMP JUMPDEST SWAP3 SWAP2 POP POP JUMP JUMPDEST PUSH1 0x0 DUP1 REVERT JUMPDEST PUSH1 0x0 PUSH1 0x1F NOT PUSH1 0x1F DUP4 ADD AND SWAP1 POP SWAP2 SWAP1 POP JUMP JUMPDEST PUSH32 0x4E487B7100000000000000000000000000000000000000000000000000000000 PUSH1 0x0 MSTORE PUSH1 0x41 PUSH1 0x4 MSTORE PUSH1 0x24 PUSH1 0x0 REVERT JUMPDEST PUSH2 0x142D DUP3 PUSH2 0x13E4 JUMP JUMPDEST DUP2 ADD DUP2 DUP2 LT PUSH8 0xFFFFFFFFFFFFFFFF DUP3 GT OR ISZERO PUSH2 0x144C JUMPI PUSH2 0x144B PUSH2 0x13F5 JUMP JUMPDEST JUMPDEST DUP1 PUSH1 0x40 MSTORE POP POP POP JUMP JUMPDEST PUSH1 0x0 PUSH2 0x145F PUSH2 0x1183 JUMP JUMPDEST SWAP1 POP PUSH2 0x146B DUP3 DUP3 PUSH2 0x1424 JUMP JUMPDEST SWAP2 SWAP1 POP JUMP JUMPDEST PUSH1 0x0 PUSH8 0xFFFFFFFFFFFFFFFF DUP3 GT ISZERO PUSH2 0x148B JUMPI PUSH2 0x148A PUSH2 0x13F5 JUMP JUMPDEST JUMPDEST PUSH1 0x20 DUP3 MUL SWAP1 POP PUSH1 0x20 DUP2 ADD SWAP1 POP SWAP2 SWAP1 POP JUMP JUMPDEST PUSH1 0x0 DUP1 REVERT JUMPDEST PUSH1 0x0 PUSH2 0x14B4 PUSH2 0x14AF DUP5 PUSH2 0x1470 JUMP JUMPDEST PUSH2 0x1455 JUMP JUMPDEST SWAP1 POP DUP1 DUP4 DUP3 MSTORE PUSH1 0x20 DUP3 ADD SWAP1 POP PUSH1 0x20 DUP5 MUL DUP4 ADD DUP6 DUP2 GT ISZERO PUSH2 0x14D7 JUMPI PUSH2 0x14D6 PUSH2 0x149C JUMP JUMPDEST JUMPDEST DUP4 JUMPDEST DUP2 DUP2 LT ISZERO PUSH2 0x1500 JUMPI DUP1 PUSH2 0x14EC DUP9 DUP3 PUSH2 0x126D JUMP JUMPDEST DUP5 MSTORE PUSH1 0x20 DUP5 ADD SWAP4 POP POP PUSH1 0x20 DUP2 ADD SWAP1 POP PUSH2 0x14D9 JUMP JUMPDEST POP POP POP SWAP4 SWAP3 POP POP POP JUMP JUMPDEST PUSH1 0x0 DUP3 PUSH1 0x1F DUP4 ADD SLT PUSH2 0x151F JUMPI PUSH2 0x151E PUSH2 0x13DF JUMP JUMPDEST JUMPDEST DUP2 CALLDATALOAD PUSH2 0x152F DUP5 DUP3 PUSH1 0x20 DUP7 ADD PUSH2 0x14A1 JUMP JUMPDEST SWAP2 POP POP SWAP3 SWAP2 POP POP JUMP JUMPDEST PUSH1 0x0 DUP1 PUSH1 0x40 DUP4 DUP6 SUB SLT ISZERO PUSH2 0x154F JUMPI PUSH2 0x154E PUSH2 0x118D JUMP JUMPDEST JUMPDEST PUSH1 0x0 PUSH2 0x155D DUP6 DUP3 DUP7 ADD PUSH2 0x11B8 JUMP JUMPDEST SWAP3 POP POP PUSH1 0x20 DUP4 ADD CALLDATALOAD PUSH8 0xFFFFFFFFFFFFFFFF DUP2 GT ISZERO PUSH2 0x157E JUMPI PUSH2 0x157D PUSH2 0x1192 JUMP JUMPDEST JUMPDEST PUSH2 0x158A DUP6 DUP3 DUP7 ADD PUSH2 0x150A JUMP JUMPDEST SWAP2 POP POP SWAP3 POP SWAP3 SWAP1 POP JUMP JUMPDEST PUSH1 0x0 DUP2 MLOAD SWAP1 POP SWAP2 SWAP1 POP JUMP JUMPDEST PUSH1 0x0 DUP3 DUP3 MSTORE PUSH1 0x20 DUP3 ADD SWAP1 POP SWAP3 SWAP2 POP POP JUMP JUMPDEST PUSH1 0x0 DUP2 SWAP1 POP PUSH1 0x20 DUP3 ADD SWAP1 POP SWAP2 SWAP1 POP JUMP JUMPDEST PUSH32 0x4E487B7100000000000000000000000000000000000000000000000000000000 PUSH1 0x0 MSTORE PUSH1 0x21 PUSH1 0x4 MSTORE PUSH1 0x24 PUSH1 0x0 REVERT JUMPDEST PUSH1 0x2 DUP2 LT PUSH2 0x1600 JUMPI PUSH2 0x15FF PUSH2 0x15C0 JUMP JUMPDEST JUMPDEST POP JUMP JUMPDEST PUSH1 0x0 DUP2 SWAP1 POP PUSH2 0x1611 DUP3 PUSH2 0x15EF JUMP JUMPDEST SWAP2 SWAP1 POP JUMP JUMPDEST PUSH1 0x0 PUSH2 0x1621 DUP3 PUSH2 0x1603 JUMP JUMPDEST SWAP1 POP SWAP2 SWAP1 POP JUMP JUMPDEST PUSH2 0x1631 DUP2 PUSH2 0x1616 JUMP JUMPDEST DUP3 MSTORE POP POP JUMP JUMPDEST PUSH1 0x80 DUP3 ADD PUSH1 0x0 DUP3 ADD MLOAD PUSH2 0x164D PUSH1 0x0 DUP6 ADD DUP3 PUSH2 0x1301 JUMP JUMPDEST POP PUSH1 0x20 DUP3 ADD MLOAD PUSH2 0x1660 PUSH1 0x20 DUP6 ADD DUP3 PUSH2 0x1301 JUMP JUMPDEST POP PUSH1 0x40 DUP3 ADD MLOAD PUSH2 0x1673 PUSH1 0x40 DUP6 ADD DUP3 PUSH2 0x1301 JUMP JUMPDEST POP PUSH1 0x60 DUP3 ADD MLOAD PUSH2 0x1686 PUSH1 0x60 DUP6 ADD DUP3 PUSH2 0x1628 JUMP JUMPDEST POP POP POP POP JUMP JUMPDEST PUSH1 0x0 PUSH2 0x1698 DUP4 DUP4 PUSH2 0x1637 JUMP JUMPDEST PUSH1 0x80 DUP4 ADD SWAP1 POP SWAP3 SWAP2 POP POP JUMP JUMPDEST PUSH1 0x0 PUSH1 0x20 DUP3 ADD SWAP1 POP SWAP2 SWAP1 POP JUMP JUMPDEST PUSH1 0x0 PUSH2 0x16BC DUP3 PUSH2 0x1594 JUMP JUMPDEST PUSH2 0x16C6 DUP2 DUP6 PUSH2 0x159F JUMP JUMPDEST SWAP4 POP PUSH2 0x16D1 DUP4 PUSH2 0x15B0 JUMP JUMPDEST DUP1 PUSH1 0x0 JUMPDEST DUP4 DUP2 LT ISZERO PUSH2 0x1702 JUMPI DUP2 MLOAD PUSH2 0x16E9 DUP9 DUP3 PUSH2 0x168C JUMP JUMPDEST SWAP8 POP PUSH2 0x16F4 DUP4 PUSH2 0x16A4 JUMP JUMPDEST SWAP3 POP POP PUSH1 0x1 DUP2 ADD SWAP1 POP PUSH2 0x16D5 JUMP JUMPDEST POP DUP6 SWAP4 POP POP POP POP SWAP3 SWAP2 POP POP JUMP JUMPDEST PUSH1 0x0 PUSH1 0x20 DUP3 ADD SWAP1 POP DUP2 DUP2 SUB PUSH1 0x0 DUP4 ADD MSTORE PUSH2 0x1729 DUP2 DUP5 PUSH2 0x16B1 JUMP JUMPDEST SWAP1 POP SWAP3 SWAP2 POP POP JUMP JUMPDEST PUSH1 0x0 DUP3 DUP3 MSTORE PUSH1 0x20 DUP3 ADD SWAP1 POP SWAP3 SWAP2 POP POP JUMP JUMPDEST PUSH32 0x4F6E6C79206F776E65722063616E2063616C6C20746869732066756E6374696F PUSH1 0x0 DUP3 ADD MSTORE PUSH32 0x6E00000000000000000000000000000000000000000000000000000000000000 PUSH1 0x20 DUP3 ADD MSTORE POP JUMP JUMPDEST PUSH1 0x0 PUSH2 0x179E PUSH1 0x21 DUP4 PUSH2 0x1731 JUMP JUMPDEST SWAP2 POP PUSH2 0x17A9 DUP3 PUSH2 0x1742 JUMP JUMPDEST PUSH1 0x40 DUP3 ADD SWAP1 POP SWAP2 SWAP1 POP JUMP JUMPDEST PUSH1 0x0 PUSH1 0x20 DUP3 ADD SWAP1 POP DUP2 DUP2 SUB PUSH1 0x0 DUP4 ADD MSTORE PUSH2 0x17CD DUP2 PUSH2 0x1791 JUMP JUMPDEST SWAP1 POP SWAP2 SWAP1 POP JUMP JUMPDEST PUSH32 0x546F75726E616D656E7420646F6573206E6F7420657869737400000000000000 PUSH1 0x0 DUP3 ADD MSTORE POP JUMP JUMPDEST PUSH1 0x0 PUSH2 0x180A PUSH1 0x19 DUP4 PUSH2 0x1731 JUMP JUMPDEST SWAP2 POP PUSH2 0x1815 DUP3 PUSH2 0x17D4 JUMP JUMPDEST PUSH1 0x20 DUP3 ADD SWAP1 POP SWAP2 SWAP1 POP JUMP JUMPDEST PUSH1 0x0 PUSH1 0x20 DUP3 ADD SWAP1 POP DUP2 DUP2 SUB PUSH1 0x0 DUP4 ADD MSTORE PUSH2 0x1839 DUP2 PUSH2 0x17FD JUMP JUMPDEST SWAP1 POP SWAP2 SWAP1 POP JUMP JUMPDEST PUSH1 0x0 PUSH1 0x40 DUP3 ADD SWAP1 POP PUSH2 0x1855 PUSH1 0x0 DUP4 ADD DUP6 PUSH2 0x11FA JUMP JUMPDEST PUSH2 0x1862 PUSH1 0x20 DUP4 ADD DUP5 PUSH2 0x11FA JUMP JUMPDEST SWAP4 SWAP3 POP POP POP JUMP JUMPDEST PUSH32 0x4E487B7100000000000000000000000000000000000000000000000000000000 PUSH1 0x0 MSTORE PUSH1 0x11 PUSH1 0x4 MSTORE PUSH1 0x24 PUSH1 0x0 REVERT JUMPDEST PUSH1 0x0 PUSH2 0x18A3 DUP3 PUSH2 0x1197 JUMP JUMPDEST SWAP2 POP PUSH2 0x18AE DUP4 PUSH2 0x1197 JUMP JUMPDEST SWAP3 POP DUP3 DUP3 SUB SWAP1 POP DUP2 DUP2 GT ISZERO PUSH2 0x18C6 JUMPI PUSH2 0x18C5 PUSH2 0x1869 JUMP JUMPDEST JUMPDEST SWAP3 SWAP2 POP POP JUMP JUMPDEST PUSH32 0x546F75726E616D656E74206E6F742066696E6973686564000000000000000000 PUSH1 0x0 DUP3 ADD MSTORE POP JUMP JUMPDEST PUSH1 0x0 PUSH2 0x1902 PUSH1 0x17 DUP4 PUSH2 0x1731 JUMP JUMPDEST SWAP2 POP PUSH2 0x190D DUP3 PUSH2 0x18CC JUMP JUMPDEST PUSH1 0x20 DUP3 ADD SWAP1 POP SWAP2 SWAP1 POP JUMP JUMPDEST PUSH1 0x0 PUSH1 0x20 DUP3 ADD SWAP1 POP DUP2 DUP2 SUB PUSH1 0x0 DUP4 ADD MSTORE PUSH2 0x1931 DUP2 PUSH2 0x18F5 JUMP JUMPDEST SWAP1 POP SWAP2 SWAP1 POP JUMP JUMPDEST PUSH1 0x0 PUSH2 0x1943 DUP3 PUSH2 0x1197 JUMP JUMPDEST SWAP2 POP PUSH2 0x194E DUP4 PUSH2 0x1197 JUMP JUMPDEST SWAP3 POP DUP3 DUP3 MUL PUSH2 0x195C DUP2 PUSH2 0x1197 JUMP JUMPDEST SWAP2 POP DUP3 DUP3 DIV DUP5 EQ DUP4 ISZERO OR PUSH2 0x1973 JUMPI PUSH2 0x1972 PUSH2 0x1869 JUMP JUMPDEST JUMPDEST POP SWAP3 SWAP2 POP POP JUMP JUMPDEST PUSH32 0x4E487B7100000000000000000000000000000000000000000000000000000000 PUSH1 0x0 MSTORE PUSH1 0x12 PUSH1 0x4 MSTORE PUSH1 0x24 PUSH1 0x0 REVERT JUMPDEST PUSH1 0x0 PUSH2 0x19B4 DUP3 PUSH2 0x1197 JUMP JUMPDEST SWAP2 POP PUSH2 0x19BF DUP4 PUSH2 0x1197 JUMP JUMPDEST SWAP3 POP DUP3 PUSH2 0x19CF JUMPI PUSH2 0x19CE PUSH2 0x197A JUMP JUMPDEST JUMPDEST DUP3 DUP3 DIV SWAP1 POP SWAP3 SWAP2 POP POP JUMP JUMPDEST PUSH32 0x4E487B7100000000000000000000000000000000000000000000000000000000 PUSH1 0x0 MSTORE PUSH1 0x32 PUSH1 0x4 MSTORE PUSH1 0x24 PUSH1 0x0 REVERT JUMPDEST PUSH1 0x0 PUSH2 0x1A14 DUP3 PUSH2 0x1197 JUMP JUMPDEST SWAP2 POP PUSH2 0x1A1F DUP4 PUSH2 0x1197 JUMP JUMPDEST SWAP3 POP DUP3 DUP3 ADD SWAP1 POP DUP1 DUP3 GT ISZERO PUSH2 0x1A37 JUMPI PUSH2 0x1A36 PUSH2 0x1869 JUMP JUMPDEST JUMPDEST SWAP3 SWAP2 POP POP JUMP JUMPDEST PUSH1 0x0 PUSH2 0x1A48 DUP3 PUSH2 0x1197 JUMP JUMPDEST SWAP2 POP PUSH32 0xFFFFFFFFFFFFFFFFFFFFFFFFFFFFFFFFFFFFFFFFFFFFFFFFFFFFFFFFFFFFFFFF DUP3 SUB PUSH2 0x1A7A JUMPI PUSH2 0x1A79 PUSH2 0x1869 JUMP JUMPDEST JUMPDEST PUSH1 0x1 DUP3 ADD SWAP1 POP SWAP2 SWAP1 POP JUMP JUMPDEST PUSH32 0x496E76616C6964206D6174636820696E64657800000000000000000000000000 PUSH1 0x0 DUP3 ADD MSTORE POP JUMP JUMPDEST PUSH1 0x0 PUSH2 0x1ABB PUSH1 0x13 DUP4 PUSH2 0x1731 JUMP JUMPDEST SWAP2 POP PUSH2 0x1AC6 DUP3 PUSH2 0x1A85 JUMP JUMPDEST PUSH1 0x20 DUP3 ADD SWAP1 POP SWAP2 SWAP1 POP JUMP JUMPDEST PUSH1 0x0 PUSH1 0x20 DUP3 ADD SWAP1 POP DUP2 DUP2 SUB PUSH1 0x0 DUP4 ADD MSTORE PUSH2 0x1AEA DUP2 PUSH2 0x1AAE JUMP JUMPDEST SWAP1 POP SWAP2 SWAP1 POP JUMP JUMPDEST PUSH32 0x4D6174636820616C726561647920636F6D706C65746564000000000000000000 PUSH1 0x0 DUP3 ADD MSTORE POP JUMP JUMPDEST PUSH1 0x0 PUSH2 0x1B27 PUSH1 0x17 DUP4 PUSH2 0x1731 JUMP JUMPDEST SWAP2 POP PUSH2 0x1B32 DUP3 PUSH2 0x1AF1 JUMP JUMPDEST PUSH1 0x20 DUP3 ADD SWAP1 POP SWAP2 SWAP1 POP JUMP JUMPDEST PUSH1 0x0 PUSH1 0x20 DUP3 ADD SWAP1 POP DUP2 DUP2 SUB PUSH1 0x0 DUP4 ADD MSTORE PUSH2 0x1B56 DUP2 PUSH2 0x1B1A JUMP JUMPDEST SWAP1 POP SWAP2 SWAP1 POP JUMP JUMPDEST PUSH1 0x0 PUSH1 0x40 DUP3 ADD SWAP1 POP PUSH2 0x1B72 PUSH1 0x0 DUP4 ADD DUP6 PUSH2 0x11FA JUMP JUMPDEST PUSH2 0x1B7F PUSH1 0x20 DUP4 ADD DUP5 PUSH2 0x13B5 JUMP JUMPDEST SWAP4 SWAP3 POP POP POP JUMP JUMPDEST PUSH32 0x546F75726E616D656E742068617320616C726561647920737461727465640000 PUSH1 0x0 DUP3 ADD MSTORE POP JUMP JUMPDEST PUSH1 0x0 PUSH2 0x1BBC PUSH1 0x1E DUP4 PUSH2 0x1731 JUMP JUMPDEST SWAP2 POP PUSH2 0x1BC7 DUP3 PUSH2 0x1B86 JUMP JUMPDEST PUSH1 0x20 DUP3 ADD SWAP1 POP SWAP2 SWAP1 POP JUMP JUMPDEST PUSH1 0x0 PUSH1 0x20 DUP3 ADD SWAP1 POP DUP2 DUP2 SUB PUSH1 0x0 DUP4 ADD MSTORE PUSH2 0x1BEB DUP2 PUSH2 0x1BAF JUMP JUMPDEST SWAP1 POP SWAP2 SWAP1 POP JUMP JUMPDEST PUSH32 0x4E756D626572206F66207465616D73206D7573742062652038206F7220313600 PUSH1 0x0 DUP3 ADD MSTORE POP JUMP JUMPDEST PUSH1 0x0 PUSH2 0x1C28 PUSH1 0x1F DUP4 PUSH2 0x1731 JUMP JUMPDEST SWAP2 POP PUSH2 0x1C33 DUP3 PUSH2 0x1BF2 JUMP JUMPDEST PUSH1 0x20 DUP3 ADD SWAP1 POP SWAP2 SWAP1 POP JUMP JUMPDEST PUSH1 0x0 PUSH1 0x20 DUP3 ADD SWAP1 POP DUP2 DUP2 SUB PUSH1 0x0 DUP4 ADD MSTORE PUSH2 0x1C57 DUP2 PUSH2 0x1C1B JUMP JUMPDEST SWAP1 POP SWAP2 SWAP1 POP JUMP INVALID LOG2 PUSH5 0x6970667358 0x22 SLT KECCAK256 0xE4 0xFB CREATE JUMP 0x1F PUSH20 0xED7FC3176D9E923A6D10ABBA7295138E54BE59A 0x1E 0xBC EXTCODESIZE PUSH8 0xE15264736F6C6343 STOP ADDMOD SLT STOP CALLER "
				},
				"gasEstimates": {
					"creation": {
						"codeDepositCost": "1463200",
						"executionCost": "25793",
						"totalCost": "1488993"
					},
					"external": {
						"completeMatch(uint256,uint256,address)": "infinite",
						"createTournament(uint256,address[])": "infinite",
						"distributeRewards(uint256)": "infinite",
						"getTournamentMatches(uint256)": "infinite",
						"getTournamentTeams(uint256)": "infinite",
						"owner()": "2533",
						"rewardPool()": "2474",
						"startTournament(uint256)": "infinite"
					}
				},
				"methodIdentifiers": {
					"completeMatch(uint256,uint256,address)": "6f4cf972",
					"createTournament(uint256,address[])": "be5973d6",
					"distributeRewards(uint256)": "59974e38",
					"getTournamentMatches(uint256)": "d8c57e85",
					"getTournamentTeams(uint256)": "87c2825f",
					"owner()": "8da5cb5b",
					"rewardPool()": "66666aa9",
					"startTournament(uint256)": "651ea943"
				}
			},
			"storageLayout": {
				"storage": [
					{
						"astId": 3,
						"contract": "contracts/Tournament.sol:Tournament",
						"label": "owner",
						"offset": 0,
						"slot": "0",
						"type": "t_address"
					},
					{
						"astId": 5,
						"contract": "contracts/Tournament.sol:Tournament",
						"label": "rewardPool",
						"offset": 0,
						"slot": "1",
						"type": "t_uint256"
					},
					{
						"astId": 31,
						"contract": "contracts/Tournament.sol:Tournament",
						"label": "tournaments",
						"offset": 0,
						"slot": "2",
						"type": "t_mapping(t_uint256,t_struct(TournamentInfo)26_storage)"
					}
				],
				"types": {
					"t_address": {
						"encoding": "inplace",
						"label": "address",
						"numberOfBytes": "20"
					},
					"t_array(t_address)dyn_storage": {
						"base": "t_address",
						"encoding": "dynamic_array",
						"label": "address[]",
						"numberOfBytes": "32"
					},
					"t_array(t_struct(Match)18_storage)dyn_storage": {
						"base": "t_struct(Match)18_storage",
						"encoding": "dynamic_array",
						"label": "struct Tournament.Match[]",
						"numberOfBytes": "32"
					},
					"t_enum(MatchStatus)8": {
						"encoding": "inplace",
						"label": "enum Tournament.MatchStatus",
						"numberOfBytes": "1"
					},
					"t_mapping(t_uint256,t_struct(TournamentInfo)26_storage)": {
						"encoding": "mapping",
						"key": "t_uint256",
						"label": "mapping(uint256 => struct Tournament.TournamentInfo)",
						"numberOfBytes": "32",
						"value": "t_struct(TournamentInfo)26_storage"
					},
					"t_struct(Match)18_storage": {
						"encoding": "inplace",
						"label": "struct Tournament.Match",
						"members": [
							{
								"astId": 10,
								"contract": "contracts/Tournament.sol:Tournament",
								"label": "team1",
								"offset": 0,
								"slot": "0",
								"type": "t_address"
							},
							{
								"astId": 12,
								"contract": "contracts/Tournament.sol:Tournament",
								"label": "team2",
								"offset": 0,
								"slot": "1",
								"type": "t_address"
							},
							{
								"astId": 14,
								"contract": "contracts/Tournament.sol:Tournament",
								"label": "winner",
								"offset": 0,
								"slot": "2",
								"type": "t_address"
							},
							{
								"astId": 17,
								"contract": "contracts/Tournament.sol:Tournament",
								"label": "status",
								"offset": 20,
								"slot": "2",
								"type": "t_enum(MatchStatus)8"
							}
						],
						"numberOfBytes": "96"
					},
					"t_struct(TournamentInfo)26_storage": {
						"encoding": "inplace",
						"label": "struct Tournament.TournamentInfo",
						"members": [
							{
								"astId": 22,
								"contract": "contracts/Tournament.sol:Tournament",
								"label": "matches",
								"offset": 0,
								"slot": "0",
								"type": "t_array(t_struct(Match)18_storage)dyn_storage"
							},
							{
								"astId": 25,
								"contract": "contracts/Tournament.sol:Tournament",
								"label": "teams",
								"offset": 0,
								"slot": "1",
								"type": "t_array(t_address)dyn_storage"
							}
						],
						"numberOfBytes": "64"
					},
					"t_uint256": {
						"encoding": "inplace",
						"label": "uint256",
						"numberOfBytes": "32"
					}
				}
			},
			"userdoc": {
				"kind": "user",
				"methods": {},
				"version": 1
			}
		}
	}
}